{
  "contractName": "Coupon",
  "abi": [
    {
      "inputs": [],
      "payable": false,
      "stateMutability": "nonpayable",
      "type": "constructor"
    },
    {
      "anonymous": false,
      "inputs": [
        {
          "indexed": false,
          "internalType": "uint256",
          "name": "id",
          "type": "uint256"
        },
        {
          "indexed": false,
          "internalType": "address",
          "name": "owner",
          "type": "address"
        },
        {
          "indexed": false,
          "internalType": "bool",
          "name": "valid",
          "type": "bool"
        },
        {
          "indexed": false,
          "internalType": "string",
          "name": "msg",
          "type": "string"
        }
      ],
      "name": "CouponPaperCreated",
      "type": "event"
    },
    {
      "anonymous": false,
      "inputs": [
        {
          "indexed": false,
          "internalType": "uint256",
          "name": "id",
          "type": "uint256"
        },
        {
          "indexed": false,
          "internalType": "address",
          "name": "originalOwner",
          "type": "address"
        },
        {
          "indexed": false,
          "internalType": "address",
          "name": "owner",
          "type": "address"
        },
        {
          "indexed": false,
          "internalType": "bool",
          "name": "valid",
          "type": "bool"
        },
        {
          "indexed": false,
          "internalType": "string",
          "name": "msg",
          "type": "string"
        }
      ],
      "name": "CouponPaperOwnerChange",
      "type": "event"
    },
    {
      "anonymous": false,
      "inputs": [
        {
          "indexed": false,
          "internalType": "uint256",
          "name": "_id",
          "type": "uint256"
        },
        {
          "indexed": false,
          "internalType": "address",
          "name": "originalOwner",
          "type": "address"
        },
        {
          "indexed": false,
          "internalType": "string",
          "name": "msg",
          "type": "string"
        }
      ],
      "name": "exchangeCoupnTrx",
      "type": "event"
    },
    {
      "constant": true,
      "inputs": [],
      "name": "couponCount",
      "outputs": [
        {
          "internalType": "uint256",
          "name": "",
          "type": "uint256"
        }
      ],
      "payable": false,
      "stateMutability": "view",
      "type": "function"
    },
    {
      "constant": true,
      "inputs": [
        {
          "internalType": "address",
          "name": "",
          "type": "address"
        },
        {
          "internalType": "uint256",
          "name": "",
          "type": "uint256"
        }
      ],
      "name": "couponYearlyBalances",
      "outputs": [
        {
          "internalType": "uint256",
          "name": "",
          "type": "uint256"
        }
      ],
      "payable": false,
      "stateMutability": "view",
      "type": "function"
    },
    {
      "constant": true,
      "inputs": [
        {
          "internalType": "uint256",
          "name": "",
          "type": "uint256"
        }
      ],
      "name": "coupons",
      "outputs": [
        {
          "internalType": "uint256",
          "name": "id",
          "type": "uint256"
        },
        {
          "internalType": "address",
          "name": "owner",
          "type": "address"
        },
        {
          "internalType": "uint256",
          "name": "value",
          "type": "uint256"
        },
        {
          "internalType": "string",
          "name": "status",
          "type": "string"
        },
        {
          "internalType": "bool",
          "name": "valid",
          "type": "bool"
        }
      ],
      "payable": false,
      "stateMutability": "view",
      "type": "function"
    },
    {
      "constant": true,
      "inputs": [
        {
          "internalType": "address",
          "name": "",
          "type": "address"
        }
      ],
      "name": "empCouponsValueToPay",
      "outputs": [
        {
          "internalType": "uint256",
          "name": "",
          "type": "uint256"
        }
      ],
      "payable": false,
      "stateMutability": "view",
      "type": "function"
    },
    {
      "constant": false,
      "inputs": [
        {
          "internalType": "string",
          "name": "_name",
          "type": "string"
        }
      ],
      "name": "setName",
      "outputs": [],
      "payable": false,
      "stateMutability": "nonpayable",
      "type": "function"
    },
    {
      "constant": true,
      "inputs": [],
      "name": "getName",
      "outputs": [
        {
          "internalType": "string",
          "name": "",
          "type": "string"
        }
      ],
      "payable": false,
      "stateMutability": "view",
      "type": "function"
    },
    {
      "constant": false,
      "inputs": [],
      "name": "issueCoupon",
      "outputs": [],
      "payable": false,
      "stateMutability": "nonpayable",
      "type": "function"
    },
    {
      "constant": false,
      "inputs": [
        {
          "internalType": "uint256",
          "name": "_id",
          "type": "uint256"
        }
      ],
      "name": "changeOwnership",
      "outputs": [],
      "payable": false,
      "stateMutability": "nonpayable",
      "type": "function"
    },
    {
      "constant": false,
      "inputs": [
        {
          "internalType": "uint256",
          "name": "_id",
          "type": "uint256"
        }
      ],
      "name": "exchangeCoupon",
      "outputs": [],
      "payable": false,
      "stateMutability": "nonpayable",
      "type": "function"
    }
  ],
  "bytecode": "0x60806040523480156200001157600080fd5b506040518060400160405280601b81526020017f436f75706f6e20636f6e747261637420696e697469616c697365640000000000815250600090805190602001906200005f929190620000af565b5033600160006101000a81548173ffffffffffffffffffffffffffffffffffffffff021916908373ffffffffffffffffffffffffffffffffffffffff16021790555060006002819055506200015e565b828054600181600116156101000203166002900490600052602060002090601f016020900481019282601f10620000f257805160ff191683800117855562000123565b8280016001018555821562000123579182015b828111156200012257825182559160200191906001019062000105565b5b50905062000132919062000136565b5090565b6200015b91905b80821115620001575760008160009055506001016200013d565b5090565b90565b6112a6806200016e6000396000f3fe608060405234801561001057600080fd5b50600436106100935760003560e01c8063c29f83d811610066578063c29f83d8146102c8578063c47f0027146102d2578063d0e239231461038d578063dc0d569a146103ab578063efda2fca146103d957610093565b80630dcf2bd81461009857806317d7de7c146100fa5780631dbbcfc81461017d57806330828e92146101d5575b600080fd5b6100e4600480360360408110156100ae57600080fd5b81019080803573ffffffffffffffffffffffffffffffffffffffff16906020019092919080359060200190929190505050610407565b6040518082815260200191505060405180910390f35b61010261042c565b6040518080602001828103825283818151815260200191508051906020019080838360005b83811015610142578082015181840152602081019050610127565b50505050905090810190601f16801561016f5780820380516001836020036101000a031916815260200191505b509250505060405180910390f35b6101bf6004803603602081101561019357600080fd5b81019080803573ffffffffffffffffffffffffffffffffffffffff1690602001909291905050506104ce565b6040518082815260200191505060405180910390f35b610201600480360360208110156101eb57600080fd5b81019080803590602001909291905050506104e6565b604051808681526020018573ffffffffffffffffffffffffffffffffffffffff1673ffffffffffffffffffffffffffffffffffffffff1681526020018481526020018060200183151515158152602001828103825284818151815260200191508051906020019080838360005b8381101561028957808201518184015260208101905061026e565b50505050905090810190601f1680156102b65780820380516001836020036101000a031916815260200191505b50965050505050505060405180910390f35b6102d06105e1565b005b61038b600480360360208110156102e857600080fd5b810190808035906020019064010000000081111561030557600080fd5b82018360208201111561031757600080fd5b8035906020019184600183028401116401000000008311171561033957600080fd5b91908080601f016020809104026020016040519081016040528093929190818152602001838380828437600081840152601f19601f8201169050808301925050505050505091929192905050506107d0565b005b6103956107ea565b6040518082815260200191505060405180910390f35b6103d7600480360360208110156103c157600080fd5b81019080803590602001909291905050506107f0565b005b610405600480360360208110156103ef57600080fd5b8101908080359060200190929190505050610b8f565b005b6004602052816000526040600020602052806000526040600020600091509150505481565b606060008054600181600116156101000203166002900480601f0160208091040260200160405190810160405280929190818152602001828054600181600116156101000203166002900480156104c45780601f10610499576101008083540402835291602001916104c4565b820191906000526020600020905b8154815290600101906020018083116104a757829003601f168201915b5050505050905090565b60056020528060005260406000206000915090505481565b60036020528060005260406000206000915090508060000154908060010160009054906101000a900473ffffffffffffffffffffffffffffffffffffffff1690806002015490806003018054600181600116156101000203166002900480601f0160208091040260200160405190810160405280929190818152602001828054600181600116156101000203166002900480156105c45780601f10610599576101008083540402835291602001916105c4565b820191906000526020600020905b8154815290600101906020018083116105a757829003601f168201915b5050505050908060040160009054906101000a900460ff16905085565b6002600081548092919060010191905055506040518060a0016040528060025481526020013373ffffffffffffffffffffffffffffffffffffffff168152602001600181526020016040518060400160405280600781526020017f63726561746564000000000000000000000000000000000000000000000000008152508152602001600115158152506003600060025481526020019081526020016000206000820151816000015560208201518160010160006101000a81548173ffffffffffffffffffffffffffffffffffffffff021916908373ffffffffffffffffffffffffffffffffffffffff1602179055506040820151816002015560608201518160030190805190602001906106f7929190611105565b5060808201518160040160006101000a81548160ff0219169083151502179055509050507f2971a82072a1b29fd1941ada5b32f5b5aad07e668299b78328e9904e762cb9be600254336001604051808481526020018373ffffffffffffffffffffffffffffffffffffffff1673ffffffffffffffffffffffffffffffffffffffff1681526020018215151515815260200180602001828103825260078152602001807f737563636573730000000000000000000000000000000000000000000000000081525060200194505050505060405180910390a1565b80600090805190602001906107e6929190611185565b5050565b60025481565b6107f8611205565b600360008381526020019081526020016000206040518060a0016040529081600082015481526020016001820160009054906101000a900473ffffffffffffffffffffffffffffffffffffffff1673ffffffffffffffffffffffffffffffffffffffff1673ffffffffffffffffffffffffffffffffffffffff16815260200160028201548152602001600382018054600181600116156101000203166002900480601f0160208091040260200160405190810160405280929190818152602001828054600181600116156101000203166002900480156109195780601f106108ee57610100808354040283529160200191610919565b820191906000526020600020905b8154815290600101906020018083116108fc57829003601f168201915b505050505081526020016004820160009054906101000a900460ff1615151515815250509050600081602001519050600082604001519050600160009054906101000a900473ffffffffffffffffffffffffffffffffffffffff16836020019073ffffffffffffffffffffffffffffffffffffffff16908173ffffffffffffffffffffffffffffffffffffffff16815250506040518060400160405280600981526020017f65786368616e6765640000000000000000000000000000000000000000000000815250836060018190525082600360008681526020019081526020016000206000820151816000015560208201518160010160006101000a81548173ffffffffffffffffffffffffffffffffffffffff021916908373ffffffffffffffffffffffffffffffffffffffff160217905550604082015181600201556060820151816003019080519060200190610a74929190611105565b5060808201518160040160006101000a81548160ff02191690831515021790555090505080600560008473ffffffffffffffffffffffffffffffffffffffff1673ffffffffffffffffffffffffffffffffffffffff168152602001908152602001600020600082825401925050819055507fa6cbb7d62f6de8d1eca0480a3d3b4cb7219c27bd7faab75534026bfdc73998c68483604051808381526020018273ffffffffffffffffffffffffffffffffffffffff1673ffffffffffffffffffffffffffffffffffffffff16815260200180602001828103825260078152602001807f7375636365737300000000000000000000000000000000000000000000000000815250602001935050505060405180910390a150505050565b6000610b99611097565b15610fad57610ba6611205565b600360008481526020019081526020016000206040518060a0016040529081600082015481526020016001820160009054906101000a900473ffffffffffffffffffffffffffffffffffffffff1673ffffffffffffffffffffffffffffffffffffffff1673ffffffffffffffffffffffffffffffffffffffff16815260200160028201548152602001600382018054600181600116156101000203166002900480601f016020809104026020016040519081016040528092919081815260200182805460018160011615610100020316600290048015610cc75780601f10610c9c57610100808354040283529160200191610cc7565b820191906000526020600020905b815481529060010190602001808311610caa57829003601f168201915b505050505081526020016004820160009054906101000a900460ff1615151515815250509050806020015191508060800151610d0257600080fd5b3373ffffffffffffffffffffffffffffffffffffffff168273ffffffffffffffffffffffffffffffffffffffff161415610d3b57600080fd5b33816020019073ffffffffffffffffffffffffffffffffffffffff16908173ffffffffffffffffffffffffffffffffffffffff16815250506040518060400160405280600581526020017f6f776e6564000000000000000000000000000000000000000000000000000000815250816060018190525080600360008581526020019081526020016000206000820151816000015560208201518160010160006101000a81548173ffffffffffffffffffffffffffffffffffffffff021916908373ffffffffffffffffffffffffffffffffffffffff160217905550604082015181600201556060820151816003019080519060200190610e3c929190611105565b5060808201518160040160006101000a81548160ff021916908315150217905550905050600460003373ffffffffffffffffffffffffffffffffffffffff1673ffffffffffffffffffffffffffffffffffffffff16815260200190815260200160002060006107e58152602001908152602001600020600081548092919060010191905055507f13841a114cc3a8df401eaa5c7e3339b9623bc9b6d4a140eaf92421c0dcf43b2b8383336001604051808581526020018473ffffffffffffffffffffffffffffffffffffffff1673ffffffffffffffffffffffffffffffffffffffff1681526020018373ffffffffffffffffffffffffffffffffffffffff1673ffffffffffffffffffffffffffffffffffffffff1681526020018215151515815260200180602001828103825260078152602001807f73756363657373000000000000000000000000000000000000000000000000008152506020019550505050505060405180910390a150611093565b7f13841a114cc3a8df401eaa5c7e3339b9623bc9b6d4a140eaf92421c0dcf43b2b8282336001604051808581526020018473ffffffffffffffffffffffffffffffffffffffff1673ffffffffffffffffffffffffffffffffffffffff1681526020018373ffffffffffffffffffffffffffffffffffffffff1673ffffffffffffffffffffffffffffffffffffffff1681526020018215151515815260200180602001828103825260078152602001807f6661696c757265000000000000000000000000000000000000000000000000008152506020019550505050505060405180910390a15b5050565b60006005600460003373ffffffffffffffffffffffffffffffffffffffff1673ffffffffffffffffffffffffffffffffffffffff16815260200190815260200160002060006107e581526020019081526020016000205410156110fd5760019050611102565b600090505b90565b828054600181600116156101000203166002900490600052602060002090601f016020900481019282601f1061114657805160ff1916838001178555611174565b82800160010185558215611174579182015b82811115611173578251825591602001919060010190611158565b5b509050611181919061124c565b5090565b828054600181600116156101000203166002900490600052602060002090601f016020900481019282601f106111c657805160ff19168380011785556111f4565b828001600101855582156111f4579182015b828111156111f35782518255916020019190600101906111d8565b5b509050611201919061124c565b5090565b6040518060a0016040528060008152602001600073ffffffffffffffffffffffffffffffffffffffff16815260200160008152602001606081526020016000151581525090565b61126e91905b8082111561126a576000816000905550600101611252565b5090565b9056fea265627a7a72315820b115e553e1997f75c9590dbad5dfb8a1a112fba459645b9fd77dda21a56bc43364736f6c63430005100032",
  "source": "pragma solidity ^0.5.0;\n\ncontract Coupon {\n  string name; \n  address owner;\n  uint public couponCount; \n  \n  struct CouponPaper {\n    uint id;\n    address owner;\n    uint value;\n    string status;\n    bool valid;\n  } \n\n  event CouponPaperCreated(\n    uint id,\n    address owner,\n    bool valid,\n    string msg\n  );\n\n  event CouponPaperOwnerChange (\n    uint id,\n    address originalOwner,\n    address owner,\n    bool valid,\n    string msg\n  );\n  \n  event exchangeCoupnTrx ( \n      uint _id, \n      address originalOwner, \n      string msg );\n  \n\n mapping(uint => CouponPaper) public coupons;\n //holds the number of coupons issued for the employee\n mapping(address => mapping(uint => uint)) public couponYearlyBalances;\n //stores incremental value of employee coupons value to be paid\n mapping(address => uint) public empCouponsValueToPay;\n\n  constructor() public {\n    name = \"Coupon contract initialised\";\n    owner = msg.sender;\n    couponCount = 0;\n  }\n\n  function setName(string memory _name) public { \n    name = _name;\n  }\n\n  function getName() public view returns (string memory) {\n    return name;\n  }\n\n  function issueCoupon() public {\n    couponCount ++;\n    coupons[couponCount] = CouponPaper(couponCount,msg.sender, 1, \"created\", true);\n\n    emit CouponPaperCreated(couponCount, msg.sender, true, \"success\");\n  }\n\n  function changeOwnership(uint _id) public {\n        address originalOwner;\n        //check if employee can still receive free coupons\n        if(canreceiveCoupon()) {\n        // Fetch the coupon based on the _id\n        CouponPaper memory _coupon = coupons[_id];\n        originalOwner = _coupon.owner;\n        require(_coupon.valid);\n        require(originalOwner != msg.sender);\n        _coupon.owner = msg.sender;\n        _coupon.status = \"owned\";\n        coupons[_id] = _coupon;\n        \n        // increase employee coupons couponYearlyBalances\n        couponYearlyBalances[msg.sender][2021] ++;\n        // Trigger an event\n        emit CouponPaperOwnerChange(_id, originalOwner, msg.sender, true, \"success\");\n        } else {\n            emit CouponPaperOwnerChange(_id, originalOwner, msg.sender, true, \"failure\");\n        }\n        \n  }\n\n function canreceiveCoupon() private view returns(bool) {\n     if(couponYearlyBalances[msg.sender][2021] < 5) {\n         return true;\n     } else {\n         return false;\n     }\n }\n \n function exchangeCoupon(uint _id) public {\n     CouponPaper memory _coupon = coupons[_id];\n     address originalOwner = _coupon.owner;\n     uint couponValue = _coupon.value;\n     //reset coupon to HR\n     _coupon.owner = owner;\n     _coupon.status = \"exchanged\"; \n     coupons[_id] = _coupon;\n     \n     //transfer coupon value to employee address for later valuation and payment\n     empCouponsValueToPay[originalOwner] += couponValue;\n     emit exchangeCoupnTrx(_id, originalOwner, \"success\");\n }\n\n}",
  "sourcePath": "/Users/wissamdagher/Documents/dev/blockchain/marketplace/src/contracts/Coupon.sol",
  "compiler": {
    "name": "solc",
    "version": "0.5.16+commit.9c3226ce.Emscripten.clang"
  },
  "schemaVersion": "3.4.1",
  "updatedAt": "2021-05-30T19:46:02.325Z",
  "devdoc": {
    "methods": {}
  },
  "userdoc": {
    "methods": {}
  }
}