{
  "contractName": "Coupon",
  "abi": [
    {
      "inputs": [],
      "stateMutability": "nonpayable",
      "type": "constructor"
    },
    {
      "anonymous": false,
      "inputs": [
        {
          "indexed": false,
          "internalType": "uint256",
          "name": "id",
          "type": "uint256"
        },
        {
          "indexed": false,
          "internalType": "address",
          "name": "owner",
          "type": "address"
        },
        {
          "indexed": false,
          "internalType": "bool",
          "name": "valid",
          "type": "bool"
        },
        {
          "indexed": false,
          "internalType": "string",
          "name": "msg",
          "type": "string"
        }
      ],
      "name": "CouponPaperCreated",
      "type": "event"
    },
    {
      "anonymous": false,
      "inputs": [
        {
          "indexed": false,
          "internalType": "uint256",
          "name": "id",
          "type": "uint256"
        },
        {
          "indexed": false,
          "internalType": "address",
          "name": "originalOwner",
          "type": "address"
        },
        {
          "indexed": false,
          "internalType": "address",
          "name": "owner",
          "type": "address"
        },
        {
          "indexed": false,
          "internalType": "bool",
          "name": "valid",
          "type": "bool"
        },
        {
          "indexed": false,
          "internalType": "string",
          "name": "msg",
          "type": "string"
        }
      ],
      "name": "CouponPaperOwnerChange",
      "type": "event"
    },
    {
      "anonymous": false,
      "inputs": [
        {
          "indexed": false,
          "internalType": "uint256",
          "name": "_id",
          "type": "uint256"
        },
        {
          "indexed": false,
          "internalType": "address",
          "name": "originalOwner",
          "type": "address"
        },
        {
          "indexed": false,
          "internalType": "string",
          "name": "msg",
          "type": "string"
        }
      ],
      "name": "exchangeCoupnTrx",
      "type": "event"
    },
    {
      "inputs": [],
      "name": "couponCount",
      "outputs": [
        {
          "internalType": "uint256",
          "name": "",
          "type": "uint256"
        }
      ],
      "stateMutability": "view",
      "type": "function"
    },
    {
      "inputs": [
        {
          "internalType": "address",
          "name": "",
          "type": "address"
        },
        {
          "internalType": "uint256",
          "name": "",
          "type": "uint256"
        }
      ],
      "name": "couponYearlyBalances",
      "outputs": [
        {
          "internalType": "uint256",
          "name": "",
          "type": "uint256"
        }
      ],
      "stateMutability": "view",
      "type": "function"
    },
    {
      "inputs": [
        {
          "internalType": "uint256",
          "name": "",
          "type": "uint256"
        }
      ],
      "name": "coupons",
      "outputs": [
        {
          "internalType": "uint256",
          "name": "id",
          "type": "uint256"
        },
        {
          "internalType": "address",
          "name": "owner",
          "type": "address"
        },
        {
          "internalType": "address",
          "name": "beneficiary",
          "type": "address"
        },
        {
          "internalType": "uint256",
          "name": "value",
          "type": "uint256"
        },
        {
          "internalType": "string",
          "name": "status",
          "type": "string"
        },
        {
          "internalType": "bool",
          "name": "valid",
          "type": "bool"
        }
      ],
      "stateMutability": "view",
      "type": "function"
    },
    {
      "inputs": [
        {
          "internalType": "address",
          "name": "",
          "type": "address"
        }
      ],
      "name": "empCouponsValueToPay",
      "outputs": [
        {
          "internalType": "uint256",
          "name": "",
          "type": "uint256"
        }
      ],
      "stateMutability": "view",
      "type": "function"
    },
    {
      "inputs": [
        {
          "internalType": "string",
          "name": "_name",
          "type": "string"
        }
      ],
      "name": "setName",
      "outputs": [],
      "stateMutability": "nonpayable",
      "type": "function"
    },
    {
      "inputs": [],
      "name": "getName",
      "outputs": [
        {
          "internalType": "string",
          "name": "",
          "type": "string"
        }
      ],
      "stateMutability": "view",
      "type": "function"
    },
    {
      "inputs": [],
      "name": "issueCoupon",
      "outputs": [],
      "stateMutability": "nonpayable",
      "type": "function"
    },
    {
      "inputs": [
        {
          "internalType": "uint256",
          "name": "_id",
          "type": "uint256"
        }
      ],
      "name": "changeOwnership",
      "outputs": [],
      "stateMutability": "nonpayable",
      "type": "function"
    },
    {
      "inputs": [
        {
          "internalType": "uint256",
          "name": "_id",
          "type": "uint256"
        }
      ],
      "name": "exchangeCoupon",
      "outputs": [],
      "stateMutability": "nonpayable",
      "type": "function"
    }
  ],
  "bytecode": "0x60806040523480156200001157600080fd5b506040518060400160405280601b81526020017f436f75706f6e20636f6e747261637420696e697469616c697365640000000000815250600090805190602001906200005f929190620000e6565b5033600160006101000a81548173ffffffffffffffffffffffffffffffffffffffff021916908373ffffffffffffffffffffffffffffffffffffffff160217905550600060028190555060018060146101000a81548160ff021916908360ff1602179055506005600160156101000a81548160ff021916908360ff160217905550620001fb565b828054620000f49062000196565b90600052602060002090601f01602090048101928262000118576000855562000164565b82601f106200013357805160ff191683800117855562000164565b8280016001018555821562000164579182015b828111156200016357825182559160200191906001019062000146565b5b50905062000173919062000177565b5090565b5b808211156200019257600081600090555060010162000178565b5090565b60006002820490506001821680620001af57607f821691505b60208210811415620001c657620001c5620001cc565b5b50919050565b7f4e487b7100000000000000000000000000000000000000000000000000000000600052602260045260246000fd5b611641806200020b6000396000f3fe608060405234801561001057600080fd5b50600436106100935760003560e01c8063c29f83d811610066578063c29f83d81461014b578063c47f002714610155578063d0e2392314610171578063dc0d569a1461018f578063efda2fca146101ab57610093565b80630dcf2bd81461009857806317d7de7c146100c85780631dbbcfc8146100e657806330828e9214610116575b600080fd5b6100b260048036038101906100ad9190610f9e565b6101c7565b6040516100bf9190611122565b60405180910390f35b6100d06101ec565b6040516100dd9190611100565b60405180910390f35b61010060048036038101906100fb9190610f71565b61027e565b60405161010d9190611122565b60405180910390f35b610130600480360381019061012b9190611027565b610296565b604051610142969594939291906111ed565b60405180910390f35b6101536103a7565b005b61016f600480360381019061016a9190610fde565b61059b565b005b6101796105b5565b6040516101869190611122565b60405180910390f35b6101a960048036038101906101a49190611027565b6105bb565b005b6101c560048036038101906101c09190611027565b61097f565b005b6004602052816000526040600020602052806000526040600020600091509150505481565b6060600080546101fb9061142d565b80601f01602080910402602001604051908101604052809291908181526020018280546102279061142d565b80156102745780601f1061024957610100808354040283529160200191610274565b820191906000526020600020905b81548152906001019060200180831161025757829003601f168201915b5050505050905090565b60056020528060005260406000206000915090505481565b60036020528060005260406000206000915090508060000154908060010160009054906101000a900473ffffffffffffffffffffffffffffffffffffffff16908060020160009054906101000a900473ffffffffffffffffffffffffffffffffffffffff16908060030154908060040180546103119061142d565b80601f016020809104026020016040519081016040528092919081815260200182805461033d9061142d565b801561038a5780601f1061035f5761010080835404028352916020019161038a565b820191906000526020600020905b81548152906001019060200180831161036d57829003601f168201915b5050505050908060050160009054906101000a900460ff16905086565b600260008154809291906103ba90611490565b91905055506040518060c0016040528060025481526020013373ffffffffffffffffffffffffffffffffffffffff1681526020013373ffffffffffffffffffffffffffffffffffffffff168152602001600160149054906101000a900460ff1660ff1681526020016040518060400160405280600781526020017f63726561746564000000000000000000000000000000000000000000000000008152508152602001600115158152506003600060025481526020019081526020016000206000820151816000015560208201518160010160006101000a81548173ffffffffffffffffffffffffffffffffffffffff021916908373ffffffffffffffffffffffffffffffffffffffff16021790555060408201518160020160006101000a81548173ffffffffffffffffffffffffffffffffffffffff021916908373ffffffffffffffffffffffffffffffffffffffff160217905550606082015181600301556080820151816004019080519060200190610537929190610e34565b5060a08201518160050160006101000a81548160ff0219169083151502179055509050507f2971a82072a1b29fd1941ada5b32f5b5aad07e668299b78328e9904e762cb9be60025433600160405161059193929190611255565b60405180910390a1565b80600090805190602001906105b1929190610e34565b5050565b60025481565b6000600360008381526020019081526020016000206040518060c0016040529081600082015481526020016001820160009054906101000a900473ffffffffffffffffffffffffffffffffffffffff1673ffffffffffffffffffffffffffffffffffffffff1673ffffffffffffffffffffffffffffffffffffffff1681526020016002820160009054906101000a900473ffffffffffffffffffffffffffffffffffffffff1673ffffffffffffffffffffffffffffffffffffffff1673ffffffffffffffffffffffffffffffffffffffff168152602001600382015481526020016004820180546106ab9061142d565b80601f01602080910402602001604051908101604052809291908181526020018280546106d79061142d565b80156107245780601f106106f957610100808354040283529160200191610724565b820191906000526020600020905b81548152906001019060200180831161070757829003601f168201915b505050505081526020016005820160009054906101000a900460ff1615151515815250509050600081602001519050600082606001519050600160009054906101000a900473ffffffffffffffffffffffffffffffffffffffff16836020019073ffffffffffffffffffffffffffffffffffffffff16908173ffffffffffffffffffffffffffffffffffffffff16815250506040518060400160405280600981526020017f65786368616e6765640000000000000000000000000000000000000000000000815250836080018190525082600360008681526020019081526020016000206000820151816000015560208201518160010160006101000a81548173ffffffffffffffffffffffffffffffffffffffff021916908373ffffffffffffffffffffffffffffffffffffffff16021790555060408201518160020160006101000a81548173ffffffffffffffffffffffffffffffffffffffff021916908373ffffffffffffffffffffffffffffffffffffffff1602179055506060820151816003015560808201518160040190805190602001906108c6929190610e34565b5060a08201518160050160006101000a81548160ff02191690831515021790555090505080600560008473ffffffffffffffffffffffffffffffffffffffff1673ffffffffffffffffffffffffffffffffffffffff1681526020019081526020016000206000828254610939919061134d565b925050819055507fa6cbb7d62f6de8d1eca0480a3d3b4cb7219c27bd7faab75534026bfdc73998c6848360405161097192919061129f565b60405180910390a150505050565b6000610989610dc6565b15610d83576000600360008481526020019081526020016000206040518060c0016040529081600082015481526020016001820160009054906101000a900473ffffffffffffffffffffffffffffffffffffffff1673ffffffffffffffffffffffffffffffffffffffff1673ffffffffffffffffffffffffffffffffffffffff1681526020016002820160009054906101000a900473ffffffffffffffffffffffffffffffffffffffff1673ffffffffffffffffffffffffffffffffffffffff1673ffffffffffffffffffffffffffffffffffffffff16815260200160038201548152602001600482018054610a7e9061142d565b80601f0160208091040260200160405190810160405280929190818152602001828054610aaa9061142d565b8015610af75780601f10610acc57610100808354040283529160200191610af7565b820191906000526020600020905b815481529060010190602001808311610ada57829003601f168201915b505050505081526020016005820160009054906101000a900460ff1615151515815250509050806020015191508060a00151610b3257600080fd5b3373ffffffffffffffffffffffffffffffffffffffff168273ffffffffffffffffffffffffffffffffffffffff161415610b6b57600080fd5b33816020019073ffffffffffffffffffffffffffffffffffffffff16908173ffffffffffffffffffffffffffffffffffffffff16815250506040518060400160405280600581526020017f6f776e6564000000000000000000000000000000000000000000000000000000815250816080018190525080600360008581526020019081526020016000206000820151816000015560208201518160010160006101000a81548173ffffffffffffffffffffffffffffffffffffffff021916908373ffffffffffffffffffffffffffffffffffffffff16021790555060408201518160020160006101000a81548173ffffffffffffffffffffffffffffffffffffffff021916908373ffffffffffffffffffffffffffffffffffffffff160217905550606082015181600301556080820151816004019080519060200190610cb3929190610e34565b5060a08201518160050160006101000a81548160ff021916908315150217905550905050600460003373ffffffffffffffffffffffffffffffffffffffff1673ffffffffffffffffffffffffffffffffffffffff16815260200190815260200160002060006107e581526020019081526020016000206000815480929190610d3a90611490565b91905055507f13841a114cc3a8df401eaa5c7e3339b9623bc9b6d4a140eaf92421c0dcf43b2b8383336001604051610d75949392919061113d565b60405180910390a150610dc2565b7f13841a114cc3a8df401eaa5c7e3339b9623bc9b6d4a140eaf92421c0dcf43b2b8282336001604051610db99493929190611195565b60405180910390a15b5050565b60006005600460003373ffffffffffffffffffffffffffffffffffffffff1673ffffffffffffffffffffffffffffffffffffffff16815260200190815260200160002060006107e58152602001908152602001600020541015610e2c5760019050610e31565b600090505b90565b828054610e409061142d565b90600052602060002090601f016020900481019282610e625760008555610ea9565b82601f10610e7b57805160ff1916838001178555610ea9565b82800160010185558215610ea9579182015b82811115610ea8578251825591602001919060010190610e8d565b5b509050610eb69190610eba565b5090565b5b80821115610ed3576000816000905550600101610ebb565b5090565b6000610eea610ee584611300565b6112db565b905082815260208101848484011115610f0657610f0561156b565b5b610f118482856113eb565b509392505050565b600081359050610f28816115dd565b92915050565b600082601f830112610f4357610f42611566565b5b8135610f53848260208601610ed7565b91505092915050565b600081359050610f6b816115f4565b92915050565b600060208284031215610f8757610f86611575565b5b6000610f9584828501610f19565b91505092915050565b60008060408385031215610fb557610fb4611575565b5b6000610fc385828601610f19565b9250506020610fd485828601610f5c565b9150509250929050565b600060208284031215610ff457610ff3611575565b5b600082013567ffffffffffffffff81111561101257611011611570565b5b61101e84828501610f2e565b91505092915050565b60006020828403121561103d5761103c611575565b5b600061104b84828501610f5c565b91505092915050565b61105d816113a3565b82525050565b61106c816113b5565b82525050565b600061107d82611331565b611087818561133c565b93506110978185602086016113fa565b6110a08161157a565b840191505092915050565b60006110b860078361133c565b91506110c38261158b565b602082019050919050565b60006110db60078361133c565b91506110e6826115b4565b602082019050919050565b6110fa816113e1565b82525050565b6000602082019050818103600083015261111a8184611072565b905092915050565b600060208201905061113760008301846110f1565b92915050565b600060a08201905061115260008301876110f1565b61115f6020830186611054565b61116c6040830185611054565b6111796060830184611063565b818103608083015261118a816110ab565b905095945050505050565b600060a0820190506111aa60008301876110f1565b6111b76020830186611054565b6111c46040830185611054565b6111d16060830184611063565b81810360808301526111e2816110ce565b905095945050505050565b600060c08201905061120260008301896110f1565b61120f6020830188611054565b61121c6040830187611054565b61122960608301866110f1565b818103608083015261123b8185611072565b905061124a60a0830184611063565b979650505050505050565b600060808201905061126a60008301866110f1565b6112776020830185611054565b6112846040830184611063565b8181036060830152611295816110ab565b9050949350505050565b60006060820190506112b460008301856110f1565b6112c16020830184611054565b81810360408301526112d2816110ab565b90509392505050565b60006112e56112f6565b90506112f1828261145f565b919050565b6000604051905090565b600067ffffffffffffffff82111561131b5761131a611537565b5b6113248261157a565b9050602081019050919050565b600081519050919050565b600082825260208201905092915050565b6000611358826113e1565b9150611363836113e1565b9250827fffffffffffffffffffffffffffffffffffffffffffffffffffffffffffffffff03821115611398576113976114d9565b5b828201905092915050565b60006113ae826113c1565b9050919050565b60008115159050919050565b600073ffffffffffffffffffffffffffffffffffffffff82169050919050565b6000819050919050565b82818337600083830152505050565b60005b838110156114185780820151818401526020810190506113fd565b83811115611427576000848401525b50505050565b6000600282049050600182168061144557607f821691505b6020821081141561145957611458611508565b5b50919050565b6114688261157a565b810181811067ffffffffffffffff8211171561148757611486611537565b5b80604052505050565b600061149b826113e1565b91507fffffffffffffffffffffffffffffffffffffffffffffffffffffffffffffffff8214156114ce576114cd6114d9565b5b600182019050919050565b7f4e487b7100000000000000000000000000000000000000000000000000000000600052601160045260246000fd5b7f4e487b7100000000000000000000000000000000000000000000000000000000600052602260045260246000fd5b7f4e487b7100000000000000000000000000000000000000000000000000000000600052604160045260246000fd5b600080fd5b600080fd5b600080fd5b600080fd5b6000601f19601f8301169050919050565b7f7375636365737300000000000000000000000000000000000000000000000000600082015250565b7f6661696c75726500000000000000000000000000000000000000000000000000600082015250565b6115e6816113a3565b81146115f157600080fd5b50565b6115fd816113e1565b811461160857600080fd5b5056fea2646970667358221220b9c052cde7fb75a9a6bfa46bc17e00600c85b43ee20173b6991be5665790848564736f6c63430008050033",
  "immutableReferences": {},
  "source": "// SPDX-License-Identifier: GPL-3.0\npragma solidity >=0.7.0 <0.9.0;\n\ncontract Coupon {\n  string name; \n  address owner;\n  uint8 value;\n  uint8 empCouponMax;\n  uint public couponCount; \n  \n  struct CouponPaper {\n    uint id;\n    address owner;\n    address beneficiary;\n    //add empID to track coupons for family members\n    uint value;\n    string status;\n    bool valid;\n  } \n\n  event CouponPaperCreated(\n    uint id,\n    address owner,\n    bool valid,\n    string msg\n  );\n\n  event CouponPaperOwnerChange (\n    uint id,\n    address originalOwner,\n    address owner,\n    bool valid,\n    string msg\n  );\n  \n  event exchangeCoupnTrx ( \n      uint _id, \n      address originalOwner, \n      string msg );\n  \n\n mapping(uint => CouponPaper) public coupons;\n //holds the number of coupons issued for the employee\n mapping(address => mapping(uint => uint)) public couponYearlyBalances;\n //stores incremental value of employee coupons value to be paid\n mapping(address => uint) public empCouponsValueToPay;\n\n  constructor() {\n    name = \"Coupon contract initialised\";\n    owner = msg.sender;\n    couponCount = 0;\n    value = 1;\n    empCouponMax = 5;\n  }\n\n  function setName(string memory _name) public { \n    name = _name;\n  }\n\n  function getName() public view returns (string memory) {\n    return name;\n  }\n  //create a parameter for the issueCoupon to create coupons in batch for the intial setup\n  function issueCoupon() public {\n    couponCount ++;\n    coupons[couponCount] = CouponPaper(couponCount,msg.sender, msg.sender, value, \"created\", true);\n\n    emit CouponPaperCreated(couponCount, msg.sender, true, \"success\");\n  }\n\n  function changeOwnership(uint _id) public {\n        address originalOwner;\n        //check if employee can still receive free coupons\n        if(canreceiveCoupon()) {\n        // Fetch the coupon based on the _id\n        CouponPaper memory _coupon = coupons[_id];\n        originalOwner = _coupon.owner;\n        require(_coupon.valid);\n        require(originalOwner != msg.sender);\n        _coupon.owner = msg.sender;\n        _coupon.status = \"owned\";\n        coupons[_id] = _coupon;\n        \n        // increase employee coupons couponYearlyBalances\n        couponYearlyBalances[msg.sender][2021] ++;\n        // Trigger an event\n        emit CouponPaperOwnerChange(_id, originalOwner, msg.sender, true, \"success\");\n        } else {\n            emit CouponPaperOwnerChange(_id, originalOwner, msg.sender, true, \"failure\");\n        }\n        \n  }\n\n function canreceiveCoupon() private view returns(bool) {\n     if(couponYearlyBalances[msg.sender][2021] < 5) {\n         return true;\n     } else {\n         return false;\n     }\n }\n \n function exchangeCoupon(uint _id) public {\n     CouponPaper memory _coupon = coupons[_id];\n     address originalOwner = _coupon.owner;\n     uint couponValue = _coupon.value;\n     //reset coupon to HR\n     _coupon.owner = owner;\n     _coupon.status = \"exchanged\"; \n     coupons[_id] = _coupon;\n     \n     //transfer coupon value to employee address for later valuation and payment\n     empCouponsValueToPay[originalOwner] += couponValue;\n     emit exchangeCoupnTrx(_id, originalOwner, \"success\");\n }\n\n}",
  "sourcePath": "/Users/wissamdagher/Documents/dev/blockchain/CouponMedNet/src/contracts/Coupon.sol",
  "compiler": {
    "name": "solc",
    "version": "0.8.5+commit.a4f2e591.Emscripten.clang"
  },
  "schemaVersion": "3.4.1",
  "updatedAt": "2021-06-15T19:28:13.473Z",
  "devdoc": {
    "kind": "dev",
    "methods": {},
    "version": 1
  },
  "userdoc": {
    "kind": "user",
    "methods": {},
    "version": 1
  }
}