{
  "contractName": "Doctorvisit",
  "abi": [
    {
      "inputs": [],
      "payable": false,
      "stateMutability": "nonpayable",
      "type": "constructor"
    },
    {
      "anonymous": false,
      "inputs": [
        {
          "indexed": false,
          "internalType": "uint256",
          "name": "Id",
          "type": "uint256"
        },
        {
          "indexed": false,
          "internalType": "uint256",
          "name": "empId",
          "type": "uint256"
        },
        {
          "indexed": false,
          "internalType": "uint256",
          "name": "couponId",
          "type": "uint256"
        }
      ],
      "name": "VisitCreated",
      "type": "event"
    },
    {
      "constant": true,
      "inputs": [],
      "name": "visitCount",
      "outputs": [
        {
          "internalType": "uint256",
          "name": "",
          "type": "uint256"
        }
      ],
      "payable": false,
      "stateMutability": "view",
      "type": "function"
    },
    {
      "constant": true,
      "inputs": [
        {
          "internalType": "uint256",
          "name": "",
          "type": "uint256"
        }
      ],
      "name": "visits",
      "outputs": [
        {
          "internalType": "uint256",
          "name": "id",
          "type": "uint256"
        },
        {
          "internalType": "uint256",
          "name": "empId",
          "type": "uint256"
        },
        {
          "internalType": "uint256",
          "name": "couponId",
          "type": "uint256"
        }
      ],
      "payable": false,
      "stateMutability": "view",
      "type": "function"
    },
    {
      "constant": false,
      "inputs": [
        {
          "internalType": "string",
          "name": "_name",
          "type": "string"
        }
      ],
      "name": "setName",
      "outputs": [],
      "payable": false,
      "stateMutability": "nonpayable",
      "type": "function"
    },
    {
      "constant": true,
      "inputs": [],
      "name": "getName",
      "outputs": [
        {
          "internalType": "string",
          "name": "",
          "type": "string"
        }
      ],
      "payable": false,
      "stateMutability": "view",
      "type": "function"
    },
    {
      "constant": false,
      "inputs": [
        {
          "internalType": "uint256",
          "name": "_empId",
          "type": "uint256"
        },
        {
          "internalType": "uint256",
          "name": "_couponId",
          "type": "uint256"
        }
      ],
      "name": "createVisit",
      "outputs": [],
      "payable": false,
      "stateMutability": "nonpayable",
      "type": "function"
    }
  ],
  "bytecode": "0x608060405234801561001057600080fd5b506040518060400160405280602081526020017f446f63746f72766973697420636f6e747261637420696e697469616c697365648152506000908051906020019061005c92919061006a565b50600060018190555061010f565b828054600181600116156101000203166002900490600052602060002090601f016020900481019282601f106100ab57805160ff19168380011785556100d9565b828001600101855582156100d9579182015b828111156100d85782518255916020019190600101906100bd565b5b5090506100e691906100ea565b5090565b61010c91905b808211156101085760008160009055506001016100f0565b5090565b90565b6104838061011e6000396000f3fe608060405234801561001057600080fd5b50600436106100575760003560e01c806309c55a131461005c57806317d7de7c146100ac5780631e2908461461012f578063c47f002714610167578063e0e4367e14610222575b600080fd5b6100886004803603602081101561007257600080fd5b8101908080359060200190929190505050610240565b60405180848152602001838152602001828152602001935050505060405180910390f35b6100b461026a565b6040518080602001828103825283818151815260200191508051906020019080838360005b838110156100f45780820151818401526020810190506100d9565b50505050905090810190601f1680156101215780820380516001836020036101000a031916815260200191505b509250505060405180910390f35b6101656004803603604081101561014557600080fd5b81019080803590602001909291908035906020019092919050505061030c565b005b6102206004803603602081101561017d57600080fd5b810190808035906020019064010000000081111561019a57600080fd5b8201836020820111156101ac57600080fd5b803590602001918460018302840111640100000000831117156101ce57600080fd5b91908080601f016020809104026020016040519081016040528093929190818152602001838380828437600081840152601f19601f820116905080830192505050505050509192919290505050610389565b005b61022a6103a3565b6040518082815260200191505060405180910390f35b60026020528060005260406000206000915090508060000154908060010154908060020154905083565b606060008054600181600116156101000203166002900480601f0160208091040260200160405190810160405280929190818152602001828054600181600116156101000203166002900480156103025780601f106102d757610100808354040283529160200191610302565b820191906000526020600020905b8154815290600101906020018083116102e557829003601f168201915b5050505050905090565b6001600081548092919060010191905055506040518060600160405280600154815260200183815260200182815250507f963e6f8951cabc47c15da959f7150eb71d92b2be3d5c9e17084ae1c461570eee600154838360405180848152602001838152602001828152602001935050505060405180910390a15050565b806000908051906020019061039f9291906103a9565b5050565b60015481565b828054600181600116156101000203166002900490600052602060002090601f016020900481019282601f106103ea57805160ff1916838001178555610418565b82800160010185558215610418579182015b828111156104175782518255916020019190600101906103fc565b5b5090506104259190610429565b5090565b61044b91905b8082111561044757600081600090555060010161042f565b5090565b9056fea265627a7a7231582093fd0603df333905bfb284267129913726b87ec642d4a8d10a572afc697557a964736f6c63430005100032",
  "source": "pragma solidity ^0.5.0;\n\ncontract Doctorvisit {\n  string name;\n  uint public visitCount; \n  struct Visit {\n    uint id;\n    uint empId;\n    uint couponId;\n  }\n\n  event VisitCreated (\n    uint Id,\n    uint empId,\n    uint couponId\n  );\n\n\n  mapping(uint => Visit) public visits;\n\n  constructor() public {\n    name = \"Doctorvisit contract initialised\";\n    visitCount = 0;\n  }\n\n  function setName(string memory _name) public { \n    name = _name;\n  }\n\n  function getName() public view returns (string memory) {\n    return name;\n  }\n\n  function createVisit(uint _empId, uint _couponId) public {\n    visitCount ++;\n    Visit(visitCount, _empId, _couponId);\n\n    emit VisitCreated(visitCount, _empId, _couponId);\n  }\n\n}",
  "sourcePath": "/Users/wissamdagher/Documents/dev/blockchain/marketplace/src/contracts/Doctorvisit.sol",
  "compiler": {
    "name": "solc",
    "version": "0.5.16+commit.9c3226ce.Emscripten.clang"
  },
  "schemaVersion": "3.4.1",
  "updatedAt": "2021-05-30T05:05:00.132Z",
  "networkType": "ethereum",
  "devdoc": {
    "methods": {}
  },
  "userdoc": {
    "methods": {}
  }
}