{
  "contractName": "Doctorvisit",
  "abi": [
    {
      "inputs": [],
      "stateMutability": "nonpayable",
      "type": "constructor"
    },
    {
      "anonymous": false,
      "inputs": [
        {
          "indexed": false,
          "internalType": "uint256",
          "name": "Id",
          "type": "uint256"
        },
        {
          "indexed": false,
          "internalType": "uint256",
          "name": "empId",
          "type": "uint256"
        },
        {
          "indexed": false,
          "internalType": "uint256",
          "name": "couponId",
          "type": "uint256"
        },
        {
          "indexed": false,
          "internalType": "string",
          "name": "msg",
          "type": "string"
        }
      ],
      "name": "VisitCreated",
      "type": "event"
    },
    {
      "inputs": [
        {
          "internalType": "address",
          "name": "",
          "type": "address"
        },
        {
          "internalType": "uint256",
          "name": "",
          "type": "uint256"
        }
      ],
      "name": "empDoctorVisists",
      "outputs": [
        {
          "internalType": "uint256",
          "name": "id",
          "type": "uint256"
        },
        {
          "internalType": "uint256",
          "name": "empId",
          "type": "uint256"
        },
        {
          "internalType": "uint256",
          "name": "couponId",
          "type": "uint256"
        },
        {
          "internalType": "uint256",
          "name": "doctorId",
          "type": "uint256"
        }
      ],
      "stateMutability": "view",
      "type": "function"
    },
    {
      "inputs": [],
      "name": "visitCount",
      "outputs": [
        {
          "internalType": "uint256",
          "name": "",
          "type": "uint256"
        }
      ],
      "stateMutability": "view",
      "type": "function"
    },
    {
      "inputs": [
        {
          "internalType": "uint256",
          "name": "",
          "type": "uint256"
        }
      ],
      "name": "visits",
      "outputs": [
        {
          "internalType": "uint256",
          "name": "id",
          "type": "uint256"
        },
        {
          "internalType": "uint256",
          "name": "empId",
          "type": "uint256"
        },
        {
          "internalType": "uint256",
          "name": "couponId",
          "type": "uint256"
        },
        {
          "internalType": "uint256",
          "name": "doctorId",
          "type": "uint256"
        }
      ],
      "stateMutability": "view",
      "type": "function"
    },
    {
      "inputs": [
        {
          "internalType": "string",
          "name": "_name",
          "type": "string"
        }
      ],
      "name": "setName",
      "outputs": [],
      "stateMutability": "nonpayable",
      "type": "function"
    },
    {
      "inputs": [],
      "name": "getName",
      "outputs": [
        {
          "internalType": "string",
          "name": "",
          "type": "string"
        }
      ],
      "stateMutability": "view",
      "type": "function"
    },
    {
      "inputs": [
        {
          "internalType": "uint256",
          "name": "_empId",
          "type": "uint256"
        },
        {
          "internalType": "uint256",
          "name": "_couponId",
          "type": "uint256"
        },
        {
          "internalType": "uint256",
          "name": "_doctorId",
          "type": "uint256"
        }
      ],
      "name": "createVisit",
      "outputs": [],
      "stateMutability": "nonpayable",
      "type": "function"
    }
  ],
  "bytecode": "0x608060405234801561001057600080fd5b506040518060400160405280602081526020017f446f63746f72766973697420636f6e747261637420696e697469616c697365648152506000908051906020019061005c9291906100ab565b50600060028190555033600160006101000a81548173ffffffffffffffffffffffffffffffffffffffff021916908373ffffffffffffffffffffffffffffffffffffffff1602179055506101af565b8280546100b79061014e565b90600052602060002090601f0160209004810192826100d95760008555610120565b82601f106100f257805160ff1916838001178555610120565b82800160010185558215610120579182015b8281111561011f578251825591602001919060010190610104565b5b50905061012d9190610131565b5090565b5b8082111561014a576000816000905550600101610132565b5090565b6000600282049050600182168061016657607f821691505b6020821081141561017a57610179610180565b5b50919050565b7f4e487b7100000000000000000000000000000000000000000000000000000000600052602260045260246000fd5b610a4c806101be6000396000f3fe608060405234801561001057600080fd5b50600436106100625760003560e01c806309c55a131461006757806317d7de7c1461009a5780639363207c146100b8578063a61b8fc5146100d4578063c47f002714610107578063e0e4367e14610123575b600080fd5b610081600480360381019061007c91906105ba565b610141565b604051610091949392919061072c565b60405180910390f35b6100a2610171565b6040516100af91906106a5565b60405180910390f35b6100d260048036038101906100cd91906105e7565b610203565b005b6100ee60048036038101906100e99190610531565b61035f565b6040516100fe949392919061072c565b60405180910390f35b610121600480360381019061011c9190610571565b6103ac565b005b61012b6103c6565b60405161013891906106c7565b60405180910390f35b60036020528060005260406000206000915090508060000154908060010154908060020154908060030154905084565b60606000805461018090610861565b80601f01602080910402602001604051908101604052809291908181526020018280546101ac90610861565b80156101f95780601f106101ce576101008083540402835291602001916101f9565b820191906000526020600020905b8154815290600101906020018083116101dc57829003601f168201915b5050505050905090565b60026000815480929190610216906108c4565b91905055506102236103cc565b604051806080016040528060025481526020018581526020018481526020018381525090508060036000600254815260200190815260200160002060008201518160000155602082015181600101556040820151816002015560608201518160030155905050600460003373ffffffffffffffffffffffffffffffffffffffff1673ffffffffffffffffffffffffffffffffffffffff1681526020019081526020016000208190806001815401808255809150506001900390600052602060002090600402016000909190919091506000820151816000015560208201518160010155604082015181600201556060820151816003015550507f1bddd110c92375ee8dc06b13693ae9ab5395c1ae79fd1b455455bc19039bce4b6002548585604051610351939291906106e2565b60405180910390a150505050565b6004602052816000526040600020818154811061037b57600080fd5b9060005260206000209060040201600091509150508060000154908060010154908060020154908060030154905084565b80600090805190602001906103c29291906103f4565b5050565b60025481565b6040518060800160405280600081526020016000815260200160008152602001600081525090565b82805461040090610861565b90600052602060002090601f0160209004810192826104225760008555610469565b82601f1061043b57805160ff1916838001178555610469565b82800160010185558215610469579182015b8281111561046857825182559160200191906001019061044d565b5b509050610476919061047a565b5090565b5b8082111561049357600081600090555060010161047b565b5090565b60006104aa6104a584610796565b610771565b9050828152602081018484840111156104c6576104c561099f565b5b6104d184828561081f565b509392505050565b6000813590506104e8816109e8565b92915050565b600082601f8301126105035761050261099a565b5b8135610513848260208601610497565b91505092915050565b60008135905061052b816109ff565b92915050565b60008060408385031215610548576105476109a9565b5b6000610556858286016104d9565b92505060206105678582860161051c565b9150509250929050565b600060208284031215610587576105866109a9565b5b600082013567ffffffffffffffff8111156105a5576105a46109a4565b5b6105b1848285016104ee565b91505092915050565b6000602082840312156105d0576105cf6109a9565b5b60006105de8482850161051c565b91505092915050565b600080600060608486031215610600576105ff6109a9565b5b600061060e8682870161051c565b935050602061061f8682870161051c565b92505060406106308682870161051c565b9150509250925092565b6000610645826107c7565b61064f81856107d2565b935061065f81856020860161082e565b610668816109ae565b840191505092915050565b60006106806007836107d2565b915061068b826109bf565b602082019050919050565b61069f81610815565b82525050565b600060208201905081810360008301526106bf818461063a565b905092915050565b60006020820190506106dc6000830184610696565b92915050565b60006080820190506106f76000830186610696565b6107046020830185610696565b6107116040830184610696565b818103606083015261072281610673565b9050949350505050565b60006080820190506107416000830187610696565b61074e6020830186610696565b61075b6040830185610696565b6107686060830184610696565b95945050505050565b600061077b61078c565b90506107878282610893565b919050565b6000604051905090565b600067ffffffffffffffff8211156107b1576107b061096b565b5b6107ba826109ae565b9050602081019050919050565b600081519050919050565b600082825260208201905092915050565b60006107ee826107f5565b9050919050565b600073ffffffffffffffffffffffffffffffffffffffff82169050919050565b6000819050919050565b82818337600083830152505050565b60005b8381101561084c578082015181840152602081019050610831565b8381111561085b576000848401525b50505050565b6000600282049050600182168061087957607f821691505b6020821081141561088d5761088c61093c565b5b50919050565b61089c826109ae565b810181811067ffffffffffffffff821117156108bb576108ba61096b565b5b80604052505050565b60006108cf82610815565b91507fffffffffffffffffffffffffffffffffffffffffffffffffffffffffffffffff8214156109025761090161090d565b5b600182019050919050565b7f4e487b7100000000000000000000000000000000000000000000000000000000600052601160045260246000fd5b7f4e487b7100000000000000000000000000000000000000000000000000000000600052602260045260246000fd5b7f4e487b7100000000000000000000000000000000000000000000000000000000600052604160045260246000fd5b600080fd5b600080fd5b600080fd5b600080fd5b6000601f19601f8301169050919050565b7f7375636365737300000000000000000000000000000000000000000000000000600082015250565b6109f1816107e3565b81146109fc57600080fd5b50565b610a0881610815565b8114610a1357600080fd5b5056fea2646970667358221220de74911328eb216f8a1167a8fa47e3b566f28c55b43306b91f5fb40fdbeaa95b64736f6c63430008050033",
  "immutableReferences": {},
  "source": "// SPDX-License-Identifier: GPL-3.0\npragma solidity >=0.7.0 <0.9.0;\n\ncontract Doctorvisit {\n  string name;\n  address owner;\n  uint public visitCount; \n\n  struct Visit {\n    uint id;\n    uint empId;\n    uint couponId;\n    uint doctorId;\n  }\n\n  event VisitCreated (\n    uint Id,\n    uint empId,\n    uint couponId,\n    string msg\n  );\n\n  //visits  mapping incremental\n  mapping(uint => Visit) public visits;\n  //employee doctor visits array\n  mapping(address => Visit[]) public empDoctorVisists;\n\n  constructor() {\n    name = \"Doctorvisit contract initialised\";\n    visitCount = 0;\n    owner = msg.sender;\n  }\n\n  function setName(string memory _name) public { \n    name = _name;\n  }\n\n  function getName() public view returns (string memory) {\n    return name;\n  }\n\n  function createVisit(uint _empId, uint _couponId, uint _doctorId) public {\n    visitCount ++;\n    Visit memory _visit;\n    _visit = Visit(visitCount, _empId, _couponId, _doctorId);\n    visits[visitCount] = _visit;\n    empDoctorVisists[msg.sender].push(_visit);\n\n    emit VisitCreated(visitCount, _empId, _couponId, \"success\");\n  }\n\n}",
  "sourcePath": "/Users/wissamdagher/Documents/Developer/blockchain/CouponMedNet/src/contracts/Doctorvisit.sol",
  "compiler": {
    "name": "solc",
    "version": "0.8.5+commit.a4f2e591.Emscripten.clang"
  },
  "schemaVersion": "3.4.1",
  "updatedAt": "2021-06-19T04:00:45.631Z",
  "devdoc": {
    "kind": "dev",
    "methods": {},
    "version": 1
  },
  "userdoc": {
    "kind": "user",
    "methods": {},
    "version": 1
  }
}