{
  "contractName": "Doctorvisit",
  "abi": [
    {
      "inputs": [],
      "payable": false,
      "stateMutability": "nonpayable",
      "type": "constructor"
    },
    {
      "anonymous": false,
      "inputs": [
        {
          "indexed": false,
          "internalType": "uint256",
          "name": "Id",
          "type": "uint256"
        },
        {
          "indexed": false,
          "internalType": "uint256",
          "name": "empId",
          "type": "uint256"
        },
        {
          "indexed": false,
          "internalType": "uint256",
          "name": "couponId",
          "type": "uint256"
        }
      ],
      "name": "VisitCreated",
      "type": "event"
    },
    {
      "constant": true,
      "inputs": [
        {
          "internalType": "address",
          "name": "",
          "type": "address"
        },
        {
          "internalType": "uint256",
          "name": "",
          "type": "uint256"
        }
      ],
      "name": "empDoctorVisists",
      "outputs": [
        {
          "internalType": "uint256",
          "name": "id",
          "type": "uint256"
        },
        {
          "internalType": "uint256",
          "name": "empId",
          "type": "uint256"
        },
        {
          "internalType": "uint256",
          "name": "couponId",
          "type": "uint256"
        }
      ],
      "payable": false,
      "stateMutability": "view",
      "type": "function"
    },
    {
      "constant": true,
      "inputs": [],
      "name": "visitCount",
      "outputs": [
        {
          "internalType": "uint256",
          "name": "",
          "type": "uint256"
        }
      ],
      "payable": false,
      "stateMutability": "view",
      "type": "function"
    },
    {
      "constant": true,
      "inputs": [
        {
          "internalType": "uint256",
          "name": "",
          "type": "uint256"
        }
      ],
      "name": "visits",
      "outputs": [
        {
          "internalType": "uint256",
          "name": "id",
          "type": "uint256"
        },
        {
          "internalType": "uint256",
          "name": "empId",
          "type": "uint256"
        },
        {
          "internalType": "uint256",
          "name": "couponId",
          "type": "uint256"
        }
      ],
      "payable": false,
      "stateMutability": "view",
      "type": "function"
    },
    {
      "constant": false,
      "inputs": [
        {
          "internalType": "string",
          "name": "_name",
          "type": "string"
        }
      ],
      "name": "setName",
      "outputs": [],
      "payable": false,
      "stateMutability": "nonpayable",
      "type": "function"
    },
    {
      "constant": true,
      "inputs": [],
      "name": "getName",
      "outputs": [
        {
          "internalType": "string",
          "name": "",
          "type": "string"
        }
      ],
      "payable": false,
      "stateMutability": "view",
      "type": "function"
    },
    {
      "constant": false,
      "inputs": [
        {
          "internalType": "uint256",
          "name": "_empId",
          "type": "uint256"
        },
        {
          "internalType": "uint256",
          "name": "_couponId",
          "type": "uint256"
        }
      ],
      "name": "createVisit",
      "outputs": [],
      "payable": false,
      "stateMutability": "nonpayable",
      "type": "function"
    }
  ],
  "bytecode": "0x608060405234801561001057600080fd5b506040518060400160405280602081526020017f446f63746f72766973697420636f6e747261637420696e697469616c697365648152506000908051906020019061005c9291906100ab565b50600060028190555033600160006101000a81548173ffffffffffffffffffffffffffffffffffffffff021916908373ffffffffffffffffffffffffffffffffffffffff160217905550610150565b828054600181600116156101000203166002900490600052602060002090601f016020900481019282601f106100ec57805160ff191683800117855561011a565b8280016001018555821561011a579182015b828111156101195782518255916020019190600101906100fe565b5b509050610127919061012b565b5090565b61014d91905b80821115610149576000816000905550600101610131565b5090565b90565b6106308061015f6000396000f3fe608060405234801561001057600080fd5b50600436106100625760003560e01c806309c55a131461006757806317d7de7c146100b75780631e2908461461013a578063a61b8fc514610172578063c47f0027146101e2578063e0e4367e1461029d575b600080fd5b6100936004803603602081101561007d57600080fd5b81019080803590602001909291905050506102bb565b60405180848152602001838152602001828152602001935050505060405180910390f35b6100bf6102e5565b6040518080602001828103825283818151815260200191508051906020019080838360005b838110156100ff5780820151818401526020810190506100e4565b50505050905090810190601f16801561012c5780820380516001836020036101000a031916815260200191505b509250505060405180910390f35b6101706004803603604081101561015057600080fd5b810190808035906020019092919080359060200190929190505050610387565b005b6101be6004803603604081101561018857600080fd5b81019080803573ffffffffffffffffffffffffffffffffffffffff169060200190929190803590602001909291905050506104d1565b60405180848152602001838152602001828152602001935050505060405180910390f35b61029b600480360360208110156101f857600080fd5b810190808035906020019064010000000081111561021557600080fd5b82018360208201111561022757600080fd5b8035906020019184600183028401116401000000008311171561024957600080fd5b91908080601f016020809104026020016040519081016040528093929190818152602001838380828437600081840152601f19601f820116905080830192505050505050509192919290505050610515565b005b6102a561052f565b6040518082815260200191505060405180910390f35b60036020528060005260406000206000915090508060000154908060010154908060020154905083565b606060008054600181600116156101000203166002900480601f01602080910402602001604051908101604052809291908181526020018280546001816001161561010002031660029004801561037d5780601f106103525761010080835404028352916020019161037d565b820191906000526020600020905b81548152906001019060200180831161036057829003601f168201915b5050505050905090565b6002600081548092919060010191905055506103a1610535565b6040518060600160405280600254815260200184815260200183815250905080600360006002548152602001908152602001600020600082015181600001556020820151816001015560408201518160020155905050600460003373ffffffffffffffffffffffffffffffffffffffff1673ffffffffffffffffffffffffffffffffffffffff16815260200190815260200160002081908060018154018082558091505090600182039060005260206000209060030201600090919290919091506000820151816000015560208201518160010155604082015181600201555050507f963e6f8951cabc47c15da959f7150eb71d92b2be3d5c9e17084ae1c461570eee600254848460405180848152602001838152602001828152602001935050505060405180910390a1505050565b600460205281600052604060002081815481106104ea57fe5b9060005260206000209060030201600091509150508060000154908060010154908060020154905083565b806000908051906020019061052b929190610556565b5050565b60025481565b60405180606001604052806000815260200160008152602001600081525090565b828054600181600116156101000203166002900490600052602060002090601f016020900481019282601f1061059757805160ff19168380011785556105c5565b828001600101855582156105c5579182015b828111156105c45782518255916020019190600101906105a9565b5b5090506105d291906105d6565b5090565b6105f891905b808211156105f45760008160009055506001016105dc565b5090565b9056fea265627a7a72315820409f00696ef6567278caf2fa23493fa901344f8d2d42c282a0e58230ed46a92e64736f6c63430005100032",
  "source": "pragma solidity ^0.5.0;\n\ncontract Doctorvisit {\n  string name;\n  address owner;\n  uint public visitCount; \n\n  struct Visit {\n    uint id;\n    uint empId;\n    uint couponId;\n  }\n\n  event VisitCreated (\n    uint Id,\n    uint empId,\n    uint couponId\n  );\n\n  //visits  mapping incremental\n  mapping(uint => Visit) public visits;\n  //employee doctor visits array\n  mapping(address => Visit[]) public empDoctorVisists;\n\n  constructor() public {\n    name = \"Doctorvisit contract initialised\";\n    visitCount = 0;\n    owner = msg.sender;\n  }\n\n  function setName(string memory _name) public { \n    name = _name;\n  }\n\n  function getName() public view returns (string memory) {\n    return name;\n  }\n\n  function createVisit(uint _empId, uint _couponId) public {\n    visitCount ++;\n    Visit memory _visit;\n    _visit = Visit(visitCount, _empId, _couponId);\n    visits[visitCount] = _visit;\n    empDoctorVisists[msg.sender].push(_visit);\n\n    emit VisitCreated(visitCount, _empId, _couponId);\n  }\n\n}",
  "sourcePath": "/Users/wissamdagher/Documents/dev/blockchain/marketplace/src/contracts/Doctorvisit.sol",
  "compiler": {
    "name": "solc",
    "version": "0.5.16+commit.9c3226ce.Emscripten.clang"
  },
  "schemaVersion": "3.4.1",
  "updatedAt": "2021-05-30T19:46:02.332Z",
  "devdoc": {
    "methods": {}
  },
  "userdoc": {
    "methods": {}
  }
}