{
  "contractName": "DoctorBase",
  "abi": [
    {
      "inputs": [],
      "stateMutability": "nonpayable",
      "type": "constructor"
    },
    {
      "anonymous": false,
      "inputs": [
        {
          "indexed": false,
          "internalType": "string",
          "name": "msg",
          "type": "string"
        }
      ],
      "name": "InvitationAdded",
      "type": "event"
    },
    {
      "anonymous": false,
      "inputs": [
        {
          "indexed": true,
          "internalType": "address",
          "name": "oldOwner",
          "type": "address"
        },
        {
          "indexed": true,
          "internalType": "address",
          "name": "newOwner",
          "type": "address"
        }
      ],
      "name": "OwnerSet",
      "type": "event"
    },
    {
      "anonymous": false,
      "inputs": [
        {
          "indexed": false,
          "internalType": "string",
          "name": "msg",
          "type": "string"
        }
      ],
      "name": "delinvitee",
      "type": "event"
    },
    {
      "anonymous": false,
      "inputs": [
        {
          "indexed": false,
          "internalType": "uint256",
          "name": "id",
          "type": "uint256"
        },
        {
          "indexed": false,
          "internalType": "string",
          "name": "msg",
          "type": "string"
        }
      ],
      "name": "doctorregistration",
      "type": "event"
    },
    {
      "inputs": [
        {
          "internalType": "uint256",
          "name": "_code",
          "type": "uint256"
        },
        {
          "internalType": "uint256",
          "name": "_id",
          "type": "uint256"
        },
        {
          "internalType": "uint256",
          "name": "_usertype",
          "type": "uint256"
        }
      ],
      "name": "addInvitation",
      "outputs": [],
      "stateMutability": "nonpayable",
      "type": "function"
    },
    {
      "inputs": [
        {
          "internalType": "address",
          "name": "newOwner",
          "type": "address"
        }
      ],
      "name": "changeOwner",
      "outputs": [],
      "stateMutability": "nonpayable",
      "type": "function"
    },
    {
      "inputs": [],
      "name": "getInvitations",
      "outputs": [
        {
          "internalType": "uint256[]",
          "name": "",
          "type": "uint256[]"
        }
      ],
      "stateMutability": "view",
      "type": "function",
      "constant": true
    },
    {
      "inputs": [],
      "name": "getOwner",
      "outputs": [
        {
          "internalType": "address",
          "name": "",
          "type": "address"
        }
      ],
      "stateMutability": "view",
      "type": "function",
      "constant": true
    },
    {
      "inputs": [
        {
          "internalType": "uint256",
          "name": "_doctorid",
          "type": "uint256"
        },
        {
          "internalType": "string",
          "name": "_speciality",
          "type": "string"
        },
        {
          "internalType": "uint256",
          "name": "_code",
          "type": "uint256"
        },
        {
          "internalType": "uint256",
          "name": "_usertype",
          "type": "uint256"
        },
        {
          "internalType": "uint256",
          "name": "_couponcoeficient",
          "type": "uint256"
        }
      ],
      "name": "registerDoctor",
      "outputs": [],
      "stateMutability": "nonpayable",
      "type": "function"
    }
  ],
  "bytecode": "0x608060405234801561001057600080fd5b50336000806101000a81548173ffffffffffffffffffffffffffffffffffffffff021916908373ffffffffffffffffffffffffffffffffffffffff16021790555060008054906101000a900473ffffffffffffffffffffffffffffffffffffffff1673ffffffffffffffffffffffffffffffffffffffff16600073ffffffffffffffffffffffffffffffffffffffff167f342827c97908e5e2f71151c08502a66d44b6f758e3ac2f1de95f02eb95f0a73560405160405180910390a360006003819055506114fb806100e36000396000f3fe608060405234801561001057600080fd5b5060043610610074576000357c01000000000000000000000000000000000000000000000000000000009004806316845714146100795780634180375014610097578063885d6e59146100b3578063893d20e8146100cf578063a6f9dae1146100ed575b600080fd5b610081610109565b60405161008e9190610ea3565b60405180910390f35b6100b160048036038101906100ac9190610b8c565b6101ef565b005b6100cd60048036038101906100c89190610c23565b610586565b005b6100d7610706565b6040516100e49190610e88565b60405180910390f35b61010760048036038101906101029190610b32565b61072f565b005b606060008054906101000a900473ffffffffffffffffffffffffffffffffffffffff1673ffffffffffffffffffffffffffffffffffffffff163373ffffffffffffffffffffffffffffffffffffffff1614610199576040517f08c379a000000000000000000000000000000000000000000000000000000000815260040161019090610f05565b60405180910390fd5b60028054806020026020016040519081016040528092919081815260200182805480156101e557602002820191906000526020600020905b8154815260200190600101908083116101d1575b5050505050905090565b82858381600160008581526020019081526020016000206000015414801561022c5750806001600085815260200190815260200160002060010154145b61026b576040517f08c379a000000000000000000000000000000000000000000000000000000000815260040161026290610ec5565b60405180910390fd5b60008054906101000a900473ffffffffffffffffffffffffffffffffffffffff1673ffffffffffffffffffffffffffffffffffffffff163373ffffffffffffffffffffffffffffffffffffffff1614156102fa576040517f08c379a00000000000000000000000000000000000000000000000000000000081526004016102f190610ee5565b60405180910390fd5b6103038561087a565b610342576040517f08c379a000000000000000000000000000000000000000000000000000000000815260040161033990610f25565b60405180910390fd5b60036000815480929190610355906111fe565b9190505550600060028960035461036c9190611089565b60405160200161037c9190610e6d565b6040516020818303038152906040526040516103989190610e56565b602060405180830381855afa1580156103b5573d6000803e3d6000fd5b5050506040513d601f19601f820116820180604052508101906103d89190610b5f565b905080600660006003548152602001908152602001600020819055506040518060a0016040528060035481526020018a815260200189815260200186815260200160011515815250600460003373ffffffffffffffffffffffffffffffffffffffff1673ffffffffffffffffffffffffffffffffffffffff1681526020019081526020016000206000820151816000015560208201518160010155604082015181600201908051906020019061048f9291906109e0565b506060820151816003015560808201518160040160006101000a81548160ff021916908315150217905550905050600789908060018154018082558091505060019003906000526020600020016000909190919091505533600560008b815260200190815260200160002060006101000a81548173ffffffffffffffffffffffffffffffffffffffff021916908373ffffffffffffffffffffffffffffffffffffffff160217905550610542878a610898565b7f0b1c9689ab07080b78463a9e5fc0d33679c1bdfc32eb1827479754bd03330bdb6003546040516105739190610fa5565b60405180910390a1505050505050505050565b60008054906101000a900473ffffffffffffffffffffffffffffffffffffffff1673ffffffffffffffffffffffffffffffffffffffff163373ffffffffffffffffffffffffffffffffffffffff1614610614576040517f08c379a000000000000000000000000000000000000000000000000000000000815260040161060b90610f05565b60405180910390fd5b600060016000858152602001908152602001600020600001541461066d576040517f08c379a000000000000000000000000000000000000000000000000000000000815260040161066490610f65565b60405180910390fd5b81600160008581526020019081526020016000206000018190555080600160008581526020019081526020016000206001018190555060028290806001815401808255809150506001900390600052602060002001600090919091909150557f4b94f404f01408af2bc2543d9ad9bea2c7382d8beb361d59bb3038d8ff9f40d66040516106f990610f45565b60405180910390a1505050565b60008060009054906101000a900473ffffffffffffffffffffffffffffffffffffffff16905090565b60008054906101000a900473ffffffffffffffffffffffffffffffffffffffff1673ffffffffffffffffffffffffffffffffffffffff163373ffffffffffffffffffffffffffffffffffffffff16146107bd576040517f08c379a00000000000000000000000000000000000000000000000000000000081526004016107b490610f05565b60405180910390fd5b8073ffffffffffffffffffffffffffffffffffffffff1660008054906101000a900473ffffffffffffffffffffffffffffffffffffffff1673ffffffffffffffffffffffffffffffffffffffff167f342827c97908e5e2f71151c08502a66d44b6f758e3ac2f1de95f02eb95f0a73560405160405180910390a3806000806101000a81548173ffffffffffffffffffffffffffffffffffffffff021916908373ffffffffffffffffffffffffffffffffffffffff16021790555050565b6000600282141561088e5760019050610893565b600090505b919050565b60016000838152602001908152602001600020600080820160009055600182016000905550506108c781610900565b7f83044fa08cabba8ae7aa27249a8a606cdd565b8e72934bbc7b3597f898859e706040516108f490610f85565b60405180910390a15050565b600061090b8261091a565b905061091681610963565b5050565b600080600090505b8260028281548110610937576109366112de565b5b90600052602060002001541461095a578080610952906111fe565b915050610922565b80915050919050565b6002600160028054905061097791906110df565b81548110610988576109876112de565b5b9060005260206000200154600282815481106109a7576109a66112de565b5b906000526020600020018190555060028054806109c7576109c66112af565b5b6001900381819060005260206000200160009055905550565b8280546109ec9061119b565b90600052602060002090601f016020900481019282610a0e5760008555610a55565b82601f10610a2757805160ff1916838001178555610a55565b82800160010185558215610a55579182015b82811115610a54578251825591602001919060010190610a39565b5b509050610a629190610a66565b5090565b5b80821115610a7f576000816000905550600101610a67565b5090565b6000610a96610a9184610ff8565b610fd3565b905082815260208101848484011115610ab257610ab1611341565b5b610abd848285611159565b509392505050565b600081359050610ad481611480565b92915050565b600081519050610ae981611497565b92915050565b600082601f830112610b0457610b0361133c565b5b8135610b14848260208601610a83565b91505092915050565b600081359050610b2c816114ae565b92915050565b600060208284031215610b4857610b4761134b565b5b6000610b5684828501610ac5565b91505092915050565b600060208284031215610b7557610b7461134b565b5b6000610b8384828501610ada565b91505092915050565b600080600080600060a08688031215610ba857610ba761134b565b5b6000610bb688828901610b1d565b955050602086013567ffffffffffffffff811115610bd757610bd6611346565b5b610be388828901610aef565b9450506040610bf488828901610b1d565b9350506060610c0588828901610b1d565b9250506080610c1688828901610b1d565b9150509295509295909350565b600080600060608486031215610c3c57610c3b61134b565b5b6000610c4a86828701610b1d565b9350506020610c5b86828701610b1d565b9250506040610c6c86828701610b1d565b9150509250925092565b6000610c828383610e21565b60208301905092915050565b610c9781611113565b82525050565b6000610ca882611039565b610cb2818561105c565b9350610cbd83611029565b8060005b83811015610cee578151610cd58882610c76565b9750610ce08361104f565b925050600181019050610cc1565b5085935050505092915050565b6000610d0682611044565b610d10818561106d565b9350610d20818560208601611168565b80840191505092915050565b6000610d39601583611078565b9150610d4482611361565b602082019050919050565b6000610d5c600f83611078565b9150610d678261138a565b602082019050919050565b6000610d7f601383611078565b9150610d8a826113b3565b602082019050919050565b6000610da2601183611078565b9150610dad826113dc565b602082019050919050565b6000610dc5600783611078565b9150610dd082611405565b602082019050919050565b6000610de8601e83611078565b9150610df38261142e565b602082019050919050565b6000610e0b600783611078565b9150610e1682611457565b602082019050919050565b610e2a8161114f565b82525050565b610e398161114f565b82525050565b610e50610e4b8261114f565b611247565b82525050565b6000610e628284610cfb565b915081905092915050565b6000610e798284610e3f565b60208201915081905092915050565b6000602082019050610e9d6000830184610c8e565b92915050565b60006020820190508181036000830152610ebd8184610c9d565b905092915050565b60006020820190508181036000830152610ede81610d2c565b9050919050565b60006020820190508181036000830152610efe81610d4f565b9050919050565b60006020820190508181036000830152610f1e81610d72565b9050919050565b60006020820190508181036000830152610f3e81610d95565b9050919050565b60006020820190508181036000830152610f5e81610db8565b9050919050565b60006020820190508181036000830152610f7e81610ddb565b9050919050565b60006020820190508181036000830152610f9e81610dfe565b9050919050565b6000604082019050610fba6000830184610e30565b8181036020830152610fcb81610db8565b905092915050565b6000610fdd610fee565b9050610fe982826111cd565b919050565b6000604051905090565b600067ffffffffffffffff8211156110135761101261130d565b5b61101c82611350565b9050602081019050919050565b6000819050602082019050919050565b600081519050919050565b600081519050919050565b6000602082019050919050565b600082825260208201905092915050565b600081905092915050565b600082825260208201905092915050565b60006110948261114f565b915061109f8361114f565b9250827fffffffffffffffffffffffffffffffffffffffffffffffffffffffffffffffff038211156110d4576110d3611251565b5b828201905092915050565b60006110ea8261114f565b91506110f58361114f565b92508282101561110857611107611251565b5b828203905092915050565b600061111e8261112f565b9050919050565b6000819050919050565b600073ffffffffffffffffffffffffffffffffffffffff82169050919050565b6000819050919050565b82818337600083830152505050565b60005b8381101561118657808201518184015260208101905061116b565b83811115611195576000848401525b50505050565b600060028204905060018216806111b357607f821691505b602082108114156111c7576111c6611280565b5b50919050565b6111d682611350565b810181811067ffffffffffffffff821117156111f5576111f461130d565b5b80604052505050565b60006112098261114f565b91507fffffffffffffffffffffffffffffffffffffffffffffffffffffffffffffffff82141561123c5761123b611251565b5b600182019050919050565b6000819050919050565b7f4e487b7100000000000000000000000000000000000000000000000000000000600052601160045260246000fd5b7f4e487b7100000000000000000000000000000000000000000000000000000000600052602260045260246000fd5b7f4e487b7100000000000000000000000000000000000000000000000000000000600052603160045260246000fd5b7f4e487b7100000000000000000000000000000000000000000000000000000000600052603260045260246000fd5b7f4e487b7100000000000000000000000000000000000000000000000000000000600052604160045260246000fd5b600080fd5b600080fd5b600080fd5b600080fd5b6000601f19601f8301169050919050565b7f43616c6c6572206973206e6f7420696e76697465640000000000000000000000600082015250565b7f43616c6c6572206973206f776e65720000000000000000000000000000000000600082015250565b7f43616c6c6572206973206e6f74206f776e657200000000000000000000000000600082015250565b7f4e6f74206120446f63746f722074797065000000000000000000000000000000600082015250565b7f7375636365737300000000000000000000000000000000000000000000000000600082015250565b7f416c726561647920696e7669746174696f6e20636f6465206578697374730000600082015250565b7f64656c6574656400000000000000000000000000000000000000000000000000600082015250565b61148981611113565b811461149457600080fd5b50565b6114a081611125565b81146114ab57600080fd5b50565b6114b78161114f565b81146114c257600080fd5b5056fea26469706673582212208e73e6b99d90f9216c617c51d821dcdf59f867871e5253678372bd548cb0dd2164736f6c63430008070033",
  "immutableReferences": {},
  "source": "// SPDX-License-Identifier: GPL-3.0\n\npragma solidity >=0.7.0 <0.9.0;\n\n\n/**\n * @title Owner\n * @dev Set & change owner\n */\ncontract Owner {\n\n    address private owner;\n    \n    // event for EVM logging\n    event OwnerSet(address indexed oldOwner, address indexed newOwner);\n    \n    // modifier to check if caller is owner\n    modifier isOwner() {\n        // It is often a good idea to use 'require' to check if functions are called correctly.\n        // As a second argument, you can also provide an explanation about what went wrong.\n        require(msg.sender == owner, \"Caller is not owner\");\n        _;\n    }\n    \n    modifier notOwner() {\n       require(msg.sender != owner, \"Caller is owner\");\n        _; \n    }\n    \n    /**\n     * @dev Set contract deployer as owner\n     */\n    constructor() {\n        owner = msg.sender; // 'msg.sender' is sender of current call, contract deployer for a constructor\n        emit OwnerSet(address(0), owner);\n    }\n\n    /**\n     * @dev Change owner\n     * @param newOwner address of new owner\n     */\n    function changeOwner(address newOwner) public isOwner {\n        emit OwnerSet(owner, newOwner);\n        owner = newOwner;\n    }\n\n    /**\n     * @dev Return owner address \n     * @return address of owner\n     */\n    function getOwner() external view returns (address) {\n        return owner;\n    }\n}\n\ncontract UserInvite is Owner{ \n\n\n    \n    struct Invitation { \n        uint id;\n        uint invtype;\n    }\n    \n    event delinvitee (\n        string  msg\n        );\n        \n    event InvitationAdded(string msg);\n\n    mapping (uint => Invitation) internal invitationById;\n    uint[] internal invitees;\n    \n    modifier isInvited(uint _code, uint _id, uint _usertype) {\n        // If the first argument of 'require' evaluates to 'false', execution terminates and all\n        // changes to the state and to Ether balances are reverted.\n        // This used to consume all gas in old EVM versions, but not anymore.\n        // It is often a good idea to use 'require' to check if functions are called correctly.\n        // As a second argument, you can also provide an explanation about what went wrong.\n        require(invitationById[_code].id == _id && invitationById[_code].invtype == _usertype, \"Caller is not invited\");\n        _;\n    }\n\n    function find(uint value) private view returns(uint) {\n        uint i = 0;\n        while (invitees[i] != value) {\n            i++;\n        }\n        return i;\n    }\n\n    function removeByValue(uint value) private {\n        uint i = find(value);\n        removeByIndex(i);\n    }\n\n    function removeByIndex(uint i) private {\n            invitees[i] = invitees[invitees.length -1];\n            invitees.pop();\n        }\n    \n    \n    function addInvitation(uint _code, uint _id, uint _usertype) public isOwner { \n        require(invitationById[_code].id == 0, \"Already invitation code exists\");\n        invitationById[_code].id = _id;\n        invitationById[_code].invtype = _usertype;\n        \n        invitees.push(_id);\n        emit InvitationAdded(\"success\");\n    }\n    \n    function deleteInvitation(uint _code, uint _id) internal {\n         delete invitationById[_code];\n         removeByValue(_id);\n         emit delinvitee(\"deleted\");\n    }\n    \n    function getInvitations() public isOwner view returns (uint[] memory)  {\n        return invitees;\n    }\n    \n}\n\ncontract EmployeeBase is UserInvite { \n\n    struct Employee { \n        uint id;\n        uint empid; //empid provided by HR\n        uint maxfamilycount; //maximum number of family members that can register\n        uint initialCouponCount;\n        uint extraCouponCount;\n        bool active;\n    }\n\n    struct Family {\n      uint id;\n      uint empId;\n      uint count;\n      bool active;\n      uint activeMembers;\n    }\n\n    \n  \n  struct Member {\n      uint id;\n      uint empId;\n      uint familyId;\n      address owner;\n      uint initialCouponCount;\n      uint extraCouponCount;\n      bool active;\n   }\n    event empRegistration(uint employeesCounter, string msg);\n    event empFamilyRegistration(uint familyCounter, string msg);\n    event memberRegistration (uint memberCounter, string msg);\n    \n    uint employeesCounter;\n    uint familyCounter;\n    uint memberCounter;\n    \n    mapping (address => Employee) internal employees;\n    mapping (uint => address) internal employeeIndexToOwner;\n    mapping (uint => uint) internal employeeIDtoIndex;\n\n    //family\n    mapping(uint => Family) public EmployeeFamily;\n\n    //Family Member\n    mapping (address => Member) internal familyMembers;\n    mapping (uint => mapping(uint => Member )) EmployeeToFamilyMembers;\n    mapping (uint => Member[]) public EmployeeFamilyMembers;\n    mapping (address => uint ) memberAddressToEmployeeId;\n    uint[] public registeredEmployees;\n    \n    //Employee Coupons\n    mapping (uint => mapping(uint => uint[] )) internal EmployeeToCoupons;\n    \n    //Member Coupons\n    mapping (uint => mapping(uint => uint[] )) internal MemberToCoupons;\n    \n    //Employee Doctor Visit, e.g empDoctorVisists[601][0] = 1 (visitId)\n    mapping(address => uint[]) public empDoctorVisists;\n    \n    constructor() {\n        employeesCounter = 0;\n        memberCounter = 0;\n        familyCounter = 0;\n    }\n\n    function isEmployee(uint _type) private pure returns (bool) {\n        if (_type ==1) {\n            return true;\n        }\n        else {\n            return false;\n        }\n    }\n    \n    \n    modifier isRegisteredEmployee(address _address) {\n        // If the first argument of 'require' evaluates to 'false', execution terminates and all\n        // changes to the state and to Ether balances are reverted.\n        // This used to consume all gas in old EVM versions, but not anymore.\n        // It is often a good idea to use 'require' to check if functions are called correctly.\n        // As a second argument, you can also provide an explanation about what went wrong.\n        require(employees[_address].active == true, \"Employee Not Registered\");\n        _;\n    }\n    \n    modifier isNotRegistered(address _address) {\n        require(employees[_address].active == false, \"Employee  Registered\");\n        _;\n    }\n\n    //function can be called by User with an invitation on the system\n    function registerEmployee(uint _empid, uint _maxfamilycount, uint _code, uint _usertype ) public notOwner isInvited(_code,_empid, _usertype) isNotRegistered(msg.sender) {\n        require(isEmployee(_usertype), \"Not an employee type\");\n        employeesCounter ++;\n        employees[msg.sender] = Employee(employeesCounter, _empid, _maxfamilycount,0,0,true);\n        registeredEmployees.push(_empid);\n        employeeIndexToOwner[employeesCounter] = msg.sender;\n        employeeIDtoIndex[_empid] = employeesCounter;\n        deleteInvitation(_code,_empid);\n        registerFamily(_empid, _maxfamilycount, msg.sender);\n        emit empRegistration(employeesCounter, \"success\");\n    }\n\n    function getEmployee(address _address) internal view returns (Employee storage){\n        return( employees[_address]);\n    }\n    \n    function getMember(address _address) internal view returns (Member storage){\n        return( familyMembers[_address]);\n    }\n    \n\n    function registerFamily(uint _empId, uint _count, address _address) internal isRegisteredEmployee(_address) {\n        require(_count > 0, \"Family members should be more than 0\");\n        require(!familyExists(_empId), \"Family exists\");\n        familyCounter ++;\n        Family memory _family = Family(familyCounter, _empId, _count, true, 0);\n        EmployeeFamily[_empId] = _family;\n        \n        emit empFamilyRegistration(familyCounter, \"success\");\n\n    }\n\n    function registerFamilyMember(uint _empId,uint _familyId, address _address) public isRegisteredEmployee(msg.sender) {\n              memberCounter ++;\n              Member memory _member = Member(memberCounter, _empId, _familyId, _address,0,0, true);\n              familyMembers[_address] = _member;\n              EmployeeToFamilyMembers[_empId][memberCounter] = _member;\n              EmployeeFamilyMembers[_empId].push(_member);\n              memberAddressToEmployeeId[_address] = _empId;\n              Family memory _family = EmployeeFamily[_empId];\n              _family.activeMembers ++;\n              EmployeeFamily[_empId] = _family;\n              emit memberRegistration(memberCounter, \"success\");\n    }\n  \n  function familyExists(uint _empId) private view returns(bool){\n      if (EmployeeFamily[_empId].active == true ) {\n          return true;\n      }\n      else {\n          return false;\n      }\n      \n  }\n    \n}\n\ncontract DoctorBase is UserInvite { \n\n    struct Doctor { \n        uint id;\n        uint doctorid;\n        string specialty;\n        uint couponcoeficient;\n        bool active;\n    }\n    \n    uint internal doctorsCounter;\n    \n    mapping (address => Doctor) internal doctors;\n    mapping (uint => address) internal doctorIndexToOwner;\n    mapping (uint => bytes32) internal doctorIndexToKeyHash;\n    uint[] internal registeredDoctors;\n    \n    //events \n    event doctorregistration (uint id, string msg);\n    \n    constructor() {\n        doctorsCounter = 0;\n    }\n\n    function isDoctor(uint _type) private pure returns (bool) {\n        if (_type ==2) {\n            return true;\n        }\n        else {\n            return false;\n        }\n    }\n    \n    //function can be called by User with an invitation on the system\n    function registerDoctor(uint _doctorid, string memory _speciality, uint _code, uint _usertype, uint _couponcoeficient) public isInvited(_code,_doctorid, _usertype) notOwner{\n        require(isDoctor(_usertype), \"Not a Doctor type\");\n        doctorsCounter ++;\n        bytes32 _keyhash = sha256(abi.encodePacked(doctorsCounter+_doctorid));\n        doctorIndexToKeyHash[doctorsCounter] = _keyhash;\n        doctors[msg.sender] = Doctor(doctorsCounter, _doctorid, _speciality,_couponcoeficient, true);\n        registeredDoctors.push(_doctorid);\n        doctorIndexToOwner[_doctorid] = msg.sender;\n        deleteInvitation(_code,_doctorid);\n        emit doctorregistration(doctorsCounter, \"success\");\n    }\n\n    function getDoctor(address _address) internal view returns (uint, uint, string memory, uint256, bool ){\n        return( doctors[_address].doctorid, doctors[_address].id, doctors[_address].specialty ,doctors[_address].couponcoeficient,doctors[_address].active);\n    }\n    function getDoctor(uint _id) internal view returns(bytes32 _keyhash) {\n        return doctorIndexToKeyHash[_id];\n    }\n}\n\ncontract Coupon is Owner {\n    \n  address owner;\n  uint value;\n  uint empCouponMax;\n  uint couponPayAmount;\n  uint couponCount; \n  uint couponExchangedCount;\n  uint couponRedeemedCount;\n  uint couponPaidCount;\n  uint year;\n  \n  struct CouponPaper {\n    uint id;\n    address owner;\n    address beneficiary;\n    //add empID to track coupons for family members\n    uint value;\n    string status;\n    bool valid;\n    bool approved;\n  } \n  \n  event CouponPaperCreated(\n    uint id,\n    address owner,\n    bool valid,\n    string msg\n  );\n\n  event GlobalParametersSet(\n      uint value, \n      uint maxcoupons, \n      uint paidamount,\n      uint year,\n      string msg\n  );\n  \n  \n  mapping(uint => CouponPaper) internal coupons;\n  mapping(address => uint) internal ownershipToCouponCount;\n  //Filled when new coupon is created\n  mapping(uint => address) internal couponIndexToOwner;\n  //Filled when new coupon is exchanged\n  mapping(uint => address) internal couponIndexToOwnerExchanged;\n  //Filled when new coupon is redeemed\n  mapping(uint => address) internal couponIndexToOwnerRedeeemed;\n  //Track coupon status\n  mapping(uint => uint256) internal couponIndexToStatus;\n  \n  //Filled when a coupon is used in DoctorVisit\n  mapping(uint => bool) couponIndexToDoctorVisit;\n  \n  //Stores the balances to be paid for the employee;\n  mapping(address => uint) balances;\n  \n  constructor() {\n    owner = msg.sender;\n    couponCount = 0;\n    value = 1;\n    empCouponMax = 5;\n    couponPayAmount = 60000;\n  }\n  \n    function setGlobalParameters(uint _value, uint _maxcoupons, uint _paidamount,uint _year) public isOwner {\n        value = _value;\n        empCouponMax = _maxcoupons;\n        couponPayAmount = _paidamount;\n        year = _year;\n        emit GlobalParametersSet(value, empCouponMax, couponPayAmount, year, \"success\" );\n    }\n  \n\n    function issueCoupon(address _couponowner, address _couponbeneficiary ) internal returns(uint _couponId) {\n    couponCount ++;\n    coupons[couponCount] = CouponPaper(couponCount,_couponowner, _couponbeneficiary, value, \"created\", true, false);\n    ownershipToCouponCount[_couponowner] ++;\n    couponIndexToOwner[couponCount] = _couponowner;\n    couponIndexToStatus[couponCount] = 1;\n    emit CouponPaperCreated(couponCount, _couponowner, true, \"success\");\n    return couponCount;\n    \n    }\n    \n    function _transfer(address _from, address _to, uint _couponId) internal {\n        CouponPaper storage _coupon = coupons[_couponId];\n        _coupon.owner = _to;\n        ownershipToCouponCount[_to] ++;\n        ownershipToCouponCount[_from] --;\n        couponIndexToOwner[couponCount] = _to;\n    }\n\n    function _owns(address _address, uint _couponId) internal view returns (bool) {\n        return(coupons[_couponId].owner == _address);\n    }\n    \n    function _usedInDoctorVisit(uint _couponId) internal view returns (bool) {\n        return (couponIndexToDoctorVisit[_couponId]);\n    }\n    \n    function _isBeneficiary(address _address, uint _couponId) internal view returns (bool) {\n        return(coupons[_couponId].beneficiary == _address);\n    }\n    \n    //coupon status is exchanged\n    function _readyToBeRedeemed(uint _couponId) internal view returns (bool) {\n       return((couponIndexToOwnerExchanged[_couponId] > address(0)) && (couponIndexToStatus[_couponId] == 2));\n    }\n    \n  \n    function getCouponById(uint _couponId) public isOwner view returns(uint id, address, address, string memory status) { \n    \n        return (coupons[_couponId].id, coupons[_couponId].owner, coupons[_couponId].beneficiary, coupons[_couponId].status);\n    }\n    \n    function getCoupon(uint _couponId) internal isOwner view returns(CouponPaper storage){\n        return coupons[_couponId];\n    }\n\n    function couponBalanceOf(address _address) internal view returns (uint count) {\n        return ownershipToCouponCount[_address];\n    }\n\n    function totalCoupons() internal view returns (uint count) {\n        return couponCount;\n        \n    }\n\n    function totalCouponsByStatus(uint _status) internal view returns (uint countExchanged) {\n        require(_status < 5 && _status >0, \"Invalid status provided\");\n        //1 - created, 2- exchanged, 3-redeemed, 4-paid\n        if (_status == 1) return couponCount;\n        if (_status == 2) return couponExchangedCount;\n        if (_status == 3) return couponRedeemedCount;\n        if (_status == 4) return couponPaidCount;\n    }\n\n    function getCouponsByStatus(uint _status) external view returns (uint256[] memory statusCoupons) {\n        \n        uint count = totalCouponsByStatus(_status);\n        if (count == 0) {\n            return new uint256[](0);\n        }\n        else {\n            uint256[] memory result = new uint256[](count);\n            uint total = totalCoupons();\n            uint resultIndex = 0;\n            //we count all coupons\n            uint couponId;\n\n            for (couponId = 1; couponId <= total; couponId++) {\n                if (couponIndexToStatus[couponId] == _status) {\n                    result[resultIndex] = couponId;\n                    resultIndex++;\n                }\n            }\n\n            return result;\n        }\n\n    }\n\n    \n    function getCouponsByOwner(address _owner) external view returns (uint256[] memory ownerCoupons) {\n        uint count = couponBalanceOf(_owner);\n        if (count == 0) {\n            return new uint[](0);\n        }\n        else {\n            uint256[] memory result = new uint256[](count);\n            uint total = totalCoupons();\n            uint resultIndex = 0;\n            //we count all coupons\n            uint couponId;\n\n            for (couponId = 1; couponId <= total; couponId++) {\n                if (couponIndexToOwner[couponId] == _owner) {\n                    result[resultIndex] = couponId;\n                    resultIndex++;\n                }\n            }\n\n            return result;\n        }\n\n    }\n    \n    \n  \n  \n}\n\ncontract DoctorVisitBase {\n  uint public visitCount; \n\n  struct Visit {\n    uint id;\n    uint empId;\n    uint couponId;\n    uint doctorId;\n  }\n\n  event VisitCreated (\n    uint id,\n    uint empId,\n    uint couponId,\n    string msg\n  );\n\n  //visits  mapping incremental\n  mapping(uint => Visit) public visits;\n  //mapping visitDocumentIndex to Visit ID;\n  mapping (uint => uint) DoctorVisitIndexToDocumentId;\n\n  constructor() {\n    visitCount = 0;\n  }\n\n  function createVisit(uint _empId, uint _couponId, uint _doctorId) internal returns(uint visitId) {\n    visitCount ++;\n    Visit memory _visit;\n    _visit = Visit(visitCount, _empId, _couponId, _doctorId);\n    visits[visitCount] = _visit;\n    emit VisitCreated(visitCount, _empId, _couponId, \"success\");\n    return visits[visitCount].id;\n  }\n  \n  function getDoctorVisit(uint _visitid) public view returns (uint visitid, uint empid, uint couponid, uint doctorid) {\n      return (visits[_visitid].id,visits[_visitid].empId,visits[_visitid].couponId,visits[_visitid].doctorId);\n  }\n\n}\n\ncontract VisitDocumentBase is DoctorVisitBase { \n  uint public VisitDocumentCount;\n\n  struct VisitDoc { \n    uint id; \n    uint _doctorvisitId;\n    uint _empId;\n    bytes32 _docHash;\n    uint flag; //flag is one when created by the contract\n  }\n\n  event VisitDocumentAddition (\n    uint documentID,\n    string msg\n  );\n  mapping (uint => VisitDoc ) public VisitDocuments;\n  mapping (bytes32 => uint ) public VisitDocumentBasehash;\n  \n\n  constructor() {\n    VisitDocumentCount = 0;\n  }\n\n  function addVisitDocument(uint _doctorvisitId, uint _empId,bytes32 _docHash) internal returns(uint documentId) {\n     require(!_documentExists(_docHash), \"Document already exists\"); //check if document hash already exists\n        VisitDocumentCount ++;\n        VisitDocuments[VisitDocumentCount] = VisitDoc(VisitDocumentCount, _doctorvisitId, _empId, _docHash, 1);\n        VisitDocumentBasehash[_docHash] = VisitDocumentCount; \n        DoctorVisitIndexToDocumentId[_doctorvisitId] = VisitDocumentCount;\n        emit VisitDocumentAddition(VisitDocumentCount, \"success\");\n        return VisitDocuments[VisitDocumentCount].id;\n  }\n  \n  function _documentExists(bytes32 _docHash) public view returns (bool) {\n      if(VisitDocumentBasehash[_docHash] > 0) {\n        return true;\n      }\n      else {\n        return false;\n      }\n  }\n  \n}\n\n\n\ncontract EmployeeCore is Coupon,EmployeeBase,VisitDocumentBase {\n    \n    event EmployeeCouponGeneration(uint initialCouponCount, string msg);\n    event MemberCouponGeneration(uint initialCouponCount, string msg);\n    event couponExchanged(uint _couponId, string msg);\n    event doctorVisited(uint visitid, uint documentid, string msg);\n    event couponRedeemed(uint couponId, string msg);\n\n    \n    //get Employee info\n    function getEmployeeInfo(address _employee) external isRegisteredEmployee(msg.sender) view returns (Employee memory) {\n        return getEmployee(_employee);\n    }\n    //issue inital coupons\n    function employeeIssueCoupons() public isRegisteredEmployee(msg.sender) {\n        require((employees[msg.sender].initialCouponCount == 0), \"Initial Coupons already issued\");\n        Employee storage _employee = getEmployee(msg.sender);\n            for (uint i =1; i <= empCouponMax; i++)\n            {\n            //Employee is the owner and beneficiary of his initial coupons\n            EmployeeToCoupons[_employee.empid][year].push(issueCoupon(msg.sender,msg.sender));\n            _employee.initialCouponCount ++;\n            }\n            if ((_employee.initialCouponCount) == empCouponMax) {\n                emit EmployeeCouponGeneration(empCouponMax, \"success\");\n            }\n            else { \n                emit EmployeeCouponGeneration(_employee.initialCouponCount, \"failure\");\n            }\n        \n\n    }\n    \n    function employeeIssueMembersCoupons(address _memberaddress) public isRegisteredEmployee(msg.sender) {\n        require((familyMembers[_memberaddress].initialCouponCount == 0), \"Initial Coupons already issued\");\n        Member storage _member = getMember(_memberaddress);\n            for (uint i =1; i <= empCouponMax; i++)\n            {\n            //Employee is the owner and beneficiary of his initial coupons\n            MemberToCoupons[_member.id][year].push(issueCoupon(_memberaddress,msg.sender));\n            _member.initialCouponCount ++;\n            }\n            if ((_member.initialCouponCount) == empCouponMax) {\n                emit MemberCouponGeneration(empCouponMax, \"success\");\n            }\n            else { \n                emit MemberCouponGeneration(_member.initialCouponCount, \"failure\");\n            }\n        \n\n    }\n    \n     function exchangeCoupon(uint _couponId, address _owner) public isRegisteredEmployee(msg.sender) {\n        require(_owns(_owner, _couponId), \"Not the owner of the token\");\n         CouponPaper memory _coupon = coupons[_couponId]; \n         _coupon.status = \"Exchanged\";\n         //_coupon.beneficiary = _coupon.owner;\n         //_coupon.owner = owner;\n         coupons[_couponId] = _coupon;\n         couponIndexToStatus[_couponId] = 2;\n         couponExchangedCount ++;\n         couponIndexToOwnerExchanged[_couponId] = _owner;\n         couponIndexToOwner[_couponId];\n    }\n    \n    function redeemCoupon(uint _couponId, address _owner) public isRegisteredEmployee(msg.sender) {\n        require(_owns(_owner, _couponId), \"Not the owner of the token\");\n        require(_readyToBeRedeemed(_couponId), \"Coupon can not be redeemed\");\n         CouponPaper memory _coupon = coupons[_couponId]; \n         _coupon.status = \"Redeemed\";\n         couponIndexToStatus[couponCount] = 3;\n         couponExchangedCount --;\n         couponRedeemedCount ++;\n         //_coupon.beneficiary = owner;\n        coupons[_couponId] = _coupon;\n        couponIndexToOwnerRedeeemed[_couponId] = msg.sender;\n        delete couponIndexToOwnerExchanged[_couponId];\n        emit couponRedeemed(_couponId, \"success\");\n    }\n    \n    function visitDoctor(uint empid, uint couponid, uint doctorid, string memory _md5, address _address) public isRegisteredEmployee(msg.sender){\n            //employee should have a family relation with _address\n            //visit doctor\n            uint _visitId = createVisit(empid, couponid, doctorid);\n            couponIndexToDoctorVisit[couponid] = true;\n            empDoctorVisists[msg.sender].push(_visitId);\n            //submit document\n            bytes32 _docHash = sha256(bytes(_md5));\n            uint _documentId = addVisitDocument(doctorid, empid, _docHash);\n            // then exchange Coupon\n            exchangeCoupon(couponid, _address);\n            emit doctorVisited( _visitId, _documentId, \"success\");\n    }\n}\n\ncontract HRManager is Coupon,EmployeeBase,DoctorBase {\n    mapping(uint => bool) public couponIndexApproved;\n\n    event approveCoupon(uint couponid, string msg);\n    event paidCoupon(uint _couponId, string msg);\n   // event DoctorPricing(string msg);\n\n    function approveCouponRedemption(uint _couponId) public isOwner {\n        require(_readyToBeRedeemed(_couponId), \"Coupon can not be redeemed\");\n        require(!couponIndexApproved[_couponId], \"Coupon already approved\");\n        CouponPaper storage _coupon = coupons[_couponId]; \n         _coupon.approved = true;\n         couponIndexApproved[_couponId] = true;\n         emit approveCoupon(_couponId, \"success\");\n    }\n    \n    function prepareCouponPayment(uint _couponId) public isOwner {\n        CouponPaper storage _coupon = coupons[_couponId]; \n        _coupon.valid = false;\n        _coupon.status = \"Paid\";\n        _coupon.beneficiary = _coupon.owner;\n        _coupon.owner = owner;\n        couponIndexToStatus[couponCount] = 4;\n        couponRedeemedCount --;\n        couponPaidCount ++;\n        uint _balance = balances[_coupon.owner];\n        balances[_coupon.owner] = _balance + couponPayAmount;\n\n        emit paidCoupon(_couponId, \"success\");\n        \n    }\n}\n \ncontract MyNet is EmployeeCore,HRManager {\n    string name;\n\n    constructor() {\n        name = \"MyNet Contract is initialised\";\n    }\n\n    function getName() public view returns(string memory _name) {\n        return name;\n    }\n    \n    \n}\n",
  "sourcePath": "/Users/wissamdagher/Documents/dev/blockchain/CouponMedNet/src/contracts/MyNet.sol",
  "compiler": {
    "name": "solc",
    "version": "0.8.7+commit.e28d00a7.Emscripten.clang"
  },
  "schemaVersion": "3.4.1",
  "updatedAt": "2021-09-11T19:08:58.756Z",
  "networkType": "ethereum",
  "devdoc": {
    "kind": "dev",
    "methods": {
      "changeOwner(address)": {
        "details": "Change owner",
        "params": {
          "newOwner": "address of new owner"
        }
      },
      "getOwner()": {
        "details": "Return owner address ",
        "returns": {
          "_0": "address of owner"
        }
      }
    },
    "version": 1
  },
  "userdoc": {
    "kind": "user",
    "methods": {},
    "version": 1
  }
}