{
  "contractName": "EmployeeBase",
  "abi": [
    {
      "inputs": [],
      "stateMutability": "nonpayable",
      "type": "constructor"
    },
    {
      "anonymous": false,
      "inputs": [
        {
          "indexed": false,
          "internalType": "string",
          "name": "msg",
          "type": "string"
        }
      ],
      "name": "InvitationAdded",
      "type": "event"
    },
    {
      "anonymous": false,
      "inputs": [
        {
          "indexed": true,
          "internalType": "address",
          "name": "oldOwner",
          "type": "address"
        },
        {
          "indexed": true,
          "internalType": "address",
          "name": "newOwner",
          "type": "address"
        }
      ],
      "name": "OwnerSet",
      "type": "event"
    },
    {
      "anonymous": false,
      "inputs": [
        {
          "indexed": false,
          "internalType": "string",
          "name": "msg",
          "type": "string"
        }
      ],
      "name": "delinvitee",
      "type": "event"
    },
    {
      "anonymous": false,
      "inputs": [
        {
          "indexed": false,
          "internalType": "uint256",
          "name": "familyCounter",
          "type": "uint256"
        },
        {
          "indexed": false,
          "internalType": "string",
          "name": "msg",
          "type": "string"
        }
      ],
      "name": "empFamilyRegistration",
      "type": "event"
    },
    {
      "anonymous": false,
      "inputs": [
        {
          "indexed": false,
          "internalType": "uint256",
          "name": "employeesCounter",
          "type": "uint256"
        },
        {
          "indexed": false,
          "internalType": "string",
          "name": "msg",
          "type": "string"
        }
      ],
      "name": "empRegistration",
      "type": "event"
    },
    {
      "anonymous": false,
      "inputs": [
        {
          "indexed": false,
          "internalType": "uint256",
          "name": "memberCounter",
          "type": "uint256"
        },
        {
          "indexed": false,
          "internalType": "string",
          "name": "msg",
          "type": "string"
        }
      ],
      "name": "memberRegistration",
      "type": "event"
    },
    {
      "inputs": [
        {
          "internalType": "uint256",
          "name": "",
          "type": "uint256"
        }
      ],
      "name": "EmployeeFamily",
      "outputs": [
        {
          "internalType": "uint256",
          "name": "id",
          "type": "uint256"
        },
        {
          "internalType": "uint256",
          "name": "empId",
          "type": "uint256"
        },
        {
          "internalType": "uint256",
          "name": "count",
          "type": "uint256"
        },
        {
          "internalType": "bool",
          "name": "active",
          "type": "bool"
        },
        {
          "internalType": "uint256",
          "name": "activeMembers",
          "type": "uint256"
        }
      ],
      "stateMutability": "view",
      "type": "function"
    },
    {
      "inputs": [
        {
          "internalType": "uint256",
          "name": "",
          "type": "uint256"
        },
        {
          "internalType": "uint256",
          "name": "",
          "type": "uint256"
        }
      ],
      "name": "EmployeeFamilyMembers",
      "outputs": [
        {
          "internalType": "uint256",
          "name": "id",
          "type": "uint256"
        },
        {
          "internalType": "uint256",
          "name": "empId",
          "type": "uint256"
        },
        {
          "internalType": "uint256",
          "name": "familyId",
          "type": "uint256"
        },
        {
          "internalType": "address",
          "name": "owner",
          "type": "address"
        },
        {
          "internalType": "uint256",
          "name": "initialCouponCount",
          "type": "uint256"
        },
        {
          "internalType": "uint256",
          "name": "extraCouponCount",
          "type": "uint256"
        },
        {
          "internalType": "bool",
          "name": "active",
          "type": "bool"
        }
      ],
      "stateMutability": "view",
      "type": "function"
    },
    {
      "inputs": [
        {
          "internalType": "uint256",
          "name": "_code",
          "type": "uint256"
        },
        {
          "internalType": "uint256",
          "name": "_id",
          "type": "uint256"
        },
        {
          "internalType": "uint256",
          "name": "_usertype",
          "type": "uint256"
        }
      ],
      "name": "addInvitation",
      "outputs": [],
      "stateMutability": "nonpayable",
      "type": "function"
    },
    {
      "inputs": [
        {
          "internalType": "address",
          "name": "newOwner",
          "type": "address"
        }
      ],
      "name": "changeOwner",
      "outputs": [],
      "stateMutability": "nonpayable",
      "type": "function"
    },
    {
      "inputs": [
        {
          "internalType": "address",
          "name": "",
          "type": "address"
        },
        {
          "internalType": "uint256",
          "name": "",
          "type": "uint256"
        }
      ],
      "name": "empDoctorVisists",
      "outputs": [
        {
          "internalType": "uint256",
          "name": "",
          "type": "uint256"
        }
      ],
      "stateMutability": "view",
      "type": "function"
    },
    {
      "inputs": [],
      "name": "getInvitations",
      "outputs": [
        {
          "internalType": "uint256[]",
          "name": "",
          "type": "uint256[]"
        }
      ],
      "stateMutability": "view",
      "type": "function"
    },
    {
      "inputs": [],
      "name": "getOwner",
      "outputs": [
        {
          "internalType": "address",
          "name": "",
          "type": "address"
        }
      ],
      "stateMutability": "view",
      "type": "function"
    },
    {
      "inputs": [
        {
          "internalType": "uint256",
          "name": "",
          "type": "uint256"
        }
      ],
      "name": "registeredEmployees",
      "outputs": [
        {
          "internalType": "uint256",
          "name": "",
          "type": "uint256"
        }
      ],
      "stateMutability": "view",
      "type": "function"
    },
    {
      "inputs": [
        {
          "internalType": "uint256",
          "name": "_empid",
          "type": "uint256"
        },
        {
          "internalType": "uint256",
          "name": "_maxfamilycount",
          "type": "uint256"
        },
        {
          "internalType": "uint256",
          "name": "_code",
          "type": "uint256"
        },
        {
          "internalType": "uint256",
          "name": "_usertype",
          "type": "uint256"
        }
      ],
      "name": "registerEmployee",
      "outputs": [],
      "stateMutability": "nonpayable",
      "type": "function"
    },
    {
      "inputs": [
        {
          "internalType": "uint256",
          "name": "_empId",
          "type": "uint256"
        },
        {
          "internalType": "uint256",
          "name": "_familyId",
          "type": "uint256"
        },
        {
          "internalType": "address",
          "name": "_address",
          "type": "address"
        }
      ],
      "name": "registerFamilyMember",
      "outputs": [],
      "stateMutability": "nonpayable",
      "type": "function"
    }
  ],
  "bytecode": "0x608060405234801561001057600080fd5b50336000806101000a81548173ffffffffffffffffffffffffffffffffffffffff021916908373ffffffffffffffffffffffffffffffffffffffff16021790555060008054906101000a900473ffffffffffffffffffffffffffffffffffffffff1673ffffffffffffffffffffffffffffffffffffffff16600073ffffffffffffffffffffffffffffffffffffffff167f342827c97908e5e2f71151c08502a66d44b6f758e3ac2f1de95f02eb95f0a73560405160405180910390a3600060038190555060006005819055506000600481905550611e39806100f36000396000f3fe608060405234801561001057600080fd5b506004361061009e5760003560e01c8063a61b8fc511610066578063a61b8fc51461014d578063a6f9dae11461017d578063d2140b8d14610199578063f4b75ee1146101cd578063fe1b5165146101fd5761009e565b806316845714146100a35780634ca64390146100c15780636883a62f146100dd578063885d6e5914610113578063893d20e81461012f575b600080fd5b6100ab610219565b6040516100b891906117be565b60405180910390f35b6100db60048036038101906100d69190611509565b6102ff565b005b6100f760048036038101906100f29190611423565b6106b8565b60405161010a9796959493929190611989565b60405180910390f35b61012d600480360381019061012891906114b6565b610744565b005b6101376108c4565b60405161014491906117a3565b60405180910390f35b610167600480360381019061016291906113b6565b6108ed565b6040516101749190611940565b60405180910390f35b61019760048036038101906101929190611389565b61091e565b005b6101b360048036038101906101ae91906113f6565b610a69565b6040516101c49594939291906119f8565b60405180910390f35b6101e760048036038101906101e291906113f6565b610aac565b6040516101f49190611940565b60405180910390f35b61021760048036038101906102129190611463565b610ad0565b005b606060008054906101000a900473ffffffffffffffffffffffffffffffffffffffff1673ffffffffffffffffffffffffffffffffffffffff163373ffffffffffffffffffffffffffffffffffffffff16146102a9576040517f08c379a00000000000000000000000000000000000000000000000000000000081526004016102a090611840565b60405180910390fd5b60028054806020026020016040519081016040528092919081815260200182805480156102f557602002820191906000526020600020905b8154815260200190600101908083116102e1575b5050505050905090565b60008054906101000a900473ffffffffffffffffffffffffffffffffffffffff1673ffffffffffffffffffffffffffffffffffffffff163373ffffffffffffffffffffffffffffffffffffffff16141561038e576040517f08c379a000000000000000000000000000000000000000000000000000000000815260040161038590611800565b60405180910390fd5b8184828160016000858152602001908152602001600020600001541480156103cb5750806001600085815260200190815260200160002060010154145b61040a576040517f08c379a0000000000000000000000000000000000000000000000000000000008152600401610401906117e0565b60405180910390fd5b3360001515600660008373ffffffffffffffffffffffffffffffffffffffff1673ffffffffffffffffffffffffffffffffffffffff16815260200190815260200160002060050160009054906101000a900460ff161515146104a1576040517f08c379a0000000000000000000000000000000000000000000000000000000008152600401610498906118c0565b60405180910390fd5b6104aa85610fa9565b6104e9576040517f08c379a00000000000000000000000000000000000000000000000000000000081526004016104e090611820565b60405180910390fd5b600360008154809291906104fc90611b11565b91905055506040518060c001604052806003548152602001898152602001888152602001600081526020016000815260200160011515815250600660003373ffffffffffffffffffffffffffffffffffffffff1673ffffffffffffffffffffffffffffffffffffffff168152602001908152602001600020600082015181600001556020820151816001015560408201518160020155606082015181600301556080820151816004015560a08201518160050160006101000a81548160ff021916908315150217905550905050600e8890806001815401808255809150506001900390600052602060002001600090919091909150553360076000600354815260200190815260200160002060006101000a81548173ffffffffffffffffffffffffffffffffffffffff021916908373ffffffffffffffffffffffffffffffffffffffff160217905550600354600860008a81526020019081526020016000208190555061066a8689610fc7565b61067588883361102f565b7f6dd3c20f7609bbf719cf9279aeda93d1c4be21c20864d29483b679c98b7b7e8a6003546040516106a6919061195b565b60405180910390a15050505050505050565b600c60205281600052604060002081815481106106d457600080fd5b9060005260206000209060070201600091509150508060000154908060010154908060020154908060030160009054906101000a900473ffffffffffffffffffffffffffffffffffffffff16908060040154908060050154908060060160009054906101000a900460ff16905087565b60008054906101000a900473ffffffffffffffffffffffffffffffffffffffff1673ffffffffffffffffffffffffffffffffffffffff163373ffffffffffffffffffffffffffffffffffffffff16146107d2576040517f08c379a00000000000000000000000000000000000000000000000000000000081526004016107c990611840565b60405180910390fd5b600060016000858152602001908152602001600020600001541461082b576040517f08c379a0000000000000000000000000000000000000000000000000000000008152600401610822906118a0565b60405180910390fd5b81600160008581526020019081526020016000206000018190555080600160008581526020019081526020016000206001018190555060028290806001815401808255809150506001900390600052602060002001600090919091909150557f4b94f404f01408af2bc2543d9ad9bea2c7382d8beb361d59bb3038d8ff9f40d66040516108b790611880565b60405180910390a1505050565b60008060009054906101000a900473ffffffffffffffffffffffffffffffffffffffff16905090565b6011602052816000526040600020818154811061090957600080fd5b90600052602060002001600091509150505481565b60008054906101000a900473ffffffffffffffffffffffffffffffffffffffff1673ffffffffffffffffffffffffffffffffffffffff163373ffffffffffffffffffffffffffffffffffffffff16146109ac576040517f08c379a00000000000000000000000000000000000000000000000000000000081526004016109a390611840565b60405180910390fd5b8073ffffffffffffffffffffffffffffffffffffffff1660008054906101000a900473ffffffffffffffffffffffffffffffffffffffff1673ffffffffffffffffffffffffffffffffffffffff167f342827c97908e5e2f71151c08502a66d44b6f758e3ac2f1de95f02eb95f0a73560405160405180910390a3806000806101000a81548173ffffffffffffffffffffffffffffffffffffffff021916908373ffffffffffffffffffffffffffffffffffffffff16021790555050565b60096020528060005260406000206000915090508060000154908060010154908060020154908060030160009054906101000a900460ff16908060040154905085565b600e8181548110610abc57600080fd5b906000526020600020016000915090505481565b3360011515600660008373ffffffffffffffffffffffffffffffffffffffff1673ffffffffffffffffffffffffffffffffffffffff16815260200190815260200160002060050160009054906101000a900460ff16151514610b67576040517f08c379a0000000000000000000000000000000000000000000000000000000008152600401610b5e906118e0565b60405180910390fd5b60056000815480929190610b7a90611b11565b919050555060006040518060e0016040528060055481526020018681526020018581526020018473ffffffffffffffffffffffffffffffffffffffff168152602001600081526020016000815260200160011515815250905080600a60008573ffffffffffffffffffffffffffffffffffffffff1673ffffffffffffffffffffffffffffffffffffffff16815260200190815260200160002060008201518160000155602082015181600101556040820151816002015560608201518160030160006101000a81548173ffffffffffffffffffffffffffffffffffffffff021916908373ffffffffffffffffffffffffffffffffffffffff1602179055506080820151816004015560a0820151816005015560c08201518160060160006101000a81548160ff02191690831515021790555090505080600b60008781526020019081526020016000206000600554815260200190815260200160002060008201518160000155602082015181600101556040820151816002015560608201518160030160006101000a81548173ffffffffffffffffffffffffffffffffffffffff021916908373ffffffffffffffffffffffffffffffffffffffff1602179055506080820151816004015560a0820151816005015560c08201518160060160006101000a81548160ff021916908315150217905550905050600c600086815260200190815260200160002081908060018154018082558091505060019003906000526020600020906007020160009091909190915060008201518160000155602082015181600101556040820151816002015560608201518160030160006101000a81548173ffffffffffffffffffffffffffffffffffffffff021916908373ffffffffffffffffffffffffffffffffffffffff1602179055506080820151816004015560a0820151816005015560c08201518160060160006101000a81548160ff021916908315150217905550505084600d60008573ffffffffffffffffffffffffffffffffffffffff1673ffffffffffffffffffffffffffffffffffffffff168152602001908152602001600020819055506000600960008781526020019081526020016000206040518060a00160405290816000820154815260200160018201548152602001600282015481526020016003820160009054906101000a900460ff161515151581526020016004820154815250509050806080018051809190610f0590611b11565b81525050806009600088815260200190815260200160002060008201518160000155602082015181600101556040820151816002015560608201518160030160006101000a81548160ff021916908315150217905550608082015181600401559050507f6e1e4090659373eee2aaca28bea8b2b6d75fda61ac6e007e0246e56eeb59cd73600554604051610f99919061195b565b60405180910390a1505050505050565b60006001821415610fbd5760019050610fc2565b600090505b919050565b6001600083815260200190815260200160002060008082016000905560018201600090555050610ff68161123a565b7f83044fa08cabba8ae7aa27249a8a606cdd565b8e72934bbc7b3597f898859e7060405161102390611900565b60405180910390a15050565b8060011515600660008373ffffffffffffffffffffffffffffffffffffffff1673ffffffffffffffffffffffffffffffffffffffff16815260200190815260200160002060050160009054906101000a900460ff161515146110c6576040517f08c379a00000000000000000000000000000000000000000000000000000000081526004016110bd906118e0565b60405180910390fd5b60008311611109576040517f08c379a000000000000000000000000000000000000000000000000000000000815260040161110090611920565b60405180910390fd5b61111284611254565b15611152576040517f08c379a000000000000000000000000000000000000000000000000000000000815260040161114990611860565b60405180910390fd5b6004600081548092919061116590611b11565b919050555060006040518060a00160405280600454815260200186815260200185815260200160011515815260200160008152509050806009600087815260200190815260200160002060008201518160000155602082015181600101556040820151816002015560608201518160030160006101000a81548160ff021916908315150217905550608082015181600401559050507f08db86aa8d0e65ac45061a1565349ba001d8c73117c16835e9eeb23848eb3e3f60045460405161122b919061195b565b60405180910390a15050505050565b600061124582611299565b9050611250816112e2565b5050565b6000600115156009600084815260200190815260200160002060030160009054906101000a900460ff161515141561128f5760019050611294565b600090505b919050565b600080600090505b82600282815481106112b6576112b5611bb8565b5b9060005260206000200154146112d95780806112d190611b11565b9150506112a1565b80915050919050565b600260016002805490506112f69190611a95565b8154811061130757611306611bb8565b5b90600052602060002001546002828154811061132657611325611bb8565b5b9060005260206000200181905550600280548061134657611345611b89565b5b6001900381819060005260206000200160009055905550565b60008135905061136e81611dd5565b92915050565b60008135905061138381611dec565b92915050565b60006020828403121561139f5761139e611be7565b5b60006113ad8482850161135f565b91505092915050565b600080604083850312156113cd576113cc611be7565b5b60006113db8582860161135f565b92505060206113ec85828601611374565b9150509250929050565b60006020828403121561140c5761140b611be7565b5b600061141a84828501611374565b91505092915050565b6000806040838503121561143a57611439611be7565b5b600061144885828601611374565b925050602061145985828601611374565b9150509250929050565b60008060006060848603121561147c5761147b611be7565b5b600061148a86828701611374565b935050602061149b86828701611374565b92505060406114ac8682870161135f565b9150509250925092565b6000806000606084860312156114cf576114ce611be7565b5b60006114dd86828701611374565b93505060206114ee86828701611374565b92505060406114ff86828701611374565b9150509250925092565b6000806000806080858703121561152357611522611be7565b5b600061153187828801611374565b945050602061154287828801611374565b935050604061155387828801611374565b925050606061156487828801611374565b91505092959194509250565b600061157c8383611785565b60208301905092915050565b61159181611ac9565b82525050565b60006115a282611a5b565b6115ac8185611a73565b93506115b783611a4b565b8060005b838110156115e85781516115cf8882611570565b97506115da83611a66565b9250506001810190506115bb565b5085935050505092915050565b6115fe81611adb565b82525050565b6000611611601583611a84565b915061161c82611bec565b602082019050919050565b6000611634600f83611a84565b915061163f82611c15565b602082019050919050565b6000611657601483611a84565b915061166282611c3e565b602082019050919050565b600061167a601383611a84565b915061168582611c67565b602082019050919050565b600061169d600d83611a84565b91506116a882611c90565b602082019050919050565b60006116c0600783611a84565b91506116cb82611cb9565b602082019050919050565b60006116e3601e83611a84565b91506116ee82611ce2565b602082019050919050565b6000611706601483611a84565b915061171182611d0b565b602082019050919050565b6000611729601783611a84565b915061173482611d34565b602082019050919050565b600061174c600783611a84565b915061175782611d5d565b602082019050919050565b600061176f602483611a84565b915061177a82611d86565b604082019050919050565b61178e81611b07565b82525050565b61179d81611b07565b82525050565b60006020820190506117b86000830184611588565b92915050565b600060208201905081810360008301526117d88184611597565b905092915050565b600060208201905081810360008301526117f981611604565b9050919050565b6000602082019050818103600083015261181981611627565b9050919050565b600060208201905081810360008301526118398161164a565b9050919050565b600060208201905081810360008301526118598161166d565b9050919050565b6000602082019050818103600083015261187981611690565b9050919050565b60006020820190508181036000830152611899816116b3565b9050919050565b600060208201905081810360008301526118b9816116d6565b9050919050565b600060208201905081810360008301526118d9816116f9565b9050919050565b600060208201905081810360008301526118f98161171c565b9050919050565b600060208201905081810360008301526119198161173f565b9050919050565b6000602082019050818103600083015261193981611762565b9050919050565b60006020820190506119556000830184611794565b92915050565b60006040820190506119706000830184611794565b8181036020830152611981816116b3565b905092915050565b600060e08201905061199e600083018a611794565b6119ab6020830189611794565b6119b86040830188611794565b6119c56060830187611588565b6119d26080830186611794565b6119df60a0830185611794565b6119ec60c08301846115f5565b98975050505050505050565b600060a082019050611a0d6000830188611794565b611a1a6020830187611794565b611a276040830186611794565b611a3460608301856115f5565b611a416080830184611794565b9695505050505050565b6000819050602082019050919050565b600081519050919050565b6000602082019050919050565b600082825260208201905092915050565b600082825260208201905092915050565b6000611aa082611b07565b9150611aab83611b07565b925082821015611abe57611abd611b5a565b5b828203905092915050565b6000611ad482611ae7565b9050919050565b60008115159050919050565b600073ffffffffffffffffffffffffffffffffffffffff82169050919050565b6000819050919050565b6000611b1c82611b07565b91507fffffffffffffffffffffffffffffffffffffffffffffffffffffffffffffffff821415611b4f57611b4e611b5a565b5b600182019050919050565b7f4e487b7100000000000000000000000000000000000000000000000000000000600052601160045260246000fd5b7f4e487b7100000000000000000000000000000000000000000000000000000000600052603160045260246000fd5b7f4e487b7100000000000000000000000000000000000000000000000000000000600052603260045260246000fd5b600080fd5b7f43616c6c6572206973206e6f7420696e76697465640000000000000000000000600082015250565b7f43616c6c6572206973206f776e65720000000000000000000000000000000000600082015250565b7f4e6f7420616e20656d706c6f7965652074797065000000000000000000000000600082015250565b7f43616c6c6572206973206e6f74206f776e657200000000000000000000000000600082015250565b7f46616d696c792065786973747300000000000000000000000000000000000000600082015250565b7f7375636365737300000000000000000000000000000000000000000000000000600082015250565b7f416c726561647920696e7669746174696f6e20636f6465206578697374730000600082015250565b7f456d706c6f796565202052656769737465726564000000000000000000000000600082015250565b7f456d706c6f796565204e6f742052656769737465726564000000000000000000600082015250565b7f64656c6574656400000000000000000000000000000000000000000000000000600082015250565b7f46616d696c79206d656d626572732073686f756c64206265206d6f726520746860008201527f616e203000000000000000000000000000000000000000000000000000000000602082015250565b611dde81611ac9565b8114611de957600080fd5b50565b611df581611b07565b8114611e0057600080fd5b5056fea26469706673582212202ab3aa5845df7a2a4096efe8d3111396b068509f2c39fda3c6b5df54a62dd76f64736f6c63430008050033",
  "immutableReferences": {},
  "source": "// SPDX-License-Identifier: GPL-3.0\n\npragma solidity >=0.7.0 <0.9.0;\n\n\n/**\n * @title Owner\n * @dev Set & change owner\n */\ncontract Owner {\n\n    address private owner;\n    \n    // event for EVM logging\n    event OwnerSet(address indexed oldOwner, address indexed newOwner);\n    \n    // modifier to check if caller is owner\n    modifier isOwner() {\n        // If the first argument of 'require' evaluates to 'false', execution terminates and all\n        // changes to the state and to Ether balances are reverted.\n        // This used to consume all gas in old EVM versions, but not anymore.\n        // It is often a good idea to use 'require' to check if functions are called correctly.\n        // As a second argument, you can also provide an explanation about what went wrong.\n        require(msg.sender == owner, \"Caller is not owner\");\n        _;\n    }\n    \n    modifier notOwner() {\n       require(msg.sender != owner, \"Caller is owner\");\n        _; \n    }\n    \n    /**\n     * @dev Set contract deployer as owner\n     */\n    constructor() {\n        owner = msg.sender; // 'msg.sender' is sender of current call, contract deployer for a constructor\n        emit OwnerSet(address(0), owner);\n    }\n\n    /**\n     * @dev Change owner\n     * @param newOwner address of new owner\n     */\n    function changeOwner(address newOwner) public isOwner {\n        emit OwnerSet(owner, newOwner);\n        owner = newOwner;\n    }\n\n    /**\n     * @dev Return owner address \n     * @return address of owner\n     */\n    function getOwner() external view returns (address) {\n        return owner;\n    }\n}\n\ncontract UserInvite is Owner{ \n\n\n    \n    struct Invitation { \n        uint id;\n        uint invtype;\n    }\n    \n    event delinvitee (\n        string  msg\n        );\n        \n    event InvitationAdded(string msg);\n\n    mapping (uint => Invitation) internal invitationById;\n    uint[] internal invitees;\n    \n    modifier isInvited(uint _code, uint _id, uint _usertype) {\n        // If the first argument of 'require' evaluates to 'false', execution terminates and all\n        // changes to the state and to Ether balances are reverted.\n        // This used to consume all gas in old EVM versions, but not anymore.\n        // It is often a good idea to use 'require' to check if functions are called correctly.\n        // As a second argument, you can also provide an explanation about what went wrong.\n        require(invitationById[_code].id == _id && invitationById[_code].invtype == _usertype, \"Caller is not invited\");\n        _;\n    }\n\n    function find(uint value) private view returns(uint) {\n        uint i = 0;\n        while (invitees[i] != value) {\n            i++;\n        }\n        return i;\n    }\n\n    function removeByValue(uint value) private {\n        uint i = find(value);\n        removeByIndex(i);\n    }\n\n    function removeByIndex(uint i) private {\n            invitees[i] = invitees[invitees.length -1];\n            invitees.pop();\n        }\n    \n    \n    function addInvitation(uint _code, uint _id, uint _usertype) public isOwner { \n        require(invitationById[_code].id == 0, \"Already invitation code exists\");\n        invitationById[_code].id = _id;\n        invitationById[_code].invtype = _usertype;\n        \n        invitees.push(_id);\n        emit InvitationAdded(\"success\");\n    }\n    \n    function deleteInvitation(uint _code, uint _id) internal {\n         delete invitationById[_code];\n         removeByValue(_id);\n         emit delinvitee(\"deleted\");\n    }\n    \n    function getInvitations() public isOwner view returns (uint[] memory)  {\n        return invitees;\n    }\n    \n}\n\ncontract EmployeeBase is UserInvite { \n\n    struct Employee { \n        uint id;\n        uint empid; //empid provided by HR\n        uint maxfamilycount; //maximum number of family members that can register\n        uint initialCouponCount;\n        uint extraCouponCount;\n        bool active;\n    }\n\n    struct Family {\n      uint id;\n      uint empId;\n      uint count;\n      bool active;\n      uint activeMembers;\n    }\n\n    \n  \n  struct Member {\n      uint id;\n      uint empId;\n      uint familyId;\n      address owner;\n      uint initialCouponCount;\n      uint extraCouponCount;\n      bool active;\n   }\n    event empRegistration(uint employeesCounter, string msg);\n    event empFamilyRegistration(uint familyCounter, string msg);\n    event memberRegistration (uint memberCounter, string msg);\n    \n    uint employeesCounter;\n    uint familyCounter;\n    uint memberCounter;\n    \n    mapping (address => Employee) internal employees;\n    mapping (uint => address) internal employeeIndexToOwner;\n    mapping (uint => uint) internal employeeIDtoIndex;\n\n    //family\n    mapping(uint => Family) public EmployeeFamily;\n\n    //Family Member\n    mapping (address => Member) internal familyMembers;\n    mapping (uint => mapping(uint => Member )) EmployeeToFamilyMembers;\n    mapping (uint => Member[]) public EmployeeFamilyMembers;\n    mapping (address => uint ) memberAddressToEmployeeId;\n    uint[] public registeredEmployees;\n    \n    //Employee Coupons\n    mapping (uint => mapping(uint => uint[] )) internal EmployeeToCoupons;\n    \n    //Member Coupons\n    mapping (uint => mapping(uint => uint[] )) internal MemberToCoupons;\n    \n    //Employee Doctor Visit, e.g empDoctorVisists[601][0] = 1 (visitId)\n    mapping(address => uint[]) public empDoctorVisists;\n    \n    constructor() {\n        employeesCounter = 0;\n        memberCounter = 0;\n        familyCounter = 0;\n    }\n\n    function isEmployee(uint _type) private pure returns (bool) {\n        if (_type ==1) {\n            return true;\n        }\n        else {\n            return false;\n        }\n    }\n    \n    \n    modifier isRegisteredEmployee(address _address) {\n        // If the first argument of 'require' evaluates to 'false', execution terminates and all\n        // changes to the state and to Ether balances are reverted.\n        // This used to consume all gas in old EVM versions, but not anymore.\n        // It is often a good idea to use 'require' to check if functions are called correctly.\n        // As a second argument, you can also provide an explanation about what went wrong.\n        require(employees[_address].active == true, \"Employee Not Registered\");\n        _;\n    }\n    \n    modifier isNotRegistered(address _address) {\n        require(employees[_address].active == false, \"Employee  Registered\");\n        _;\n    }\n\n    //function can be called by User with an invitation on the system\n    function registerEmployee(uint _empid, uint _maxfamilycount, uint _code, uint _usertype ) public notOwner isInvited(_code,_empid, _usertype) isNotRegistered(msg.sender) {\n        require(isEmployee(_usertype), \"Not an employee type\");\n        employeesCounter ++;\n        employees[msg.sender] = Employee(employeesCounter, _empid, _maxfamilycount,0,0,true);\n        registeredEmployees.push(_empid);\n        employeeIndexToOwner[employeesCounter] = msg.sender;\n        employeeIDtoIndex[_empid] = employeesCounter;\n        deleteInvitation(_code,_empid);\n        registerFamily(_empid, _maxfamilycount, msg.sender);\n        emit empRegistration(employeesCounter, \"success\");\n    }\n\n    function getEmployee(address _address) internal view returns (Employee storage){\n        return( employees[_address]);\n    }\n    \n    function getMember(address _address) internal view returns (Member storage){\n        return( familyMembers[_address]);\n    }\n    \n\n    function registerFamily(uint _empId, uint _count, address _address) internal isRegisteredEmployee(_address) {\n        require(_count > 0, \"Family members should be more than 0\");\n        require(!familyExists(_empId), \"Family exists\");\n        familyCounter ++;\n        Family memory _family = Family(familyCounter, _empId, _count, true, 0);\n        EmployeeFamily[_empId] = _family;\n        \n        emit empFamilyRegistration(familyCounter, \"success\");\n\n    }\n\n    function registerFamilyMember(uint _empId,uint _familyId, address _address) public isRegisteredEmployee(msg.sender) {\n              memberCounter ++;\n              Member memory _member = Member(memberCounter, _empId, _familyId, _address,0,0, true);\n              familyMembers[_address] = _member;\n              EmployeeToFamilyMembers[_empId][memberCounter] = _member;\n              EmployeeFamilyMembers[_empId].push(_member);\n              memberAddressToEmployeeId[_address] = _empId;\n              Family memory _family = EmployeeFamily[_empId];\n              _family.activeMembers ++;\n              EmployeeFamily[_empId] = _family;\n              emit memberRegistration(memberCounter, \"success\");\n    }\n  \n  function familyExists(uint _empId) private view returns(bool){\n      if (EmployeeFamily[_empId].active == true ) {\n          return true;\n      }\n      else {\n          return false;\n      }\n      \n  }\n    \n}\n\ncontract DoctorBase is UserInvite { \n    struct Doctor { \n        uint id;\n        uint doctorid;\n        string specialty;\n        uint8 couponcoeficient;\n        bool active;\n    }\n    \n    uint internal doctorsCounter;\n    \n    mapping (address => Doctor) internal doctors;\n    mapping (uint => address) internal doctorIndexToOwner;\n    mapping (uint => bytes32) internal doctorIndexToKeyHash;\n    uint[] internal registeredDoctors;\n    \n    //events \n    event doctorregistration (uint id, string msg);\n    \n    constructor() {\n        doctorsCounter = 0;\n    }\n\n    function isDoctor(uint _type) private pure returns (bool) {\n        if (_type ==2) {\n            return true;\n        }\n        else {\n            return false;\n        }\n    }\n    \n    //function can be called by User with an invitation on the system\n    function registerDoctor(uint _doctorid, string memory _speciality, uint _code, uint _usertype, uint8 _couponcoeficient) public isInvited(_code,_doctorid, _usertype) notOwner{\n        require(isDoctor(_usertype), \"Not a Doctor type\");\n        doctorsCounter ++;\n        bytes32 _keyhash = sha256(abi.encodePacked(doctorsCounter+_doctorid));\n        doctorIndexToKeyHash[doctorsCounter] = _keyhash;\n        doctors[msg.sender] = Doctor(doctorsCounter, _doctorid, _speciality,_couponcoeficient, true);\n        registeredDoctors.push(_doctorid);\n        doctorIndexToOwner[_doctorid] = msg.sender;\n        deleteInvitation(_code,_doctorid);\n        emit doctorregistration(doctorsCounter, \"success\");\n    }\n\n    function getDoctor(address _address) internal view returns (uint, uint, string memory, uint8, bool ){\n        return( doctors[_address].doctorid, doctors[_address].id, doctors[_address].specialty ,doctors[_address].couponcoeficient,doctors[_address].active);\n    }\n    function getDoctor(uint _id) internal view returns(bytes32 _keyhash) {\n        return doctorIndexToKeyHash[_id];\n    }\n}\n\ncontract Coupon is Owner {\n    \n  address owner;\n  uint8 value;\n  uint8 empCouponMax;\n  uint couponPayAmount;\n  uint couponCount; \n  uint couponExchangedCount;\n  uint couponRedeemedCount;\n  uint couponPaidCount;\n  uint year;\n  \n  struct CouponPaper {\n    uint id;\n    address owner;\n    address beneficiary;\n    //add empID to track coupons for family members\n    uint value;\n    string status;\n    bool valid;\n    bool approved;\n  } \n  \n  event CouponPaperCreated(\n    uint id,\n    address owner,\n    bool valid,\n    string msg\n  );\n  \n  \n  mapping(uint => CouponPaper) internal coupons;\n  mapping(address => uint) internal ownershipToCouponCount;\n  //Filled when new coupon is created\n  mapping(uint => address) internal couponIndexToOwner;\n  //Filled when new coupon is exchanged\n  mapping(uint => address) internal couponIndexToOwnerExchanged;\n  //Filled when new coupon is redeemed\n  mapping(uint => address) internal couponIndexToOwnerRedeeemed;\n  //Track coupon status\n  mapping(uint => uint8) internal couponIndexToStatus;\n  \n  //Filled when a coupon is used in DoctorVisit\n  mapping(uint => bool) couponIndexToDoctorVisit;\n  \n  //Stores the balances to be paid for the employee;\n  mapping(address => uint) balances;\n  \n  constructor() {\n    owner = msg.sender;\n    couponCount = 0;\n    value = 1;\n    empCouponMax = 5;\n    couponPayAmount = 60000;\n  }\n  \n    function setGlobalParameters(uint8 _value, uint8 _maxcoupons, uint _paidamount,uint _year) public isOwner {\n        value = _value;\n        empCouponMax = _maxcoupons;\n        couponPayAmount = _paidamount;\n        year = _year;\n        \n    }\n  \n\n    function issueCoupon(address _couponowner, address _couponbeneficiary ) internal returns(uint _couponId) {\n    couponCount ++;\n    coupons[couponCount] = CouponPaper(couponCount,_couponowner, _couponbeneficiary, value, \"created\", true, false);\n    ownershipToCouponCount[_couponowner] ++;\n    couponIndexToOwner[couponCount] = _couponowner;\n    couponIndexToStatus[couponCount] = 1;\n    emit CouponPaperCreated(couponCount, _couponowner, true, \"success\");\n    return couponCount;\n    \n    }\n    \n    function _transfer(address _from, address _to, uint _couponId) internal {\n        CouponPaper storage _coupon = coupons[_couponId];\n        _coupon.owner = _to;\n        ownershipToCouponCount[_to] ++;\n        ownershipToCouponCount[_from] --;\n        couponIndexToOwner[couponCount] = _to;\n    }\n\n    function _owns(address _address, uint _couponId) internal view returns (bool) {\n        return(coupons[_couponId].owner == _address);\n    }\n    \n    function _usedInDoctorVisit(uint _couponId) internal view returns (bool) {\n        return (couponIndexToDoctorVisit[_couponId]);\n    }\n    \n    function _isBeneficiary(address _address, uint _couponId) internal view returns (bool) {\n        return(coupons[_couponId].beneficiary == _address);\n    }\n    \n    //coupon status is exchanged\n    function _readyToBeRedeemed(uint _couponId) internal view returns (bool) {\n       return((couponIndexToOwnerExchanged[_couponId] > address(0)) && (couponIndexToStatus[_couponId] == 2));\n    }\n    \n  \n    function getCouponById(uint _couponId) public isOwner view returns(uint, address, address) { \n    \n        return (coupons[_couponId].id, coupons[_couponId].owner, coupons[_couponId].beneficiary);\n    }\n    \n    function getCoupon(uint _couponId) internal isOwner view returns(CouponPaper storage){\n        return coupons[_couponId];\n    }\n\n    function couponBalanceOf(address _address) internal view returns (uint count) {\n        return ownershipToCouponCount[_address];\n    }\n\n    function totalCoupons() internal view returns (uint count) {\n        return couponCount;\n        \n    }\n\n    function totalCouponsByStatus(uint8 _status) internal view returns (uint countExchanged) {\n        require(_status < 5 && _status >0, \"Invalid status provided\");\n        //1 - created, 2- exchanged, 3-redeemed, 4-paid\n        if (_status == 1) return couponCount;\n        if (_status == 2) return couponExchangedCount;\n        if (_status == 3) return couponRedeemedCount;\n        if (_status == 4) return couponPaidCount;\n    }\n\n    function getCouponsByStatus(uint8 _status) external view returns (uint256[] memory statusCoupons) {\n        \n        uint256 count = totalCouponsByStatus(_status);\n        if (count == 0) {\n            return new uint256[](0);\n        }\n        else {\n            uint256[] memory result = new uint256[](count);\n            uint256 total = totalCoupons();\n            uint256 resultIndex = 0;\n            //we count all coupons\n            uint256 couponId;\n\n            for (couponId = 1; couponId <= total; couponId++) {\n                if (couponIndexToStatus[couponId] == _status) {\n                    result[resultIndex] = couponId;\n                    resultIndex++;\n                }\n            }\n\n            return result;\n        }\n\n    }\n\n    \n    function getCouponsByOwner(address _owner) external view returns (uint256[] memory ownerCoupons) {\n        uint256 count = couponBalanceOf(_owner);\n        if (count == 0) {\n            return new uint[](0);\n        }\n        else {\n            uint256[] memory result = new uint256[](count);\n            uint256 total = totalCoupons();\n            uint256 resultIndex = 0;\n            //we count all coupons\n            uint256 couponId;\n\n            for (couponId = 1; couponId <= total; couponId++) {\n                if (couponIndexToOwner[couponId] == _owner) {\n                    result[resultIndex] = couponId;\n                    resultIndex++;\n                }\n            }\n\n            return result;\n        }\n\n    }\n    \n    \n  \n  \n}\n\ncontract DoctorVisitBase {\n  uint public visitCount; \n\n  struct Visit {\n    uint id;\n    uint empId;\n    uint couponId;\n    uint doctorId;\n  }\n\n  event VisitCreated (\n    uint id,\n    uint empId,\n    uint couponId,\n    string msg\n  );\n\n  //visits  mapping incremental\n  mapping(uint => Visit) public visits;\n  //mapping visitDocumentIndex to Visit ID;\n  mapping (uint => uint) DoctorVisitIndexToDocumentId;\n\n  constructor() {\n    visitCount = 0;\n  }\n\n  function createVisit(uint _empId, uint _couponId, uint _doctorId) internal returns(uint visitId) {\n    visitCount ++;\n    Visit memory _visit;\n    _visit = Visit(visitCount, _empId, _couponId, _doctorId);\n    visits[visitCount] = _visit;\n    emit VisitCreated(visitCount, _empId, _couponId, \"success\");\n    return visits[visitCount].id;\n  }\n  \n  function getDoctorVisit(uint _visitid) public view returns (uint visitid, uint empid, uint couponid, uint doctorid) {\n      return (visits[_visitid].id,visits[_visitid].empId,visits[_visitid].couponId,visits[_visitid].doctorId);\n  }\n\n}\n\ncontract VisitDocumentBase is DoctorVisitBase { \n  uint public VisitDocumentCount;\n\n  struct VisitDoc { \n    uint id; \n    uint _doctorvisitId;\n    uint _empId;\n    bytes32 _docHash;\n    uint flag; //flag is one when created by the contract\n  }\n\n  event VisitDocumentAddition (\n    uint documentID,\n    string msg\n  );\n  mapping (uint => VisitDoc ) public VisitDocuments;\n  mapping (bytes32 => uint ) public VisitDocumentBasehash;\n  \n\n  constructor() {\n    VisitDocumentCount = 0;\n  }\n\n  function addVisitDocument(uint _doctorvisitId, uint _empId,bytes32 _docHash) internal returns(uint documentId) {\n     require(!_documentExists(_docHash), \"Document already exists\"); //check if document hash already exists\n        VisitDocumentCount ++;\n        VisitDocuments[VisitDocumentCount] = VisitDoc(VisitDocumentCount, _doctorvisitId, _empId, _docHash, 1);\n        VisitDocumentBasehash[_docHash] = VisitDocumentCount; \n        DoctorVisitIndexToDocumentId[_doctorvisitId] = VisitDocumentCount;\n        emit VisitDocumentAddition(VisitDocumentCount, \"success\");\n        return VisitDocuments[VisitDocumentCount].id;\n  }\n  \n  function _documentExists(bytes32 _docHash) public view returns (bool) {\n      if(VisitDocumentBasehash[_docHash] > 0) {\n        return true;\n      }\n      else {\n        return false;\n      }\n  }\n  \n}\n\n\n\ncontract EmployeeCore is Coupon,EmployeeBase,VisitDocumentBase {\n    \n    event EmployeeCouponGeneration(uint initialCouponCount, string msg);\n    event MemberCouponGeneration(uint initialCouponCount, string msg);\n    event couponExchanged(uint _couponId, string msg);\n    event doctorVisited(uint visitid, uint documentid, string msg);\n    \n    //get Employee info\n    function getEmployeeInfo(address _employee) external isRegisteredEmployee(msg.sender) view returns (Employee memory) {\n        return getEmployee(_employee);\n    }\n    //issue inital coupons\n    function employeeIssueCoupons() public isRegisteredEmployee(msg.sender) {\n        require((employees[msg.sender].initialCouponCount == 0), \"Initial Coupons already issued\");\n        Employee storage _employee = getEmployee(msg.sender);\n            for (uint i =1; i <= empCouponMax; i++)\n            {\n            //Employee is the owner and beneficiary of his initial coupons\n            EmployeeToCoupons[_employee.empid][year].push(issueCoupon(msg.sender,msg.sender));\n            _employee.initialCouponCount ++;\n            }\n            if ((_employee.initialCouponCount) == empCouponMax) {\n                emit EmployeeCouponGeneration(empCouponMax, \"success\");\n            }\n            else { \n                emit EmployeeCouponGeneration(_employee.initialCouponCount, \"failure\");\n            }\n        \n\n    }\n    \n    function employeeIssueMembersCoupons(address _memberaddress) public isRegisteredEmployee(msg.sender) {\n        require((familyMembers[_memberaddress].initialCouponCount == 0), \"Initial Coupons already issued\");\n        Member storage _member = getMember(_memberaddress);\n            for (uint i =1; i <= empCouponMax; i++)\n            {\n            //Employee is the owner and beneficiary of his initial coupons\n            MemberToCoupons[_member.id][year].push(issueCoupon(_memberaddress,msg.sender));\n            _member.initialCouponCount ++;\n            }\n            if ((_member.initialCouponCount) == empCouponMax) {\n                emit MemberCouponGeneration(empCouponMax, \"success\");\n            }\n            else { \n                emit MemberCouponGeneration(_member.initialCouponCount, \"failure\");\n            }\n        \n\n    }\n    \n     function exchangeCoupon(uint _couponId, address _owner) public isRegisteredEmployee(msg.sender) {\n        require(_owns(_owner, _couponId), \"Not the owner of the token\");\n         CouponPaper memory _coupon = coupons[_couponId]; \n         _coupon.status = \"Exchanged\";\n         //_coupon.beneficiary = _coupon.owner;\n         //_coupon.owner = owner;\n         coupons[_couponId] = _coupon;\n         couponIndexToStatus[_couponId] = 2;\n         couponExchangedCount ++;\n         couponIndexToOwnerExchanged[_couponId] = _owner;\n         delete couponIndexToOwner[_couponId];\n    }\n    \n    function redeemCoupon(uint _couponId, address _owner) public isRegisteredEmployee(msg.sender) {\n        require(_owns(_owner, _couponId), \"Not the owner of the token\");\n        require(_readyToBeRedeemed(_couponId), \"Coupon can not be redeemed\");\n         CouponPaper memory _coupon = coupons[_couponId]; \n         _coupon.status = \"Redeemed\";\n         couponIndexToStatus[couponCount] = 3;\n         couponExchangedCount --;\n         couponRedeemedCount ++;\n         //_coupon.beneficiary = owner;\n        coupons[_couponId] = _coupon;\n        couponIndexToOwnerRedeeemed[_couponId] = msg.sender;\n        delete couponIndexToOwnerExchanged[_couponId];\n    }\n    \n    function visitDoctor(uint empid, uint couponid, uint doctorid, string memory _md5, address _address) public isRegisteredEmployee(msg.sender){\n            //employee should have a family relation with _address\n            //visit doctor\n            uint _visitId = createVisit(empid, couponid, doctorid);\n            couponIndexToDoctorVisit[couponid] = true;\n            empDoctorVisists[msg.sender].push(_visitId);\n            //submit document\n            bytes32 _docHash = sha256(bytes(_md5));\n            uint _documentId = addVisitDocument(doctorid, empid, _docHash);\n            // then exchange Coupon\n            exchangeCoupon(couponid, _address);\n            emit doctorVisited( _visitId, _documentId, \"success\");\n    }\n}\n\ncontract HRManager is Coupon,EmployeeBase,DoctorBase {\n    mapping(uint => address) couponIndexApproved;\n\n    event approveCoupon(uint couponid, string msg);\n    event paidCoupon(uint _couponId, string msg);\n    event DoctorPricing(string msg);\n    \n    function approveCouponRedemption(uint _couponId) public isOwner {\n        require(_readyToBeRedeemed(_couponId), \"Coupon can not be redeemed\");\n        CouponPaper storage _coupon = coupons[_couponId]; \n         _coupon.approved = true;\n         couponIndexApproved[_couponId] = msg.sender;\n         emit approveCoupon(_couponId, \"success\");\n    }\n    \n    function prepareCouponPayment(uint _couponId) public isOwner {\n        CouponPaper storage _coupon = coupons[_couponId]; \n        _coupon.valid = false;\n        _coupon.status = \"Paid\";\n        _coupon.beneficiary = _coupon.owner;\n        _coupon.owner = owner;\n        couponIndexToStatus[couponCount] = 4;\n        couponRedeemedCount --;\n        couponPaidCount ++;\n        uint _balance = balances[_coupon.owner];\n        balances[_coupon.owner] = _balance + couponPayAmount;\n\n        emit paidCoupon(_couponId, \"success\");\n        \n    }\n\n    function updateDoctorPricing(address _address, uint8 _newCouponCoefficient) external isOwner {\n        Doctor storage _doctor = doctors[_address];\n       // _doctor.couponcoefficient = _newCouponCoefficient;\n       bool coefficient = _doctor.active;\n        emit DoctorPricing(\"success\");\n    }\n}\n \ncontract MyNet is EmployeeCore,DoctorBase,HRManager {\n    string name;\n\n    constructor() {\n        name = \"MyNet Contract is initialised\";\n    }\n\n  function setName(string memory _name) public isOwner{ \n    name = _name;\n  }\n\n  function getName() public view returns (string memory) {\n    return name;\n  }\n\n    \n    \n}\n",
  "sourcePath": "/Users/wissamdagher/Documents/dev/blockchain/CouponMedNet/src/contracts/UserManager.sol",
  "compiler": {
    "name": "solc",
    "version": "0.8.5+commit.a4f2e591.Emscripten.clang"
  },
  "schemaVersion": "3.4.1",
  "updatedAt": "2021-06-17T18:19:19.007Z",
  "devdoc": {
    "kind": "dev",
    "methods": {
      "changeOwner(address)": {
        "details": "Change owner",
        "params": {
          "newOwner": "address of new owner"
        }
      },
      "getOwner()": {
        "details": "Return owner address ",
        "returns": {
          "_0": "address of owner"
        }
      }
    },
    "version": 1
  },
  "userdoc": {
    "kind": "user",
    "methods": {},
    "version": 1
  }
}