{
  "contractName": "Employee",
  "abi": [
    {
      "inputs": [],
      "payable": false,
      "stateMutability": "nonpayable",
      "type": "constructor"
    },
    {
      "anonymous": false,
      "inputs": [
        {
          "indexed": false,
          "internalType": "uint256",
          "name": "familyCounter",
          "type": "uint256"
        },
        {
          "indexed": false,
          "internalType": "uint256",
          "name": "_empId",
          "type": "uint256"
        },
        {
          "indexed": false,
          "internalType": "uint256",
          "name": "flag",
          "type": "uint256"
        },
        {
          "indexed": false,
          "internalType": "string",
          "name": "msg",
          "type": "string"
        }
      ],
      "name": "empFamilyRegistration",
      "type": "event"
    },
    {
      "anonymous": false,
      "inputs": [
        {
          "indexed": false,
          "internalType": "uint256",
          "name": "id",
          "type": "uint256"
        },
        {
          "indexed": false,
          "internalType": "address",
          "name": "originalOwner",
          "type": "address"
        },
        {
          "indexed": false,
          "internalType": "address",
          "name": "empAddress",
          "type": "address"
        },
        {
          "indexed": false,
          "internalType": "bool",
          "name": "active",
          "type": "bool"
        }
      ],
      "name": "employeeActivated",
      "type": "event"
    },
    {
      "anonymous": false,
      "inputs": [
        {
          "indexed": false,
          "internalType": "uint256",
          "name": "id",
          "type": "uint256"
        },
        {
          "indexed": false,
          "internalType": "string",
          "name": "message",
          "type": "string"
        }
      ],
      "name": "employeeDisabled",
      "type": "event"
    },
    {
      "anonymous": false,
      "inputs": [
        {
          "indexed": false,
          "internalType": "uint256",
          "name": "id",
          "type": "uint256"
        },
        {
          "indexed": false,
          "internalType": "uint256",
          "name": "empId",
          "type": "uint256"
        },
        {
          "indexed": false,
          "internalType": "address",
          "name": "owner",
          "type": "address"
        },
        {
          "indexed": false,
          "internalType": "bool",
          "name": "active",
          "type": "bool"
        }
      ],
      "name": "employeeNotRegistered",
      "type": "event"
    },
    {
      "anonymous": false,
      "inputs": [
        {
          "indexed": false,
          "internalType": "uint256",
          "name": "id",
          "type": "uint256"
        },
        {
          "indexed": false,
          "internalType": "uint256",
          "name": "empId",
          "type": "uint256"
        },
        {
          "indexed": false,
          "internalType": "bool",
          "name": "active",
          "type": "bool"
        },
        {
          "indexed": false,
          "internalType": "string",
          "name": "msg",
          "type": "string"
        }
      ],
      "name": "employeeRegistration",
      "type": "event"
    },
    {
      "anonymous": false,
      "inputs": [
        {
          "indexed": false,
          "internalType": "uint256",
          "name": "memberCounter",
          "type": "uint256"
        },
        {
          "indexed": false,
          "internalType": "string",
          "name": "msg",
          "type": "string"
        }
      ],
      "name": "memberRegistration",
      "type": "event"
    },
    {
      "constant": true,
      "inputs": [
        {
          "internalType": "uint256",
          "name": "",
          "type": "uint256"
        },
        {
          "internalType": "uint256",
          "name": "",
          "type": "uint256"
        }
      ],
      "name": "EmployeeFamily",
      "outputs": [
        {
          "internalType": "uint256",
          "name": "id",
          "type": "uint256"
        },
        {
          "internalType": "uint256",
          "name": "empId",
          "type": "uint256"
        },
        {
          "internalType": "uint256",
          "name": "count",
          "type": "uint256"
        },
        {
          "internalType": "uint256",
          "name": "activeMembers",
          "type": "uint256"
        },
        {
          "internalType": "bool",
          "name": "flag",
          "type": "bool"
        }
      ],
      "payable": false,
      "stateMutability": "view",
      "type": "function"
    },
    {
      "constant": true,
      "inputs": [
        {
          "internalType": "uint256",
          "name": "",
          "type": "uint256"
        },
        {
          "internalType": "uint256",
          "name": "",
          "type": "uint256"
        }
      ],
      "name": "EmployeeToFamilyMembers",
      "outputs": [
        {
          "internalType": "uint256",
          "name": "id",
          "type": "uint256"
        },
        {
          "internalType": "uint256",
          "name": "empId",
          "type": "uint256"
        },
        {
          "internalType": "address",
          "name": "owner",
          "type": "address"
        },
        {
          "internalType": "bool",
          "name": "active",
          "type": "bool"
        }
      ],
      "payable": false,
      "stateMutability": "view",
      "type": "function"
    },
    {
      "constant": true,
      "inputs": [],
      "name": "employeeCount",
      "outputs": [
        {
          "internalType": "uint256",
          "name": "",
          "type": "uint256"
        }
      ],
      "payable": false,
      "stateMutability": "view",
      "type": "function"
    },
    {
      "constant": true,
      "inputs": [
        {
          "internalType": "uint256",
          "name": "",
          "type": "uint256"
        }
      ],
      "name": "employees",
      "outputs": [
        {
          "internalType": "uint256",
          "name": "id",
          "type": "uint256"
        },
        {
          "internalType": "uint256",
          "name": "empId",
          "type": "uint256"
        },
        {
          "internalType": "address",
          "name": "owner",
          "type": "address"
        },
        {
          "internalType": "bool",
          "name": "active",
          "type": "bool"
        },
        {
          "internalType": "bool",
          "name": "flag",
          "type": "bool"
        }
      ],
      "payable": false,
      "stateMutability": "view",
      "type": "function"
    },
    {
      "constant": false,
      "inputs": [
        {
          "internalType": "string",
          "name": "_name",
          "type": "string"
        }
      ],
      "name": "setName",
      "outputs": [],
      "payable": false,
      "stateMutability": "nonpayable",
      "type": "function"
    },
    {
      "constant": true,
      "inputs": [],
      "name": "getName",
      "outputs": [
        {
          "internalType": "string",
          "name": "",
          "type": "string"
        }
      ],
      "payable": false,
      "stateMutability": "view",
      "type": "function"
    },
    {
      "constant": false,
      "inputs": [
        {
          "internalType": "uint256",
          "name": "_empId",
          "type": "uint256"
        }
      ],
      "name": "registerEmployee",
      "outputs": [],
      "payable": false,
      "stateMutability": "nonpayable",
      "type": "function"
    },
    {
      "constant": false,
      "inputs": [
        {
          "internalType": "uint256",
          "name": "_empId",
          "type": "uint256"
        },
        {
          "internalType": "uint256",
          "name": "_count",
          "type": "uint256"
        }
      ],
      "name": "registerFamily",
      "outputs": [],
      "payable": false,
      "stateMutability": "nonpayable",
      "type": "function"
    },
    {
      "constant": false,
      "inputs": [
        {
          "internalType": "uint256",
          "name": "_empId",
          "type": "uint256"
        },
        {
          "internalType": "address",
          "name": "_address",
          "type": "address"
        }
      ],
      "name": "registerMember",
      "outputs": [],
      "payable": false,
      "stateMutability": "nonpayable",
      "type": "function"
    },
    {
      "constant": false,
      "inputs": [
        {
          "internalType": "uint256",
          "name": "_id",
          "type": "uint256"
        }
      ],
      "name": "activateEmployee",
      "outputs": [],
      "payable": false,
      "stateMutability": "nonpayable",
      "type": "function"
    },
    {
      "constant": false,
      "inputs": [
        {
          "internalType": "uint256",
          "name": "_id",
          "type": "uint256"
        }
      ],
      "name": "disableEmployee",
      "outputs": [],
      "payable": false,
      "stateMutability": "nonpayable",
      "type": "function"
    }
  ],
  "bytecode": "0x60806040523480156200001157600080fd5b506040518060400160405280601d81526020017f456d706c6f79656520636f6e747261637420696e697469616c69736564000000815250600090805190602001906200005f929190620000bf565b5060006002819055506000600481905550600060038190555033600160006101000a81548173ffffffffffffffffffffffffffffffffffffffff021916908373ffffffffffffffffffffffffffffffffffffffff1602179055506200016e565b828054600181600116156101000203166002900490600052602060002090601f016020900481019282601f106200010257805160ff191683800117855562000133565b8280016001018555821562000133579182015b828111156200013257825182559160200191906001019062000115565b5b50905062000142919062000146565b5090565b6200016b91905b80821115620001675760008160009055506001016200014d565b5090565b90565b611403806200017e6000396000f3fe608060405234801561001057600080fd5b50600436106100a85760003560e01c806325515c021161007157806325515c02146102935780634739326b146102e15780637712b617146103735780639047bf58146103a1578063c47f0027146103bf578063e3522f5b1461047a576100a8565b8062c8fbc1146100ad5780630f88e6141461013e578063176ce3fd1461017657806317d7de7c146101a457806318406a9614610227575b600080fd5b6100e3600480360360408110156100c357600080fd5b8101908080359060200190929190803590602001909291905050506104a8565b604051808581526020018481526020018373ffffffffffffffffffffffffffffffffffffffff1673ffffffffffffffffffffffffffffffffffffffff1681526020018215151515815260200194505050505060405180910390f35b6101746004803603604081101561015457600080fd5b810190808035906020019092919080359060200190929190505050610512565b005b6101a26004803603602081101561018c57600080fd5b8101908080359060200190929190505050610716565b005b6101ac6109a2565b6040518080602001828103825283818151815260200191508051906020019080838360005b838110156101ec5780820151818401526020810190506101d1565b50505050905090810190601f1680156102195780820380516001836020036101000a031916815260200191505b509250505060405180910390f35b61025d6004803603604081101561023d57600080fd5b810190808035906020019092919080359060200190929190505050610a44565b60405180868152602001858152602001848152602001838152602001821515151581526020019550505050505060405180910390f35b6102df600480360360408110156102a957600080fd5b8101908080359060200190929190803573ffffffffffffffffffffffffffffffffffffffff169060200190929190505050610aa1565b005b61030d600480360360208110156102f757600080fd5b8101908080359060200190929190505050610d18565b604051808681526020018581526020018473ffffffffffffffffffffffffffffffffffffffff1673ffffffffffffffffffffffffffffffffffffffff16815260200183151515158152602001821515151581526020019550505050505060405180910390f35b61039f6004803603602081101561038957600080fd5b8101908080359060200190929190505050610d88565b005b6103a9610f87565b6040518082815260200191505060405180910390f35b610478600480360360208110156103d557600080fd5b81019080803590602001906401000000008111156103f257600080fd5b82018360208201111561040457600080fd5b8035906020019184600183028401116401000000008311171561042657600080fd5b91908080601f016020809104026020016040519081016040528093929190818152602001838380828437600081840152601f19601f820116905080830192505050505050509192919290505050610f8d565b005b6104a66004803603602081101561049057600080fd5b8101908080359060200190929190505050610fa7565b005b6006602052816000526040600020602052806000526040600020600091509150508060000154908060010154908060020160009054906101000a900473ffffffffffffffffffffffffffffffffffffffff16908060020160149054906101000a900460ff16905084565b61051b826111d4565b15801561052d575061052c82611207565b5b1561068e5760036000815480929190600101919050555061054c6112af565b6040518060a001604052806003548152602001848152602001838152602001600081526020016001151581525090506007600084815260200190815260200160002081908060018154018082558091505090600182039060005260206000209060050201600090919290919091506000820151816000015560208201518160010155604082015181600201556060820151816003015560808201518160040160006101000a81548160ff0219169083151502179055505050507fae2e61c5110e4f766795ac3dd1684c863f6e557f12f71bbc9442e5fe7fb655d86003548460016040518084815260200183815260200182815260200180602001828103825260078152602001807f737563636573730000000000000000000000000000000000000000000000000081525060200194505050505060405180910390a150610712565b7fae2e61c5110e4f766795ac3dd1684c863f6e557f12f71bbc9442e5fe7fb655d86003548360006040518084815260200183815260200182815260200180602001828103825260078152602001807f6661696c7572650000000000000000000000000000000000000000000000000081525060200194505050505060405180910390a15b5050565b60006107206112e0565b600560008481526020019081526020016000206040518060a001604052908160008201548152602001600182015481526020016002820160009054906101000a900473ffffffffffffffffffffffffffffffffffffffff1673ffffffffffffffffffffffffffffffffffffffff1673ffffffffffffffffffffffffffffffffffffffff1681526020016002820160149054906101000a900460ff161515151581526020016002820160159054906101000a900460ff1615151515815250509050806040015191508060600151156107f657600080fd5b3373ffffffffffffffffffffffffffffffffffffffff168273ffffffffffffffffffffffffffffffffffffffff161461082e57600080fd5b60018160600190151590811515815250508060056000858152602001908152602001600020600082015181600001556020820151816001015560408201518160020160006101000a81548173ffffffffffffffffffffffffffffffffffffffff021916908373ffffffffffffffffffffffffffffffffffffffff16021790555060608201518160020160146101000a81548160ff02191690831515021790555060808201518160020160156101000a81548160ff0219169083151502179055509050507f99ba4c9fec9800e58240b8e95981e3050c0db0f229023d4ae1adf7516221f9d38383336001604051808581526020018473ffffffffffffffffffffffffffffffffffffffff1673ffffffffffffffffffffffffffffffffffffffff1681526020018373ffffffffffffffffffffffffffffffffffffffff1673ffffffffffffffffffffffffffffffffffffffff1681526020018215151515815260200194505050505060405180910390a1505050565b606060008054600181600116156101000203166002900480601f016020809104026020016040519081016040528092919081815260200182805460018160011615610100020316600290048015610a3a5780601f10610a0f57610100808354040283529160200191610a3a565b820191906000526020600020905b815481529060010190602001808311610a1d57829003601f168201915b5050505050905090565b60076020528160005260406000208181548110610a5d57fe5b9060005260206000209060050201600091509150508060000154908060010154908060020154908060030154908060040160009054906101000a900460ff16905085565b600460008154809291906001019190505550604051806080016040528060045481526020018381526020018273ffffffffffffffffffffffffffffffffffffffff168152602001600115158152506006600084815260200190815260200160002060006004548152602001908152602001600020600082015181600001556020820151816001015560408201518160020160006101000a81548173ffffffffffffffffffffffffffffffffffffffff021916908373ffffffffffffffffffffffffffffffffffffffff16021790555060608201518160020160146101000a81548160ff021916908315150217905550905050610b9b6112af565b60076000848152602001908152602001600020600081548110610bba57fe5b90600052602060002090600502016040518060a0016040529081600082015481526020016001820154815260200160028201548152602001600382015481526020016004820160009054906101000a900460ff1615151515815250509050806060018051809190600101815250508060076000858152602001908152602001600020600081548110610c4857fe5b90600052602060002090600502016000820151816000015560208201518160010155604082015181600201556060820151816003015560808201518160040160006101000a81548160ff0219169083151502179055509050507f6e1e4090659373eee2aaca28bea8b2b6d75fda61ac6e007e0246e56eeb59cd736004546040518082815260200180602001828103825260078152602001807f73756363657373000000000000000000000000000000000000000000000000008152506020019250505060405180910390a1505050565b60056020528060005260406000206000915090508060000154908060010154908060020160009054906101000a900473ffffffffffffffffffffffffffffffffffffffff16908060020160149054906101000a900460ff16908060020160159054906101000a900460ff16905085565b610d906112e0565b600560008381526020019081526020016000206040518060a001604052908160008201548152602001600182015481526020016002820160009054906101000a900473ffffffffffffffffffffffffffffffffffffffff1673ffffffffffffffffffffffffffffffffffffffff1673ffffffffffffffffffffffffffffffffffffffff1681526020016002820160149054906101000a900460ff161515151581526020016002820160159054906101000a900460ff161515151581525050905060008160600190151590811515815250508060056000848152602001908152602001600020600082015181600001556020820151816001015560408201518160020160006101000a81548173ffffffffffffffffffffffffffffffffffffffff021916908373ffffffffffffffffffffffffffffffffffffffff16021790555060608201518160020160146101000a81548160ff02191690831515021790555060808201518160020160156101000a81548160ff0219169083151502179055509050507fefd05e2bfce0c167d45fcc60e39985989ec35e171600eb7f4495caa24398d4cc826040518082815260200180602001828103825260118152602001807f656d706c6f7965652064697361626c65640000000000000000000000000000008152506020019250505060405180910390a15050565b60025481565b8060009080519060200190610fa3929190611329565b5050565b610fb081611271565b15611149576002600081548092919060010191905055506040518060a0016040528060025481526020018281526020013373ffffffffffffffffffffffffffffffffffffffff1681526020016000151581526020016001151581525060056000838152602001908152602001600020600082015181600001556020820151816001015560408201518160020160006101000a81548173ffffffffffffffffffffffffffffffffffffffff021916908373ffffffffffffffffffffffffffffffffffffffff16021790555060608201518160020160146101000a81548160ff02191690831515021790555060808201518160020160156101000a81548160ff0219169083151502179055509050507f228eaeb9ded6d1157971c6bf4f59bda9045bf6f0fee7ed5017fb479a88d7362b600254826000604051808481526020018381526020018215151515815260200180602001828103825260078152602001807f737563636573730000000000000000000000000000000000000000000000000081525060200194505050505060405180910390a16111d1565b7f228eaeb9ded6d1157971c6bf4f59bda9045bf6f0fee7ed5017fb479a88d7362b600254826000604051808481526020018381526020018215151515815260200180602001828103825260078152602001807f6661696c7572650000000000000000000000000000000000000000000000000081525060200194505050505060405180910390a15b50565b600080600760008481526020019081526020016000208054905011156111fd5760019050611202565b600090505b919050565b60006005600083815260200190815260200160002060020160159054906101000a900460ff16801561125957506005600083815260200190815260200160002060020160149054906101000a900460ff165b15611267576001905061126c565b600090505b919050565b60006005600083815260200190815260200160002060020160159054906101000a900460ff16156112a557600090506112aa565b600190505b919050565b6040518060a00160405280600081526020016000815260200160008152602001600081526020016000151581525090565b6040518060a001604052806000815260200160008152602001600073ffffffffffffffffffffffffffffffffffffffff1681526020016000151581526020016000151581525090565b828054600181600116156101000203166002900490600052602060002090601f016020900481019282601f1061136a57805160ff1916838001178555611398565b82800160010185558215611398579182015b8281111561139757825182559160200191906001019061137c565b5b5090506113a591906113a9565b5090565b6113cb91905b808211156113c75760008160009055506001016113af565b5090565b9056fea265627a7a723158200a4a7be4260c781201e16fc2ad7e49cef100f9cca801913f42a420b25e2d47a864736f6c63430005100032",
  "source": "pragma solidity ^0.5.0;\n\ncontract Employee {\n  string name; \n  address owner;\n  uint public employeeCount; \n  uint familyCounter;\n  uint memberCounter;\n  \n  struct Emp {\n    uint id;\n    uint empId;\n    address owner;\n    bool active;\n    bool flag;\n  } \n  \n  struct Family {\n      uint id;\n      uint empId;\n      uint count;\n      uint activeMembers;\n      bool flag;\n  }\n  \n  struct Member {\n      uint id;\n      uint empId;\n      address owner;\n      bool active;\n  }\n  \n  event employeeRegistration(\n    uint id,\n    uint empId,\n    bool active,\n    string msg\n  );\n\n  event employeeNotRegistered(\n    uint id,\n    uint empId,\n    address owner,\n    bool active\n  );\n  \n  event empFamilyRegistration(\n      uint familyCounter,\n      uint _empId,\n      uint flag,\n      string msg\n  );\n  \n  event memberRegistration(\n      uint memberCounter, \n      string msg );\n  \n\n  event employeeActivated(\n    uint id,\n    address originalOwner,\n    address empAddress,\n    bool active\n  );\n\n  event employeeDisabled(\n    uint id,\n    string message\n  );\n\n  mapping(uint => Emp) public employees;\n  mapping(uint => mapping(uint => Member)) public EmployeeToFamilyMembers;\n  mapping(uint => Family[]) public EmployeeFamily;\n\n  constructor() public {\n    name = \"Employee contract initialised\";\n    employeeCount = 0;\n    memberCounter = 0;\n    familyCounter = 0;\n    owner = msg.sender;\n  }\n\n  function setName(string memory _name) public { \n    name = _name;\n  }\n\n  function getName() public view returns (string memory) {\n    return name;\n  }\n\n  function registerEmployee(uint _empId) public {\n     if(canRegister(_empId)) {\n        employeeCount ++;\n        employees[_empId] = Emp(employeeCount, _empId, msg.sender, false, true);\n    \n        emit employeeRegistration(employeeCount,_empId, false, \"success\"); \n     }\n     else {\n         emit employeeRegistration(employeeCount,_empId, false, \"failure\"); \n     }\n  }\n  \n  function registerFamily(uint _empId, uint _count) public {\n      \n      if(!familyExists(_empId) && (isRegistered(_empId))) {\n      familyCounter ++;\n      Family memory _family = Family(familyCounter, _empId, _count, 0, true);\n      EmployeeFamily[_empId].push(_family);\n      \n      emit empFamilyRegistration(familyCounter, _empId, 1, \"success\");\n      } else {\n                emit empFamilyRegistration(familyCounter, _empId, 0, \"failure\");\n      }\n\n  }\n  \n  function registerMember(uint _empId, address _address) public {\n          memberCounter ++;\n          EmployeeToFamilyMembers[_empId][memberCounter] = Member(memberCounter, _empId, _address, true);\n          Family memory _family = EmployeeFamily[_empId][0];\n          _family.activeMembers ++;\n          EmployeeFamily[_empId][0] = _family;\n          \n          emit memberRegistration(memberCounter, \"success\");\n  }\n  \n  function familyExists(uint _empId) private view returns(bool){\n      if (EmployeeFamily[_empId].length > 0) {\n          return true;\n      }\n      else {\n          return false;\n      }\n      \n  }\n\n  function activateEmployee(uint _id) public {\n        address originalOwner;\n        // Fetch the product\n        Emp memory _employee = employees[_id];\n        originalOwner = _employee.owner;\n        require(!_employee.active);\n        require(originalOwner == msg.sender);\n        _employee.active = true;\n        employees[_id] = _employee;\n        // Trigger an event\n        emit employeeActivated(_id, originalOwner, msg.sender, true);\n  }\n\n  function disableEmployee(uint _id) public {\n    Emp memory _employee = employees[_id];\n    _employee.active = false;\n    employees[_id] = _employee;\n\n    emit employeeDisabled(_id, \"employee disabled\");\n  }\n\n  function canRegister(uint _id) private view returns (bool) {\n      if(employees[_id].flag) {\n          return false;\n      }\n      else {\n          return true;          \n      }\n\n  }\n  \n  function isRegistered(uint _id) private view returns (bool) {\n      if(employees[_id].flag && employees[_id].active) {\n          return true;          \n      } else {\n          return false;\n      }\n\n  }\n\n}",
  "sourcePath": "/Users/wissamdagher/Documents/dev/blockchain/marketplace/src/contracts/Employee.sol",
  "compiler": {
    "name": "solc",
    "version": "0.5.16+commit.9c3226ce.Emscripten.clang"
  },
  "schemaVersion": "3.4.1",
  "updatedAt": "2021-05-30T05:05:00.146Z",
  "networkType": "ethereum",
  "devdoc": {
    "methods": {}
  },
  "userdoc": {
    "methods": {}
  }
}