{
  "contractName": "EmployeeCore",
  "abi": [
    {
      "anonymous": false,
      "inputs": [
        {
          "indexed": false,
          "internalType": "uint256",
          "name": "id",
          "type": "uint256"
        },
        {
          "indexed": false,
          "internalType": "address",
          "name": "owner",
          "type": "address"
        },
        {
          "indexed": false,
          "internalType": "bool",
          "name": "valid",
          "type": "bool"
        },
        {
          "indexed": false,
          "internalType": "string",
          "name": "msg",
          "type": "string"
        }
      ],
      "name": "CouponPaperCreated",
      "type": "event"
    },
    {
      "anonymous": false,
      "inputs": [
        {
          "indexed": false,
          "internalType": "uint256",
          "name": "initialCouponCount",
          "type": "uint256"
        },
        {
          "indexed": false,
          "internalType": "string",
          "name": "msg",
          "type": "string"
        }
      ],
      "name": "EmployeeCouponGeneration",
      "type": "event"
    },
    {
      "anonymous": false,
      "inputs": [
        {
          "indexed": false,
          "internalType": "uint256",
          "name": "value",
          "type": "uint256"
        },
        {
          "indexed": false,
          "internalType": "uint256",
          "name": "maxcoupons",
          "type": "uint256"
        },
        {
          "indexed": false,
          "internalType": "uint256",
          "name": "paidamount",
          "type": "uint256"
        },
        {
          "indexed": false,
          "internalType": "uint256",
          "name": "year",
          "type": "uint256"
        },
        {
          "indexed": false,
          "internalType": "string",
          "name": "msg",
          "type": "string"
        }
      ],
      "name": "GlobalParametersSet",
      "type": "event"
    },
    {
      "anonymous": false,
      "inputs": [
        {
          "indexed": false,
          "internalType": "string",
          "name": "msg",
          "type": "string"
        }
      ],
      "name": "InvitationAdded",
      "type": "event"
    },
    {
      "anonymous": false,
      "inputs": [
        {
          "indexed": false,
          "internalType": "uint256",
          "name": "initialCouponCount",
          "type": "uint256"
        },
        {
          "indexed": false,
          "internalType": "string",
          "name": "msg",
          "type": "string"
        }
      ],
      "name": "MemberCouponGeneration",
      "type": "event"
    },
    {
      "anonymous": false,
      "inputs": [
        {
          "indexed": true,
          "internalType": "address",
          "name": "oldOwner",
          "type": "address"
        },
        {
          "indexed": true,
          "internalType": "address",
          "name": "newOwner",
          "type": "address"
        }
      ],
      "name": "OwnerSet",
      "type": "event"
    },
    {
      "anonymous": false,
      "inputs": [
        {
          "indexed": false,
          "internalType": "uint256",
          "name": "id",
          "type": "uint256"
        },
        {
          "indexed": false,
          "internalType": "uint256",
          "name": "empId",
          "type": "uint256"
        },
        {
          "indexed": false,
          "internalType": "uint256",
          "name": "couponId",
          "type": "uint256"
        },
        {
          "indexed": false,
          "internalType": "string",
          "name": "msg",
          "type": "string"
        }
      ],
      "name": "VisitCreated",
      "type": "event"
    },
    {
      "anonymous": false,
      "inputs": [
        {
          "indexed": false,
          "internalType": "uint256",
          "name": "documentID",
          "type": "uint256"
        },
        {
          "indexed": false,
          "internalType": "string",
          "name": "msg",
          "type": "string"
        }
      ],
      "name": "VisitDocumentAddition",
      "type": "event"
    },
    {
      "anonymous": false,
      "inputs": [
        {
          "indexed": false,
          "internalType": "uint256",
          "name": "_couponId",
          "type": "uint256"
        },
        {
          "indexed": false,
          "internalType": "string",
          "name": "msg",
          "type": "string"
        }
      ],
      "name": "couponExchanged",
      "type": "event"
    },
    {
      "anonymous": false,
      "inputs": [
        {
          "indexed": false,
          "internalType": "uint256",
          "name": "couponId",
          "type": "uint256"
        },
        {
          "indexed": false,
          "internalType": "string",
          "name": "msg",
          "type": "string"
        }
      ],
      "name": "couponRedeemed",
      "type": "event"
    },
    {
      "anonymous": false,
      "inputs": [
        {
          "indexed": false,
          "internalType": "string",
          "name": "msg",
          "type": "string"
        }
      ],
      "name": "delinvitee",
      "type": "event"
    },
    {
      "anonymous": false,
      "inputs": [
        {
          "indexed": false,
          "internalType": "uint256",
          "name": "visitid",
          "type": "uint256"
        },
        {
          "indexed": false,
          "internalType": "uint256",
          "name": "documentid",
          "type": "uint256"
        },
        {
          "indexed": false,
          "internalType": "string",
          "name": "msg",
          "type": "string"
        }
      ],
      "name": "doctorVisited",
      "type": "event"
    },
    {
      "anonymous": false,
      "inputs": [
        {
          "indexed": false,
          "internalType": "uint256",
          "name": "familyCounter",
          "type": "uint256"
        },
        {
          "indexed": false,
          "internalType": "string",
          "name": "msg",
          "type": "string"
        }
      ],
      "name": "empFamilyRegistration",
      "type": "event"
    },
    {
      "anonymous": false,
      "inputs": [
        {
          "indexed": false,
          "internalType": "uint256",
          "name": "employeesCounter",
          "type": "uint256"
        },
        {
          "indexed": false,
          "internalType": "string",
          "name": "msg",
          "type": "string"
        }
      ],
      "name": "empRegistration",
      "type": "event"
    },
    {
      "anonymous": false,
      "inputs": [
        {
          "indexed": false,
          "internalType": "uint256",
          "name": "memberCounter",
          "type": "uint256"
        },
        {
          "indexed": false,
          "internalType": "string",
          "name": "msg",
          "type": "string"
        }
      ],
      "name": "memberRegistration",
      "type": "event"
    },
    {
      "inputs": [
        {
          "internalType": "uint256",
          "name": "",
          "type": "uint256"
        }
      ],
      "name": "EmployeeFamily",
      "outputs": [
        {
          "internalType": "uint256",
          "name": "id",
          "type": "uint256"
        },
        {
          "internalType": "uint256",
          "name": "empId",
          "type": "uint256"
        },
        {
          "internalType": "uint256",
          "name": "count",
          "type": "uint256"
        },
        {
          "internalType": "bool",
          "name": "active",
          "type": "bool"
        },
        {
          "internalType": "uint256",
          "name": "activeMembers",
          "type": "uint256"
        }
      ],
      "stateMutability": "view",
      "type": "function"
    },
    {
      "inputs": [
        {
          "internalType": "uint256",
          "name": "",
          "type": "uint256"
        },
        {
          "internalType": "uint256",
          "name": "",
          "type": "uint256"
        }
      ],
      "name": "EmployeeFamilyMembers",
      "outputs": [
        {
          "internalType": "uint256",
          "name": "id",
          "type": "uint256"
        },
        {
          "internalType": "uint256",
          "name": "empId",
          "type": "uint256"
        },
        {
          "internalType": "uint256",
          "name": "familyId",
          "type": "uint256"
        },
        {
          "internalType": "address",
          "name": "owner",
          "type": "address"
        },
        {
          "internalType": "uint256",
          "name": "initialCouponCount",
          "type": "uint256"
        },
        {
          "internalType": "uint256",
          "name": "extraCouponCount",
          "type": "uint256"
        },
        {
          "internalType": "bool",
          "name": "active",
          "type": "bool"
        }
      ],
      "stateMutability": "view",
      "type": "function"
    },
    {
      "inputs": [
        {
          "internalType": "bytes32",
          "name": "",
          "type": "bytes32"
        }
      ],
      "name": "VisitDocumentBasehash",
      "outputs": [
        {
          "internalType": "uint256",
          "name": "",
          "type": "uint256"
        }
      ],
      "stateMutability": "view",
      "type": "function"
    },
    {
      "inputs": [],
      "name": "VisitDocumentCount",
      "outputs": [
        {
          "internalType": "uint256",
          "name": "",
          "type": "uint256"
        }
      ],
      "stateMutability": "view",
      "type": "function"
    },
    {
      "inputs": [
        {
          "internalType": "uint256",
          "name": "",
          "type": "uint256"
        }
      ],
      "name": "VisitDocuments",
      "outputs": [
        {
          "internalType": "uint256",
          "name": "id",
          "type": "uint256"
        },
        {
          "internalType": "uint256",
          "name": "_doctorvisitId",
          "type": "uint256"
        },
        {
          "internalType": "uint256",
          "name": "_empId",
          "type": "uint256"
        },
        {
          "internalType": "bytes32",
          "name": "_docHash",
          "type": "bytes32"
        },
        {
          "internalType": "uint256",
          "name": "flag",
          "type": "uint256"
        }
      ],
      "stateMutability": "view",
      "type": "function"
    },
    {
      "inputs": [
        {
          "internalType": "bytes32",
          "name": "_docHash",
          "type": "bytes32"
        }
      ],
      "name": "_documentExists",
      "outputs": [
        {
          "internalType": "bool",
          "name": "",
          "type": "bool"
        }
      ],
      "stateMutability": "view",
      "type": "function"
    },
    {
      "inputs": [
        {
          "internalType": "uint256",
          "name": "_code",
          "type": "uint256"
        },
        {
          "internalType": "uint256",
          "name": "_id",
          "type": "uint256"
        },
        {
          "internalType": "uint256",
          "name": "_usertype",
          "type": "uint256"
        }
      ],
      "name": "addInvitation",
      "outputs": [],
      "stateMutability": "nonpayable",
      "type": "function"
    },
    {
      "inputs": [
        {
          "internalType": "address",
          "name": "newOwner",
          "type": "address"
        }
      ],
      "name": "changeOwner",
      "outputs": [],
      "stateMutability": "nonpayable",
      "type": "function"
    },
    {
      "inputs": [
        {
          "internalType": "address",
          "name": "",
          "type": "address"
        },
        {
          "internalType": "uint256",
          "name": "",
          "type": "uint256"
        }
      ],
      "name": "empDoctorVisists",
      "outputs": [
        {
          "internalType": "uint256",
          "name": "",
          "type": "uint256"
        }
      ],
      "stateMutability": "view",
      "type": "function"
    },
    {
      "inputs": [
        {
          "internalType": "uint256",
          "name": "_couponId",
          "type": "uint256"
        }
      ],
      "name": "getCouponById",
      "outputs": [
        {
          "internalType": "uint256",
          "name": "id",
          "type": "uint256"
        },
        {
          "internalType": "address",
          "name": "",
          "type": "address"
        },
        {
          "internalType": "address",
          "name": "",
          "type": "address"
        },
        {
          "internalType": "string",
          "name": "status",
          "type": "string"
        }
      ],
      "stateMutability": "view",
      "type": "function"
    },
    {
      "inputs": [
        {
          "internalType": "address",
          "name": "_owner",
          "type": "address"
        }
      ],
      "name": "getCouponsByOwner",
      "outputs": [
        {
          "internalType": "uint256[]",
          "name": "ownerCoupons",
          "type": "uint256[]"
        }
      ],
      "stateMutability": "view",
      "type": "function"
    },
    {
      "inputs": [
        {
          "internalType": "uint256",
          "name": "_status",
          "type": "uint256"
        }
      ],
      "name": "getCouponsByStatus",
      "outputs": [
        {
          "internalType": "uint256[]",
          "name": "statusCoupons",
          "type": "uint256[]"
        }
      ],
      "stateMutability": "view",
      "type": "function"
    },
    {
      "inputs": [
        {
          "internalType": "uint256",
          "name": "_visitid",
          "type": "uint256"
        }
      ],
      "name": "getDoctorVisit",
      "outputs": [
        {
          "internalType": "uint256",
          "name": "visitid",
          "type": "uint256"
        },
        {
          "internalType": "uint256",
          "name": "empid",
          "type": "uint256"
        },
        {
          "internalType": "uint256",
          "name": "couponid",
          "type": "uint256"
        },
        {
          "internalType": "uint256",
          "name": "doctorid",
          "type": "uint256"
        }
      ],
      "stateMutability": "view",
      "type": "function"
    },
    {
      "inputs": [],
      "name": "getInvitations",
      "outputs": [
        {
          "internalType": "uint256[]",
          "name": "",
          "type": "uint256[]"
        }
      ],
      "stateMutability": "view",
      "type": "function"
    },
    {
      "inputs": [],
      "name": "getOwner",
      "outputs": [
        {
          "internalType": "address",
          "name": "",
          "type": "address"
        }
      ],
      "stateMutability": "view",
      "type": "function"
    },
    {
      "inputs": [
        {
          "internalType": "uint256",
          "name": "_empid",
          "type": "uint256"
        },
        {
          "internalType": "uint256",
          "name": "_maxfamilycount",
          "type": "uint256"
        },
        {
          "internalType": "uint256",
          "name": "_code",
          "type": "uint256"
        },
        {
          "internalType": "uint256",
          "name": "_usertype",
          "type": "uint256"
        }
      ],
      "name": "registerEmployee",
      "outputs": [],
      "stateMutability": "nonpayable",
      "type": "function"
    },
    {
      "inputs": [
        {
          "internalType": "uint256",
          "name": "_empId",
          "type": "uint256"
        },
        {
          "internalType": "uint256",
          "name": "_familyId",
          "type": "uint256"
        },
        {
          "internalType": "address",
          "name": "_address",
          "type": "address"
        }
      ],
      "name": "registerFamilyMember",
      "outputs": [],
      "stateMutability": "nonpayable",
      "type": "function"
    },
    {
      "inputs": [
        {
          "internalType": "uint256",
          "name": "",
          "type": "uint256"
        }
      ],
      "name": "registeredEmployees",
      "outputs": [
        {
          "internalType": "uint256",
          "name": "",
          "type": "uint256"
        }
      ],
      "stateMutability": "view",
      "type": "function"
    },
    {
      "inputs": [
        {
          "internalType": "uint256",
          "name": "_value",
          "type": "uint256"
        },
        {
          "internalType": "uint256",
          "name": "_maxcoupons",
          "type": "uint256"
        },
        {
          "internalType": "uint256",
          "name": "_paidamount",
          "type": "uint256"
        },
        {
          "internalType": "uint256",
          "name": "_year",
          "type": "uint256"
        }
      ],
      "name": "setGlobalParameters",
      "outputs": [],
      "stateMutability": "nonpayable",
      "type": "function"
    },
    {
      "inputs": [],
      "name": "visitCount",
      "outputs": [
        {
          "internalType": "uint256",
          "name": "",
          "type": "uint256"
        }
      ],
      "stateMutability": "view",
      "type": "function"
    },
    {
      "inputs": [
        {
          "internalType": "uint256",
          "name": "",
          "type": "uint256"
        }
      ],
      "name": "visits",
      "outputs": [
        {
          "internalType": "uint256",
          "name": "id",
          "type": "uint256"
        },
        {
          "internalType": "uint256",
          "name": "empId",
          "type": "uint256"
        },
        {
          "internalType": "uint256",
          "name": "couponId",
          "type": "uint256"
        },
        {
          "internalType": "uint256",
          "name": "doctorId",
          "type": "uint256"
        }
      ],
      "stateMutability": "view",
      "type": "function"
    },
    {
      "inputs": [
        {
          "internalType": "address",
          "name": "_employee",
          "type": "address"
        }
      ],
      "name": "getEmployeeInfo",
      "outputs": [
        {
          "components": [
            {
              "internalType": "uint256",
              "name": "id",
              "type": "uint256"
            },
            {
              "internalType": "uint256",
              "name": "empid",
              "type": "uint256"
            },
            {
              "internalType": "uint256",
              "name": "maxfamilycount",
              "type": "uint256"
            },
            {
              "internalType": "uint256",
              "name": "initialCouponCount",
              "type": "uint256"
            },
            {
              "internalType": "uint256",
              "name": "extraCouponCount",
              "type": "uint256"
            },
            {
              "internalType": "bool",
              "name": "active",
              "type": "bool"
            }
          ],
          "internalType": "struct EmployeeBase.Employee",
          "name": "",
          "type": "tuple"
        }
      ],
      "stateMutability": "view",
      "type": "function"
    },
    {
      "inputs": [],
      "name": "employeeIssueCoupons",
      "outputs": [],
      "stateMutability": "nonpayable",
      "type": "function"
    },
    {
      "inputs": [
        {
          "internalType": "address",
          "name": "_memberaddress",
          "type": "address"
        }
      ],
      "name": "employeeIssueMembersCoupons",
      "outputs": [],
      "stateMutability": "nonpayable",
      "type": "function"
    },
    {
      "inputs": [
        {
          "internalType": "uint256",
          "name": "_couponId",
          "type": "uint256"
        },
        {
          "internalType": "address",
          "name": "_owner",
          "type": "address"
        }
      ],
      "name": "exchangeCoupon",
      "outputs": [],
      "stateMutability": "nonpayable",
      "type": "function"
    },
    {
      "inputs": [
        {
          "internalType": "uint256",
          "name": "_couponId",
          "type": "uint256"
        },
        {
          "internalType": "address",
          "name": "_owner",
          "type": "address"
        }
      ],
      "name": "redeemCoupon",
      "outputs": [],
      "stateMutability": "nonpayable",
      "type": "function"
    },
    {
      "inputs": [
        {
          "internalType": "uint256",
          "name": "empid",
          "type": "uint256"
        },
        {
          "internalType": "uint256",
          "name": "couponid",
          "type": "uint256"
        },
        {
          "internalType": "uint256",
          "name": "doctorid",
          "type": "uint256"
        },
        {
          "internalType": "string",
          "name": "_md5",
          "type": "string"
        },
        {
          "internalType": "address",
          "name": "_address",
          "type": "address"
        }
      ],
      "name": "visitDoctor",
      "outputs": [],
      "stateMutability": "nonpayable",
      "type": "function"
    }
  ],
  "bytecode": "0x608060405234801561001057600080fd5b50336000806101000a81548173ffffffffffffffffffffffffffffffffffffffff021916908373ffffffffffffffffffffffffffffffffffffffff16021790555060008054906101000a900473ffffffffffffffffffffffffffffffffffffffff1673ffffffffffffffffffffffffffffffffffffffff16600073ffffffffffffffffffffffffffffffffffffffff167f342827c97908e5e2f71151c08502a66d44b6f758e3ac2f1de95f02eb95f0a73560405160405180910390a333600160006101000a81548173ffffffffffffffffffffffffffffffffffffffff021916908373ffffffffffffffffffffffffffffffffffffffff16021790555060006005819055506001600281905550600560038190555061ea6060048190555060006014819055506000601681905550600060158190555060006023819055506000602681905550614c1a806101656000396000f3fe608060405234801561001057600080fd5b50600436106101a95760003560e01c80638979eee4116100f9578063d2140b8d11610097578063e18099a811610071578063e18099a81461051b578063e750a5b514610537578063f4b75ee114610567578063fe1b516514610597576101a9565b8063d2140b8d146104ad578063d4ee1915146104e1578063e0e4367e146104fd576101a9565b8063a6f9dae1116100d3578063a6f9dae114610424578063acdb9e3c14610440578063b1823dcc1461045e578063c246e05c14610491576101a9565b80638979eee4146103a45780638ed9c8f7146103c0578063a61b8fc5146103f4576101a9565b80634ca643901161016657806364f82b391161014057806364f82b39146103045780636883a62f14610334578063885d6e591461036a578063893d20e814610386576101a9565b80634ca643901461029c5780635ac09b2b146102b857806361d73e6b146102e8576101a9565b806309c55a13146101ae57806311000c21146101e157806316845714146102145780631920762014610232578063196a623c146102625780632b9596611461026c575b600080fd5b6101c860048036038101906101c39190613929565b6105b3565b6040516101d894939291906144b4565b60405180910390f35b6101fb60048036038101906101f69190613929565b6105e3565b60405161020b9493929190614227565b60405180910390f35b61021c6107ae565b6040516102299190613fb4565b60405180910390f35b61024c600480360381019061024791906138cf565b610894565b6040516102599190613fd6565b60405180910390f35b61026a6108c4565b005b61028660048036038101906102819190613862565b610b11565b6040516102939190613fb4565b60405180910390f35b6102b660048036038101906102b19190613b13565b610c9a565b005b6102d260048036038101906102cd9190613862565b611053565b6040516102df91906141f1565b60405180910390f35b61030260048036038101906102fd9190613a7c565b61115b565b005b61031e600480360381019061031991906138cf565b611344565b60405161032b919061420c565b60405180910390f35b61034e60048036038101906103499190613996565b61135c565b6040516103619796959493929190614355565b60405180910390f35b610384600480360381019061037f9190613a29565b6113e8565b005b61038e611568565b60405161039b9190613f99565b60405180910390f35b6103be60048036038101906103b99190613862565b611591565b005b6103da60048036038101906103d59190613929565b6117df565b6040516103eb959493929190614417565b60405180910390f35b61040e6004803603810190610409919061388f565b611815565b60405161041b919061420c565b60405180910390f35b61043e60048036038101906104399190613862565b611846565b005b610448611991565b604051610455919061420c565b60405180910390f35b61047860048036038101906104739190613929565b611997565b60405161048894939291906144b4565b60405180910390f35b6104ab60048036038101906104a69190613b13565b611a08565b005b6104c760048036038101906104c29190613929565b611afd565b6040516104d89594939291906143c4565b60405180910390f35b6104fb60048036038101906104f69190613956565b611b40565b005b610505611fc6565b604051610512919061420c565b60405180910390f35b61053560048036038101906105309190613956565b611fcc565b005b610551600480360381019061054c9190613929565b612502565b60405161055e9190613fb4565b60405180910390f35b610581600480360381019061057c9190613929565b61263f565b60405161058e919061420c565b60405180910390f35b6105b160048036038101906105ac91906139d6565b612663565b005b60246020528060005260406000206000915090508060000154908060010154908060020154908060030154905084565b6000806000606060008054906101000a900473ffffffffffffffffffffffffffffffffffffffff1673ffffffffffffffffffffffffffffffffffffffff163373ffffffffffffffffffffffffffffffffffffffff1614610678576040517f08c379a000000000000000000000000000000000000000000000000000000000815260040161066f90614051565b60405180910390fd5b600a600086815260200190815260200160002060000154600a600087815260200190815260200160002060010160009054906101000a900473ffffffffffffffffffffffffffffffffffffffff16600a600088815260200190815260200160002060020160009054906101000a900473ffffffffffffffffffffffffffffffffffffffff16600a600089815260200190815260200160002060040180805461071f90614704565b80601f016020809104026020016040519081016040528092919081815260200182805461074b90614704565b80156107985780601f1061076d57610100808354040283529160200191610798565b820191906000526020600020905b81548152906001019060200180831161077b57829003601f168201915b5050505050905093509350935093509193509193565b606060008054906101000a900473ffffffffffffffffffffffffffffffffffffffff1673ffffffffffffffffffffffffffffffffffffffff163373ffffffffffffffffffffffffffffffffffffffff161461083e576040517f08c379a000000000000000000000000000000000000000000000000000000000815260040161083590614051565b60405180910390fd5b601380548060200260200160405190810160405280929190818152602001828054801561088a57602002820191906000526020600020905b815481526020019060010190808311610876575b5050505050905090565b600080602860008481526020019081526020016000205411156108ba57600190506108bf565b600090505b919050565b3360011515601760008373ffffffffffffffffffffffffffffffffffffffff1673ffffffffffffffffffffffffffffffffffffffff16815260200190815260200160002060050160009054906101000a900460ff1615151461095b576040517f08c379a000000000000000000000000000000000000000000000000000000000815260040161095290614191565b60405180910390fd5b6000601760003373ffffffffffffffffffffffffffffffffffffffff1673ffffffffffffffffffffffffffffffffffffffff16815260200190815260200160002060030154146109e0576040517f08c379a00000000000000000000000000000000000000000000000000000000081526004016109d7906140d1565b60405180910390fd5b60006109eb33612b3c565b90506000600190505b6003548111610a8457602060008360010154815260200190815260200160002060006009548152602001908152602001600020610a313333612b84565b9080600181540180825580915050600190039060005260206000200160009091909190915055816003016000815480929190610a6c90614767565b91905055508080610a7c90614767565b9150506109f4565b5060035481600301541415610ad1577f792163a28a1b080fac4cc7af50f9fefadf108759b206d1abb9e7c40dc97812b7600354604051610ac491906142bd565b60405180910390a1610b0d565b7f792163a28a1b080fac4cc7af50f9fefadf108759b206d1abb9e7c40dc97812b78160030154604051610b0491906142eb565b60405180910390a15b5050565b60606000610b1e83612e60565b90506000811415610b7b57600067ffffffffffffffff811115610b4457610b4361486c565b5b604051908082528060200260200182016040528015610b725781602001602082028036833780820191505090505b50915050610c95565b60008167ffffffffffffffff811115610b9757610b9661486c565b5b604051908082528060200260200182016040528015610bc55781602001602082028036833780820191505090505b5090506000610bd2612ea9565b9050600080600190505b828111610c8c578673ffffffffffffffffffffffffffffffffffffffff16600c600083815260200190815260200160002060009054906101000a900473ffffffffffffffffffffffffffffffffffffffff1673ffffffffffffffffffffffffffffffffffffffff161415610c795780848381518110610c5e57610c5d61483d565b5b6020026020010181815250508180610c7590614767565b9250505b8080610c8490614767565b915050610bdc565b83955050505050505b919050565b60008054906101000a900473ffffffffffffffffffffffffffffffffffffffff1673ffffffffffffffffffffffffffffffffffffffff163373ffffffffffffffffffffffffffffffffffffffff161415610d29576040517f08c379a0000000000000000000000000000000000000000000000000000000008152600401610d2090614011565b60405180910390fd5b818482816012600085815260200190815260200160002060000154148015610d665750806012600085815260200190815260200160002060010154145b610da5576040517f08c379a0000000000000000000000000000000000000000000000000000000008152600401610d9c90613ff1565b60405180910390fd5b3360001515601760008373ffffffffffffffffffffffffffffffffffffffff1673ffffffffffffffffffffffffffffffffffffffff16815260200190815260200160002060050160009054906101000a900460ff16151514610e3c576040517f08c379a0000000000000000000000000000000000000000000000000000000008152600401610e33906140f1565b60405180910390fd5b610e4585612eb3565b610e84576040517f08c379a0000000000000000000000000000000000000000000000000000000008152600401610e7b90614031565b60405180910390fd5b60146000815480929190610e9790614767565b91905055506040518060c001604052806014548152602001898152602001888152602001600081526020016000815260200160011515815250601760003373ffffffffffffffffffffffffffffffffffffffff1673ffffffffffffffffffffffffffffffffffffffff168152602001908152602001600020600082015181600001556020820151816001015560408201518160020155606082015181600301556080820151816004015560a08201518160050160006101000a81548160ff021916908315150217905550905050601f8890806001815401808255809150506001900390600052602060002001600090919091909150553360186000601454815260200190815260200160002060006101000a81548173ffffffffffffffffffffffffffffffffffffffff021916908373ffffffffffffffffffffffffffffffffffffffff160217905550601454601960008a8152602001908152602001600020819055506110058689612ed1565b611010888833612f39565b7f6dd3c20f7609bbf719cf9279aeda93d1c4be21c20864d29483b679c98b7b7e8a60145460405161104191906142bd565b60405180910390a15050505050505050565b61105b61369b565b3360011515601760008373ffffffffffffffffffffffffffffffffffffffff1673ffffffffffffffffffffffffffffffffffffffff16815260200190815260200160002060050160009054906101000a900460ff161515146110f2576040517f08c379a00000000000000000000000000000000000000000000000000000000081526004016110e990614191565b60405180910390fd5b6110fb83612b3c565b6040518060c001604052908160008201548152602001600182015481526020016002820154815260200160038201548152602001600482015481526020016005820160009054906101000a900460ff161515151581525050915050919050565b3360011515601760008373ffffffffffffffffffffffffffffffffffffffff1673ffffffffffffffffffffffffffffffffffffffff16815260200190815260200160002060050160009054906101000a900460ff161515146111f2576040517f08c379a00000000000000000000000000000000000000000000000000000000081526004016111e990614191565b60405180910390fd5b60006111ff878787613144565b905060016010600088815260200190815260200160002060006101000a81548160ff021916908315150217905550602260003373ffffffffffffffffffffffffffffffffffffffff1673ffffffffffffffffffffffffffffffffffffffff16815260200190815260200160002081908060018154018082558091505060019003906000526020600020016000909190919091505560006002856040516112a59190613f82565b602060405180830381855afa1580156112c2573d6000803e3d6000fd5b5050506040513d601f19601f820116820180604052508101906112e591906138fc565b905060006112f4878a8461322c565b90506113008886611b40565b7f9a3aa3a70dc27fdd4f5e650dad1b50bfe5108eaa780cde71b5ad096977c01af58382604051611331929190614319565b60405180910390a1505050505050505050565b60286020528060005260406000206000915090505481565b601d602052816000526040600020818154811061137857600080fd5b9060005260206000209060070201600091509150508060000154908060010154908060020154908060030160009054906101000a900473ffffffffffffffffffffffffffffffffffffffff16908060040154908060050154908060060160009054906101000a900460ff16905087565b60008054906101000a900473ffffffffffffffffffffffffffffffffffffffff1673ffffffffffffffffffffffffffffffffffffffff163373ffffffffffffffffffffffffffffffffffffffff1614611476576040517f08c379a000000000000000000000000000000000000000000000000000000000815260040161146d90614051565b60405180910390fd5b60006012600085815260200190815260200160002060000154146114cf576040517f08c379a00000000000000000000000000000000000000000000000000000000081526004016114c6906140b1565b60405180910390fd5b81601260008581526020019081526020016000206000018190555080601260008581526020019081526020016000206001018190555060138290806001815401808255809150506001900390600052602060002001600090919091909150557f4b94f404f01408af2bc2543d9ad9bea2c7382d8beb361d59bb3038d8ff9f40d660405161155b90614091565b60405180910390a1505050565b60008060009054906101000a900473ffffffffffffffffffffffffffffffffffffffff16905090565b3360011515601760008373ffffffffffffffffffffffffffffffffffffffff1673ffffffffffffffffffffffffffffffffffffffff16815260200190815260200160002060050160009054906101000a900460ff16151514611628576040517f08c379a000000000000000000000000000000000000000000000000000000000815260040161161f90614191565b60405180910390fd5b6000601b60008473ffffffffffffffffffffffffffffffffffffffff1673ffffffffffffffffffffffffffffffffffffffff16815260200190815260200160002060040154146116ad576040517f08c379a00000000000000000000000000000000000000000000000000000000081526004016116a4906140d1565b60405180910390fd5b60006116b883613392565b90506000600190505b6003548111611751576021600083600001548152602001908152602001600020600060095481526020019081526020016000206116fe8533612b84565b908060018154018082558091505060019003906000526020600020016000909190919091505581600401600081548092919061173990614767565b9190505550808061174990614767565b9150506116c1565b506003548160040154141561179e577f87c21fbe85c3ac265e36e51547b1669ec3f453648d76898cf4dfa735fc7b3d3f60035460405161179191906142bd565b60405180910390a16117da565b7f87c21fbe85c3ac265e36e51547b1669ec3f453648d76898cf4dfa735fc7b3d3f81600401546040516117d191906142eb565b60405180910390a15b505050565b60276020528060005260406000206000915090508060000154908060010154908060020154908060030154908060040154905085565b6022602052816000526040600020818154811061183157600080fd5b90600052602060002001600091509150505481565b60008054906101000a900473ffffffffffffffffffffffffffffffffffffffff1673ffffffffffffffffffffffffffffffffffffffff163373ffffffffffffffffffffffffffffffffffffffff16146118d4576040517f08c379a00000000000000000000000000000000000000000000000000000000081526004016118cb90614051565b60405180910390fd5b8073ffffffffffffffffffffffffffffffffffffffff1660008054906101000a900473ffffffffffffffffffffffffffffffffffffffff1673ffffffffffffffffffffffffffffffffffffffff167f342827c97908e5e2f71151c08502a66d44b6f758e3ac2f1de95f02eb95f0a73560405160405180910390a3806000806101000a81548173ffffffffffffffffffffffffffffffffffffffff021916908373ffffffffffffffffffffffffffffffffffffffff16021790555050565b60265481565b600080600080602460008681526020019081526020016000206000015460246000878152602001908152602001600020600101546024600088815260200190815260200160002060020154602460008981526020019081526020016000206003015493509350935093509193509193565b60008054906101000a900473ffffffffffffffffffffffffffffffffffffffff1673ffffffffffffffffffffffffffffffffffffffff163373ffffffffffffffffffffffffffffffffffffffff1614611a96576040517f08c379a0000000000000000000000000000000000000000000000000000000008152600401611a8d90614051565b60405180910390fd5b836002819055508260038190555081600481905550806009819055507f7f120ce25be09e0f9e4a334e5105525189558b508f68b88efe3c9846b1ae870a600254600354600454600954604051611aef94939291906144f9565b60405180910390a150505050565b601a6020528060005260406000206000915090508060000154908060010154908060020154908060030160009054906101000a900460ff16908060040154905085565b3360011515601760008373ffffffffffffffffffffffffffffffffffffffff1673ffffffffffffffffffffffffffffffffffffffff16815260200190815260200160002060050160009054906101000a900460ff16151514611bd7576040517f08c379a0000000000000000000000000000000000000000000000000000000008152600401611bce90614191565b60405180910390fd5b611be182846133da565b611c20576040517f08c379a0000000000000000000000000000000000000000000000000000000008152600401611c1790614171565b60405180910390fd5b6000600a60008581526020019081526020016000206040518060e0016040529081600082015481526020016001820160009054906101000a900473ffffffffffffffffffffffffffffffffffffffff1673ffffffffffffffffffffffffffffffffffffffff1673ffffffffffffffffffffffffffffffffffffffff1681526020016002820160009054906101000a900473ffffffffffffffffffffffffffffffffffffffff1673ffffffffffffffffffffffffffffffffffffffff1673ffffffffffffffffffffffffffffffffffffffff16815260200160038201548152602001600482018054611d1090614704565b80601f0160208091040260200160405190810160405280929190818152602001828054611d3c90614704565b8015611d895780601f10611d5e57610100808354040283529160200191611d89565b820191906000526020600020905b815481529060010190602001808311611d6c57829003601f168201915b505050505081526020016005820160009054906101000a900460ff161515151581526020016005820160019054906101000a900460ff16151515158152505090506040518060400160405280600981526020017f45786368616e6765640000000000000000000000000000000000000000000000815250816080018190525080600a60008681526020019081526020016000206000820151816000015560208201518160010160006101000a81548173ffffffffffffffffffffffffffffffffffffffff021916908373ffffffffffffffffffffffffffffffffffffffff16021790555060408201518160020160006101000a81548173ffffffffffffffffffffffffffffffffffffffff021916908373ffffffffffffffffffffffffffffffffffffffff160217905550606082015181600301556080820151816004019080519060200190611eda9291906136d3565b5060a08201518160050160006101000a81548160ff02191690831515021790555060c08201518160050160016101000a81548160ff0219169083151502179055509050506002600f60008681526020019081526020016000208190555060066000815480929190611f4a90614767565b919050555082600d600086815260200190815260200160002060006101000a81548173ffffffffffffffffffffffffffffffffffffffff021916908373ffffffffffffffffffffffffffffffffffffffff160217905550600c600085815260200190815260200160002060009054906101000a90505050505050565b60235481565b3360011515601760008373ffffffffffffffffffffffffffffffffffffffff1673ffffffffffffffffffffffffffffffffffffffff16815260200190815260200160002060050160009054906101000a900460ff16151514612063576040517f08c379a000000000000000000000000000000000000000000000000000000000815260040161205a90614191565b60405180910390fd5b61206d82846133da565b6120ac576040517f08c379a00000000000000000000000000000000000000000000000000000000081526004016120a390614171565b60405180910390fd5b6120b583613449565b6120f4576040517f08c379a00000000000000000000000000000000000000000000000000000000081526004016120eb90614131565b60405180910390fd5b6000600a60008581526020019081526020016000206040518060e0016040529081600082015481526020016001820160009054906101000a900473ffffffffffffffffffffffffffffffffffffffff1673ffffffffffffffffffffffffffffffffffffffff1673ffffffffffffffffffffffffffffffffffffffff1681526020016002820160009054906101000a900473ffffffffffffffffffffffffffffffffffffffff1673ffffffffffffffffffffffffffffffffffffffff1673ffffffffffffffffffffffffffffffffffffffff168152602001600382015481526020016004820180546121e490614704565b80601f016020809104026020016040519081016040528092919081815260200182805461221090614704565b801561225d5780601f106122325761010080835404028352916020019161225d565b820191906000526020600020905b81548152906001019060200180831161224057829003601f168201915b505050505081526020016005820160009054906101000a900460ff161515151581526020016005820160019054906101000a900460ff16151515158152505090506040518060400160405280600881526020017f52656465656d656400000000000000000000000000000000000000000000000081525081608001819052506003600f60006005548152602001908152602001600020819055506006600081548092919061230a906146da565b91905055506007600081548092919061232290614767565b919050555080600a60008681526020019081526020016000206000820151816000015560208201518160010160006101000a81548173ffffffffffffffffffffffffffffffffffffffff021916908373ffffffffffffffffffffffffffffffffffffffff16021790555060408201518160020160006101000a81548173ffffffffffffffffffffffffffffffffffffffff021916908373ffffffffffffffffffffffffffffffffffffffff1602179055506060820151816003015560808201518160040190805190602001906123f99291906136d3565b5060a08201518160050160006101000a81548160ff02191690831515021790555060c08201518160050160016101000a81548160ff02191690831515021790555090505033600e600086815260200190815260200160002060006101000a81548173ffffffffffffffffffffffffffffffffffffffff021916908373ffffffffffffffffffffffffffffffffffffffff160217905550600d600085815260200190815260200160002060006101000a81549073ffffffffffffffffffffffffffffffffffffffff02191690557fa903780770410201ba13a823168298930a649fcb2879778a7917cd6fc20edd45846040516124f491906142bd565b60405180910390a150505050565b6060600061250f836134d3565b9050600081141561256c57600067ffffffffffffffff8111156125355761253461486c565b5b6040519080825280602002602001820160405280156125635781602001602082028036833780820191505090505b5091505061263a565b60008167ffffffffffffffff8111156125885761258761486c565b5b6040519080825280602002602001820160405280156125b65781602001602082028036833780820191505090505b50905060006125c3612ea9565b9050600080600190505b8281116126315786600f600083815260200190815260200160002054141561261e57808483815181106126035761260261483d565b5b602002602001018181525050818061261a90614767565b9250505b808061262990614767565b9150506125cd565b83955050505050505b919050565b601f818154811061264f57600080fd5b906000526020600020016000915090505481565b3360011515601760008373ffffffffffffffffffffffffffffffffffffffff1673ffffffffffffffffffffffffffffffffffffffff16815260200190815260200160002060050160009054906101000a900460ff161515146126fa576040517f08c379a00000000000000000000000000000000000000000000000000000000081526004016126f190614191565b60405180910390fd5b6016600081548092919061270d90614767565b919050555060006040518060e0016040528060165481526020018681526020018581526020018473ffffffffffffffffffffffffffffffffffffffff168152602001600081526020016000815260200160011515815250905080601b60008573ffffffffffffffffffffffffffffffffffffffff1673ffffffffffffffffffffffffffffffffffffffff16815260200190815260200160002060008201518160000155602082015181600101556040820151816002015560608201518160030160006101000a81548173ffffffffffffffffffffffffffffffffffffffff021916908373ffffffffffffffffffffffffffffffffffffffff1602179055506080820151816004015560a0820151816005015560c08201518160060160006101000a81548160ff02191690831515021790555090505080601c60008781526020019081526020016000206000601654815260200190815260200160002060008201518160000155602082015181600101556040820151816002015560608201518160030160006101000a81548173ffffffffffffffffffffffffffffffffffffffff021916908373ffffffffffffffffffffffffffffffffffffffff1602179055506080820151816004015560a0820151816005015560c08201518160060160006101000a81548160ff021916908315150217905550905050601d600086815260200190815260200160002081908060018154018082558091505060019003906000526020600020906007020160009091909190915060008201518160000155602082015181600101556040820151816002015560608201518160030160006101000a81548173ffffffffffffffffffffffffffffffffffffffff021916908373ffffffffffffffffffffffffffffffffffffffff1602179055506080820151816004015560a0820151816005015560c08201518160060160006101000a81548160ff021916908315150217905550505084601e60008573ffffffffffffffffffffffffffffffffffffffff1673ffffffffffffffffffffffffffffffffffffffff168152602001908152602001600020819055506000601a60008781526020019081526020016000206040518060a00160405290816000820154815260200160018201548152602001600282015481526020016003820160009054906101000a900460ff161515151581526020016004820154815250509050806080018051809190612a9890614767565b8152505080601a600088815260200190815260200160002060008201518160000155602082015181600101556040820151816002015560608201518160030160006101000a81548160ff021916908315150217905550608082015181600401559050507f6e1e4090659373eee2aaca28bea8b2b6d75fda61ac6e007e0246e56eeb59cd73601654604051612b2c91906142bd565b60405180910390a1505050505050565b6000601760008373ffffffffffffffffffffffffffffffffffffffff1673ffffffffffffffffffffffffffffffffffffffff1681526020019081526020016000209050919050565b600060056000815480929190612b9990614767565b91905055506040518060e0016040528060055481526020018473ffffffffffffffffffffffffffffffffffffffff1681526020018373ffffffffffffffffffffffffffffffffffffffff16815260200160025481526020016040518060400160405280600781526020017f6372656174656400000000000000000000000000000000000000000000000000815250815260200160011515815260200160001515815250600a600060055481526020019081526020016000206000820151816000015560208201518160010160006101000a81548173ffffffffffffffffffffffffffffffffffffffff021916908373ffffffffffffffffffffffffffffffffffffffff16021790555060408201518160020160006101000a81548173ffffffffffffffffffffffffffffffffffffffff021916908373ffffffffffffffffffffffffffffffffffffffff160217905550606082015181600301556080820151816004019080519060200190612d0f9291906136d3565b5060a08201518160050160006101000a81548160ff02191690831515021790555060c08201518160050160016101000a81548160ff021916908315150217905550905050600b60008473ffffffffffffffffffffffffffffffffffffffff1673ffffffffffffffffffffffffffffffffffffffff1681526020019081526020016000206000815480929190612da390614767565b919050555082600c6000600554815260200190815260200160002060006101000a81548173ffffffffffffffffffffffffffffffffffffffff021916908373ffffffffffffffffffffffffffffffffffffffff1602179055506001600f60006005548152602001908152602001600020819055507f2971a82072a1b29fd1941ada5b32f5b5aad07e668299b78328e9904e762cb9be600554846001604051612e4d93929190614273565b60405180910390a1600554905092915050565b6000600b60008373ffffffffffffffffffffffffffffffffffffffff1673ffffffffffffffffffffffffffffffffffffffff168152602001908152602001600020549050919050565b6000600554905090565b60006001821415612ec75760019050612ecc565b600090505b919050565b6012600083815260200190815260200160002060008082016000905560018201600090555050612f0081613576565b7f83044fa08cabba8ae7aa27249a8a606cdd565b8e72934bbc7b3597f898859e70604051612f2d906141b1565b60405180910390a15050565b8060011515601760008373ffffffffffffffffffffffffffffffffffffffff1673ffffffffffffffffffffffffffffffffffffffff16815260200190815260200160002060050160009054906101000a900460ff16151514612fd0576040517f08c379a0000000000000000000000000000000000000000000000000000000008152600401612fc790614191565b60405180910390fd5b60008311613013576040517f08c379a000000000000000000000000000000000000000000000000000000000815260040161300a906141d1565b60405180910390fd5b61301c84613590565b1561305c576040517f08c379a000000000000000000000000000000000000000000000000000000000815260040161305390614071565b60405180910390fd5b6015600081548092919061306f90614767565b919050555060006040518060a0016040528060155481526020018681526020018581526020016001151581526020016000815250905080601a600087815260200190815260200160002060008201518160000155602082015181600101556040820151816002015560608201518160030160006101000a81548160ff021916908315150217905550608082015181600401559050507f08db86aa8d0e65ac45061a1565349ba001d8c73117c16835e9eeb23848eb3e3f60155460405161313591906142bd565b60405180910390a15050505050565b60006023600081548092919061315990614767565b9190505550613166613759565b6040518060800160405280602354815260200186815260200185815260200184815250905080602460006023548152602001908152602001600020600082015181600001556020820151816001015560408201518160020155606082015181600301559050507f1bddd110c92375ee8dc06b13693ae9ab5395c1ae79fd1b455455bc19039bce4b60235486866040516132019392919061446a565b60405180910390a1602460006023548152602001908152602001600020600001549150509392505050565b600061323782610894565b15613277576040517f08c379a000000000000000000000000000000000000000000000000000000000815260040161326e90614111565b60405180910390fd5b6026600081548092919061328a90614767565b91905055506040518060a00160405280602654815260200185815260200184815260200183815260200160018152506027600060265481526020019081526020016000206000820151816000015560208201518160010155604082015181600201556060820151816003015560808201518160040155905050602654602860008481526020019081526020016000208190555060265460256000868152602001908152602001600020819055507fae816f4de19251cce5dbafb46558bb67ace150a4cda551ce62d1ab8e117e243460265460405161336891906142bd565b60405180910390a16027600060265481526020019081526020016000206000015490509392505050565b6000601b60008373ffffffffffffffffffffffffffffffffffffffff1673ffffffffffffffffffffffffffffffffffffffff1681526020019081526020016000209050919050565b60008273ffffffffffffffffffffffffffffffffffffffff16600a600084815260200190815260200160002060010160009054906101000a900473ffffffffffffffffffffffffffffffffffffffff1673ffffffffffffffffffffffffffffffffffffffff1614905092915050565b60008073ffffffffffffffffffffffffffffffffffffffff16600d600084815260200190815260200160002060009054906101000a900473ffffffffffffffffffffffffffffffffffffffff1673ffffffffffffffffffffffffffffffffffffffff161180156134cc57506002600f600084815260200190815260200160002054145b9050919050565b60006005821080156134e55750600082115b613524576040517f08c379a000000000000000000000000000000000000000000000000000000000815260040161351b90614151565b60405180910390fd5b6001821415613537576005549050613571565b600282141561354a576006549050613571565b600382141561355d576007549050613571565b6004821415613570576008549050613571565b5b919050565b6000613581826135d5565b905061358c8161361e565b5050565b600060011515601a600084815260200190815260200160002060030160009054906101000a900460ff16151514156135cb57600190506135d0565b600090505b919050565b600080600090505b82601382815481106135f2576135f161483d565b5b90600052602060002001541461361557808061360d90614767565b9150506135dd565b80915050919050565b601360016013805490506136329190614612565b815481106136435761364261483d565b5b9060005260206000200154601382815481106136625761366161483d565b5b906000526020600020018190555060138054806136825761368161480e565b5b6001900381819060005260206000200160009055905550565b6040518060c0016040528060008152602001600081526020016000815260200160008152602001600081526020016000151581525090565b8280546136df90614704565b90600052602060002090601f0160209004810192826137015760008555613748565b82601f1061371a57805160ff1916838001178555613748565b82800160010185558215613748579182015b8281111561374757825182559160200191906001019061372c565b5b5090506137559190613781565b5090565b6040518060800160405280600081526020016000815260200160008152602001600081525090565b5b8082111561379a576000816000905550600101613782565b5090565b60006137b16137ac84614576565b614551565b9050828152602081018484840111156137cd576137cc6148a0565b5b6137d8848285614698565b509392505050565b6000813590506137ef81614b9f565b92915050565b60008135905061380481614bb6565b92915050565b60008151905061381981614bb6565b92915050565b600082601f8301126138345761383361489b565b5b813561384484826020860161379e565b91505092915050565b60008135905061385c81614bcd565b92915050565b600060208284031215613878576138776148aa565b5b6000613886848285016137e0565b91505092915050565b600080604083850312156138a6576138a56148aa565b5b60006138b4858286016137e0565b92505060206138c58582860161384d565b9150509250929050565b6000602082840312156138e5576138e46148aa565b5b60006138f3848285016137f5565b91505092915050565b600060208284031215613912576139116148aa565b5b60006139208482850161380a565b91505092915050565b60006020828403121561393f5761393e6148aa565b5b600061394d8482850161384d565b91505092915050565b6000806040838503121561396d5761396c6148aa565b5b600061397b8582860161384d565b925050602061398c858286016137e0565b9150509250929050565b600080604083850312156139ad576139ac6148aa565b5b60006139bb8582860161384d565b92505060206139cc8582860161384d565b9150509250929050565b6000806000606084860312156139ef576139ee6148aa565b5b60006139fd8682870161384d565b9350506020613a0e8682870161384d565b9250506040613a1f868287016137e0565b9150509250925092565b600080600060608486031215613a4257613a416148aa565b5b6000613a508682870161384d565b9350506020613a618682870161384d565b9250506040613a728682870161384d565b9150509250925092565b600080600080600060a08688031215613a9857613a976148aa565b5b6000613aa68882890161384d565b9550506020613ab78882890161384d565b9450506040613ac88882890161384d565b935050606086013567ffffffffffffffff811115613ae957613ae86148a5565b5b613af58882890161381f565b9250506080613b06888289016137e0565b9150509295509295909350565b60008060008060808587031215613b2d57613b2c6148aa565b5b6000613b3b8782880161384d565b9450506020613b4c8782880161384d565b9350506040613b5d8782880161384d565b9250506060613b6e8782880161384d565b91505092959194509250565b6000613b868383613f64565b60208301905092915050565b613b9b81614646565b82525050565b6000613bac826145b7565b613bb681856145e5565b9350613bc1836145a7565b8060005b83811015613bf2578151613bd98882613b7a565b9750613be4836145d8565b925050600181019050613bc5565b5085935050505092915050565b613c0881614658565b82525050565b613c1781614658565b82525050565b613c2681614664565b82525050565b6000613c37826145c2565b613c4181856145f6565b9350613c518185602086016146a7565b80840191505092915050565b6000613c68826145cd565b613c728185614601565b9350613c828185602086016146a7565b613c8b816148af565b840191505092915050565b6000613ca3601583614601565b9150613cae826148c0565b602082019050919050565b6000613cc6600f83614601565b9150613cd1826148e9565b602082019050919050565b6000613ce9601483614601565b9150613cf482614912565b602082019050919050565b6000613d0c601383614601565b9150613d178261493b565b602082019050919050565b6000613d2f600d83614601565b9150613d3a82614964565b602082019050919050565b6000613d52600783614601565b9150613d5d8261498d565b602082019050919050565b6000613d75601e83614601565b9150613d80826149b6565b602082019050919050565b6000613d98601e83614601565b9150613da3826149df565b602082019050919050565b6000613dbb601483614601565b9150613dc682614a08565b602082019050919050565b6000613dde601783614601565b9150613de982614a31565b602082019050919050565b6000613e01601a83614601565b9150613e0c82614a5a565b602082019050919050565b6000613e24600783614601565b9150613e2f82614a83565b602082019050919050565b6000613e47601783614601565b9150613e5282614aac565b602082019050919050565b6000613e6a601a83614601565b9150613e7582614ad5565b602082019050919050565b6000613e8d601783614601565b9150613e9882614afe565b602082019050919050565b6000613eb0600783614601565b9150613ebb82614b27565b602082019050919050565b6000613ed3602483614601565b9150613ede82614b50565b604082019050919050565b60c082016000820151613eff6000850182613f64565b506020820151613f126020850182613f64565b506040820151613f256040850182613f64565b506060820151613f386060850182613f64565b506080820151613f4b6080850182613f64565b5060a0820151613f5e60a0850182613bff565b50505050565b613f6d8161468e565b82525050565b613f7c8161468e565b82525050565b6000613f8e8284613c2c565b915081905092915050565b6000602082019050613fae6000830184613b92565b92915050565b60006020820190508181036000830152613fce8184613ba1565b905092915050565b6000602082019050613feb6000830184613c0e565b92915050565b6000602082019050818103600083015261400a81613c96565b9050919050565b6000602082019050818103600083015261402a81613cb9565b9050919050565b6000602082019050818103600083015261404a81613cdc565b9050919050565b6000602082019050818103600083015261406a81613cff565b9050919050565b6000602082019050818103600083015261408a81613d22565b9050919050565b600060208201905081810360008301526140aa81613d45565b9050919050565b600060208201905081810360008301526140ca81613d68565b9050919050565b600060208201905081810360008301526140ea81613d8b565b9050919050565b6000602082019050818103600083015261410a81613dae565b9050919050565b6000602082019050818103600083015261412a81613dd1565b9050919050565b6000602082019050818103600083015261414a81613df4565b9050919050565b6000602082019050818103600083015261416a81613e3a565b9050919050565b6000602082019050818103600083015261418a81613e5d565b9050919050565b600060208201905081810360008301526141aa81613e80565b9050919050565b600060208201905081810360008301526141ca81613ea3565b9050919050565b600060208201905081810360008301526141ea81613ec6565b9050919050565b600060c0820190506142066000830184613ee9565b92915050565b60006020820190506142216000830184613f73565b92915050565b600060808201905061423c6000830187613f73565b6142496020830186613b92565b6142566040830185613b92565b81810360608301526142688184613c5d565b905095945050505050565b60006080820190506142886000830186613f73565b6142956020830185613b92565b6142a26040830184613c0e565b81810360608301526142b381613d45565b9050949350505050565b60006040820190506142d26000830184613f73565b81810360208301526142e381613d45565b905092915050565b60006040820190506143006000830184613f73565b818103602083015261431181613e17565b905092915050565b600060608201905061432e6000830185613f73565b61433b6020830184613f73565b818103604083015261434c81613d45565b90509392505050565b600060e08201905061436a600083018a613f73565b6143776020830189613f73565b6143846040830188613f73565b6143916060830187613b92565b61439e6080830186613f73565b6143ab60a0830185613f73565b6143b860c0830184613c0e565b98975050505050505050565b600060a0820190506143d96000830188613f73565b6143e66020830187613f73565b6143f36040830186613f73565b6144006060830185613c0e565b61440d6080830184613f73565b9695505050505050565b600060a08201905061442c6000830188613f73565b6144396020830187613f73565b6144466040830186613f73565b6144536060830185613c1d565b6144606080830184613f73565b9695505050505050565b600060808201905061447f6000830186613f73565b61448c6020830185613f73565b6144996040830184613f73565b81810360608301526144aa81613d45565b9050949350505050565b60006080820190506144c96000830187613f73565b6144d66020830186613f73565b6144e36040830185613f73565b6144f06060830184613f73565b95945050505050565b600060a08201905061450e6000830187613f73565b61451b6020830186613f73565b6145286040830185613f73565b6145356060830184613f73565b818103608083015261454681613d45565b905095945050505050565b600061455b61456c565b90506145678282614736565b919050565b6000604051905090565b600067ffffffffffffffff8211156145915761459061486c565b5b61459a826148af565b9050602081019050919050565b6000819050602082019050919050565b600081519050919050565b600081519050919050565b600081519050919050565b6000602082019050919050565b600082825260208201905092915050565b600081905092915050565b600082825260208201905092915050565b600061461d8261468e565b91506146288361468e565b92508282101561463b5761463a6147b0565b5b828203905092915050565b60006146518261466e565b9050919050565b60008115159050919050565b6000819050919050565b600073ffffffffffffffffffffffffffffffffffffffff82169050919050565b6000819050919050565b82818337600083830152505050565b60005b838110156146c55780820151818401526020810190506146aa565b838111156146d4576000848401525b50505050565b60006146e58261468e565b915060008214156146f9576146f86147b0565b5b600182039050919050565b6000600282049050600182168061471c57607f821691505b602082108114156147305761472f6147df565b5b50919050565b61473f826148af565b810181811067ffffffffffffffff8211171561475e5761475d61486c565b5b80604052505050565b60006147728261468e565b91507fffffffffffffffffffffffffffffffffffffffffffffffffffffffffffffffff8214156147a5576147a46147b0565b5b600182019050919050565b7f4e487b7100000000000000000000000000000000000000000000000000000000600052601160045260246000fd5b7f4e487b7100000000000000000000000000000000000000000000000000000000600052602260045260246000fd5b7f4e487b7100000000000000000000000000000000000000000000000000000000600052603160045260246000fd5b7f4e487b7100000000000000000000000000000000000000000000000000000000600052603260045260246000fd5b7f4e487b7100000000000000000000000000000000000000000000000000000000600052604160045260246000fd5b600080fd5b600080fd5b600080fd5b600080fd5b6000601f19601f8301169050919050565b7f43616c6c6572206973206e6f7420696e76697465640000000000000000000000600082015250565b7f43616c6c6572206973206f776e65720000000000000000000000000000000000600082015250565b7f4e6f7420616e20656d706c6f7965652074797065000000000000000000000000600082015250565b7f43616c6c6572206973206e6f74206f776e657200000000000000000000000000600082015250565b7f46616d696c792065786973747300000000000000000000000000000000000000600082015250565b7f7375636365737300000000000000000000000000000000000000000000000000600082015250565b7f416c726561647920696e7669746174696f6e20636f6465206578697374730000600082015250565b7f496e697469616c20436f75706f6e7320616c7265616479206973737565640000600082015250565b7f456d706c6f796565202052656769737465726564000000000000000000000000600082015250565b7f446f63756d656e7420616c726561647920657869737473000000000000000000600082015250565b7f436f75706f6e2063616e206e6f742062652072656465656d6564000000000000600082015250565b7f6661696c75726500000000000000000000000000000000000000000000000000600082015250565b7f496e76616c6964207374617475732070726f7669646564000000000000000000600082015250565b7f4e6f7420746865206f776e6572206f662074686520746f6b656e000000000000600082015250565b7f456d706c6f796565204e6f742052656769737465726564000000000000000000600082015250565b7f64656c6574656400000000000000000000000000000000000000000000000000600082015250565b7f46616d696c79206d656d626572732073686f756c64206265206d6f726520746860008201527f616e203000000000000000000000000000000000000000000000000000000000602082015250565b614ba881614646565b8114614bb357600080fd5b50565b614bbf81614664565b8114614bca57600080fd5b50565b614bd68161468e565b8114614be157600080fd5b5056fea264697066735822122059581a53974cd95dcdf48a627e08af9807b1bea6497e474b0eb8d4f2d51c153064736f6c63430008070033",
  "immutableReferences": {},
  "source": "// SPDX-License-Identifier: GPL-3.0\n\npragma solidity >=0.7.0 <0.9.0;\n\n\n/**\n * @title Owner\n * @dev Set & change owner\n */\ncontract Owner {\n\n    address private owner;\n    \n    // event for EVM logging\n    event OwnerSet(address indexed oldOwner, address indexed newOwner);\n    \n    // modifier to check if caller is owner\n    modifier isOwner() {\n        // If the first argument of 'require' evaluates to 'false', execution terminates and all\n        // changes to the state and to Ether balances are reverted.\n        // This used to consume all gas in old EVM versions, but not anymore.\n        // It is often a good idea to use 'require' to check if functions are called correctly.\n        // As a second argument, you can also provide an explanation about what went wrong.\n        require(msg.sender == owner, \"Caller is not owner\");\n        _;\n    }\n    \n    modifier notOwner() {\n       require(msg.sender != owner, \"Caller is owner\");\n        _; \n    }\n    \n    /**\n     * @dev Set contract deployer as owner\n     */\n    constructor() {\n        owner = msg.sender; // 'msg.sender' is sender of current call, contract deployer for a constructor\n        emit OwnerSet(address(0), owner);\n    }\n\n    /**\n     * @dev Change owner\n     * @param newOwner address of new owner\n     */\n    function changeOwner(address newOwner) public isOwner {\n        emit OwnerSet(owner, newOwner);\n        owner = newOwner;\n    }\n\n    /**\n     * @dev Return owner address \n     * @return address of owner\n     */\n    function getOwner() external view returns (address) {\n        return owner;\n    }\n}\n\ncontract UserInvite is Owner{ \n\n\n    \n    struct Invitation { \n        uint256 id;\n        uint256 invtype;\n    }\n    \n    event delinvitee (\n        string  msg\n        );\n        \n    event InvitationAdded(string msg);\n\n    mapping (uint256 => Invitation) internal invitationById;\n    uint[] internal invitees;\n    \n    modifier isInvited(uint256 _code, uint256 _id, uint256 _usertype) {\n        // If the first argument of 'require' evaluates to 'false', execution terminates and all\n        // changes to the state and to Ether balances are reverted.\n        // This used to consume all gas in old EVM versions, but not anymore.\n        // It is often a good idea to use 'require' to check if functions are called correctly.\n        // As a second argument, you can also provide an explanation about what went wrong.\n        require(invitationById[_code].id == _id && invitationById[_code].invtype == _usertype, \"Caller is not invited\");\n        _;\n    }\n\n    function find(uint256 value) private view returns(uint) {\n        uint256 i = 0;\n        while (invitees[i] != value) {\n            i++;\n        }\n        return i;\n    }\n\n    function removeByValue(uint256 value) private {\n        uint256 i = find(value);\n        removeByIndex(i);\n    }\n\n    function removeByIndex(uint256 i) private {\n            invitees[i] = invitees[invitees.length -1];\n            invitees.pop();\n        }\n    \n    \n    function addInvitation(uint256 _code, uint256 _id, uint256 _usertype) public isOwner { \n        require(invitationById[_code].id == 0, \"Already invitation code exists\");\n        invitationById[_code].id = _id;\n        invitationById[_code].invtype = _usertype;\n        \n        invitees.push(_id);\n        emit InvitationAdded(\"success\");\n    }\n    \n    function deleteInvitation(uint256 _code, uint256 _id) internal {\n         delete invitationById[_code];\n         removeByValue(_id);\n         emit delinvitee(\"deleted\");\n    }\n    \n    function getInvitations() public isOwner view returns (uint[] memory)  {\n        return invitees;\n    }\n    \n}\n\ncontract EmployeeBase is UserInvite { \n\n    struct Employee { \n        uint256 id;\n        uint256 empid; //empid provided by HR\n        uint256 maxfamilycount; //maximum number of family members that can register\n        uint256 initialCouponCount;\n        uint256 extraCouponCount;\n        bool active;\n    }\n\n    struct Family {\n      uint256 id;\n      uint256 empId;\n      uint256 count;\n      bool active;\n      uint256 activeMembers;\n    }\n\n    \n  \n  struct Member {\n      uint256 id;\n      uint256 empId;\n      uint256 familyId;\n      address owner;\n      uint256 initialCouponCount;\n      uint256 extraCouponCount;\n      bool active;\n   }\n    event empRegistration(uint256 employeesCounter, string msg);\n    event empFamilyRegistration(uint256 familyCounter, string msg);\n    event memberRegistration (uint256 memberCounter, string msg);\n    \n    uint256 employeesCounter;\n    uint256 familyCounter;\n    uint256 memberCounter;\n    \n    mapping (address => Employee) internal employees;\n    mapping (uint256 => address) internal employeeIndexToOwner;\n    mapping (uint256 => uint) internal employeeIDtoIndex;\n\n    //family\n    mapping(uint256 => Family) public EmployeeFamily;\n\n    //Family Member\n    mapping (address => Member) internal familyMembers;\n    mapping (uint256 => mapping(uint256 => Member )) EmployeeToFamilyMembers;\n    mapping (uint256 => Member[]) public EmployeeFamilyMembers;\n    mapping (address => uint256 ) memberAddressToEmployeeId;\n    uint[] public registeredEmployees;\n    \n    //Employee Coupons\n    mapping (uint256 => mapping(uint256 => uint[] )) internal EmployeeToCoupons;\n    \n    //Member Coupons\n    mapping (uint256 => mapping(uint256 => uint[] )) internal MemberToCoupons;\n    \n    //Employee Doctor Visit, e.g empDoctorVisists[601][0] = 1 (visitId)\n    mapping(address => uint[]) public empDoctorVisists;\n    \n    constructor() {\n        employeesCounter = 0;\n        memberCounter = 0;\n        familyCounter = 0;\n    }\n\n    function isEmployee(uint256 _type) private pure returns (bool) {\n        if (_type ==1) {\n            return true;\n        }\n        else {\n            return false;\n        }\n    }\n    \n    \n    modifier isRegisteredEmployee(address _address) {\n        // If the first argument of 'require' evaluates to 'false', execution terminates and all\n        // changes to the state and to Ether balances are reverted.\n        // This used to consume all gas in old EVM versions, but not anymore.\n        // It is often a good idea to use 'require' to check if functions are called correctly.\n        // As a second argument, you can also provide an explanation about what went wrong.\n        require(employees[_address].active == true, \"Employee Not Registered\");\n        _;\n    }\n    \n    modifier isNotRegistered(address _address) {\n        require(employees[_address].active == false, \"Employee  Registered\");\n        _;\n    }\n\n    //function can be called by User with an invitation on the system\n    function registerEmployee(uint256 _empid, uint256 _maxfamilycount, uint256 _code, uint256 _usertype ) public notOwner isInvited(_code,_empid, _usertype) isNotRegistered(msg.sender) {\n        require(isEmployee(_usertype), \"Not an employee type\");\n        employeesCounter ++;\n        employees[msg.sender] = Employee(employeesCounter, _empid, _maxfamilycount,0,0,true);\n        registeredEmployees.push(_empid);\n        employeeIndexToOwner[employeesCounter] = msg.sender;\n        employeeIDtoIndex[_empid] = employeesCounter;\n        deleteInvitation(_code,_empid);\n        registerFamily(_empid, _maxfamilycount, msg.sender);\n        emit empRegistration(employeesCounter, \"success\");\n    }\n\n    function getEmployee(address _address) internal view returns (Employee storage){\n        return( employees[_address]);\n    }\n    \n    function getMember(address _address) internal view returns (Member storage){\n        return( familyMembers[_address]);\n    }\n    \n\n    function registerFamily(uint256 _empId, uint256 _count, address _address) internal isRegisteredEmployee(_address) {\n        require(_count > 0, \"Family members should be more than 0\");\n        require(!familyExists(_empId), \"Family exists\");\n        familyCounter ++;\n        Family memory _family = Family(familyCounter, _empId, _count, true, 0);\n        EmployeeFamily[_empId] = _family;\n        \n        emit empFamilyRegistration(familyCounter, \"success\");\n\n    }\n\n    function registerFamilyMember(uint256 _empId,uint256 _familyId, address _address) public isRegisteredEmployee(msg.sender) {\n              memberCounter ++;\n              Member memory _member = Member(memberCounter, _empId, _familyId, _address,0,0, true);\n              familyMembers[_address] = _member;\n              EmployeeToFamilyMembers[_empId][memberCounter] = _member;\n              EmployeeFamilyMembers[_empId].push(_member);\n              memberAddressToEmployeeId[_address] = _empId;\n              Family memory _family = EmployeeFamily[_empId];\n              _family.activeMembers ++;\n              EmployeeFamily[_empId] = _family;\n              emit memberRegistration(memberCounter, \"success\");\n    }\n  \n  function familyExists(uint256 _empId) private view returns(bool){\n      if (EmployeeFamily[_empId].active == true ) {\n          return true;\n      }\n      else {\n          return false;\n      }\n      \n  }\n    \n}\n\ncontract DoctorBase is UserInvite { \n\n    struct Doctor { \n        uint256 id;\n        uint256 doctorid;\n        string specialty;\n        uint256 couponcoeficient;\n        bool active;\n    }\n    \n    uint256 internal doctorsCounter;\n    \n    mapping (address => Doctor) internal doctors;\n    mapping (uint256 => address) internal doctorIndexToOwner;\n    mapping (uint256 => bytes32) internal doctorIndexToKeyHash;\n    uint[] internal registeredDoctors;\n    \n    //events \n    event doctorregistration (uint256 id, string msg);\n    \n    constructor() {\n        doctorsCounter = 0;\n    }\n\n    function isDoctor(uint256 _type) private pure returns (bool) {\n        if (_type ==2) {\n            return true;\n        }\n        else {\n            return false;\n        }\n    }\n    \n    //function can be called by User with an invitation on the system\n    function registerDoctor(uint256 _doctorid, string memory _speciality, uint256 _code, uint256 _usertype, uint256 _couponcoeficient) public isInvited(_code,_doctorid, _usertype) notOwner{\n        require(isDoctor(_usertype), \"Not a Doctor type\");\n        doctorsCounter ++;\n        bytes32 _keyhash = sha256(abi.encodePacked(doctorsCounter+_doctorid));\n        doctorIndexToKeyHash[doctorsCounter] = _keyhash;\n        doctors[msg.sender] = Doctor(doctorsCounter, _doctorid, _speciality,_couponcoeficient, true);\n        registeredDoctors.push(_doctorid);\n        doctorIndexToOwner[_doctorid] = msg.sender;\n        deleteInvitation(_code,_doctorid);\n        emit doctorregistration(doctorsCounter, \"success\");\n    }\n\n    function getDoctor(address _address) internal view returns (uint, uint, string memory, uint256, bool ){\n        return( doctors[_address].doctorid, doctors[_address].id, doctors[_address].specialty ,doctors[_address].couponcoeficient,doctors[_address].active);\n    }\n    function getDoctor(uint256 _id) internal view returns(bytes32 _keyhash) {\n        return doctorIndexToKeyHash[_id];\n    }\n}\n\ncontract Coupon is Owner {\n    \n  address owner;\n  uint256 value;\n  uint256 empCouponMax;\n  uint256 couponPayAmount;\n  uint256 couponCount; \n  uint256 couponExchangedCount;\n  uint256 couponRedeemedCount;\n  uint256 couponPaidCount;\n  uint256 year;\n  \n  struct CouponPaper {\n    uint256 id;\n    address owner;\n    address beneficiary;\n    //add empID to track coupons for family members\n    uint256 value;\n    string status;\n    bool valid;\n    bool approved;\n  } \n  \n  event CouponPaperCreated(\n    uint256 id,\n    address owner,\n    bool valid,\n    string msg\n  );\n\n  event GlobalParametersSet(\n      uint256 value, \n      uint256 maxcoupons, \n      uint256 paidamount,\n      uint256 year,\n      string msg\n  );\n  \n  \n  mapping(uint256 => CouponPaper) internal coupons;\n  mapping(address => uint) internal ownershipToCouponCount;\n  //Filled when new coupon is created\n  mapping(uint256 => address) internal couponIndexToOwner;\n  //Filled when new coupon is exchanged\n  mapping(uint256 => address) internal couponIndexToOwnerExchanged;\n  //Filled when new coupon is redeemed\n  mapping(uint256 => address) internal couponIndexToOwnerRedeeemed;\n  //Track coupon status\n  mapping(uint256 => uint256) internal couponIndexToStatus;\n  \n  //Filled when a coupon is used in DoctorVisit\n  mapping(uint256 => bool) couponIndexToDoctorVisit;\n  \n  //Stores the balances to be paid for the employee;\n  mapping(address => uint) balances;\n  \n  constructor() {\n    owner = msg.sender;\n    couponCount = 0;\n    value = 1;\n    empCouponMax = 5;\n    couponPayAmount = 60000;\n  }\n  \n    function setGlobalParameters(uint256 _value, uint256 _maxcoupons, uint256 _paidamount,uint256 _year) public isOwner {\n        value = _value;\n        empCouponMax = _maxcoupons;\n        couponPayAmount = _paidamount;\n        year = _year;\n        emit GlobalParametersSet(value, empCouponMax, couponPayAmount, year, \"success\" );\n    }\n  \n\n    function issueCoupon(address _couponowner, address _couponbeneficiary ) internal returns(uint256 _couponId) {\n    couponCount ++;\n    coupons[couponCount] = CouponPaper(couponCount,_couponowner, _couponbeneficiary, value, \"created\", true, false);\n    ownershipToCouponCount[_couponowner] ++;\n    couponIndexToOwner[couponCount] = _couponowner;\n    couponIndexToStatus[couponCount] = 1;\n    emit CouponPaperCreated(couponCount, _couponowner, true, \"success\");\n    return couponCount;\n    \n    }\n    \n    function _transfer(address _from, address _to, uint256 _couponId) internal {\n        CouponPaper storage _coupon = coupons[_couponId];\n        _coupon.owner = _to;\n        ownershipToCouponCount[_to] ++;\n        ownershipToCouponCount[_from] --;\n        couponIndexToOwner[couponCount] = _to;\n    }\n\n    function _owns(address _address, uint256 _couponId) internal view returns (bool) {\n        return(coupons[_couponId].owner == _address);\n    }\n    \n    function _usedInDoctorVisit(uint256 _couponId) internal view returns (bool) {\n        return (couponIndexToDoctorVisit[_couponId]);\n    }\n    \n    function _isBeneficiary(address _address, uint256 _couponId) internal view returns (bool) {\n        return(coupons[_couponId].beneficiary == _address);\n    }\n    \n    //coupon status is exchanged\n    function _readyToBeRedeemed(uint256 _couponId) internal view returns (bool) {\n       return((couponIndexToOwnerExchanged[_couponId] > address(0)) && (couponIndexToStatus[_couponId] == 2));\n    }\n    \n  \n    function getCouponById(uint256 _couponId) public isOwner view returns(uint256 id, address, address, string memory status) { \n    \n        return (coupons[_couponId].id, coupons[_couponId].owner, coupons[_couponId].beneficiary, coupons[_couponId].status);\n    }\n    \n    function getCoupon(uint256 _couponId) internal isOwner view returns(CouponPaper storage){\n        return coupons[_couponId];\n    }\n\n    function couponBalanceOf(address _address) internal view returns (uint256 count) {\n        return ownershipToCouponCount[_address];\n    }\n\n    function totalCoupons() internal view returns (uint256 count) {\n        return couponCount;\n        \n    }\n\n    function totalCouponsByStatus(uint256 _status) internal view returns (uint256 countExchanged) {\n        require(_status < 5 && _status >0, \"Invalid status provided\");\n        //1 - created, 2- exchanged, 3-redeemed, 4-paid\n        if (_status == 1) return couponCount;\n        if (_status == 2) return couponExchangedCount;\n        if (_status == 3) return couponRedeemedCount;\n        if (_status == 4) return couponPaidCount;\n    }\n\n    function getCouponsByStatus(uint256 _status) external view returns (uint256[] memory statusCoupons) {\n        \n        uint256 count = totalCouponsByStatus(_status);\n        if (count == 0) {\n            return new uint256[](0);\n        }\n        else {\n            uint256[] memory result = new uint256[](count);\n            uint256 total = totalCoupons();\n            uint256 resultIndex = 0;\n            //we count all coupons\n            uint256 couponId;\n\n            for (couponId = 1; couponId <= total; couponId++) {\n                if (couponIndexToStatus[couponId] == _status) {\n                    result[resultIndex] = couponId;\n                    resultIndex++;\n                }\n            }\n\n            return result;\n        }\n\n    }\n\n    \n    function getCouponsByOwner(address _owner) external view returns (uint256[] memory ownerCoupons) {\n        uint256 count = couponBalanceOf(_owner);\n        if (count == 0) {\n            return new uint[](0);\n        }\n        else {\n            uint256[] memory result = new uint256[](count);\n            uint256 total = totalCoupons();\n            uint256 resultIndex = 0;\n            //we count all coupons\n            uint256 couponId;\n\n            for (couponId = 1; couponId <= total; couponId++) {\n                if (couponIndexToOwner[couponId] == _owner) {\n                    result[resultIndex] = couponId;\n                    resultIndex++;\n                }\n            }\n\n            return result;\n        }\n\n    }\n    \n    \n  \n  \n}\n\ncontract DoctorVisitBase {\n  uint256 public visitCount; \n\n  struct Visit {\n    uint256 id;\n    uint256 empId;\n    uint256 couponId;\n    uint256 doctorId;\n  }\n\n  event VisitCreated (\n    uint256 id,\n    uint256 empId,\n    uint256 couponId,\n    string msg\n  );\n\n  //visits  mapping incremental\n  mapping(uint256 => Visit) public visits;\n  //mapping visitDocumentIndex to Visit ID;\n  mapping (uint256 => uint) DoctorVisitIndexToDocumentId;\n\n  constructor() {\n    visitCount = 0;\n  }\n\n  function createVisit(uint256 _empId, uint256 _couponId, uint256 _doctorId) internal returns(uint256 visitId) {\n    visitCount ++;\n    Visit memory _visit;\n    _visit = Visit(visitCount, _empId, _couponId, _doctorId);\n    visits[visitCount] = _visit;\n    emit VisitCreated(visitCount, _empId, _couponId, \"success\");\n    return visits[visitCount].id;\n  }\n  \n  function getDoctorVisit(uint256 _visitid) public view returns (uint256 visitid, uint256 empid, uint256 couponid, uint256 doctorid) {\n      return (visits[_visitid].id,visits[_visitid].empId,visits[_visitid].couponId,visits[_visitid].doctorId);\n  }\n\n}\n\ncontract VisitDocumentBase is DoctorVisitBase { \n  uint256 public VisitDocumentCount;\n\n  struct VisitDoc { \n    uint256 id; \n    uint256 _doctorvisitId;\n    uint256 _empId;\n    bytes32 _docHash;\n    uint256 flag; //flag is one when created by the contract\n  }\n\n  event VisitDocumentAddition (\n    uint256 documentID,\n    string msg\n  );\n  mapping (uint256 => VisitDoc ) public VisitDocuments;\n  mapping (bytes32 => uint256 ) public VisitDocumentBasehash;\n  \n\n  constructor() {\n    VisitDocumentCount = 0;\n  }\n\n  function addVisitDocument(uint256 _doctorvisitId, uint256 _empId,bytes32 _docHash) internal returns(uint256 documentId) {\n     require(!_documentExists(_docHash), \"Document already exists\"); //check if document hash already exists\n        VisitDocumentCount ++;\n        VisitDocuments[VisitDocumentCount] = VisitDoc(VisitDocumentCount, _doctorvisitId, _empId, _docHash, 1);\n        VisitDocumentBasehash[_docHash] = VisitDocumentCount; \n        DoctorVisitIndexToDocumentId[_doctorvisitId] = VisitDocumentCount;\n        emit VisitDocumentAddition(VisitDocumentCount, \"success\");\n        return VisitDocuments[VisitDocumentCount].id;\n  }\n  \n  function _documentExists(bytes32 _docHash) public view returns (bool) {\n      if(VisitDocumentBasehash[_docHash] > 0) {\n        return true;\n      }\n      else {\n        return false;\n      }\n  }\n  \n}\n\n\n\ncontract EmployeeCore is Coupon,EmployeeBase,VisitDocumentBase {\n    \n    event EmployeeCouponGeneration(uint256 initialCouponCount, string msg);\n    event MemberCouponGeneration(uint256 initialCouponCount, string msg);\n    event couponExchanged(uint256 _couponId, string msg);\n    event doctorVisited(uint256 visitid, uint256 documentid, string msg);\n    event couponRedeemed(uint256 couponId, string msg);\n\n    \n    //get Employee info\n    function getEmployeeInfo(address _employee) external isRegisteredEmployee(msg.sender) view returns (Employee memory) {\n        return getEmployee(_employee);\n    }\n    //issue inital coupons\n    function employeeIssueCoupons() public isRegisteredEmployee(msg.sender) {\n        require((employees[msg.sender].initialCouponCount == 0), \"Initial Coupons already issued\");\n        Employee storage _employee = getEmployee(msg.sender);\n            for (uint256 i =1; i <= empCouponMax; i++)\n            {\n            //Employee is the owner and beneficiary of his initial coupons\n            EmployeeToCoupons[_employee.empid][year].push(issueCoupon(msg.sender,msg.sender));\n            _employee.initialCouponCount ++;\n            }\n            if ((_employee.initialCouponCount) == empCouponMax) {\n                emit EmployeeCouponGeneration(empCouponMax, \"success\");\n            }\n            else { \n                emit EmployeeCouponGeneration(_employee.initialCouponCount, \"failure\");\n            }\n        \n\n    }\n    \n    function employeeIssueMembersCoupons(address _memberaddress) public isRegisteredEmployee(msg.sender) {\n        require((familyMembers[_memberaddress].initialCouponCount == 0), \"Initial Coupons already issued\");\n        Member storage _member = getMember(_memberaddress);\n            for (uint256 i =1; i <= empCouponMax; i++)\n            {\n            //Employee is the owner and beneficiary of his initial coupons\n            MemberToCoupons[_member.id][year].push(issueCoupon(_memberaddress,msg.sender));\n            _member.initialCouponCount ++;\n            }\n            if ((_member.initialCouponCount) == empCouponMax) {\n                emit MemberCouponGeneration(empCouponMax, \"success\");\n            }\n            else { \n                emit MemberCouponGeneration(_member.initialCouponCount, \"failure\");\n            }\n        \n\n    }\n    \n     function exchangeCoupon(uint256 _couponId, address _owner) public isRegisteredEmployee(msg.sender) {\n        require(_owns(_owner, _couponId), \"Not the owner of the token\");\n         CouponPaper memory _coupon = coupons[_couponId]; \n         _coupon.status = \"Exchanged\";\n         //_coupon.beneficiary = _coupon.owner;\n         //_coupon.owner = owner;\n         coupons[_couponId] = _coupon;\n         couponIndexToStatus[_couponId] = 2;\n         couponExchangedCount ++;\n         couponIndexToOwnerExchanged[_couponId] = _owner;\n         couponIndexToOwner[_couponId];\n    }\n    \n    function redeemCoupon(uint256 _couponId, address _owner) public isRegisteredEmployee(msg.sender) {\n        require(_owns(_owner, _couponId), \"Not the owner of the token\");\n        require(_readyToBeRedeemed(_couponId), \"Coupon can not be redeemed\");\n         CouponPaper memory _coupon = coupons[_couponId]; \n         _coupon.status = \"Redeemed\";\n         couponIndexToStatus[couponCount] = 3;\n         couponExchangedCount --;\n         couponRedeemedCount ++;\n         //_coupon.beneficiary = owner;\n        coupons[_couponId] = _coupon;\n        couponIndexToOwnerRedeeemed[_couponId] = msg.sender;\n        delete couponIndexToOwnerExchanged[_couponId];\n        emit couponRedeemed(_couponId, \"success\");\n    }\n    \n    function visitDoctor(uint256 empid, uint256 couponid, uint256 doctorid, string memory _md5, address _address) public isRegisteredEmployee(msg.sender){\n            //employee should have a family relation with _address\n            //visit doctor\n            uint256 _visitId = createVisit(empid, couponid, doctorid);\n            couponIndexToDoctorVisit[couponid] = true;\n            empDoctorVisists[msg.sender].push(_visitId);\n            //submit document\n            bytes32 _docHash = sha256(bytes(_md5));\n            uint256 _documentId = addVisitDocument(doctorid, empid, _docHash);\n            // then exchange Coupon\n            exchangeCoupon(couponid, _address);\n            emit doctorVisited( _visitId, _documentId, \"success\");\n    }\n}\n\ncontract HRManager is Coupon,EmployeeBase,DoctorBase {\n    mapping(uint256 => bool) public couponIndexApproved;\n\n    event approveCoupon(uint256 couponid, string msg);\n    event paidCoupon(uint256 _couponId, string msg);\n   // event DoctorPricing(string msg);\n\n    function approveCouponRedemption(uint256 _couponId) public isOwner {\n        require(_readyToBeRedeemed(_couponId), \"Coupon can not be redeemed\");\n        require(!couponIndexApproved[_couponId], \"Coupon already approved\");\n        CouponPaper storage _coupon = coupons[_couponId]; \n         _coupon.approved = true;\n         couponIndexApproved[_couponId] = true;\n         emit approveCoupon(_couponId, \"success\");\n    }\n    \n    function prepareCouponPayment(uint256 _couponId) public isOwner {\n        CouponPaper storage _coupon = coupons[_couponId]; \n        _coupon.valid = false;\n        _coupon.status = \"Paid\";\n        _coupon.beneficiary = _coupon.owner;\n        _coupon.owner = owner;\n        couponIndexToStatus[couponCount] = 4;\n        couponRedeemedCount --;\n        couponPaidCount ++;\n        uint256 _balance = balances[_coupon.owner];\n        balances[_coupon.owner] = _balance + couponPayAmount;\n\n        emit paidCoupon(_couponId, \"success\");\n        \n    }\n}\n \ncontract MyNet is EmployeeCore,HRManager {\n    string name;\n\n    constructor() {\n        name = \"MyNet Contract is initialised\";\n    }\n\n    function getName() public view returns(string memory _name) {\n        return name;\n    }\n    \n    \n}\n",
  "sourcePath": "/Users/wissamdagher/Documents/dev/blockchain/CouponMedNet/src/contracts/MyNet.sol",
  "compiler": {
    "name": "solc",
    "version": "0.8.7+commit.e28d00a7.Emscripten.clang"
  },
  "schemaVersion": "3.4.1",
  "updatedAt": "2021-08-21T11:50:40.296Z",
  "devdoc": {
    "kind": "dev",
    "methods": {
      "changeOwner(address)": {
        "details": "Change owner",
        "params": {
          "newOwner": "address of new owner"
        }
      },
      "getOwner()": {
        "details": "Return owner address ",
        "returns": {
          "_0": "address of owner"
        }
      }
    },
    "version": 1
  },
  "userdoc": {
    "kind": "user",
    "methods": {},
    "version": 1
  }
}