{
  "contractName": "EmployeeCore",
  "abi": [
    {
      "anonymous": false,
      "inputs": [
        {
          "indexed": false,
          "internalType": "uint256",
          "name": "id",
          "type": "uint256"
        },
        {
          "indexed": false,
          "internalType": "address",
          "name": "owner",
          "type": "address"
        },
        {
          "indexed": false,
          "internalType": "bool",
          "name": "valid",
          "type": "bool"
        },
        {
          "indexed": false,
          "internalType": "string",
          "name": "msg",
          "type": "string"
        }
      ],
      "name": "CouponPaperCreated",
      "type": "event"
    },
    {
      "anonymous": false,
      "inputs": [
        {
          "indexed": false,
          "internalType": "uint256",
          "name": "initialCouponCount",
          "type": "uint256"
        },
        {
          "indexed": false,
          "internalType": "string",
          "name": "msg",
          "type": "string"
        }
      ],
      "name": "EmployeeCouponGeneration",
      "type": "event"
    },
    {
      "anonymous": false,
      "inputs": [
        {
          "indexed": false,
          "internalType": "uint256",
          "name": "value",
          "type": "uint256"
        },
        {
          "indexed": false,
          "internalType": "uint256",
          "name": "maxcoupons",
          "type": "uint256"
        },
        {
          "indexed": false,
          "internalType": "uint256",
          "name": "paidamount",
          "type": "uint256"
        },
        {
          "indexed": false,
          "internalType": "uint256",
          "name": "year",
          "type": "uint256"
        },
        {
          "indexed": false,
          "internalType": "string",
          "name": "msg",
          "type": "string"
        }
      ],
      "name": "GlobalParametersSet",
      "type": "event"
    },
    {
      "anonymous": false,
      "inputs": [
        {
          "indexed": false,
          "internalType": "string",
          "name": "msg",
          "type": "string"
        }
      ],
      "name": "InvitationAdded",
      "type": "event"
    },
    {
      "anonymous": false,
      "inputs": [
        {
          "indexed": false,
          "internalType": "uint256",
          "name": "initialCouponCount",
          "type": "uint256"
        },
        {
          "indexed": false,
          "internalType": "string",
          "name": "msg",
          "type": "string"
        }
      ],
      "name": "MemberCouponGeneration",
      "type": "event"
    },
    {
      "anonymous": false,
      "inputs": [
        {
          "indexed": true,
          "internalType": "address",
          "name": "oldOwner",
          "type": "address"
        },
        {
          "indexed": true,
          "internalType": "address",
          "name": "newOwner",
          "type": "address"
        }
      ],
      "name": "OwnerSet",
      "type": "event"
    },
    {
      "anonymous": false,
      "inputs": [
        {
          "indexed": false,
          "internalType": "uint256",
          "name": "id",
          "type": "uint256"
        },
        {
          "indexed": false,
          "internalType": "uint256",
          "name": "empId",
          "type": "uint256"
        },
        {
          "indexed": false,
          "internalType": "uint256",
          "name": "couponId",
          "type": "uint256"
        },
        {
          "indexed": false,
          "internalType": "string",
          "name": "msg",
          "type": "string"
        }
      ],
      "name": "VisitCreated",
      "type": "event"
    },
    {
      "anonymous": false,
      "inputs": [
        {
          "indexed": false,
          "internalType": "uint256",
          "name": "documentID",
          "type": "uint256"
        },
        {
          "indexed": false,
          "internalType": "string",
          "name": "msg",
          "type": "string"
        }
      ],
      "name": "VisitDocumentAddition",
      "type": "event"
    },
    {
      "anonymous": false,
      "inputs": [
        {
          "indexed": false,
          "internalType": "uint256",
          "name": "_couponId",
          "type": "uint256"
        },
        {
          "indexed": false,
          "internalType": "string",
          "name": "msg",
          "type": "string"
        }
      ],
      "name": "couponExchanged",
      "type": "event"
    },
    {
      "anonymous": false,
      "inputs": [
        {
          "indexed": false,
          "internalType": "uint256",
          "name": "couponId",
          "type": "uint256"
        },
        {
          "indexed": false,
          "internalType": "string",
          "name": "msg",
          "type": "string"
        }
      ],
      "name": "couponRedeemed",
      "type": "event"
    },
    {
      "anonymous": false,
      "inputs": [
        {
          "indexed": false,
          "internalType": "string",
          "name": "msg",
          "type": "string"
        }
      ],
      "name": "delinvitee",
      "type": "event"
    },
    {
      "anonymous": false,
      "inputs": [
        {
          "indexed": false,
          "internalType": "uint256",
          "name": "visitid",
          "type": "uint256"
        },
        {
          "indexed": false,
          "internalType": "uint256",
          "name": "documentid",
          "type": "uint256"
        },
        {
          "indexed": false,
          "internalType": "string",
          "name": "msg",
          "type": "string"
        }
      ],
      "name": "doctorVisited",
      "type": "event"
    },
    {
      "anonymous": false,
      "inputs": [
        {
          "indexed": false,
          "internalType": "uint256",
          "name": "familyCounter",
          "type": "uint256"
        },
        {
          "indexed": false,
          "internalType": "string",
          "name": "msg",
          "type": "string"
        }
      ],
      "name": "empFamilyRegistration",
      "type": "event"
    },
    {
      "anonymous": false,
      "inputs": [
        {
          "indexed": false,
          "internalType": "uint256",
          "name": "employeesCounter",
          "type": "uint256"
        },
        {
          "indexed": false,
          "internalType": "string",
          "name": "msg",
          "type": "string"
        }
      ],
      "name": "empRegistration",
      "type": "event"
    },
    {
      "anonymous": false,
      "inputs": [
        {
          "indexed": false,
          "internalType": "uint256",
          "name": "memberCounter",
          "type": "uint256"
        },
        {
          "indexed": false,
          "internalType": "string",
          "name": "msg",
          "type": "string"
        }
      ],
      "name": "memberRegistration",
      "type": "event"
    },
    {
      "inputs": [
        {
          "internalType": "uint256",
          "name": "",
          "type": "uint256"
        }
      ],
      "name": "EmployeeFamily",
      "outputs": [
        {
          "internalType": "uint256",
          "name": "id",
          "type": "uint256"
        },
        {
          "internalType": "uint256",
          "name": "empId",
          "type": "uint256"
        },
        {
          "internalType": "uint256",
          "name": "count",
          "type": "uint256"
        },
        {
          "internalType": "bool",
          "name": "active",
          "type": "bool"
        },
        {
          "internalType": "uint256",
          "name": "activeMembers",
          "type": "uint256"
        }
      ],
      "stateMutability": "view",
      "type": "function",
      "constant": true
    },
    {
      "inputs": [
        {
          "internalType": "uint256",
          "name": "",
          "type": "uint256"
        },
        {
          "internalType": "uint256",
          "name": "",
          "type": "uint256"
        }
      ],
      "name": "EmployeeFamilyMembers",
      "outputs": [
        {
          "internalType": "uint256",
          "name": "id",
          "type": "uint256"
        },
        {
          "internalType": "uint256",
          "name": "empId",
          "type": "uint256"
        },
        {
          "internalType": "uint256",
          "name": "familyId",
          "type": "uint256"
        },
        {
          "internalType": "address",
          "name": "owner",
          "type": "address"
        },
        {
          "internalType": "uint256",
          "name": "initialCouponCount",
          "type": "uint256"
        },
        {
          "internalType": "uint256",
          "name": "extraCouponCount",
          "type": "uint256"
        },
        {
          "internalType": "bool",
          "name": "active",
          "type": "bool"
        }
      ],
      "stateMutability": "view",
      "type": "function",
      "constant": true
    },
    {
      "inputs": [
        {
          "internalType": "bytes32",
          "name": "",
          "type": "bytes32"
        }
      ],
      "name": "VisitDocumentBasehash",
      "outputs": [
        {
          "internalType": "uint256",
          "name": "",
          "type": "uint256"
        }
      ],
      "stateMutability": "view",
      "type": "function",
      "constant": true
    },
    {
      "inputs": [],
      "name": "VisitDocumentCount",
      "outputs": [
        {
          "internalType": "uint256",
          "name": "",
          "type": "uint256"
        }
      ],
      "stateMutability": "view",
      "type": "function",
      "constant": true
    },
    {
      "inputs": [
        {
          "internalType": "uint256",
          "name": "",
          "type": "uint256"
        }
      ],
      "name": "VisitDocuments",
      "outputs": [
        {
          "internalType": "uint256",
          "name": "id",
          "type": "uint256"
        },
        {
          "internalType": "uint256",
          "name": "_doctorvisitId",
          "type": "uint256"
        },
        {
          "internalType": "uint256",
          "name": "_empId",
          "type": "uint256"
        },
        {
          "internalType": "bytes32",
          "name": "_docHash",
          "type": "bytes32"
        },
        {
          "internalType": "uint256",
          "name": "flag",
          "type": "uint256"
        }
      ],
      "stateMutability": "view",
      "type": "function",
      "constant": true
    },
    {
      "inputs": [
        {
          "internalType": "bytes32",
          "name": "_docHash",
          "type": "bytes32"
        }
      ],
      "name": "_documentExists",
      "outputs": [
        {
          "internalType": "bool",
          "name": "",
          "type": "bool"
        }
      ],
      "stateMutability": "view",
      "type": "function",
      "constant": true
    },
    {
      "inputs": [
        {
          "internalType": "uint256",
          "name": "_code",
          "type": "uint256"
        },
        {
          "internalType": "uint256",
          "name": "_id",
          "type": "uint256"
        },
        {
          "internalType": "uint256",
          "name": "_usertype",
          "type": "uint256"
        }
      ],
      "name": "addInvitation",
      "outputs": [],
      "stateMutability": "nonpayable",
      "type": "function"
    },
    {
      "inputs": [
        {
          "internalType": "address",
          "name": "newOwner",
          "type": "address"
        }
      ],
      "name": "changeOwner",
      "outputs": [],
      "stateMutability": "nonpayable",
      "type": "function"
    },
    {
      "inputs": [
        {
          "internalType": "address",
          "name": "",
          "type": "address"
        },
        {
          "internalType": "uint256",
          "name": "",
          "type": "uint256"
        }
      ],
      "name": "empDoctorVisists",
      "outputs": [
        {
          "internalType": "uint256",
          "name": "",
          "type": "uint256"
        }
      ],
      "stateMutability": "view",
      "type": "function",
      "constant": true
    },
    {
      "inputs": [
        {
          "internalType": "uint256",
          "name": "_couponId",
          "type": "uint256"
        }
      ],
      "name": "getCouponById",
      "outputs": [
        {
          "internalType": "uint256",
          "name": "id",
          "type": "uint256"
        },
        {
          "internalType": "address",
          "name": "",
          "type": "address"
        },
        {
          "internalType": "address",
          "name": "",
          "type": "address"
        },
        {
          "internalType": "string",
          "name": "status",
          "type": "string"
        }
      ],
      "stateMutability": "view",
      "type": "function",
      "constant": true
    },
    {
      "inputs": [
        {
          "internalType": "address",
          "name": "_owner",
          "type": "address"
        }
      ],
      "name": "getCouponsByOwner",
      "outputs": [
        {
          "internalType": "uint256[]",
          "name": "ownerCoupons",
          "type": "uint256[]"
        }
      ],
      "stateMutability": "view",
      "type": "function",
      "constant": true
    },
    {
      "inputs": [
        {
          "internalType": "uint256",
          "name": "_status",
          "type": "uint256"
        }
      ],
      "name": "getCouponsByStatus",
      "outputs": [
        {
          "internalType": "uint256[]",
          "name": "statusCoupons",
          "type": "uint256[]"
        }
      ],
      "stateMutability": "view",
      "type": "function",
      "constant": true
    },
    {
      "inputs": [
        {
          "internalType": "uint256",
          "name": "_visitid",
          "type": "uint256"
        }
      ],
      "name": "getDoctorVisit",
      "outputs": [
        {
          "internalType": "uint256",
          "name": "visitid",
          "type": "uint256"
        },
        {
          "internalType": "uint256",
          "name": "empid",
          "type": "uint256"
        },
        {
          "internalType": "uint256",
          "name": "couponid",
          "type": "uint256"
        },
        {
          "internalType": "uint256",
          "name": "doctorid",
          "type": "uint256"
        }
      ],
      "stateMutability": "view",
      "type": "function",
      "constant": true
    },
    {
      "inputs": [],
      "name": "getInvitations",
      "outputs": [
        {
          "internalType": "uint256[]",
          "name": "",
          "type": "uint256[]"
        }
      ],
      "stateMutability": "view",
      "type": "function",
      "constant": true
    },
    {
      "inputs": [],
      "name": "getOwner",
      "outputs": [
        {
          "internalType": "address",
          "name": "",
          "type": "address"
        }
      ],
      "stateMutability": "view",
      "type": "function",
      "constant": true
    },
    {
      "inputs": [
        {
          "internalType": "uint256",
          "name": "_empid",
          "type": "uint256"
        },
        {
          "internalType": "uint256",
          "name": "_maxfamilycount",
          "type": "uint256"
        },
        {
          "internalType": "uint256",
          "name": "_code",
          "type": "uint256"
        },
        {
          "internalType": "uint256",
          "name": "_usertype",
          "type": "uint256"
        }
      ],
      "name": "registerEmployee",
      "outputs": [],
      "stateMutability": "nonpayable",
      "type": "function"
    },
    {
      "inputs": [
        {
          "internalType": "uint256",
          "name": "_empId",
          "type": "uint256"
        },
        {
          "internalType": "uint256",
          "name": "_familyId",
          "type": "uint256"
        },
        {
          "internalType": "address",
          "name": "_address",
          "type": "address"
        }
      ],
      "name": "registerFamilyMember",
      "outputs": [],
      "stateMutability": "nonpayable",
      "type": "function"
    },
    {
      "inputs": [
        {
          "internalType": "uint256",
          "name": "",
          "type": "uint256"
        }
      ],
      "name": "registeredEmployees",
      "outputs": [
        {
          "internalType": "uint256",
          "name": "",
          "type": "uint256"
        }
      ],
      "stateMutability": "view",
      "type": "function",
      "constant": true
    },
    {
      "inputs": [
        {
          "internalType": "uint256",
          "name": "_value",
          "type": "uint256"
        },
        {
          "internalType": "uint256",
          "name": "_maxcoupons",
          "type": "uint256"
        },
        {
          "internalType": "uint256",
          "name": "_paidamount",
          "type": "uint256"
        },
        {
          "internalType": "uint256",
          "name": "_year",
          "type": "uint256"
        }
      ],
      "name": "setGlobalParameters",
      "outputs": [],
      "stateMutability": "nonpayable",
      "type": "function"
    },
    {
      "inputs": [],
      "name": "visitCount",
      "outputs": [
        {
          "internalType": "uint256",
          "name": "",
          "type": "uint256"
        }
      ],
      "stateMutability": "view",
      "type": "function",
      "constant": true
    },
    {
      "inputs": [
        {
          "internalType": "uint256",
          "name": "",
          "type": "uint256"
        }
      ],
      "name": "visits",
      "outputs": [
        {
          "internalType": "uint256",
          "name": "id",
          "type": "uint256"
        },
        {
          "internalType": "uint256",
          "name": "empId",
          "type": "uint256"
        },
        {
          "internalType": "uint256",
          "name": "couponId",
          "type": "uint256"
        },
        {
          "internalType": "uint256",
          "name": "doctorId",
          "type": "uint256"
        }
      ],
      "stateMutability": "view",
      "type": "function",
      "constant": true
    },
    {
      "inputs": [
        {
          "internalType": "address",
          "name": "_employee",
          "type": "address"
        }
      ],
      "name": "getEmployeeInfo",
      "outputs": [
        {
          "components": [
            {
              "internalType": "uint256",
              "name": "id",
              "type": "uint256"
            },
            {
              "internalType": "uint256",
              "name": "empid",
              "type": "uint256"
            },
            {
              "internalType": "uint256",
              "name": "maxfamilycount",
              "type": "uint256"
            },
            {
              "internalType": "uint256",
              "name": "initialCouponCount",
              "type": "uint256"
            },
            {
              "internalType": "uint256",
              "name": "extraCouponCount",
              "type": "uint256"
            },
            {
              "internalType": "bool",
              "name": "active",
              "type": "bool"
            }
          ],
          "internalType": "struct EmployeeBase.Employee",
          "name": "",
          "type": "tuple"
        }
      ],
      "stateMutability": "view",
      "type": "function",
      "constant": true
    },
    {
      "inputs": [],
      "name": "employeeIssueCoupons",
      "outputs": [],
      "stateMutability": "nonpayable",
      "type": "function"
    },
    {
      "inputs": [
        {
          "internalType": "address",
          "name": "_memberaddress",
          "type": "address"
        }
      ],
      "name": "employeeIssueMembersCoupons",
      "outputs": [],
      "stateMutability": "nonpayable",
      "type": "function"
    },
    {
      "inputs": [
        {
          "internalType": "uint256",
          "name": "_couponId",
          "type": "uint256"
        },
        {
          "internalType": "address",
          "name": "_owner",
          "type": "address"
        }
      ],
      "name": "exchangeCoupon",
      "outputs": [],
      "stateMutability": "nonpayable",
      "type": "function"
    },
    {
      "inputs": [
        {
          "internalType": "uint256",
          "name": "_couponId",
          "type": "uint256"
        },
        {
          "internalType": "address",
          "name": "_owner",
          "type": "address"
        }
      ],
      "name": "redeemCoupon",
      "outputs": [],
      "stateMutability": "nonpayable",
      "type": "function"
    },
    {
      "inputs": [
        {
          "internalType": "uint256",
          "name": "empid",
          "type": "uint256"
        },
        {
          "internalType": "uint256",
          "name": "couponid",
          "type": "uint256"
        },
        {
          "internalType": "uint256",
          "name": "doctorid",
          "type": "uint256"
        },
        {
          "internalType": "string",
          "name": "_md5",
          "type": "string"
        },
        {
          "internalType": "address",
          "name": "_address",
          "type": "address"
        }
      ],
      "name": "visitDoctor",
      "outputs": [],
      "stateMutability": "nonpayable",
      "type": "function"
    }
  ],
  "bytecode": "0x608060405234801561001057600080fd5b50336000806101000a81548173ffffffffffffffffffffffffffffffffffffffff021916908373ffffffffffffffffffffffffffffffffffffffff16021790555060008054906101000a900473ffffffffffffffffffffffffffffffffffffffff1673ffffffffffffffffffffffffffffffffffffffff16600073ffffffffffffffffffffffffffffffffffffffff167f342827c97908e5e2f71151c08502a66d44b6f758e3ac2f1de95f02eb95f0a73560405160405180910390a333600160006101000a81548173ffffffffffffffffffffffffffffffffffffffff021916908373ffffffffffffffffffffffffffffffffffffffff16021790555060006005819055506001600281905550600560038190555061ea6060048190555060006014819055506000601681905550600060158190555060006023819055506000602681905550614c37806101656000396000f3fe608060405234801561001057600080fd5b50600436106101c6576000357c0100000000000000000000000000000000000000000000000000000000900480638979eee411610116578063d2140b8d116100b4578063e18099a81161008e578063e18099a814610538578063e750a5b514610554578063f4b75ee114610584578063fe1b5165146105b4576101c6565b8063d2140b8d146104ca578063d4ee1915146104fe578063e0e4367e1461051a576101c6565b8063a6f9dae1116100f0578063a6f9dae114610441578063acdb9e3c1461045d578063b1823dcc1461047b578063c246e05c146104ae576101c6565b80638979eee4146103c15780638ed9c8f7146103dd578063a61b8fc514610411576101c6565b80634ca643901161018357806364f82b391161015d57806364f82b39146103215780636883a62f14610351578063885d6e5914610387578063893d20e8146103a3576101c6565b80634ca64390146102b95780635ac09b2b146102d557806361d73e6b14610305576101c6565b806309c55a13146101cb57806311000c21146101fe5780631684571414610231578063192076201461024f578063196a623c1461027f5780632b95966114610289575b600080fd5b6101e560048036038101906101e09190613946565b6105d0565b6040516101f594939291906144d1565b60405180910390f35b61021860048036038101906102139190613946565b610600565b6040516102289493929190614244565b60405180910390f35b6102396107cb565b6040516102469190613fd1565b60405180910390f35b610269600480360381019061026491906138ec565b6108b1565b6040516102769190613ff3565b60405180910390f35b6102876108e1565b005b6102a3600480360381019061029e919061387f565b610b2e565b6040516102b09190613fd1565b60405180910390f35b6102d360048036038101906102ce9190613b30565b610cb7565b005b6102ef60048036038101906102ea919061387f565b611070565b6040516102fc919061420e565b60405180910390f35b61031f600480360381019061031a9190613a99565b611178565b005b61033b600480360381019061033691906138ec565b611361565b6040516103489190614229565b60405180910390f35b61036b600480360381019061036691906139b3565b611379565b60405161037e9796959493929190614372565b60405180910390f35b6103a1600480360381019061039c9190613a46565b611405565b005b6103ab611585565b6040516103b89190613fb6565b60405180910390f35b6103db60048036038101906103d6919061387f565b6115ae565b005b6103f760048036038101906103f29190613946565b6117fc565b604051610408959493929190614434565b60405180910390f35b61042b600480360381019061042691906138ac565b611832565b6040516104389190614229565b60405180910390f35b61045b6004803603810190610456919061387f565b611863565b005b6104656119ae565b6040516104729190614229565b60405180910390f35b61049560048036038101906104909190613946565b6119b4565b6040516104a594939291906144d1565b60405180910390f35b6104c860048036038101906104c39190613b30565b611a25565b005b6104e460048036038101906104df9190613946565b611b1a565b6040516104f59594939291906143e1565b60405180910390f35b61051860048036038101906105139190613973565b611b5d565b005b610522611fe3565b60405161052f9190614229565b60405180910390f35b610552600480360381019061054d9190613973565b611fe9565b005b61056e60048036038101906105699190613946565b61251f565b60405161057b9190613fd1565b60405180910390f35b61059e60048036038101906105999190613946565b61265c565b6040516105ab9190614229565b60405180910390f35b6105ce60048036038101906105c991906139f3565b612680565b005b60246020528060005260406000206000915090508060000154908060010154908060020154908060030154905084565b6000806000606060008054906101000a900473ffffffffffffffffffffffffffffffffffffffff1673ffffffffffffffffffffffffffffffffffffffff163373ffffffffffffffffffffffffffffffffffffffff1614610695576040517f08c379a000000000000000000000000000000000000000000000000000000000815260040161068c9061406e565b60405180910390fd5b600a600086815260200190815260200160002060000154600a600087815260200190815260200160002060010160009054906101000a900473ffffffffffffffffffffffffffffffffffffffff16600a600088815260200190815260200160002060020160009054906101000a900473ffffffffffffffffffffffffffffffffffffffff16600a600089815260200190815260200160002060040180805461073c90614721565b80601f016020809104026020016040519081016040528092919081815260200182805461076890614721565b80156107b55780601f1061078a576101008083540402835291602001916107b5565b820191906000526020600020905b81548152906001019060200180831161079857829003601f168201915b5050505050905093509350935093509193509193565b606060008054906101000a900473ffffffffffffffffffffffffffffffffffffffff1673ffffffffffffffffffffffffffffffffffffffff163373ffffffffffffffffffffffffffffffffffffffff161461085b576040517f08c379a00000000000000000000000000000000000000000000000000000000081526004016108529061406e565b60405180910390fd5b60138054806020026020016040519081016040528092919081815260200182805480156108a757602002820191906000526020600020905b815481526020019060010190808311610893575b5050505050905090565b600080602860008481526020019081526020016000205411156108d757600190506108dc565b600090505b919050565b3360011515601760008373ffffffffffffffffffffffffffffffffffffffff1673ffffffffffffffffffffffffffffffffffffffff16815260200190815260200160002060050160009054906101000a900460ff16151514610978576040517f08c379a000000000000000000000000000000000000000000000000000000000815260040161096f906141ae565b60405180910390fd5b6000601760003373ffffffffffffffffffffffffffffffffffffffff1673ffffffffffffffffffffffffffffffffffffffff16815260200190815260200160002060030154146109fd576040517f08c379a00000000000000000000000000000000000000000000000000000000081526004016109f4906140ee565b60405180910390fd5b6000610a0833612b59565b90506000600190505b6003548111610aa157602060008360010154815260200190815260200160002060006009548152602001908152602001600020610a4e3333612ba1565b9080600181540180825580915050600190039060005260206000200160009091909190915055816003016000815480929190610a8990614784565b91905055508080610a9990614784565b915050610a11565b5060035481600301541415610aee577f792163a28a1b080fac4cc7af50f9fefadf108759b206d1abb9e7c40dc97812b7600354604051610ae191906142da565b60405180910390a1610b2a565b7f792163a28a1b080fac4cc7af50f9fefadf108759b206d1abb9e7c40dc97812b78160030154604051610b219190614308565b60405180910390a15b5050565b60606000610b3b83612e7d565b90506000811415610b9857600067ffffffffffffffff811115610b6157610b60614889565b5b604051908082528060200260200182016040528015610b8f5781602001602082028036833780820191505090505b50915050610cb2565b60008167ffffffffffffffff811115610bb457610bb3614889565b5b604051908082528060200260200182016040528015610be25781602001602082028036833780820191505090505b5090506000610bef612ec6565b9050600080600190505b828111610ca9578673ffffffffffffffffffffffffffffffffffffffff16600c600083815260200190815260200160002060009054906101000a900473ffffffffffffffffffffffffffffffffffffffff1673ffffffffffffffffffffffffffffffffffffffff161415610c965780848381518110610c7b57610c7a61485a565b5b6020026020010181815250508180610c9290614784565b9250505b8080610ca190614784565b915050610bf9565b83955050505050505b919050565b60008054906101000a900473ffffffffffffffffffffffffffffffffffffffff1673ffffffffffffffffffffffffffffffffffffffff163373ffffffffffffffffffffffffffffffffffffffff161415610d46576040517f08c379a0000000000000000000000000000000000000000000000000000000008152600401610d3d9061402e565b60405180910390fd5b818482816012600085815260200190815260200160002060000154148015610d835750806012600085815260200190815260200160002060010154145b610dc2576040517f08c379a0000000000000000000000000000000000000000000000000000000008152600401610db99061400e565b60405180910390fd5b3360001515601760008373ffffffffffffffffffffffffffffffffffffffff1673ffffffffffffffffffffffffffffffffffffffff16815260200190815260200160002060050160009054906101000a900460ff16151514610e59576040517f08c379a0000000000000000000000000000000000000000000000000000000008152600401610e509061410e565b60405180910390fd5b610e6285612ed0565b610ea1576040517f08c379a0000000000000000000000000000000000000000000000000000000008152600401610e989061404e565b60405180910390fd5b60146000815480929190610eb490614784565b91905055506040518060c001604052806014548152602001898152602001888152602001600081526020016000815260200160011515815250601760003373ffffffffffffffffffffffffffffffffffffffff1673ffffffffffffffffffffffffffffffffffffffff168152602001908152602001600020600082015181600001556020820151816001015560408201518160020155606082015181600301556080820151816004015560a08201518160050160006101000a81548160ff021916908315150217905550905050601f8890806001815401808255809150506001900390600052602060002001600090919091909150553360186000601454815260200190815260200160002060006101000a81548173ffffffffffffffffffffffffffffffffffffffff021916908373ffffffffffffffffffffffffffffffffffffffff160217905550601454601960008a8152602001908152602001600020819055506110228689612eee565b61102d888833612f56565b7f6dd3c20f7609bbf719cf9279aeda93d1c4be21c20864d29483b679c98b7b7e8a60145460405161105e91906142da565b60405180910390a15050505050505050565b6110786136b8565b3360011515601760008373ffffffffffffffffffffffffffffffffffffffff1673ffffffffffffffffffffffffffffffffffffffff16815260200190815260200160002060050160009054906101000a900460ff1615151461110f576040517f08c379a0000000000000000000000000000000000000000000000000000000008152600401611106906141ae565b60405180910390fd5b61111883612b59565b6040518060c001604052908160008201548152602001600182015481526020016002820154815260200160038201548152602001600482015481526020016005820160009054906101000a900460ff161515151581525050915050919050565b3360011515601760008373ffffffffffffffffffffffffffffffffffffffff1673ffffffffffffffffffffffffffffffffffffffff16815260200190815260200160002060050160009054906101000a900460ff1615151461120f576040517f08c379a0000000000000000000000000000000000000000000000000000000008152600401611206906141ae565b60405180910390fd5b600061121c878787613161565b905060016010600088815260200190815260200160002060006101000a81548160ff021916908315150217905550602260003373ffffffffffffffffffffffffffffffffffffffff1673ffffffffffffffffffffffffffffffffffffffff16815260200190815260200160002081908060018154018082558091505060019003906000526020600020016000909190919091505560006002856040516112c29190613f9f565b602060405180830381855afa1580156112df573d6000803e3d6000fd5b5050506040513d601f19601f820116820180604052508101906113029190613919565b90506000611311878a84613249565b905061131d8886611b5d565b7f9a3aa3a70dc27fdd4f5e650dad1b50bfe5108eaa780cde71b5ad096977c01af5838260405161134e929190614336565b60405180910390a1505050505050505050565b60286020528060005260406000206000915090505481565b601d602052816000526040600020818154811061139557600080fd5b9060005260206000209060070201600091509150508060000154908060010154908060020154908060030160009054906101000a900473ffffffffffffffffffffffffffffffffffffffff16908060040154908060050154908060060160009054906101000a900460ff16905087565b60008054906101000a900473ffffffffffffffffffffffffffffffffffffffff1673ffffffffffffffffffffffffffffffffffffffff163373ffffffffffffffffffffffffffffffffffffffff1614611493576040517f08c379a000000000000000000000000000000000000000000000000000000000815260040161148a9061406e565b60405180910390fd5b60006012600085815260200190815260200160002060000154146114ec576040517f08c379a00000000000000000000000000000000000000000000000000000000081526004016114e3906140ce565b60405180910390fd5b81601260008581526020019081526020016000206000018190555080601260008581526020019081526020016000206001018190555060138290806001815401808255809150506001900390600052602060002001600090919091909150557f4b94f404f01408af2bc2543d9ad9bea2c7382d8beb361d59bb3038d8ff9f40d6604051611578906140ae565b60405180910390a1505050565b60008060009054906101000a900473ffffffffffffffffffffffffffffffffffffffff16905090565b3360011515601760008373ffffffffffffffffffffffffffffffffffffffff1673ffffffffffffffffffffffffffffffffffffffff16815260200190815260200160002060050160009054906101000a900460ff16151514611645576040517f08c379a000000000000000000000000000000000000000000000000000000000815260040161163c906141ae565b60405180910390fd5b6000601b60008473ffffffffffffffffffffffffffffffffffffffff1673ffffffffffffffffffffffffffffffffffffffff16815260200190815260200160002060040154146116ca576040517f08c379a00000000000000000000000000000000000000000000000000000000081526004016116c1906140ee565b60405180910390fd5b60006116d5836133af565b90506000600190505b600354811161176e5760216000836000015481526020019081526020016000206000600954815260200190815260200160002061171b8533612ba1565b908060018154018082558091505060019003906000526020600020016000909190919091505581600401600081548092919061175690614784565b9190505550808061176690614784565b9150506116de565b50600354816004015414156117bb577f87c21fbe85c3ac265e36e51547b1669ec3f453648d76898cf4dfa735fc7b3d3f6003546040516117ae91906142da565b60405180910390a16117f7565b7f87c21fbe85c3ac265e36e51547b1669ec3f453648d76898cf4dfa735fc7b3d3f81600401546040516117ee9190614308565b60405180910390a15b505050565b60276020528060005260406000206000915090508060000154908060010154908060020154908060030154908060040154905085565b6022602052816000526040600020818154811061184e57600080fd5b90600052602060002001600091509150505481565b60008054906101000a900473ffffffffffffffffffffffffffffffffffffffff1673ffffffffffffffffffffffffffffffffffffffff163373ffffffffffffffffffffffffffffffffffffffff16146118f1576040517f08c379a00000000000000000000000000000000000000000000000000000000081526004016118e89061406e565b60405180910390fd5b8073ffffffffffffffffffffffffffffffffffffffff1660008054906101000a900473ffffffffffffffffffffffffffffffffffffffff1673ffffffffffffffffffffffffffffffffffffffff167f342827c97908e5e2f71151c08502a66d44b6f758e3ac2f1de95f02eb95f0a73560405160405180910390a3806000806101000a81548173ffffffffffffffffffffffffffffffffffffffff021916908373ffffffffffffffffffffffffffffffffffffffff16021790555050565b60265481565b600080600080602460008681526020019081526020016000206000015460246000878152602001908152602001600020600101546024600088815260200190815260200160002060020154602460008981526020019081526020016000206003015493509350935093509193509193565b60008054906101000a900473ffffffffffffffffffffffffffffffffffffffff1673ffffffffffffffffffffffffffffffffffffffff163373ffffffffffffffffffffffffffffffffffffffff1614611ab3576040517f08c379a0000000000000000000000000000000000000000000000000000000008152600401611aaa9061406e565b60405180910390fd5b836002819055508260038190555081600481905550806009819055507f7f120ce25be09e0f9e4a334e5105525189558b508f68b88efe3c9846b1ae870a600254600354600454600954604051611b0c9493929190614516565b60405180910390a150505050565b601a6020528060005260406000206000915090508060000154908060010154908060020154908060030160009054906101000a900460ff16908060040154905085565b3360011515601760008373ffffffffffffffffffffffffffffffffffffffff1673ffffffffffffffffffffffffffffffffffffffff16815260200190815260200160002060050160009054906101000a900460ff16151514611bf4576040517f08c379a0000000000000000000000000000000000000000000000000000000008152600401611beb906141ae565b60405180910390fd5b611bfe82846133f7565b611c3d576040517f08c379a0000000000000000000000000000000000000000000000000000000008152600401611c349061418e565b60405180910390fd5b6000600a60008581526020019081526020016000206040518060e0016040529081600082015481526020016001820160009054906101000a900473ffffffffffffffffffffffffffffffffffffffff1673ffffffffffffffffffffffffffffffffffffffff1673ffffffffffffffffffffffffffffffffffffffff1681526020016002820160009054906101000a900473ffffffffffffffffffffffffffffffffffffffff1673ffffffffffffffffffffffffffffffffffffffff1673ffffffffffffffffffffffffffffffffffffffff16815260200160038201548152602001600482018054611d2d90614721565b80601f0160208091040260200160405190810160405280929190818152602001828054611d5990614721565b8015611da65780601f10611d7b57610100808354040283529160200191611da6565b820191906000526020600020905b815481529060010190602001808311611d8957829003601f168201915b505050505081526020016005820160009054906101000a900460ff161515151581526020016005820160019054906101000a900460ff16151515158152505090506040518060400160405280600981526020017f45786368616e6765640000000000000000000000000000000000000000000000815250816080018190525080600a60008681526020019081526020016000206000820151816000015560208201518160010160006101000a81548173ffffffffffffffffffffffffffffffffffffffff021916908373ffffffffffffffffffffffffffffffffffffffff16021790555060408201518160020160006101000a81548173ffffffffffffffffffffffffffffffffffffffff021916908373ffffffffffffffffffffffffffffffffffffffff160217905550606082015181600301556080820151816004019080519060200190611ef79291906136f0565b5060a08201518160050160006101000a81548160ff02191690831515021790555060c08201518160050160016101000a81548160ff0219169083151502179055509050506002600f60008681526020019081526020016000208190555060066000815480929190611f6790614784565b919050555082600d600086815260200190815260200160002060006101000a81548173ffffffffffffffffffffffffffffffffffffffff021916908373ffffffffffffffffffffffffffffffffffffffff160217905550600c600085815260200190815260200160002060009054906101000a90505050505050565b60235481565b3360011515601760008373ffffffffffffffffffffffffffffffffffffffff1673ffffffffffffffffffffffffffffffffffffffff16815260200190815260200160002060050160009054906101000a900460ff16151514612080576040517f08c379a0000000000000000000000000000000000000000000000000000000008152600401612077906141ae565b60405180910390fd5b61208a82846133f7565b6120c9576040517f08c379a00000000000000000000000000000000000000000000000000000000081526004016120c09061418e565b60405180910390fd5b6120d283613466565b612111576040517f08c379a00000000000000000000000000000000000000000000000000000000081526004016121089061414e565b60405180910390fd5b6000600a60008581526020019081526020016000206040518060e0016040529081600082015481526020016001820160009054906101000a900473ffffffffffffffffffffffffffffffffffffffff1673ffffffffffffffffffffffffffffffffffffffff1673ffffffffffffffffffffffffffffffffffffffff1681526020016002820160009054906101000a900473ffffffffffffffffffffffffffffffffffffffff1673ffffffffffffffffffffffffffffffffffffffff1673ffffffffffffffffffffffffffffffffffffffff1681526020016003820154815260200160048201805461220190614721565b80601f016020809104026020016040519081016040528092919081815260200182805461222d90614721565b801561227a5780601f1061224f5761010080835404028352916020019161227a565b820191906000526020600020905b81548152906001019060200180831161225d57829003601f168201915b505050505081526020016005820160009054906101000a900460ff161515151581526020016005820160019054906101000a900460ff16151515158152505090506040518060400160405280600881526020017f52656465656d656400000000000000000000000000000000000000000000000081525081608001819052506003600f600060055481526020019081526020016000208190555060066000815480929190612327906146f7565b91905055506007600081548092919061233f90614784565b919050555080600a60008681526020019081526020016000206000820151816000015560208201518160010160006101000a81548173ffffffffffffffffffffffffffffffffffffffff021916908373ffffffffffffffffffffffffffffffffffffffff16021790555060408201518160020160006101000a81548173ffffffffffffffffffffffffffffffffffffffff021916908373ffffffffffffffffffffffffffffffffffffffff1602179055506060820151816003015560808201518160040190805190602001906124169291906136f0565b5060a08201518160050160006101000a81548160ff02191690831515021790555060c08201518160050160016101000a81548160ff02191690831515021790555090505033600e600086815260200190815260200160002060006101000a81548173ffffffffffffffffffffffffffffffffffffffff021916908373ffffffffffffffffffffffffffffffffffffffff160217905550600d600085815260200190815260200160002060006101000a81549073ffffffffffffffffffffffffffffffffffffffff02191690557fa903780770410201ba13a823168298930a649fcb2879778a7917cd6fc20edd458460405161251191906142da565b60405180910390a150505050565b6060600061252c836134f0565b9050600081141561258957600067ffffffffffffffff81111561255257612551614889565b5b6040519080825280602002602001820160405280156125805781602001602082028036833780820191505090505b50915050612657565b60008167ffffffffffffffff8111156125a5576125a4614889565b5b6040519080825280602002602001820160405280156125d35781602001602082028036833780820191505090505b50905060006125e0612ec6565b9050600080600190505b82811161264e5786600f600083815260200190815260200160002054141561263b57808483815181106126205761261f61485a565b5b602002602001018181525050818061263790614784565b9250505b808061264690614784565b9150506125ea565b83955050505050505b919050565b601f818154811061266c57600080fd5b906000526020600020016000915090505481565b3360011515601760008373ffffffffffffffffffffffffffffffffffffffff1673ffffffffffffffffffffffffffffffffffffffff16815260200190815260200160002060050160009054906101000a900460ff16151514612717576040517f08c379a000000000000000000000000000000000000000000000000000000000815260040161270e906141ae565b60405180910390fd5b6016600081548092919061272a90614784565b919050555060006040518060e0016040528060165481526020018681526020018581526020018473ffffffffffffffffffffffffffffffffffffffff168152602001600081526020016000815260200160011515815250905080601b60008573ffffffffffffffffffffffffffffffffffffffff1673ffffffffffffffffffffffffffffffffffffffff16815260200190815260200160002060008201518160000155602082015181600101556040820151816002015560608201518160030160006101000a81548173ffffffffffffffffffffffffffffffffffffffff021916908373ffffffffffffffffffffffffffffffffffffffff1602179055506080820151816004015560a0820151816005015560c08201518160060160006101000a81548160ff02191690831515021790555090505080601c60008781526020019081526020016000206000601654815260200190815260200160002060008201518160000155602082015181600101556040820151816002015560608201518160030160006101000a81548173ffffffffffffffffffffffffffffffffffffffff021916908373ffffffffffffffffffffffffffffffffffffffff1602179055506080820151816004015560a0820151816005015560c08201518160060160006101000a81548160ff021916908315150217905550905050601d600086815260200190815260200160002081908060018154018082558091505060019003906000526020600020906007020160009091909190915060008201518160000155602082015181600101556040820151816002015560608201518160030160006101000a81548173ffffffffffffffffffffffffffffffffffffffff021916908373ffffffffffffffffffffffffffffffffffffffff1602179055506080820151816004015560a0820151816005015560c08201518160060160006101000a81548160ff021916908315150217905550505084601e60008573ffffffffffffffffffffffffffffffffffffffff1673ffffffffffffffffffffffffffffffffffffffff168152602001908152602001600020819055506000601a60008781526020019081526020016000206040518060a00160405290816000820154815260200160018201548152602001600282015481526020016003820160009054906101000a900460ff161515151581526020016004820154815250509050806080018051809190612ab590614784565b8152505080601a600088815260200190815260200160002060008201518160000155602082015181600101556040820151816002015560608201518160030160006101000a81548160ff021916908315150217905550608082015181600401559050507f6e1e4090659373eee2aaca28bea8b2b6d75fda61ac6e007e0246e56eeb59cd73601654604051612b4991906142da565b60405180910390a1505050505050565b6000601760008373ffffffffffffffffffffffffffffffffffffffff1673ffffffffffffffffffffffffffffffffffffffff1681526020019081526020016000209050919050565b600060056000815480929190612bb690614784565b91905055506040518060e0016040528060055481526020018473ffffffffffffffffffffffffffffffffffffffff1681526020018373ffffffffffffffffffffffffffffffffffffffff16815260200160025481526020016040518060400160405280600781526020017f6372656174656400000000000000000000000000000000000000000000000000815250815260200160011515815260200160001515815250600a600060055481526020019081526020016000206000820151816000015560208201518160010160006101000a81548173ffffffffffffffffffffffffffffffffffffffff021916908373ffffffffffffffffffffffffffffffffffffffff16021790555060408201518160020160006101000a81548173ffffffffffffffffffffffffffffffffffffffff021916908373ffffffffffffffffffffffffffffffffffffffff160217905550606082015181600301556080820151816004019080519060200190612d2c9291906136f0565b5060a08201518160050160006101000a81548160ff02191690831515021790555060c08201518160050160016101000a81548160ff021916908315150217905550905050600b60008473ffffffffffffffffffffffffffffffffffffffff1673ffffffffffffffffffffffffffffffffffffffff1681526020019081526020016000206000815480929190612dc090614784565b919050555082600c6000600554815260200190815260200160002060006101000a81548173ffffffffffffffffffffffffffffffffffffffff021916908373ffffffffffffffffffffffffffffffffffffffff1602179055506001600f60006005548152602001908152602001600020819055507f2971a82072a1b29fd1941ada5b32f5b5aad07e668299b78328e9904e762cb9be600554846001604051612e6a93929190614290565b60405180910390a1600554905092915050565b6000600b60008373ffffffffffffffffffffffffffffffffffffffff1673ffffffffffffffffffffffffffffffffffffffff168152602001908152602001600020549050919050565b6000600554905090565b60006001821415612ee45760019050612ee9565b600090505b919050565b6012600083815260200190815260200160002060008082016000905560018201600090555050612f1d81613593565b7f83044fa08cabba8ae7aa27249a8a606cdd565b8e72934bbc7b3597f898859e70604051612f4a906141ce565b60405180910390a15050565b8060011515601760008373ffffffffffffffffffffffffffffffffffffffff1673ffffffffffffffffffffffffffffffffffffffff16815260200190815260200160002060050160009054906101000a900460ff16151514612fed576040517f08c379a0000000000000000000000000000000000000000000000000000000008152600401612fe4906141ae565b60405180910390fd5b60008311613030576040517f08c379a0000000000000000000000000000000000000000000000000000000008152600401613027906141ee565b60405180910390fd5b613039846135ad565b15613079576040517f08c379a00000000000000000000000000000000000000000000000000000000081526004016130709061408e565b60405180910390fd5b6015600081548092919061308c90614784565b919050555060006040518060a0016040528060155481526020018681526020018581526020016001151581526020016000815250905080601a600087815260200190815260200160002060008201518160000155602082015181600101556040820151816002015560608201518160030160006101000a81548160ff021916908315150217905550608082015181600401559050507f08db86aa8d0e65ac45061a1565349ba001d8c73117c16835e9eeb23848eb3e3f60155460405161315291906142da565b60405180910390a15050505050565b60006023600081548092919061317690614784565b9190505550613183613776565b6040518060800160405280602354815260200186815260200185815260200184815250905080602460006023548152602001908152602001600020600082015181600001556020820151816001015560408201518160020155606082015181600301559050507f1bddd110c92375ee8dc06b13693ae9ab5395c1ae79fd1b455455bc19039bce4b602354868660405161321e93929190614487565b60405180910390a1602460006023548152602001908152602001600020600001549150509392505050565b6000613254826108b1565b15613294576040517f08c379a000000000000000000000000000000000000000000000000000000000815260040161328b9061412e565b60405180910390fd5b602660008154809291906132a790614784565b91905055506040518060a00160405280602654815260200185815260200184815260200183815260200160018152506027600060265481526020019081526020016000206000820151816000015560208201518160010155604082015181600201556060820151816003015560808201518160040155905050602654602860008481526020019081526020016000208190555060265460256000868152602001908152602001600020819055507fae816f4de19251cce5dbafb46558bb67ace150a4cda551ce62d1ab8e117e243460265460405161338591906142da565b60405180910390a16027600060265481526020019081526020016000206000015490509392505050565b6000601b60008373ffffffffffffffffffffffffffffffffffffffff1673ffffffffffffffffffffffffffffffffffffffff1681526020019081526020016000209050919050565b60008273ffffffffffffffffffffffffffffffffffffffff16600a600084815260200190815260200160002060010160009054906101000a900473ffffffffffffffffffffffffffffffffffffffff1673ffffffffffffffffffffffffffffffffffffffff1614905092915050565b60008073ffffffffffffffffffffffffffffffffffffffff16600d600084815260200190815260200160002060009054906101000a900473ffffffffffffffffffffffffffffffffffffffff1673ffffffffffffffffffffffffffffffffffffffff161180156134e957506002600f600084815260200190815260200160002054145b9050919050565b60006005821080156135025750600082115b613541576040517f08c379a00000000000000000000000000000000000000000000000000000000081526004016135389061416e565b60405180910390fd5b600182141561355457600554905061358e565b600282141561356757600654905061358e565b600382141561357a57600754905061358e565b600482141561358d57600854905061358e565b5b919050565b600061359e826135f2565b90506135a98161363b565b5050565b600060011515601a600084815260200190815260200160002060030160009054906101000a900460ff16151514156135e857600190506135ed565b600090505b919050565b600080600090505b826013828154811061360f5761360e61485a565b5b90600052602060002001541461363257808061362a90614784565b9150506135fa565b80915050919050565b6013600160138054905061364f919061462f565b815481106136605761365f61485a565b5b90600052602060002001546013828154811061367f5761367e61485a565b5b9060005260206000200181905550601380548061369f5761369e61482b565b5b6001900381819060005260206000200160009055905550565b6040518060c0016040528060008152602001600081526020016000815260200160008152602001600081526020016000151581525090565b8280546136fc90614721565b90600052602060002090601f01602090048101928261371e5760008555613765565b82601f1061373757805160ff1916838001178555613765565b82800160010185558215613765579182015b82811115613764578251825591602001919060010190613749565b5b509050613772919061379e565b5090565b6040518060800160405280600081526020016000815260200160008152602001600081525090565b5b808211156137b757600081600090555060010161379f565b5090565b60006137ce6137c984614593565b61456e565b9050828152602081018484840111156137ea576137e96148bd565b5b6137f58482856146b5565b509392505050565b60008135905061380c81614bbc565b92915050565b60008135905061382181614bd3565b92915050565b60008151905061383681614bd3565b92915050565b600082601f830112613851576138506148b8565b5b81356138618482602086016137bb565b91505092915050565b60008135905061387981614bea565b92915050565b600060208284031215613895576138946148c7565b5b60006138a3848285016137fd565b91505092915050565b600080604083850312156138c3576138c26148c7565b5b60006138d1858286016137fd565b92505060206138e28582860161386a565b9150509250929050565b600060208284031215613902576139016148c7565b5b600061391084828501613812565b91505092915050565b60006020828403121561392f5761392e6148c7565b5b600061393d84828501613827565b91505092915050565b60006020828403121561395c5761395b6148c7565b5b600061396a8482850161386a565b91505092915050565b6000806040838503121561398a576139896148c7565b5b60006139988582860161386a565b92505060206139a9858286016137fd565b9150509250929050565b600080604083850312156139ca576139c96148c7565b5b60006139d88582860161386a565b92505060206139e98582860161386a565b9150509250929050565b600080600060608486031215613a0c57613a0b6148c7565b5b6000613a1a8682870161386a565b9350506020613a2b8682870161386a565b9250506040613a3c868287016137fd565b9150509250925092565b600080600060608486031215613a5f57613a5e6148c7565b5b6000613a6d8682870161386a565b9350506020613a7e8682870161386a565b9250506040613a8f8682870161386a565b9150509250925092565b600080600080600060a08688031215613ab557613ab46148c7565b5b6000613ac38882890161386a565b9550506020613ad48882890161386a565b9450506040613ae58882890161386a565b935050606086013567ffffffffffffffff811115613b0657613b056148c2565b5b613b128882890161383c565b9250506080613b23888289016137fd565b9150509295509295909350565b60008060008060808587031215613b4a57613b496148c7565b5b6000613b588782880161386a565b9450506020613b698782880161386a565b9350506040613b7a8782880161386a565b9250506060613b8b8782880161386a565b91505092959194509250565b6000613ba38383613f81565b60208301905092915050565b613bb881614663565b82525050565b6000613bc9826145d4565b613bd38185614602565b9350613bde836145c4565b8060005b83811015613c0f578151613bf68882613b97565b9750613c01836145f5565b925050600181019050613be2565b5085935050505092915050565b613c2581614675565b82525050565b613c3481614675565b82525050565b613c4381614681565b82525050565b6000613c54826145df565b613c5e8185614613565b9350613c6e8185602086016146c4565b80840191505092915050565b6000613c85826145ea565b613c8f818561461e565b9350613c9f8185602086016146c4565b613ca8816148cc565b840191505092915050565b6000613cc060158361461e565b9150613ccb826148dd565b602082019050919050565b6000613ce3600f8361461e565b9150613cee82614906565b602082019050919050565b6000613d0660148361461e565b9150613d118261492f565b602082019050919050565b6000613d2960138361461e565b9150613d3482614958565b602082019050919050565b6000613d4c600d8361461e565b9150613d5782614981565b602082019050919050565b6000613d6f60078361461e565b9150613d7a826149aa565b602082019050919050565b6000613d92601e8361461e565b9150613d9d826149d3565b602082019050919050565b6000613db5601e8361461e565b9150613dc0826149fc565b602082019050919050565b6000613dd860148361461e565b9150613de382614a25565b602082019050919050565b6000613dfb60178361461e565b9150613e0682614a4e565b602082019050919050565b6000613e1e601a8361461e565b9150613e2982614a77565b602082019050919050565b6000613e4160078361461e565b9150613e4c82614aa0565b602082019050919050565b6000613e6460178361461e565b9150613e6f82614ac9565b602082019050919050565b6000613e87601a8361461e565b9150613e9282614af2565b602082019050919050565b6000613eaa60178361461e565b9150613eb582614b1b565b602082019050919050565b6000613ecd60078361461e565b9150613ed882614b44565b602082019050919050565b6000613ef060248361461e565b9150613efb82614b6d565b604082019050919050565b60c082016000820151613f1c6000850182613f81565b506020820151613f2f6020850182613f81565b506040820151613f426040850182613f81565b506060820151613f556060850182613f81565b506080820151613f686080850182613f81565b5060a0820151613f7b60a0850182613c1c565b50505050565b613f8a816146ab565b82525050565b613f99816146ab565b82525050565b6000613fab8284613c49565b915081905092915050565b6000602082019050613fcb6000830184613baf565b92915050565b60006020820190508181036000830152613feb8184613bbe565b905092915050565b60006020820190506140086000830184613c2b565b92915050565b6000602082019050818103600083015261402781613cb3565b9050919050565b6000602082019050818103600083015261404781613cd6565b9050919050565b6000602082019050818103600083015261406781613cf9565b9050919050565b6000602082019050818103600083015261408781613d1c565b9050919050565b600060208201905081810360008301526140a781613d3f565b9050919050565b600060208201905081810360008301526140c781613d62565b9050919050565b600060208201905081810360008301526140e781613d85565b9050919050565b6000602082019050818103600083015261410781613da8565b9050919050565b6000602082019050818103600083015261412781613dcb565b9050919050565b6000602082019050818103600083015261414781613dee565b9050919050565b6000602082019050818103600083015261416781613e11565b9050919050565b6000602082019050818103600083015261418781613e57565b9050919050565b600060208201905081810360008301526141a781613e7a565b9050919050565b600060208201905081810360008301526141c781613e9d565b9050919050565b600060208201905081810360008301526141e781613ec0565b9050919050565b6000602082019050818103600083015261420781613ee3565b9050919050565b600060c0820190506142236000830184613f06565b92915050565b600060208201905061423e6000830184613f90565b92915050565b60006080820190506142596000830187613f90565b6142666020830186613baf565b6142736040830185613baf565b81810360608301526142858184613c7a565b905095945050505050565b60006080820190506142a56000830186613f90565b6142b26020830185613baf565b6142bf6040830184613c2b565b81810360608301526142d081613d62565b9050949350505050565b60006040820190506142ef6000830184613f90565b818103602083015261430081613d62565b905092915050565b600060408201905061431d6000830184613f90565b818103602083015261432e81613e34565b905092915050565b600060608201905061434b6000830185613f90565b6143586020830184613f90565b818103604083015261436981613d62565b90509392505050565b600060e082019050614387600083018a613f90565b6143946020830189613f90565b6143a16040830188613f90565b6143ae6060830187613baf565b6143bb6080830186613f90565b6143c860a0830185613f90565b6143d560c0830184613c2b565b98975050505050505050565b600060a0820190506143f66000830188613f90565b6144036020830187613f90565b6144106040830186613f90565b61441d6060830185613c2b565b61442a6080830184613f90565b9695505050505050565b600060a0820190506144496000830188613f90565b6144566020830187613f90565b6144636040830186613f90565b6144706060830185613c3a565b61447d6080830184613f90565b9695505050505050565b600060808201905061449c6000830186613f90565b6144a96020830185613f90565b6144b66040830184613f90565b81810360608301526144c781613d62565b9050949350505050565b60006080820190506144e66000830187613f90565b6144f36020830186613f90565b6145006040830185613f90565b61450d6060830184613f90565b95945050505050565b600060a08201905061452b6000830187613f90565b6145386020830186613f90565b6145456040830185613f90565b6145526060830184613f90565b818103608083015261456381613d62565b905095945050505050565b6000614578614589565b90506145848282614753565b919050565b6000604051905090565b600067ffffffffffffffff8211156145ae576145ad614889565b5b6145b7826148cc565b9050602081019050919050565b6000819050602082019050919050565b600081519050919050565b600081519050919050565b600081519050919050565b6000602082019050919050565b600082825260208201905092915050565b600081905092915050565b600082825260208201905092915050565b600061463a826146ab565b9150614645836146ab565b925082821015614658576146576147cd565b5b828203905092915050565b600061466e8261468b565b9050919050565b60008115159050919050565b6000819050919050565b600073ffffffffffffffffffffffffffffffffffffffff82169050919050565b6000819050919050565b82818337600083830152505050565b60005b838110156146e25780820151818401526020810190506146c7565b838111156146f1576000848401525b50505050565b6000614702826146ab565b91506000821415614716576147156147cd565b5b600182039050919050565b6000600282049050600182168061473957607f821691505b6020821081141561474d5761474c6147fc565b5b50919050565b61475c826148cc565b810181811067ffffffffffffffff8211171561477b5761477a614889565b5b80604052505050565b600061478f826146ab565b91507fffffffffffffffffffffffffffffffffffffffffffffffffffffffffffffffff8214156147c2576147c16147cd565b5b600182019050919050565b7f4e487b7100000000000000000000000000000000000000000000000000000000600052601160045260246000fd5b7f4e487b7100000000000000000000000000000000000000000000000000000000600052602260045260246000fd5b7f4e487b7100000000000000000000000000000000000000000000000000000000600052603160045260246000fd5b7f4e487b7100000000000000000000000000000000000000000000000000000000600052603260045260246000fd5b7f4e487b7100000000000000000000000000000000000000000000000000000000600052604160045260246000fd5b600080fd5b600080fd5b600080fd5b600080fd5b6000601f19601f8301169050919050565b7f43616c6c6572206973206e6f7420696e76697465640000000000000000000000600082015250565b7f43616c6c6572206973206f776e65720000000000000000000000000000000000600082015250565b7f4e6f7420616e20656d706c6f7965652074797065000000000000000000000000600082015250565b7f43616c6c6572206973206e6f74206f776e657200000000000000000000000000600082015250565b7f46616d696c792065786973747300000000000000000000000000000000000000600082015250565b7f7375636365737300000000000000000000000000000000000000000000000000600082015250565b7f416c726561647920696e7669746174696f6e20636f6465206578697374730000600082015250565b7f496e697469616c20436f75706f6e7320616c7265616479206973737565640000600082015250565b7f456d706c6f796565202052656769737465726564000000000000000000000000600082015250565b7f446f63756d656e7420616c726561647920657869737473000000000000000000600082015250565b7f436f75706f6e2063616e206e6f742062652072656465656d6564000000000000600082015250565b7f6661696c75726500000000000000000000000000000000000000000000000000600082015250565b7f496e76616c6964207374617475732070726f7669646564000000000000000000600082015250565b7f4e6f7420746865206f776e6572206f662074686520746f6b656e000000000000600082015250565b7f456d706c6f796565204e6f742052656769737465726564000000000000000000600082015250565b7f64656c6574656400000000000000000000000000000000000000000000000000600082015250565b7f46616d696c79206d656d626572732073686f756c64206265206d6f726520746860008201527f616e203000000000000000000000000000000000000000000000000000000000602082015250565b614bc581614663565b8114614bd057600080fd5b50565b614bdc81614681565b8114614be757600080fd5b50565b614bf3816146ab565b8114614bfe57600080fd5b5056fea26469706673582212207c837728788eb758656c104ff30dd0724dec0b905969fa4ddd3b40ec4218b5e464736f6c63430008070033",
  "immutableReferences": {},
  "source": "// SPDX-License-Identifier: GPL-3.0\n\npragma solidity >=0.7.0 <0.9.0;\n\n\n/**\n * @title Owner\n * @dev Set & change owner\n */\ncontract Owner {\n\n    address private owner;\n    \n    // event for EVM logging\n    event OwnerSet(address indexed oldOwner, address indexed newOwner);\n    \n    // modifier to check if caller is owner\n    modifier isOwner() {\n        // It is often a good idea to use 'require' to check if functions are called correctly.\n        // As a second argument, you can also provide an explanation about what went wrong.\n        require(msg.sender == owner, \"Caller is not owner\");\n        _;\n    }\n    \n    modifier notOwner() {\n       require(msg.sender != owner, \"Caller is owner\");\n        _; \n    }\n    \n    /**\n     * @dev Set contract deployer as owner\n     */\n    constructor() {\n        owner = msg.sender; // 'msg.sender' is sender of current call, contract deployer for a constructor\n        emit OwnerSet(address(0), owner);\n    }\n\n    /**\n     * @dev Change owner\n     * @param newOwner address of new owner\n     */\n    function changeOwner(address newOwner) public isOwner {\n        emit OwnerSet(owner, newOwner);\n        owner = newOwner;\n    }\n\n    /**\n     * @dev Return owner address \n     * @return address of owner\n     */\n    function getOwner() external view returns (address) {\n        return owner;\n    }\n}\n\ncontract UserInvite is Owner{ \n\n\n    \n    struct Invitation { \n        uint id;\n        uint invtype;\n    }\n    \n    event delinvitee (\n        string  msg\n        );\n        \n    event InvitationAdded(string msg);\n\n    mapping (uint => Invitation) internal invitationById;\n    uint[] internal invitees;\n    \n    modifier isInvited(uint _code, uint _id, uint _usertype) {\n        // If the first argument of 'require' evaluates to 'false', execution terminates and all\n        // changes to the state and to Ether balances are reverted.\n        // This used to consume all gas in old EVM versions, but not anymore.\n        // It is often a good idea to use 'require' to check if functions are called correctly.\n        // As a second argument, you can also provide an explanation about what went wrong.\n        require(invitationById[_code].id == _id && invitationById[_code].invtype == _usertype, \"Caller is not invited\");\n        _;\n    }\n\n    function find(uint value) private view returns(uint) {\n        uint i = 0;\n        while (invitees[i] != value) {\n            i++;\n        }\n        return i;\n    }\n\n    function removeByValue(uint value) private {\n        uint i = find(value);\n        removeByIndex(i);\n    }\n\n    function removeByIndex(uint i) private {\n            invitees[i] = invitees[invitees.length -1];\n            invitees.pop();\n        }\n    \n    \n    function addInvitation(uint _code, uint _id, uint _usertype) public isOwner { \n        require(invitationById[_code].id == 0, \"Already invitation code exists\");\n        invitationById[_code].id = _id;\n        invitationById[_code].invtype = _usertype;\n        \n        invitees.push(_id);\n        emit InvitationAdded(\"success\");\n    }\n    \n    function deleteInvitation(uint _code, uint _id) internal {\n         delete invitationById[_code];\n         removeByValue(_id);\n         emit delinvitee(\"deleted\");\n    }\n    \n    function getInvitations() public isOwner view returns (uint[] memory)  {\n        return invitees;\n    }\n    \n}\n\ncontract EmployeeBase is UserInvite { \n\n    struct Employee { \n        uint id;\n        uint empid; //empid provided by HR\n        uint maxfamilycount; //maximum number of family members that can register\n        uint initialCouponCount;\n        uint extraCouponCount;\n        bool active;\n    }\n\n    struct Family {\n      uint id;\n      uint empId;\n      uint count;\n      bool active;\n      uint activeMembers;\n    }\n\n    \n  \n  struct Member {\n      uint id;\n      uint empId;\n      uint familyId;\n      address owner;\n      uint initialCouponCount;\n      uint extraCouponCount;\n      bool active;\n   }\n    event empRegistration(uint employeesCounter, string msg);\n    event empFamilyRegistration(uint familyCounter, string msg);\n    event memberRegistration (uint memberCounter, string msg);\n    \n    uint employeesCounter;\n    uint familyCounter;\n    uint memberCounter;\n    \n    mapping (address => Employee) internal employees;\n    mapping (uint => address) internal employeeIndexToOwner;\n    mapping (uint => uint) internal employeeIDtoIndex;\n\n    //family\n    mapping(uint => Family) public EmployeeFamily;\n\n    //Family Member\n    mapping (address => Member) internal familyMembers;\n    mapping (uint => mapping(uint => Member )) EmployeeToFamilyMembers;\n    mapping (uint => Member[]) public EmployeeFamilyMembers;\n    mapping (address => uint ) memberAddressToEmployeeId;\n    uint[] public registeredEmployees;\n    \n    //Employee Coupons\n    mapping (uint => mapping(uint => uint[] )) internal EmployeeToCoupons;\n    \n    //Member Coupons\n    mapping (uint => mapping(uint => uint[] )) internal MemberToCoupons;\n    \n    //Employee Doctor Visit, e.g empDoctorVisists[601][0] = 1 (visitId)\n    mapping(address => uint[]) public empDoctorVisists;\n    \n    constructor() {\n        employeesCounter = 0;\n        memberCounter = 0;\n        familyCounter = 0;\n    }\n\n    function isEmployee(uint _type) private pure returns (bool) {\n        if (_type ==1) {\n            return true;\n        }\n        else {\n            return false;\n        }\n    }\n    \n    \n    modifier isRegisteredEmployee(address _address) {\n        // If the first argument of 'require' evaluates to 'false', execution terminates and all\n        // changes to the state and to Ether balances are reverted.\n        // This used to consume all gas in old EVM versions, but not anymore.\n        // It is often a good idea to use 'require' to check if functions are called correctly.\n        // As a second argument, you can also provide an explanation about what went wrong.\n        require(employees[_address].active == true, \"Employee Not Registered\");\n        _;\n    }\n    \n    modifier isNotRegistered(address _address) {\n        require(employees[_address].active == false, \"Employee  Registered\");\n        _;\n    }\n\n    //function can be called by User with an invitation on the system\n    function registerEmployee(uint _empid, uint _maxfamilycount, uint _code, uint _usertype ) public notOwner isInvited(_code,_empid, _usertype) isNotRegistered(msg.sender) {\n        require(isEmployee(_usertype), \"Not an employee type\");\n        employeesCounter ++;\n        employees[msg.sender] = Employee(employeesCounter, _empid, _maxfamilycount,0,0,true);\n        registeredEmployees.push(_empid);\n        employeeIndexToOwner[employeesCounter] = msg.sender;\n        employeeIDtoIndex[_empid] = employeesCounter;\n        deleteInvitation(_code,_empid);\n        registerFamily(_empid, _maxfamilycount, msg.sender);\n        emit empRegistration(employeesCounter, \"success\");\n    }\n\n    function getEmployee(address _address) internal view returns (Employee storage){\n        return( employees[_address]);\n    }\n    \n    function getMember(address _address) internal view returns (Member storage){\n        return( familyMembers[_address]);\n    }\n    \n\n    function registerFamily(uint _empId, uint _count, address _address) internal isRegisteredEmployee(_address) {\n        require(_count > 0, \"Family members should be more than 0\");\n        require(!familyExists(_empId), \"Family exists\");\n        familyCounter ++;\n        Family memory _family = Family(familyCounter, _empId, _count, true, 0);\n        EmployeeFamily[_empId] = _family;\n        \n        emit empFamilyRegistration(familyCounter, \"success\");\n\n    }\n\n    function registerFamilyMember(uint _empId,uint _familyId, address _address) public isRegisteredEmployee(msg.sender) {\n              memberCounter ++;\n              Member memory _member = Member(memberCounter, _empId, _familyId, _address,0,0, true);\n              familyMembers[_address] = _member;\n              EmployeeToFamilyMembers[_empId][memberCounter] = _member;\n              EmployeeFamilyMembers[_empId].push(_member);\n              memberAddressToEmployeeId[_address] = _empId;\n              Family memory _family = EmployeeFamily[_empId];\n              _family.activeMembers ++;\n              EmployeeFamily[_empId] = _family;\n              emit memberRegistration(memberCounter, \"success\");\n    }\n  \n  function familyExists(uint _empId) private view returns(bool){\n      if (EmployeeFamily[_empId].active == true ) {\n          return true;\n      }\n      else {\n          return false;\n      }\n      \n  }\n    \n}\n\ncontract DoctorBase is UserInvite { \n\n    struct Doctor { \n        uint id;\n        uint doctorid;\n        string specialty;\n        uint couponcoeficient;\n        bool active;\n    }\n    \n    uint internal doctorsCounter;\n    \n    mapping (address => Doctor) internal doctors;\n    mapping (uint => address) internal doctorIndexToOwner;\n    mapping (uint => bytes32) internal doctorIndexToKeyHash;\n    uint[] internal registeredDoctors;\n    \n    //events \n    event doctorregistration (uint id, string msg);\n    \n    constructor() {\n        doctorsCounter = 0;\n    }\n\n    function isDoctor(uint _type) private pure returns (bool) {\n        if (_type ==2) {\n            return true;\n        }\n        else {\n            return false;\n        }\n    }\n    \n    //function can be called by User with an invitation on the system\n    function registerDoctor(uint _doctorid, string memory _speciality, uint _code, uint _usertype, uint _couponcoeficient) public isInvited(_code,_doctorid, _usertype) notOwner{\n        require(isDoctor(_usertype), \"Not a Doctor type\");\n        doctorsCounter ++;\n        bytes32 _keyhash = sha256(abi.encodePacked(doctorsCounter+_doctorid));\n        doctorIndexToKeyHash[doctorsCounter] = _keyhash;\n        doctors[msg.sender] = Doctor(doctorsCounter, _doctorid, _speciality,_couponcoeficient, true);\n        registeredDoctors.push(_doctorid);\n        doctorIndexToOwner[_doctorid] = msg.sender;\n        deleteInvitation(_code,_doctorid);\n        emit doctorregistration(doctorsCounter, \"success\");\n    }\n\n    function getDoctor(address _address) internal view returns (uint, uint, string memory, uint256, bool ){\n        return( doctors[_address].doctorid, doctors[_address].id, doctors[_address].specialty ,doctors[_address].couponcoeficient,doctors[_address].active);\n    }\n    function getDoctor(uint _id) internal view returns(bytes32 _keyhash) {\n        return doctorIndexToKeyHash[_id];\n    }\n}\n\ncontract Coupon is Owner {\n    \n  address owner;\n  uint value;\n  uint empCouponMax;\n  uint couponPayAmount;\n  uint couponCount; \n  uint couponExchangedCount;\n  uint couponRedeemedCount;\n  uint couponPaidCount;\n  uint year;\n  \n  struct CouponPaper {\n    uint id;\n    address owner;\n    address beneficiary;\n    //add empID to track coupons for family members\n    uint value;\n    string status;\n    bool valid;\n    bool approved;\n  } \n  \n  event CouponPaperCreated(\n    uint id,\n    address owner,\n    bool valid,\n    string msg\n  );\n\n  event GlobalParametersSet(\n      uint value, \n      uint maxcoupons, \n      uint paidamount,\n      uint year,\n      string msg\n  );\n  \n  \n  mapping(uint => CouponPaper) internal coupons;\n  mapping(address => uint) internal ownershipToCouponCount;\n  //Filled when new coupon is created\n  mapping(uint => address) internal couponIndexToOwner;\n  //Filled when new coupon is exchanged\n  mapping(uint => address) internal couponIndexToOwnerExchanged;\n  //Filled when new coupon is redeemed\n  mapping(uint => address) internal couponIndexToOwnerRedeeemed;\n  //Track coupon status\n  mapping(uint => uint256) internal couponIndexToStatus;\n  \n  //Filled when a coupon is used in DoctorVisit\n  mapping(uint => bool) couponIndexToDoctorVisit;\n  \n  //Stores the balances to be paid for the employee;\n  mapping(address => uint) balances;\n  \n  constructor() {\n    owner = msg.sender;\n    couponCount = 0;\n    value = 1;\n    empCouponMax = 5;\n    couponPayAmount = 60000;\n  }\n  \n    function setGlobalParameters(uint _value, uint _maxcoupons, uint _paidamount,uint _year) public isOwner {\n        value = _value;\n        empCouponMax = _maxcoupons;\n        couponPayAmount = _paidamount;\n        year = _year;\n        emit GlobalParametersSet(value, empCouponMax, couponPayAmount, year, \"success\" );\n    }\n  \n\n    function issueCoupon(address _couponowner, address _couponbeneficiary ) internal returns(uint _couponId) {\n    couponCount ++;\n    coupons[couponCount] = CouponPaper(couponCount,_couponowner, _couponbeneficiary, value, \"created\", true, false);\n    ownershipToCouponCount[_couponowner] ++;\n    couponIndexToOwner[couponCount] = _couponowner;\n    couponIndexToStatus[couponCount] = 1;\n    emit CouponPaperCreated(couponCount, _couponowner, true, \"success\");\n    return couponCount;\n    \n    }\n    \n    function _transfer(address _from, address _to, uint _couponId) internal {\n        CouponPaper storage _coupon = coupons[_couponId];\n        _coupon.owner = _to;\n        ownershipToCouponCount[_to] ++;\n        ownershipToCouponCount[_from] --;\n        couponIndexToOwner[couponCount] = _to;\n    }\n\n    function _owns(address _address, uint _couponId) internal view returns (bool) {\n        return(coupons[_couponId].owner == _address);\n    }\n    \n    function _usedInDoctorVisit(uint _couponId) internal view returns (bool) {\n        return (couponIndexToDoctorVisit[_couponId]);\n    }\n    \n    function _isBeneficiary(address _address, uint _couponId) internal view returns (bool) {\n        return(coupons[_couponId].beneficiary == _address);\n    }\n    \n    //coupon status is exchanged\n    function _readyToBeRedeemed(uint _couponId) internal view returns (bool) {\n       return((couponIndexToOwnerExchanged[_couponId] > address(0)) && (couponIndexToStatus[_couponId] == 2));\n    }\n    \n  \n    function getCouponById(uint _couponId) public isOwner view returns(uint id, address, address, string memory status) { \n    \n        return (coupons[_couponId].id, coupons[_couponId].owner, coupons[_couponId].beneficiary, coupons[_couponId].status);\n    }\n    \n    function getCoupon(uint _couponId) internal isOwner view returns(CouponPaper storage){\n        return coupons[_couponId];\n    }\n\n    function couponBalanceOf(address _address) internal view returns (uint count) {\n        return ownershipToCouponCount[_address];\n    }\n\n    function totalCoupons() internal view returns (uint count) {\n        return couponCount;\n        \n    }\n\n    function totalCouponsByStatus(uint _status) internal view returns (uint countExchanged) {\n        require(_status < 5 && _status >0, \"Invalid status provided\");\n        //1 - created, 2- exchanged, 3-redeemed, 4-paid\n        if (_status == 1) return couponCount;\n        if (_status == 2) return couponExchangedCount;\n        if (_status == 3) return couponRedeemedCount;\n        if (_status == 4) return couponPaidCount;\n    }\n\n    function getCouponsByStatus(uint _status) external view returns (uint256[] memory statusCoupons) {\n        \n        uint count = totalCouponsByStatus(_status);\n        if (count == 0) {\n            return new uint256[](0);\n        }\n        else {\n            uint256[] memory result = new uint256[](count);\n            uint total = totalCoupons();\n            uint resultIndex = 0;\n            //we count all coupons\n            uint couponId;\n\n            for (couponId = 1; couponId <= total; couponId++) {\n                if (couponIndexToStatus[couponId] == _status) {\n                    result[resultIndex] = couponId;\n                    resultIndex++;\n                }\n            }\n\n            return result;\n        }\n\n    }\n\n    \n    function getCouponsByOwner(address _owner) external view returns (uint256[] memory ownerCoupons) {\n        uint count = couponBalanceOf(_owner);\n        if (count == 0) {\n            return new uint[](0);\n        }\n        else {\n            uint256[] memory result = new uint256[](count);\n            uint total = totalCoupons();\n            uint resultIndex = 0;\n            //we count all coupons\n            uint couponId;\n\n            for (couponId = 1; couponId <= total; couponId++) {\n                if (couponIndexToOwner[couponId] == _owner) {\n                    result[resultIndex] = couponId;\n                    resultIndex++;\n                }\n            }\n\n            return result;\n        }\n\n    }\n    \n    \n  \n  \n}\n\ncontract DoctorVisitBase {\n  uint public visitCount; \n\n  struct Visit {\n    uint id;\n    uint empId;\n    uint couponId;\n    uint doctorId;\n  }\n\n  event VisitCreated (\n    uint id,\n    uint empId,\n    uint couponId,\n    string msg\n  );\n\n  //visits  mapping incremental\n  mapping(uint => Visit) public visits;\n  //mapping visitDocumentIndex to Visit ID;\n  mapping (uint => uint) DoctorVisitIndexToDocumentId;\n\n  constructor() {\n    visitCount = 0;\n  }\n\n  function createVisit(uint _empId, uint _couponId, uint _doctorId) internal returns(uint visitId) {\n    visitCount ++;\n    Visit memory _visit;\n    _visit = Visit(visitCount, _empId, _couponId, _doctorId);\n    visits[visitCount] = _visit;\n    emit VisitCreated(visitCount, _empId, _couponId, \"success\");\n    return visits[visitCount].id;\n  }\n  \n  function getDoctorVisit(uint _visitid) public view returns (uint visitid, uint empid, uint couponid, uint doctorid) {\n      return (visits[_visitid].id,visits[_visitid].empId,visits[_visitid].couponId,visits[_visitid].doctorId);\n  }\n\n}\n\ncontract VisitDocumentBase is DoctorVisitBase { \n  uint public VisitDocumentCount;\n\n  struct VisitDoc { \n    uint id; \n    uint _doctorvisitId;\n    uint _empId;\n    bytes32 _docHash;\n    uint flag; //flag is one when created by the contract\n  }\n\n  event VisitDocumentAddition (\n    uint documentID,\n    string msg\n  );\n  mapping (uint => VisitDoc ) public VisitDocuments;\n  mapping (bytes32 => uint ) public VisitDocumentBasehash;\n  \n\n  constructor() {\n    VisitDocumentCount = 0;\n  }\n\n  function addVisitDocument(uint _doctorvisitId, uint _empId,bytes32 _docHash) internal returns(uint documentId) {\n     require(!_documentExists(_docHash), \"Document already exists\"); //check if document hash already exists\n        VisitDocumentCount ++;\n        VisitDocuments[VisitDocumentCount] = VisitDoc(VisitDocumentCount, _doctorvisitId, _empId, _docHash, 1);\n        VisitDocumentBasehash[_docHash] = VisitDocumentCount; \n        DoctorVisitIndexToDocumentId[_doctorvisitId] = VisitDocumentCount;\n        emit VisitDocumentAddition(VisitDocumentCount, \"success\");\n        return VisitDocuments[VisitDocumentCount].id;\n  }\n  \n  function _documentExists(bytes32 _docHash) public view returns (bool) {\n      if(VisitDocumentBasehash[_docHash] > 0) {\n        return true;\n      }\n      else {\n        return false;\n      }\n  }\n  \n}\n\n\n\ncontract EmployeeCore is Coupon,EmployeeBase,VisitDocumentBase {\n    \n    event EmployeeCouponGeneration(uint initialCouponCount, string msg);\n    event MemberCouponGeneration(uint initialCouponCount, string msg);\n    event couponExchanged(uint _couponId, string msg);\n    event doctorVisited(uint visitid, uint documentid, string msg);\n    event couponRedeemed(uint couponId, string msg);\n\n    \n    //get Employee info\n    function getEmployeeInfo(address _employee) external isRegisteredEmployee(msg.sender) view returns (Employee memory) {\n        return getEmployee(_employee);\n    }\n    //issue inital coupons\n    function employeeIssueCoupons() public isRegisteredEmployee(msg.sender) {\n        require((employees[msg.sender].initialCouponCount == 0), \"Initial Coupons already issued\");\n        Employee storage _employee = getEmployee(msg.sender);\n            for (uint i =1; i <= empCouponMax; i++)\n            {\n            //Employee is the owner and beneficiary of his initial coupons\n            EmployeeToCoupons[_employee.empid][year].push(issueCoupon(msg.sender,msg.sender));\n            _employee.initialCouponCount ++;\n            }\n            if ((_employee.initialCouponCount) == empCouponMax) {\n                emit EmployeeCouponGeneration(empCouponMax, \"success\");\n            }\n            else { \n                emit EmployeeCouponGeneration(_employee.initialCouponCount, \"failure\");\n            }\n        \n\n    }\n    \n    function employeeIssueMembersCoupons(address _memberaddress) public isRegisteredEmployee(msg.sender) {\n        require((familyMembers[_memberaddress].initialCouponCount == 0), \"Initial Coupons already issued\");\n        Member storage _member = getMember(_memberaddress);\n            for (uint i =1; i <= empCouponMax; i++)\n            {\n            //Employee is the owner and beneficiary of his initial coupons\n            MemberToCoupons[_member.id][year].push(issueCoupon(_memberaddress,msg.sender));\n            _member.initialCouponCount ++;\n            }\n            if ((_member.initialCouponCount) == empCouponMax) {\n                emit MemberCouponGeneration(empCouponMax, \"success\");\n            }\n            else { \n                emit MemberCouponGeneration(_member.initialCouponCount, \"failure\");\n            }\n        \n\n    }\n    \n     function exchangeCoupon(uint _couponId, address _owner) public isRegisteredEmployee(msg.sender) {\n        require(_owns(_owner, _couponId), \"Not the owner of the token\");\n         CouponPaper memory _coupon = coupons[_couponId]; \n         _coupon.status = \"Exchanged\";\n         //_coupon.beneficiary = _coupon.owner;\n         //_coupon.owner = owner;\n         coupons[_couponId] = _coupon;\n         couponIndexToStatus[_couponId] = 2;\n         couponExchangedCount ++;\n         couponIndexToOwnerExchanged[_couponId] = _owner;\n         couponIndexToOwner[_couponId];\n    }\n    \n    function redeemCoupon(uint _couponId, address _owner) public isRegisteredEmployee(msg.sender) {\n        require(_owns(_owner, _couponId), \"Not the owner of the token\");\n        require(_readyToBeRedeemed(_couponId), \"Coupon can not be redeemed\");\n         CouponPaper memory _coupon = coupons[_couponId]; \n         _coupon.status = \"Redeemed\";\n         couponIndexToStatus[couponCount] = 3;\n         couponExchangedCount --;\n         couponRedeemedCount ++;\n         //_coupon.beneficiary = owner;\n        coupons[_couponId] = _coupon;\n        couponIndexToOwnerRedeeemed[_couponId] = msg.sender;\n        delete couponIndexToOwnerExchanged[_couponId];\n        emit couponRedeemed(_couponId, \"success\");\n    }\n    \n    function visitDoctor(uint empid, uint couponid, uint doctorid, string memory _md5, address _address) public isRegisteredEmployee(msg.sender){\n            //employee should have a family relation with _address\n            //visit doctor\n            uint _visitId = createVisit(empid, couponid, doctorid);\n            couponIndexToDoctorVisit[couponid] = true;\n            empDoctorVisists[msg.sender].push(_visitId);\n            //submit document\n            bytes32 _docHash = sha256(bytes(_md5));\n            uint _documentId = addVisitDocument(doctorid, empid, _docHash);\n            // then exchange Coupon\n            exchangeCoupon(couponid, _address);\n            emit doctorVisited( _visitId, _documentId, \"success\");\n    }\n}\n\ncontract HRManager is Coupon,EmployeeBase,DoctorBase {\n    mapping(uint => bool) public couponIndexApproved;\n\n    event approveCoupon(uint couponid, string msg);\n    event paidCoupon(uint _couponId, string msg);\n   // event DoctorPricing(string msg);\n\n    function approveCouponRedemption(uint _couponId) public isOwner {\n        require(_readyToBeRedeemed(_couponId), \"Coupon can not be redeemed\");\n        require(!couponIndexApproved[_couponId], \"Coupon already approved\");\n        CouponPaper storage _coupon = coupons[_couponId]; \n         _coupon.approved = true;\n         couponIndexApproved[_couponId] = true;\n         emit approveCoupon(_couponId, \"success\");\n    }\n    \n    function prepareCouponPayment(uint _couponId) public isOwner {\n        CouponPaper storage _coupon = coupons[_couponId]; \n        _coupon.valid = false;\n        _coupon.status = \"Paid\";\n        _coupon.beneficiary = _coupon.owner;\n        _coupon.owner = owner;\n        couponIndexToStatus[couponCount] = 4;\n        couponRedeemedCount --;\n        couponPaidCount ++;\n        uint _balance = balances[_coupon.owner];\n        balances[_coupon.owner] = _balance + couponPayAmount;\n\n        emit paidCoupon(_couponId, \"success\");\n        \n    }\n}\n \ncontract MyNet is EmployeeCore,HRManager {\n    string name;\n\n    constructor() {\n        name = \"MyNet Contract is initialised\";\n    }\n\n    function getName() public view returns(string memory _name) {\n        return name;\n    }\n    \n    \n}\n",
  "sourcePath": "/Users/wissamdagher/Documents/dev/blockchain/CouponMedNet/src/contracts/MyNet.sol",
  "compiler": {
    "name": "solc",
    "version": "0.8.7+commit.e28d00a7.Emscripten.clang"
  },
  "schemaVersion": "3.4.1",
  "updatedAt": "2021-09-11T19:08:58.559Z",
  "networkType": "ethereum",
  "devdoc": {
    "kind": "dev",
    "methods": {
      "changeOwner(address)": {
        "details": "Change owner",
        "params": {
          "newOwner": "address of new owner"
        }
      },
      "getOwner()": {
        "details": "Return owner address ",
        "returns": {
          "_0": "address of owner"
        }
      }
    },
    "version": 1
  },
  "userdoc": {
    "kind": "user",
    "methods": {},
    "version": 1
  }
}