{
  "contractName": "Employee",
  "abi": [
    {
      "inputs": [],
      "stateMutability": "nonpayable",
      "type": "constructor"
    },
    {
      "anonymous": false,
      "inputs": [
        {
          "indexed": false,
          "internalType": "uint256",
          "name": "familyCounter",
          "type": "uint256"
        },
        {
          "indexed": false,
          "internalType": "uint256",
          "name": "_empId",
          "type": "uint256"
        },
        {
          "indexed": false,
          "internalType": "uint256",
          "name": "flag",
          "type": "uint256"
        },
        {
          "indexed": false,
          "internalType": "string",
          "name": "msg",
          "type": "string"
        }
      ],
      "name": "empFamilyRegistration",
      "type": "event"
    },
    {
      "anonymous": false,
      "inputs": [
        {
          "indexed": false,
          "internalType": "uint256",
          "name": "id",
          "type": "uint256"
        },
        {
          "indexed": false,
          "internalType": "address",
          "name": "originalOwner",
          "type": "address"
        },
        {
          "indexed": false,
          "internalType": "address",
          "name": "empAddress",
          "type": "address"
        },
        {
          "indexed": false,
          "internalType": "bool",
          "name": "active",
          "type": "bool"
        }
      ],
      "name": "employeeActivated",
      "type": "event"
    },
    {
      "anonymous": false,
      "inputs": [
        {
          "indexed": false,
          "internalType": "uint256",
          "name": "id",
          "type": "uint256"
        },
        {
          "indexed": false,
          "internalType": "string",
          "name": "message",
          "type": "string"
        }
      ],
      "name": "employeeDisabled",
      "type": "event"
    },
    {
      "anonymous": false,
      "inputs": [
        {
          "indexed": false,
          "internalType": "uint256",
          "name": "id",
          "type": "uint256"
        },
        {
          "indexed": false,
          "internalType": "uint256",
          "name": "empId",
          "type": "uint256"
        },
        {
          "indexed": false,
          "internalType": "address",
          "name": "owner",
          "type": "address"
        },
        {
          "indexed": false,
          "internalType": "bool",
          "name": "active",
          "type": "bool"
        }
      ],
      "name": "employeeNotRegistered",
      "type": "event"
    },
    {
      "anonymous": false,
      "inputs": [
        {
          "indexed": false,
          "internalType": "uint256",
          "name": "id",
          "type": "uint256"
        },
        {
          "indexed": false,
          "internalType": "uint256",
          "name": "empId",
          "type": "uint256"
        },
        {
          "indexed": false,
          "internalType": "bool",
          "name": "active",
          "type": "bool"
        },
        {
          "indexed": false,
          "internalType": "string",
          "name": "msg",
          "type": "string"
        }
      ],
      "name": "employeeRegistration",
      "type": "event"
    },
    {
      "anonymous": false,
      "inputs": [
        {
          "indexed": false,
          "internalType": "uint256",
          "name": "memberCounter",
          "type": "uint256"
        },
        {
          "indexed": false,
          "internalType": "string",
          "name": "msg",
          "type": "string"
        }
      ],
      "name": "memberRegistration",
      "type": "event"
    },
    {
      "inputs": [
        {
          "internalType": "uint256",
          "name": "",
          "type": "uint256"
        },
        {
          "internalType": "uint256",
          "name": "",
          "type": "uint256"
        }
      ],
      "name": "EmployeeFamily",
      "outputs": [
        {
          "internalType": "uint256",
          "name": "id",
          "type": "uint256"
        },
        {
          "internalType": "uint256",
          "name": "empId",
          "type": "uint256"
        },
        {
          "internalType": "uint256",
          "name": "count",
          "type": "uint256"
        },
        {
          "internalType": "bool",
          "name": "active",
          "type": "bool"
        },
        {
          "internalType": "uint256",
          "name": "activeMembers",
          "type": "uint256"
        },
        {
          "internalType": "bool",
          "name": "flag",
          "type": "bool"
        }
      ],
      "stateMutability": "view",
      "type": "function"
    },
    {
      "inputs": [
        {
          "internalType": "uint256",
          "name": "",
          "type": "uint256"
        },
        {
          "internalType": "uint256",
          "name": "",
          "type": "uint256"
        }
      ],
      "name": "EmployeeToFamilyMembers",
      "outputs": [
        {
          "internalType": "uint256",
          "name": "id",
          "type": "uint256"
        },
        {
          "internalType": "uint256",
          "name": "empId",
          "type": "uint256"
        },
        {
          "internalType": "address",
          "name": "owner",
          "type": "address"
        },
        {
          "internalType": "bool",
          "name": "active",
          "type": "bool"
        }
      ],
      "stateMutability": "view",
      "type": "function"
    },
    {
      "inputs": [],
      "name": "employeeCount",
      "outputs": [
        {
          "internalType": "uint256",
          "name": "",
          "type": "uint256"
        }
      ],
      "stateMutability": "view",
      "type": "function"
    },
    {
      "inputs": [
        {
          "internalType": "uint256",
          "name": "",
          "type": "uint256"
        }
      ],
      "name": "employees",
      "outputs": [
        {
          "internalType": "uint256",
          "name": "id",
          "type": "uint256"
        },
        {
          "internalType": "uint256",
          "name": "empId",
          "type": "uint256"
        },
        {
          "internalType": "address",
          "name": "owner",
          "type": "address"
        },
        {
          "internalType": "bool",
          "name": "active",
          "type": "bool"
        },
        {
          "internalType": "bool",
          "name": "flag",
          "type": "bool"
        }
      ],
      "stateMutability": "view",
      "type": "function"
    },
    {
      "inputs": [
        {
          "internalType": "string",
          "name": "_name",
          "type": "string"
        }
      ],
      "name": "setName",
      "outputs": [],
      "stateMutability": "nonpayable",
      "type": "function"
    },
    {
      "inputs": [],
      "name": "getName",
      "outputs": [
        {
          "internalType": "string",
          "name": "",
          "type": "string"
        }
      ],
      "stateMutability": "view",
      "type": "function"
    },
    {
      "inputs": [
        {
          "internalType": "uint256",
          "name": "_empId",
          "type": "uint256"
        }
      ],
      "name": "registerEmployee",
      "outputs": [],
      "stateMutability": "nonpayable",
      "type": "function"
    },
    {
      "inputs": [
        {
          "internalType": "uint256",
          "name": "_empId",
          "type": "uint256"
        },
        {
          "internalType": "uint256",
          "name": "_count",
          "type": "uint256"
        }
      ],
      "name": "registerFamily",
      "outputs": [],
      "stateMutability": "nonpayable",
      "type": "function"
    },
    {
      "inputs": [
        {
          "internalType": "uint256",
          "name": "_empId",
          "type": "uint256"
        },
        {
          "internalType": "address",
          "name": "_address",
          "type": "address"
        }
      ],
      "name": "registerMember",
      "outputs": [],
      "stateMutability": "nonpayable",
      "type": "function"
    },
    {
      "inputs": [
        {
          "internalType": "uint256",
          "name": "_id",
          "type": "uint256"
        }
      ],
      "name": "activateEmployee",
      "outputs": [],
      "stateMutability": "nonpayable",
      "type": "function"
    },
    {
      "inputs": [
        {
          "internalType": "uint256",
          "name": "_id",
          "type": "uint256"
        }
      ],
      "name": "disableEmployee",
      "outputs": [],
      "stateMutability": "nonpayable",
      "type": "function"
    }
  ],
  "bytecode": "0x60806040523480156200001157600080fd5b506040518060400160405280601d81526020017f456d706c6f79656520636f6e747261637420696e697469616c69736564000000815250600090805190602001906200005f929190620000bf565b5060006002819055506000600481905550600060038190555033600160006101000a81548173ffffffffffffffffffffffffffffffffffffffff021916908373ffffffffffffffffffffffffffffffffffffffff160217905550620001d4565b828054620000cd906200016f565b90600052602060002090601f016020900481019282620000f157600085556200013d565b82601f106200010c57805160ff19168380011785556200013d565b828001600101855582156200013d579182015b828111156200013c5782518255916020019190600101906200011f565b5b5090506200014c919062000150565b5090565b5b808211156200016b57600081600090555060010162000151565b5090565b600060028204905060018216806200018857607f821691505b602082108114156200019f576200019e620001a5565b5b50919050565b7f4e487b7100000000000000000000000000000000000000000000000000000000600052602260045260246000fd5b611ac680620001e46000396000f3fe608060405234801561001057600080fd5b50600436106100a85760003560e01c806325515c021161007157806325515c021461016b5780634739326b146101875780637712b617146101bb5780639047bf58146101d7578063c47f0027146101f5578063e3522f5b14610211576100a8565b8062c8fbc1146100ad5780630f88e614146100e0578063176ce3fd146100fc57806317d7de7c1461011857806318406a9614610136575b600080fd5b6100c760048036038101906100c2919061124e565b61022d565b6040516100d794939291906114ca565b60405180910390f35b6100fa60048036038101906100f5919061124e565b610297565b005b610116600480360381019061011191906111e1565b61047a565b005b610120610691565b60405161012d919061139e565b60405180910390f35b610150600480360381019061014b919061124e565b610723565b6040516101629695949392919061168a565b60405180910390f35b6101856004803603810190610180919061120e565b610796565b005b6101a1600480360381019061019c91906111e1565b610a70565b6040516101b295949392919061150f565b60405180910390f35b6101d560048036038101906101d091906111e1565b610ae0565b005b6101df610ca0565b6040516101ec91906113e0565b60405180910390f35b61020f600480360381019061020a9190611198565b610ca6565b005b61022b600480360381019061022691906111e1565b610cc0565b005b6007602052816000526040600020602052806000526040600020600091509150508060000154908060010154908060020160009054906101000a900473ffffffffffffffffffffffffffffffffffffffff16908060020160149054906101000a900460ff16905084565b600081116102da576040517f08c379a00000000000000000000000000000000000000000000000000000000081526004016102d1906113c0565b60405180910390fd5b6102e382610ea5565b1580156102f557506102f482610ed8565b5b15610437576003600081548092919061030d9061186e565b919050555060006040518060c001604052806003548152602001848152602001838152602001600115158152602001600081526020016001151581525090506008600084815260200190815260200160002081908060018154018082558091505060019003906000526020600020906006020160009091909190915060008201518160000155602082015181600101556040820151816002015560608201518160030160006101000a81548160ff0219169083151502179055506080820151816004015560a08201518160050160006101000a81548160ff02191690831515021790555050507fae2e61c5110e4f766795ac3dd1684c863f6e557f12f71bbc9442e5fe7fb655d860035484600160405161042993929190611640565b60405180910390a150610476565b7fae2e61c5110e4f766795ac3dd1684c863f6e557f12f71bbc9442e5fe7fb655d860035483600060405161046d939291906115f6565b60405180910390a15b5050565b600080600560008481526020019081526020016000206040518060a001604052908160008201548152602001600182015481526020016002820160009054906101000a900473ffffffffffffffffffffffffffffffffffffffff1673ffffffffffffffffffffffffffffffffffffffff1673ffffffffffffffffffffffffffffffffffffffff1681526020016002820160149054906101000a900460ff161515151581526020016002820160159054906101000a900460ff16151515158152505090508060400151915080606001511561055357600080fd5b3373ffffffffffffffffffffffffffffffffffffffff168273ffffffffffffffffffffffffffffffffffffffff161461058b57600080fd5b60018160600190151590811515815250508060056000858152602001908152602001600020600082015181600001556020820151816001015560408201518160020160006101000a81548173ffffffffffffffffffffffffffffffffffffffff021916908373ffffffffffffffffffffffffffffffffffffffff16021790555060608201518160020160146101000a81548160ff02191690831515021790555060808201518160020160156101000a81548160ff0219169083151502179055509050507f99ba4c9fec9800e58240b8e95981e3050c0db0f229023d4ae1adf7516221f9d3838333600160405161068494939291906113fb565b60405180910390a1505050565b6060600080546106a09061180b565b80601f01602080910402602001604051908101604052809291908181526020018280546106cc9061180b565b80156107195780601f106106ee57610100808354040283529160200191610719565b820191906000526020600020905b8154815290600101906020018083116106fc57829003601f168201915b5050505050905090565b6008602052816000526040600020818154811061073f57600080fd5b9060005260206000209060060201600091509150508060000154908060010154908060020154908060030160009054906101000a900460ff16908060040154908060050160009054906101000a900460ff16905086565b61079f82610f42565b15610a3257600460008154809291906107b79061186e565b9190505550604051806080016040528060045481526020018381526020018273ffffffffffffffffffffffffffffffffffffffff168152602001600115158152506007600084815260200190815260200160002060006004548152602001908152602001600020600082015181600001556020820151816001015560408201518160020160006101000a81548173ffffffffffffffffffffffffffffffffffffffff021916908373ffffffffffffffffffffffffffffffffffffffff16021790555060608201518160020160146101000a81548160ff0219169083151502179055509050506000600860008481526020019081526020016000206000815481106108c4576108c3611915565b5b90600052602060002090600602016040518060c00160405290816000820154815260200160018201548152602001600282015481526020016003820160009054906101000a900460ff16151515158152602001600482015481526020016005820160009054906101000a900460ff161515151581525050905080608001805180919061094f9061186e565b81525050806008600085815260200190815260200160002060008154811061097a57610979611915565b5b906000526020600020906006020160008201518160000155602082015181600101556040820151816002015560608201518160030160006101000a81548160ff0219169083151502179055506080820151816004015560a08201518160050160006101000a81548160ff0219169083151502179055509050507f6e1e4090659373eee2aaca28bea8b2b6d75fda61ac6e007e0246e56eeb59cd73600454604051610a24919061146e565b60405180910390a150610a6c565b7f6e1e4090659373eee2aaca28bea8b2b6d75fda61ac6e007e0246e56eeb59cd73600454604051610a63919061149c565b60405180910390a15b5050565b60056020528060005260406000206000915090508060000154908060010154908060020160009054906101000a900473ffffffffffffffffffffffffffffffffffffffff16908060020160149054906101000a900460ff16908060020160159054906101000a900460ff16905085565b6000600560008381526020019081526020016000206040518060a001604052908160008201548152602001600182015481526020016002820160009054906101000a900473ffffffffffffffffffffffffffffffffffffffff1673ffffffffffffffffffffffffffffffffffffffff1673ffffffffffffffffffffffffffffffffffffffff1681526020016002820160149054906101000a900460ff161515151581526020016002820160159054906101000a900460ff161515151581525050905060008160600190151590811515815250508060056000848152602001908152602001600020600082015181600001556020820151816001015560408201518160020160006101000a81548173ffffffffffffffffffffffffffffffffffffffff021916908373ffffffffffffffffffffffffffffffffffffffff16021790555060608201518160020160146101000a81548160ff02191690831515021790555060808201518160020160156101000a81548160ff0219169083151502179055509050507fefd05e2bfce0c167d45fcc60e39985989ec35e171600eb7f4495caa24398d4cc82604051610c949190611440565b60405180910390a15050565b60025481565b8060009080519060200190610cbc92919061105b565b5050565b610cc98161101d565b15610e635760026000815480929190610ce19061186e565b91905055506040518060a0016040528060025481526020018281526020013373ffffffffffffffffffffffffffffffffffffffff1681526020016000151581526020016001151581525060056000838152602001908152602001600020600082015181600001556020820151816001015560408201518160020160006101000a81548173ffffffffffffffffffffffffffffffffffffffff021916908373ffffffffffffffffffffffffffffffffffffffff16021790555060608201518160020160146101000a81548160ff02191690831515021790555060808201518160020160156101000a81548160ff02191690831515021790555090505080600660003373ffffffffffffffffffffffffffffffffffffffff1673ffffffffffffffffffffffffffffffffffffffff168152602001908152602001600020819055507f228eaeb9ded6d1157971c6bf4f59bda9045bf6f0fee7ed5017fb479a88d7362b600254826000604051610e5693929190611562565b60405180910390a1610ea2565b7f228eaeb9ded6d1157971c6bf4f59bda9045bf6f0fee7ed5017fb479a88d7362b600254826000604051610e99939291906115ac565b60405180910390a15b50565b60008060086000848152602001908152602001600020805490501115610ece5760019050610ed3565b600090505b919050565b60006005600083815260200190815260200160002060020160159054906101000a900460ff168015610f2a57506005600083815260200190815260200160002060020160149054906101000a900460ff165b15610f385760019050610f3d565b600090505b919050565b60008060086000848152602001908152602001600020600081548110610f6b57610f6a611915565b5b90600052602060002090600602016040518060c00160405290816000820154815260200160018201548152602001600282015481526020016003820160009054906101000a900460ff16151515158152602001600482015481526020016005820160009054906101000a900460ff161515151581525050905080606001511561101257806040015181608001511015611008576001915050611018565b6000915050611018565b60009150505b919050565b60006005600083815260200190815260200160002060020160159054906101000a900460ff16156110515760009050611056565b600190505b919050565b8280546110679061180b565b90600052602060002090601f01602090048101928261108957600085556110d0565b82601f106110a257805160ff19168380011785556110d0565b828001600101855582156110d0579182015b828111156110cf5782518255916020019190600101906110b4565b5b5090506110dd91906110e1565b5090565b5b808211156110fa5760008160009055506001016110e2565b5090565b600061111161110c84611710565b6116eb565b90508281526020810184848401111561112d5761112c611978565b5b6111388482856117c9565b509392505050565b60008135905061114f81611a62565b92915050565b600082601f83011261116a57611169611973565b5b813561117a8482602086016110fe565b91505092915050565b60008135905061119281611a79565b92915050565b6000602082840312156111ae576111ad611982565b5b600082013567ffffffffffffffff8111156111cc576111cb61197d565b5b6111d884828501611155565b91505092915050565b6000602082840312156111f7576111f6611982565b5b600061120584828501611183565b91505092915050565b6000806040838503121561122557611224611982565b5b600061123385828601611183565b925050602061124485828601611140565b9150509250929050565b6000806040838503121561126557611264611982565b5b600061127385828601611183565b925050602061128485828601611183565b9150509250929050565b6112978161175d565b82525050565b6112a68161176f565b82525050565b6112b5816117a5565b82525050565b6112c4816117b7565b82525050565b60006112d582611741565b6112df818561174c565b93506112ef8185602086016117d8565b6112f881611987565b840191505092915050565b600061131060118361174c565b915061131b82611998565b602082019050919050565b600061133360078361174c565b915061133e826119c1565b602082019050919050565b600061135660078361174c565b9150611361826119ea565b602082019050919050565b600061137960248361174c565b915061138482611a13565b604082019050919050565b6113988161179b565b82525050565b600060208201905081810360008301526113b881846112ca565b905092915050565b600060208201905081810360008301526113d98161136c565b9050919050565b60006020820190506113f5600083018461138f565b92915050565b6000608082019050611410600083018761138f565b61141d602083018661128e565b61142a604083018561128e565b611437606083018461129d565b95945050505050565b6000604082019050611455600083018461138f565b818103602083015261146681611303565b905092915050565b6000604082019050611483600083018461138f565b818103602083015261149481611326565b905092915050565b60006040820190506114b1600083018461138f565b81810360208301526114c281611349565b905092915050565b60006080820190506114df600083018761138f565b6114ec602083018661138f565b6114f9604083018561128e565b611506606083018461129d565b95945050505050565b600060a082019050611524600083018861138f565b611531602083018761138f565b61153e604083018661128e565b61154b606083018561129d565b611558608083018461129d565b9695505050505050565b6000608082019050611577600083018661138f565b611584602083018561138f565b611591604083018461129d565b81810360608301526115a281611326565b9050949350505050565b60006080820190506115c1600083018661138f565b6115ce602083018561138f565b6115db604083018461129d565b81810360608301526115ec81611349565b9050949350505050565b600060808201905061160b600083018661138f565b611618602083018561138f565b61162560408301846112ac565b818103606083015261163681611349565b9050949350505050565b6000608082019050611655600083018661138f565b611662602083018561138f565b61166f60408301846112bb565b818103606083015261168081611326565b9050949350505050565b600060c08201905061169f600083018961138f565b6116ac602083018861138f565b6116b9604083018761138f565b6116c6606083018661129d565b6116d3608083018561138f565b6116e060a083018461129d565b979650505050505050565b60006116f5611706565b9050611701828261183d565b919050565b6000604051905090565b600067ffffffffffffffff82111561172b5761172a611944565b5b61173482611987565b9050602081019050919050565b600081519050919050565b600082825260208201905092915050565b60006117688261177b565b9050919050565b60008115159050919050565b600073ffffffffffffffffffffffffffffffffffffffff82169050919050565b6000819050919050565b60006117b08261179b565b9050919050565b60006117c28261179b565b9050919050565b82818337600083830152505050565b60005b838110156117f65780820151818401526020810190506117db565b83811115611805576000848401525b50505050565b6000600282049050600182168061182357607f821691505b60208210811415611837576118366118e6565b5b50919050565b61184682611987565b810181811067ffffffffffffffff8211171561186557611864611944565b5b80604052505050565b60006118798261179b565b91507fffffffffffffffffffffffffffffffffffffffffffffffffffffffffffffffff8214156118ac576118ab6118b7565b5b600182019050919050565b7f4e487b7100000000000000000000000000000000000000000000000000000000600052601160045260246000fd5b7f4e487b7100000000000000000000000000000000000000000000000000000000600052602260045260246000fd5b7f4e487b7100000000000000000000000000000000000000000000000000000000600052603260045260246000fd5b7f4e487b7100000000000000000000000000000000000000000000000000000000600052604160045260246000fd5b600080fd5b600080fd5b600080fd5b600080fd5b6000601f19601f8301169050919050565b7f656d706c6f7965652064697361626c6564000000000000000000000000000000600082015250565b7f7375636365737300000000000000000000000000000000000000000000000000600082015250565b7f6661696c75726500000000000000000000000000000000000000000000000000600082015250565b7f46616d696c79206d656d626572732073686f756c64206265206d6f726520746860008201527f616e203000000000000000000000000000000000000000000000000000000000602082015250565b611a6b8161175d565b8114611a7657600080fd5b50565b611a828161179b565b8114611a8d57600080fd5b5056fea2646970667358221220d9e721ceb134c3ff704ead0f5950ccfe91333a75b0852c7a9ee8ea804cbd9ce864736f6c63430008050033",
  "immutableReferences": {},
  "source": "// SPDX-License-Identifier: GPL-3.0\npragma solidity >=0.7.0 <0.9.0;\n\ncontract Employee {\n  string name; \n  address owner;\n  uint public employeeCount; \n  uint familyCounter;\n  uint memberCounter;\n  \n  struct Emp {\n    uint id;\n    uint empId;\n    address owner;\n    bool active;\n    bool flag; // this can be removed as we can use empId > 0 to check mapping exists\n    // uint8 birthYear;\n  } \n  \n  struct Family {\n      uint id;\n      uint empId;\n      uint count;\n      bool active;\n      uint activeMembers;\n      bool flag;\n  }\n  \n  struct Member {\n      uint id;\n      uint empId;\n      //add FamilyID to member data\n      address owner;\n      bool active;\n  }\n  \n  event employeeRegistration(\n    uint id,\n    uint empId,\n    bool active,\n    string msg\n  );\n\n  event employeeNotRegistered(\n    uint id,\n    uint empId,\n    address owner,\n    bool active\n  );\n  \n  event empFamilyRegistration(\n      uint familyCounter,\n      uint _empId,\n      uint flag,\n      string msg\n  );\n  \n  event memberRegistration(\n      uint memberCounter, \n      string msg );\n  \n\n  event employeeActivated(\n    uint id,\n    address originalOwner,\n    address empAddress,\n    bool active\n  );\n\n  event employeeDisabled(\n    uint id,\n    string message\n  );\n\n  mapping(uint => Emp) public employees;\n  mapping(address => uint) employeeIds; //mapping from employee address to get employeeID\n  mapping(uint => mapping(uint => Member)) public EmployeeToFamilyMembers;\n  mapping(uint => Family[]) public EmployeeFamily;\n\n  constructor() {\n    name = \"Employee contract initialised\";\n    employeeCount = 0;\n    memberCounter = 0;\n    familyCounter = 0;\n    owner = msg.sender;\n  }\n\n  function setName(string memory _name) public { \n    name = _name;\n  }\n\n  function getName() public view returns (string memory) {\n    return name;\n  }\n\n  function registerEmployee(uint _empId) public {\n     if(canRegister(_empId)) {\n        employeeCount ++;\n        employees[_empId] = Emp(employeeCount, _empId, msg.sender, false, true);\n        employeeIds[msg.sender] = _empId;\n    \n        emit employeeRegistration(employeeCount,_empId, false, \"success\"); \n     }\n     else {\n         emit employeeRegistration(employeeCount,_empId, false, \"failure\"); \n     }\n  }\n  \n  function registerFamily(uint _empId, uint _count) public {\n      require(_count > 0, \"Family members should be more than 0\");\n      if(!familyExists(_empId) && (isRegistered(_empId))) {\n      familyCounter ++;\n      Family memory _family = Family(familyCounter, _empId, _count, true, 0, true);\n      EmployeeFamily[_empId].push(_family);\n      \n      emit empFamilyRegistration(familyCounter, _empId, 1, \"success\");\n      } else {\n                emit empFamilyRegistration(familyCounter, _empId, 0, \"failure\");\n      }\n\n  }\n  \n  function registerMember(uint _empId, address _address) public {\n          if(canRegisterMember(_empId)) {\n              memberCounter ++;\n              EmployeeToFamilyMembers[_empId][memberCounter] = Member(memberCounter, _empId, _address, true);\n              Family memory _family = EmployeeFamily[_empId][0];\n              _family.activeMembers ++;\n              EmployeeFamily[_empId][0] = _family;\n              \n              emit memberRegistration(memberCounter, \"success\");\n          } else\n          {\n              emit memberRegistration(memberCounter, \"failure\");\n          }\n\n  }\n  \n  function familyExists(uint _empId) private view returns(bool){\n      if (EmployeeFamily[_empId].length > 0) {\n          return true;\n      }\n      else {\n          return false;\n      }\n      \n  }\n\n  function activateEmployee(uint _id) public {\n        address originalOwner;\n        // Fetch the product\n        Emp memory _employee = employees[_id];\n        originalOwner = _employee.owner;\n        require(!_employee.active);\n        require(originalOwner == msg.sender);\n        _employee.active = true;\n        employees[_id] = _employee;\n        // Trigger an event\n        emit employeeActivated(_id, originalOwner, msg.sender, true);\n  }\n\n  function disableEmployee(uint _id) public {\n    Emp memory _employee = employees[_id];\n    _employee.active = false;\n    employees[_id] = _employee;\n\n    emit employeeDisabled(_id, \"employee disabled\");\n  }\n  //check if employee can register, not already registered\n  function canRegister(uint _id) private view returns (bool) {\n      if(employees[_id].flag) {\n          return false;\n      }\n      else {\n          return true;          \n      }\n  }\n  //check if employee is already registered and activated\n  function isRegistered(uint _id) private view returns (bool) {\n      if(employees[_id].flag && employees[_id].active) {\n          return true;          \n      } else {\n          return false;\n      }\n  }\n  \n  //check if family member can register, activeMembers allows\n  function canRegisterMember(uint _id) private view returns(bool) {\n      //set the family of the employee\n      Family memory _family = EmployeeFamily[_id][0];\n      if(_family.active) {\n        if ((_family.activeMembers < _family.count)) {\n              return true;\n          } else {\n              return false;\n          } \n      } else {\n          return false;\n      }\n\n  }\n\n}",
  "sourcePath": "/Users/wissamdagher/Documents/Developer/blockchain/CouponMedNet/src/contracts/Employee.sol",
  "compiler": {
    "name": "solc",
    "version": "0.8.5+commit.a4f2e591.Emscripten.clang"
  },
  "schemaVersion": "3.4.1",
  "updatedAt": "2021-06-16T20:24:05.110Z",
  "devdoc": {
    "kind": "dev",
    "methods": {},
    "version": 1
  },
  "userdoc": {
    "kind": "user",
    "methods": {},
    "version": 1
  }
}