{
  "contractName": "EmployeeCore",
  "abi": [
    {
      "anonymous": false,
      "inputs": [
        {
          "indexed": false,
          "internalType": "uint256",
          "name": "id",
          "type": "uint256"
        },
        {
          "indexed": false,
          "internalType": "address",
          "name": "owner",
          "type": "address"
        },
        {
          "indexed": false,
          "internalType": "bool",
          "name": "valid",
          "type": "bool"
        },
        {
          "indexed": false,
          "internalType": "string",
          "name": "msg",
          "type": "string"
        }
      ],
      "name": "CouponPaperCreated",
      "type": "event"
    },
    {
      "anonymous": false,
      "inputs": [
        {
          "indexed": false,
          "internalType": "uint256",
          "name": "initialCouponCount",
          "type": "uint256"
        },
        {
          "indexed": false,
          "internalType": "string",
          "name": "msg",
          "type": "string"
        }
      ],
      "name": "EmployeeCouponGeneration",
      "type": "event"
    },
    {
      "anonymous": false,
      "inputs": [
        {
          "indexed": false,
          "internalType": "string",
          "name": "msg",
          "type": "string"
        }
      ],
      "name": "InvitationAdded",
      "type": "event"
    },
    {
      "anonymous": false,
      "inputs": [
        {
          "indexed": false,
          "internalType": "uint256",
          "name": "initialCouponCount",
          "type": "uint256"
        },
        {
          "indexed": false,
          "internalType": "string",
          "name": "msg",
          "type": "string"
        }
      ],
      "name": "MemberCouponGeneration",
      "type": "event"
    },
    {
      "anonymous": false,
      "inputs": [
        {
          "indexed": true,
          "internalType": "address",
          "name": "oldOwner",
          "type": "address"
        },
        {
          "indexed": true,
          "internalType": "address",
          "name": "newOwner",
          "type": "address"
        }
      ],
      "name": "OwnerSet",
      "type": "event"
    },
    {
      "anonymous": false,
      "inputs": [
        {
          "indexed": false,
          "internalType": "uint256",
          "name": "id",
          "type": "uint256"
        },
        {
          "indexed": false,
          "internalType": "uint256",
          "name": "empId",
          "type": "uint256"
        },
        {
          "indexed": false,
          "internalType": "uint256",
          "name": "couponId",
          "type": "uint256"
        },
        {
          "indexed": false,
          "internalType": "string",
          "name": "msg",
          "type": "string"
        }
      ],
      "name": "VisitCreated",
      "type": "event"
    },
    {
      "anonymous": false,
      "inputs": [
        {
          "indexed": false,
          "internalType": "uint256",
          "name": "documentID",
          "type": "uint256"
        },
        {
          "indexed": false,
          "internalType": "string",
          "name": "msg",
          "type": "string"
        }
      ],
      "name": "VisitDocumentAddition",
      "type": "event"
    },
    {
      "anonymous": false,
      "inputs": [
        {
          "indexed": false,
          "internalType": "uint256",
          "name": "_couponId",
          "type": "uint256"
        },
        {
          "indexed": false,
          "internalType": "string",
          "name": "msg",
          "type": "string"
        }
      ],
      "name": "couponExchanged",
      "type": "event"
    },
    {
      "anonymous": false,
      "inputs": [
        {
          "indexed": false,
          "internalType": "string",
          "name": "msg",
          "type": "string"
        }
      ],
      "name": "delinvitee",
      "type": "event"
    },
    {
      "anonymous": false,
      "inputs": [
        {
          "indexed": false,
          "internalType": "uint256",
          "name": "visitid",
          "type": "uint256"
        },
        {
          "indexed": false,
          "internalType": "uint256",
          "name": "documentid",
          "type": "uint256"
        },
        {
          "indexed": false,
          "internalType": "string",
          "name": "msg",
          "type": "string"
        }
      ],
      "name": "doctorVisited",
      "type": "event"
    },
    {
      "anonymous": false,
      "inputs": [
        {
          "indexed": false,
          "internalType": "uint256",
          "name": "familyCounter",
          "type": "uint256"
        },
        {
          "indexed": false,
          "internalType": "string",
          "name": "msg",
          "type": "string"
        }
      ],
      "name": "empFamilyRegistration",
      "type": "event"
    },
    {
      "anonymous": false,
      "inputs": [
        {
          "indexed": false,
          "internalType": "uint256",
          "name": "employeesCounter",
          "type": "uint256"
        },
        {
          "indexed": false,
          "internalType": "string",
          "name": "msg",
          "type": "string"
        }
      ],
      "name": "empRegistration",
      "type": "event"
    },
    {
      "anonymous": false,
      "inputs": [
        {
          "indexed": false,
          "internalType": "uint256",
          "name": "memberCounter",
          "type": "uint256"
        },
        {
          "indexed": false,
          "internalType": "string",
          "name": "msg",
          "type": "string"
        }
      ],
      "name": "memberRegistration",
      "type": "event"
    },
    {
      "inputs": [
        {
          "internalType": "uint256",
          "name": "",
          "type": "uint256"
        }
      ],
      "name": "EmployeeFamily",
      "outputs": [
        {
          "internalType": "uint256",
          "name": "id",
          "type": "uint256"
        },
        {
          "internalType": "uint256",
          "name": "empId",
          "type": "uint256"
        },
        {
          "internalType": "uint256",
          "name": "count",
          "type": "uint256"
        },
        {
          "internalType": "bool",
          "name": "active",
          "type": "bool"
        },
        {
          "internalType": "uint256",
          "name": "activeMembers",
          "type": "uint256"
        }
      ],
      "stateMutability": "view",
      "type": "function"
    },
    {
      "inputs": [
        {
          "internalType": "uint256",
          "name": "",
          "type": "uint256"
        },
        {
          "internalType": "uint256",
          "name": "",
          "type": "uint256"
        }
      ],
      "name": "EmployeeFamilyMembers",
      "outputs": [
        {
          "internalType": "uint256",
          "name": "id",
          "type": "uint256"
        },
        {
          "internalType": "uint256",
          "name": "empId",
          "type": "uint256"
        },
        {
          "internalType": "uint256",
          "name": "familyId",
          "type": "uint256"
        },
        {
          "internalType": "address",
          "name": "owner",
          "type": "address"
        },
        {
          "internalType": "uint256",
          "name": "initialCouponCount",
          "type": "uint256"
        },
        {
          "internalType": "uint256",
          "name": "extraCouponCount",
          "type": "uint256"
        },
        {
          "internalType": "bool",
          "name": "active",
          "type": "bool"
        }
      ],
      "stateMutability": "view",
      "type": "function"
    },
    {
      "inputs": [
        {
          "internalType": "bytes32",
          "name": "",
          "type": "bytes32"
        }
      ],
      "name": "VisitDocumentBasehash",
      "outputs": [
        {
          "internalType": "uint256",
          "name": "",
          "type": "uint256"
        }
      ],
      "stateMutability": "view",
      "type": "function"
    },
    {
      "inputs": [],
      "name": "VisitDocumentCount",
      "outputs": [
        {
          "internalType": "uint256",
          "name": "",
          "type": "uint256"
        }
      ],
      "stateMutability": "view",
      "type": "function"
    },
    {
      "inputs": [
        {
          "internalType": "uint256",
          "name": "",
          "type": "uint256"
        }
      ],
      "name": "VisitDocuments",
      "outputs": [
        {
          "internalType": "uint256",
          "name": "id",
          "type": "uint256"
        },
        {
          "internalType": "uint256",
          "name": "_doctorvisitId",
          "type": "uint256"
        },
        {
          "internalType": "uint256",
          "name": "_empId",
          "type": "uint256"
        },
        {
          "internalType": "bytes32",
          "name": "_docHash",
          "type": "bytes32"
        },
        {
          "internalType": "uint256",
          "name": "flag",
          "type": "uint256"
        }
      ],
      "stateMutability": "view",
      "type": "function"
    },
    {
      "inputs": [
        {
          "internalType": "bytes32",
          "name": "_docHash",
          "type": "bytes32"
        }
      ],
      "name": "_documentExists",
      "outputs": [
        {
          "internalType": "bool",
          "name": "",
          "type": "bool"
        }
      ],
      "stateMutability": "view",
      "type": "function"
    },
    {
      "inputs": [
        {
          "internalType": "uint256",
          "name": "_code",
          "type": "uint256"
        },
        {
          "internalType": "uint256",
          "name": "_id",
          "type": "uint256"
        },
        {
          "internalType": "uint256",
          "name": "_usertype",
          "type": "uint256"
        }
      ],
      "name": "addInvitation",
      "outputs": [],
      "stateMutability": "nonpayable",
      "type": "function"
    },
    {
      "inputs": [
        {
          "internalType": "address",
          "name": "newOwner",
          "type": "address"
        }
      ],
      "name": "changeOwner",
      "outputs": [],
      "stateMutability": "nonpayable",
      "type": "function"
    },
    {
      "inputs": [
        {
          "internalType": "address",
          "name": "",
          "type": "address"
        },
        {
          "internalType": "uint256",
          "name": "",
          "type": "uint256"
        }
      ],
      "name": "empDoctorVisists",
      "outputs": [
        {
          "internalType": "uint256",
          "name": "",
          "type": "uint256"
        }
      ],
      "stateMutability": "view",
      "type": "function"
    },
    {
      "inputs": [
        {
          "internalType": "uint256",
          "name": "_couponId",
          "type": "uint256"
        }
      ],
      "name": "getCouponById",
      "outputs": [
        {
          "internalType": "uint256",
          "name": "",
          "type": "uint256"
        },
        {
          "internalType": "address",
          "name": "",
          "type": "address"
        },
        {
          "internalType": "address",
          "name": "",
          "type": "address"
        }
      ],
      "stateMutability": "view",
      "type": "function"
    },
    {
      "inputs": [
        {
          "internalType": "address",
          "name": "_owner",
          "type": "address"
        }
      ],
      "name": "getCouponsByOwner",
      "outputs": [
        {
          "internalType": "uint256[]",
          "name": "ownerCoupons",
          "type": "uint256[]"
        }
      ],
      "stateMutability": "view",
      "type": "function"
    },
    {
      "inputs": [
        {
          "internalType": "uint8",
          "name": "_status",
          "type": "uint8"
        }
      ],
      "name": "getCouponsByStatus",
      "outputs": [
        {
          "internalType": "uint256[]",
          "name": "statusCoupons",
          "type": "uint256[]"
        }
      ],
      "stateMutability": "view",
      "type": "function"
    },
    {
      "inputs": [
        {
          "internalType": "uint256",
          "name": "_visitid",
          "type": "uint256"
        }
      ],
      "name": "getDoctorVisit",
      "outputs": [
        {
          "internalType": "uint256",
          "name": "visitid",
          "type": "uint256"
        },
        {
          "internalType": "uint256",
          "name": "empid",
          "type": "uint256"
        },
        {
          "internalType": "uint256",
          "name": "couponid",
          "type": "uint256"
        },
        {
          "internalType": "uint256",
          "name": "doctorid",
          "type": "uint256"
        }
      ],
      "stateMutability": "view",
      "type": "function"
    },
    {
      "inputs": [],
      "name": "getInvitations",
      "outputs": [
        {
          "internalType": "uint256[]",
          "name": "",
          "type": "uint256[]"
        }
      ],
      "stateMutability": "view",
      "type": "function"
    },
    {
      "inputs": [],
      "name": "getOwner",
      "outputs": [
        {
          "internalType": "address",
          "name": "",
          "type": "address"
        }
      ],
      "stateMutability": "view",
      "type": "function"
    },
    {
      "inputs": [
        {
          "internalType": "uint256",
          "name": "_empid",
          "type": "uint256"
        },
        {
          "internalType": "uint256",
          "name": "_maxfamilycount",
          "type": "uint256"
        },
        {
          "internalType": "uint256",
          "name": "_code",
          "type": "uint256"
        },
        {
          "internalType": "uint256",
          "name": "_usertype",
          "type": "uint256"
        }
      ],
      "name": "registerEmployee",
      "outputs": [],
      "stateMutability": "nonpayable",
      "type": "function"
    },
    {
      "inputs": [
        {
          "internalType": "uint256",
          "name": "_empId",
          "type": "uint256"
        },
        {
          "internalType": "uint256",
          "name": "_familyId",
          "type": "uint256"
        },
        {
          "internalType": "address",
          "name": "_address",
          "type": "address"
        }
      ],
      "name": "registerFamilyMember",
      "outputs": [],
      "stateMutability": "nonpayable",
      "type": "function"
    },
    {
      "inputs": [
        {
          "internalType": "uint256",
          "name": "",
          "type": "uint256"
        }
      ],
      "name": "registeredEmployees",
      "outputs": [
        {
          "internalType": "uint256",
          "name": "",
          "type": "uint256"
        }
      ],
      "stateMutability": "view",
      "type": "function"
    },
    {
      "inputs": [
        {
          "internalType": "uint8",
          "name": "_value",
          "type": "uint8"
        },
        {
          "internalType": "uint8",
          "name": "_maxcoupons",
          "type": "uint8"
        },
        {
          "internalType": "uint256",
          "name": "_paidamount",
          "type": "uint256"
        },
        {
          "internalType": "uint256",
          "name": "_year",
          "type": "uint256"
        }
      ],
      "name": "setGlobalParameters",
      "outputs": [],
      "stateMutability": "nonpayable",
      "type": "function"
    },
    {
      "inputs": [],
      "name": "visitCount",
      "outputs": [
        {
          "internalType": "uint256",
          "name": "",
          "type": "uint256"
        }
      ],
      "stateMutability": "view",
      "type": "function"
    },
    {
      "inputs": [
        {
          "internalType": "uint256",
          "name": "",
          "type": "uint256"
        }
      ],
      "name": "visits",
      "outputs": [
        {
          "internalType": "uint256",
          "name": "id",
          "type": "uint256"
        },
        {
          "internalType": "uint256",
          "name": "empId",
          "type": "uint256"
        },
        {
          "internalType": "uint256",
          "name": "couponId",
          "type": "uint256"
        },
        {
          "internalType": "uint256",
          "name": "doctorId",
          "type": "uint256"
        }
      ],
      "stateMutability": "view",
      "type": "function"
    },
    {
      "inputs": [
        {
          "internalType": "address",
          "name": "_employee",
          "type": "address"
        }
      ],
      "name": "getEmployeeInfo",
      "outputs": [
        {
          "components": [
            {
              "internalType": "uint256",
              "name": "id",
              "type": "uint256"
            },
            {
              "internalType": "uint256",
              "name": "empid",
              "type": "uint256"
            },
            {
              "internalType": "uint256",
              "name": "maxfamilycount",
              "type": "uint256"
            },
            {
              "internalType": "uint256",
              "name": "initialCouponCount",
              "type": "uint256"
            },
            {
              "internalType": "uint256",
              "name": "extraCouponCount",
              "type": "uint256"
            },
            {
              "internalType": "bool",
              "name": "active",
              "type": "bool"
            }
          ],
          "internalType": "struct EmployeeBase.Employee",
          "name": "",
          "type": "tuple"
        }
      ],
      "stateMutability": "view",
      "type": "function"
    },
    {
      "inputs": [],
      "name": "employeeIssueCoupons",
      "outputs": [],
      "stateMutability": "nonpayable",
      "type": "function"
    },
    {
      "inputs": [
        {
          "internalType": "address",
          "name": "_memberaddress",
          "type": "address"
        }
      ],
      "name": "employeeIssueMembersCoupons",
      "outputs": [],
      "stateMutability": "nonpayable",
      "type": "function"
    },
    {
      "inputs": [
        {
          "internalType": "uint256",
          "name": "_couponId",
          "type": "uint256"
        },
        {
          "internalType": "address",
          "name": "_owner",
          "type": "address"
        }
      ],
      "name": "exchangeCoupon",
      "outputs": [],
      "stateMutability": "nonpayable",
      "type": "function"
    },
    {
      "inputs": [
        {
          "internalType": "uint256",
          "name": "_couponId",
          "type": "uint256"
        },
        {
          "internalType": "address",
          "name": "_owner",
          "type": "address"
        }
      ],
      "name": "redeemCoupon",
      "outputs": [],
      "stateMutability": "nonpayable",
      "type": "function"
    },
    {
      "inputs": [
        {
          "internalType": "uint256",
          "name": "empid",
          "type": "uint256"
        },
        {
          "internalType": "uint256",
          "name": "couponid",
          "type": "uint256"
        },
        {
          "internalType": "uint256",
          "name": "doctorid",
          "type": "uint256"
        },
        {
          "internalType": "string",
          "name": "_md5",
          "type": "string"
        },
        {
          "internalType": "address",
          "name": "_address",
          "type": "address"
        }
      ],
      "name": "visitDoctor",
      "outputs": [],
      "stateMutability": "nonpayable",
      "type": "function"
    }
  ],
  "bytecode": "0x608060405234801561001057600080fd5b50336000806101000a81548173ffffffffffffffffffffffffffffffffffffffff021916908373ffffffffffffffffffffffffffffffffffffffff16021790555060008054906101000a900473ffffffffffffffffffffffffffffffffffffffff1673ffffffffffffffffffffffffffffffffffffffff16600073ffffffffffffffffffffffffffffffffffffffff167f342827c97908e5e2f71151c08502a66d44b6f758e3ac2f1de95f02eb95f0a73560405160405180910390a333600160006101000a81548173ffffffffffffffffffffffffffffffffffffffff021916908373ffffffffffffffffffffffffffffffffffffffff160217905550600060038190555060018060146101000a81548160ff021916908360ff1602179055506005600160156101000a81548160ff021916908360ff16021790555061ea6060028190555060006012819055506000601481905550600060138190555060006021819055506000602481905550614c7c8061018c6000396000f3fe608060405234801561001057600080fd5b50600436106101a95760003560e01c80638979eee4116100f9578063d2140b8d11610097578063e0e4367e11610071578063e0e4367e1461052c578063e18099a81461054a578063f4b75ee114610566578063fe1b516514610596576101a9565b8063d2140b8d146104ac578063d4ee1915146104e0578063d6f57ae8146104fc576101a9565b8063a61b8fc5116100d3578063a61b8fc51461040f578063a6f9dae11461043f578063acdb9e3c1461045b578063b1823dcc14610479576101a9565b80638979eee4146103a35780638ed9c8f7146103bf5780639408dd09146103f3576101a9565b80634ca643901161016657806364f82b391161014057806364f82b39146103035780636883a62f14610333578063885d6e5914610369578063893d20e814610385576101a9565b80634ca643901461029b5780635ac09b2b146102b757806361d73e6b146102e7576101a9565b806309c55a13146101ae57806311000c21146101e157806316845714146102135780631920762014610231578063196a623c146102615780632b9596611461026b575b600080fd5b6101c860048036038101906101c39190613935565b6105b2565b6040516101d89493929190614515565b60405180910390f35b6101fb60048036038101906101f69190613935565b6105e2565b60405161020a9392919061429d565b60405180910390f35b61021b610708565b604051610228919061402a565b60405180910390f35b61024b600480360381019061024691906138db565b6107ee565b604051610258919061404c565b60405180910390f35b61026961081e565b005b6102856004803603810190610280919061386e565b610a98565b604051610292919061402a565b60405180910390f35b6102b560048036038101906102b09190613b1f565b610c21565b005b6102d160048036038101906102cc919061386e565b610fda565b6040516102de9190614267565b60405180910390f35b61030160048036038101906102fc9190613a88565b6110e2565b005b61031d600480360381019061031891906138db565b6112cb565b60405161032a9190614282565b60405180910390f35b61034d600480360381019061034891906139a2565b6112e3565b60405161036097969594939291906143b6565b60405180910390f35b610383600480360381019061037e9190613a35565b61136f565b005b61038d6114ef565b60405161039a919061400f565b60405180910390f35b6103bd60048036038101906103b8919061386e565b611518565b005b6103d960048036038101906103d49190613935565b611793565b6040516103ea959493929190614478565b60405180910390f35b61040d60048036038101906104089190613bb3565b6117c9565b005b6104296004803603810190610424919061389b565b6118a1565b6040516104369190614282565b60405180910390f35b6104596004803603810190610454919061386e565b6118d1565b005b610463611a1c565b6040516104709190614282565b60405180910390f35b610493600480360381019061048e9190613935565b611a22565b6040516104a39493929190614515565b60405180910390f35b6104c660048036038101906104c19190613935565b611a93565b6040516104d7959493929190614425565b60405180910390f35b6104fa60048036038101906104f59190613962565b611ad6565b005b61051660048036038101906105119190613b86565b611f87565b604051610523919061402a565b60405180910390f35b6105346120d7565b6040516105419190614282565b60405180910390f35b610564600480360381019061055f9190613962565b6120dd565b005b610580600480360381019061057b9190613935565b6125f0565b60405161058d9190614282565b60405180910390f35b6105b060048036038101906105ab91906139e2565b612614565b005b60226020528060005260406000206000915090508060000154908060010154908060020154908060030154905084565b60008060008060009054906101000a900473ffffffffffffffffffffffffffffffffffffffff1673ffffffffffffffffffffffffffffffffffffffff163373ffffffffffffffffffffffffffffffffffffffff1614610676576040517f08c379a000000000000000000000000000000000000000000000000000000000815260040161066d906140c7565b60405180910390fd5b60086000858152602001908152602001600020600001546008600086815260200190815260200160002060010160009054906101000a900473ffffffffffffffffffffffffffffffffffffffff166008600087815260200190815260200160002060020160009054906101000a900473ffffffffffffffffffffffffffffffffffffffff169250925092509193909250565b606060008054906101000a900473ffffffffffffffffffffffffffffffffffffffff1673ffffffffffffffffffffffffffffffffffffffff163373ffffffffffffffffffffffffffffffffffffffff1614610798576040517f08c379a000000000000000000000000000000000000000000000000000000000815260040161078f906140c7565b60405180910390fd5b60118054806020026020016040519081016040528092919081815260200182805480156107e457602002820191906000526020600020905b8154815260200190600101908083116107d0575b5050505050905090565b600080602660008481526020019081526020016000205411156108145760019050610819565b600090505b919050565b3360011515601560008373ffffffffffffffffffffffffffffffffffffffff1673ffffffffffffffffffffffffffffffffffffffff16815260200190815260200160002060050160009054906101000a900460ff161515146108b5576040517f08c379a00000000000000000000000000000000000000000000000000000000081526004016108ac90614207565b60405180910390fd5b6000601560003373ffffffffffffffffffffffffffffffffffffffff1673ffffffffffffffffffffffffffffffffffffffff168152602001908152602001600020600301541461093a576040517f08c379a000000000000000000000000000000000000000000000000000000000815260040161093190614147565b60405180910390fd5b600061094533612aed565b90506000600190505b600160159054906101000a900460ff1660ff1681116109ee57601e6000836001015481526020019081526020016000206000600754815260200190815260200160002061099b3333612b35565b90806001815401808255809150506001900390600052602060002001600090919091909150558160030160008154809291906109d6906147b2565b919050555080806109e6906147b2565b91505061094e565b50600160159054906101000a900460ff1660ff1681600301541415610a58577f792163a28a1b080fac4cc7af50f9fefadf108759b206d1abb9e7c40dc97812b7600160159054906101000a900460ff16604051610a4b919061455a565b60405180910390a1610a94565b7f792163a28a1b080fac4cc7af50f9fefadf108759b206d1abb9e7c40dc97812b78160030154604051610a8b919061434c565b60405180910390a15b5050565b60606000610aa583612e35565b90506000811415610b0257600067ffffffffffffffff811115610acb57610aca6148b7565b5b604051908082528060200260200182016040528015610af95781602001602082028036833780820191505090505b50915050610c1c565b60008167ffffffffffffffff811115610b1e57610b1d6148b7565b5b604051908082528060200260200182016040528015610b4c5781602001602082028036833780820191505090505b5090506000610b59612e7e565b9050600080600190505b828111610c13578673ffffffffffffffffffffffffffffffffffffffff16600a600083815260200190815260200160002060009054906101000a900473ffffffffffffffffffffffffffffffffffffffff1673ffffffffffffffffffffffffffffffffffffffff161415610c005780848381518110610be557610be4614888565b5b6020026020010181815250508180610bfc906147b2565b9250505b8080610c0b906147b2565b915050610b63565b83955050505050505b919050565b60008054906101000a900473ffffffffffffffffffffffffffffffffffffffff1673ffffffffffffffffffffffffffffffffffffffff163373ffffffffffffffffffffffffffffffffffffffff161415610cb0576040517f08c379a0000000000000000000000000000000000000000000000000000000008152600401610ca790614087565b60405180910390fd5b818482816010600085815260200190815260200160002060000154148015610ced5750806010600085815260200190815260200160002060010154145b610d2c576040517f08c379a0000000000000000000000000000000000000000000000000000000008152600401610d2390614067565b60405180910390fd5b3360001515601560008373ffffffffffffffffffffffffffffffffffffffff1673ffffffffffffffffffffffffffffffffffffffff16815260200190815260200160002060050160009054906101000a900460ff16151514610dc3576040517f08c379a0000000000000000000000000000000000000000000000000000000008152600401610dba90614167565b60405180910390fd5b610dcc85612e88565b610e0b576040517f08c379a0000000000000000000000000000000000000000000000000000000008152600401610e02906140a7565b60405180910390fd5b60126000815480929190610e1e906147b2565b91905055506040518060c001604052806012548152602001898152602001888152602001600081526020016000815260200160011515815250601560003373ffffffffffffffffffffffffffffffffffffffff1673ffffffffffffffffffffffffffffffffffffffff168152602001908152602001600020600082015181600001556020820151816001015560408201518160020155606082015181600301556080820151816004015560a08201518160050160006101000a81548160ff021916908315150217905550905050601d8890806001815401808255809150506001900390600052602060002001600090919091909150553360166000601254815260200190815260200160002060006101000a81548173ffffffffffffffffffffffffffffffffffffffff021916908373ffffffffffffffffffffffffffffffffffffffff160217905550601254601760008a815260200190815260200160002081905550610f8c8689612ea6565b610f97888833612f0e565b7f6dd3c20f7609bbf719cf9279aeda93d1c4be21c20864d29483b679c98b7b7e8a601254604051610fc8919061431e565b60405180910390a15050505050505050565b610fe2613692565b3360011515601560008373ffffffffffffffffffffffffffffffffffffffff1673ffffffffffffffffffffffffffffffffffffffff16815260200190815260200160002060050160009054906101000a900460ff16151514611079576040517f08c379a000000000000000000000000000000000000000000000000000000000815260040161107090614207565b60405180910390fd5b61108283612aed565b6040518060c001604052908160008201548152602001600182015481526020016002820154815260200160038201548152602001600482015481526020016005820160009054906101000a900460ff161515151581525050915050919050565b3360011515601560008373ffffffffffffffffffffffffffffffffffffffff1673ffffffffffffffffffffffffffffffffffffffff16815260200190815260200160002060050160009054906101000a900460ff16151514611179576040517f08c379a000000000000000000000000000000000000000000000000000000000815260040161117090614207565b60405180910390fd5b6000611186878787613119565b90506001600e600088815260200190815260200160002060006101000a81548160ff021916908315150217905550602060003373ffffffffffffffffffffffffffffffffffffffff1673ffffffffffffffffffffffffffffffffffffffff168152602001908152602001600020819080600181540180825580915050600190039060005260206000200160009091909190915055600060028560405161122c9190613ff8565b602060405180830381855afa158015611249573d6000803e3d6000fd5b5050506040513d601f19601f8201168201806040525081019061126c9190613908565b9050600061127b878a84613201565b90506112878886611ad6565b7f9a3aa3a70dc27fdd4f5e650dad1b50bfe5108eaa780cde71b5ad096977c01af583826040516112b892919061437a565b60405180910390a1505050505050505050565b60266020528060005260406000206000915090505481565b601b60205281600052604060002081815481106112ff57600080fd5b9060005260206000209060070201600091509150508060000154908060010154908060020154908060030160009054906101000a900473ffffffffffffffffffffffffffffffffffffffff16908060040154908060050154908060060160009054906101000a900460ff16905087565b60008054906101000a900473ffffffffffffffffffffffffffffffffffffffff1673ffffffffffffffffffffffffffffffffffffffff163373ffffffffffffffffffffffffffffffffffffffff16146113fd576040517f08c379a00000000000000000000000000000000000000000000000000000000081526004016113f4906140c7565b60405180910390fd5b6000601060008581526020019081526020016000206000015414611456576040517f08c379a000000000000000000000000000000000000000000000000000000000815260040161144d90614127565b60405180910390fd5b81601060008581526020019081526020016000206000018190555080601060008581526020019081526020016000206001018190555060118290806001815401808255809150506001900390600052602060002001600090919091909150557f4b94f404f01408af2bc2543d9ad9bea2c7382d8beb361d59bb3038d8ff9f40d66040516114e290614107565b60405180910390a1505050565b60008060009054906101000a900473ffffffffffffffffffffffffffffffffffffffff16905090565b3360011515601560008373ffffffffffffffffffffffffffffffffffffffff1673ffffffffffffffffffffffffffffffffffffffff16815260200190815260200160002060050160009054906101000a900460ff161515146115af576040517f08c379a00000000000000000000000000000000000000000000000000000000081526004016115a690614207565b60405180910390fd5b6000601960008473ffffffffffffffffffffffffffffffffffffffff1673ffffffffffffffffffffffffffffffffffffffff1681526020019081526020016000206004015414611634576040517f08c379a000000000000000000000000000000000000000000000000000000000815260040161162b90614147565b60405180910390fd5b600061163f83613367565b90506000600190505b600160159054906101000a900460ff1660ff1681116116e857601f600083600001548152602001908152602001600020600060075481526020019081526020016000206116958533612b35565b90806001815401808255809150506001900390600052602060002001600090919091909150558160040160008154809291906116d0906147b2565b919050555080806116e0906147b2565b915050611648565b50600160159054906101000a900460ff1660ff1681600401541415611752577f87c21fbe85c3ac265e36e51547b1669ec3f453648d76898cf4dfa735fc7b3d3f600160159054906101000a900460ff16604051611745919061455a565b60405180910390a161178e565b7f87c21fbe85c3ac265e36e51547b1669ec3f453648d76898cf4dfa735fc7b3d3f8160040154604051611785919061434c565b60405180910390a15b505050565b60256020528060005260406000206000915090508060000154908060010154908060020154908060030154908060040154905085565b60008054906101000a900473ffffffffffffffffffffffffffffffffffffffff1673ffffffffffffffffffffffffffffffffffffffff163373ffffffffffffffffffffffffffffffffffffffff1614611857576040517f08c379a000000000000000000000000000000000000000000000000000000000815260040161184e906140c7565b60405180910390fd5b83600160146101000a81548160ff021916908360ff16021790555082600160156101000a81548160ff021916908360ff160217905550816002819055508060078190555050505050565b6020805281600052604060002081815481106118bc57600080fd5b90600052602060002001600091509150505481565b60008054906101000a900473ffffffffffffffffffffffffffffffffffffffff1673ffffffffffffffffffffffffffffffffffffffff163373ffffffffffffffffffffffffffffffffffffffff161461195f576040517f08c379a0000000000000000000000000000000000000000000000000000000008152600401611956906140c7565b60405180910390fd5b8073ffffffffffffffffffffffffffffffffffffffff1660008054906101000a900473ffffffffffffffffffffffffffffffffffffffff1673ffffffffffffffffffffffffffffffffffffffff167f342827c97908e5e2f71151c08502a66d44b6f758e3ac2f1de95f02eb95f0a73560405160405180910390a3806000806101000a81548173ffffffffffffffffffffffffffffffffffffffff021916908373ffffffffffffffffffffffffffffffffffffffff16021790555050565b60245481565b600080600080602260008681526020019081526020016000206000015460226000878152602001908152602001600020600101546022600088815260200190815260200160002060020154602260008981526020019081526020016000206003015493509350935093509193509193565b60186020528060005260406000206000915090508060000154908060010154908060020154908060030160009054906101000a900460ff16908060040154905085565b3360011515601560008373ffffffffffffffffffffffffffffffffffffffff1673ffffffffffffffffffffffffffffffffffffffff16815260200190815260200160002060050160009054906101000a900460ff16151514611b6d576040517f08c379a0000000000000000000000000000000000000000000000000000000008152600401611b6490614207565b60405180910390fd5b611b7782846133af565b611bb6576040517f08c379a0000000000000000000000000000000000000000000000000000000008152600401611bad906141e7565b60405180910390fd5b6000600860008581526020019081526020016000206040518060e0016040529081600082015481526020016001820160009054906101000a900473ffffffffffffffffffffffffffffffffffffffff1673ffffffffffffffffffffffffffffffffffffffff1673ffffffffffffffffffffffffffffffffffffffff1681526020016002820160009054906101000a900473ffffffffffffffffffffffffffffffffffffffff1673ffffffffffffffffffffffffffffffffffffffff1673ffffffffffffffffffffffffffffffffffffffff16815260200160038201548152602001600482018054611ca69061474f565b80601f0160208091040260200160405190810160405280929190818152602001828054611cd29061474f565b8015611d1f5780601f10611cf457610100808354040283529160200191611d1f565b820191906000526020600020905b815481529060010190602001808311611d0257829003601f168201915b505050505081526020016005820160009054906101000a900460ff161515151581526020016005820160019054906101000a900460ff16151515158152505090506040518060400160405280600981526020017f45786368616e6765640000000000000000000000000000000000000000000000815250816080018190525080600860008681526020019081526020016000206000820151816000015560208201518160010160006101000a81548173ffffffffffffffffffffffffffffffffffffffff021916908373ffffffffffffffffffffffffffffffffffffffff16021790555060408201518160020160006101000a81548173ffffffffffffffffffffffffffffffffffffffff021916908373ffffffffffffffffffffffffffffffffffffffff160217905550606082015181600301556080820151816004019080519060200190611e709291906136ca565b5060a08201518160050160006101000a81548160ff02191690831515021790555060c08201518160050160016101000a81548160ff0219169083151502179055509050506002600d600086815260200190815260200160002060006101000a81548160ff021916908360ff16021790555060046000815480929190611ef4906147b2565b919050555082600b600086815260200190815260200160002060006101000a81548173ffffffffffffffffffffffffffffffffffffffff021916908373ffffffffffffffffffffffffffffffffffffffff160217905550600a600085815260200190815260200160002060006101000a81549073ffffffffffffffffffffffffffffffffffffffff021916905550505050565b60606000611f948361341e565b90506000811415611ff157600067ffffffffffffffff811115611fba57611fb96148b7565b5b604051908082528060200260200182016040528015611fe85781602001602082028036833780820191505090505b509150506120d2565b60008167ffffffffffffffff81111561200d5761200c6148b7565b5b60405190808252806020026020018201604052801561203b5781602001602082028036833780820191505090505b5090506000612048612e7e565b9050600080600190505b8281116120c9578660ff16600d600083815260200190815260200160002060009054906101000a900460ff1660ff1614156120b6578084838151811061209b5761209a614888565b5b60200260200101818152505081806120b2906147b2565b9250505b80806120c1906147b2565b915050612052565b83955050505050505b919050565b60215481565b3360011515601560008373ffffffffffffffffffffffffffffffffffffffff1673ffffffffffffffffffffffffffffffffffffffff16815260200190815260200160002060050160009054906101000a900460ff16151514612174576040517f08c379a000000000000000000000000000000000000000000000000000000000815260040161216b90614207565b60405180910390fd5b61217e82846133af565b6121bd576040517f08c379a00000000000000000000000000000000000000000000000000000000081526004016121b4906141e7565b60405180910390fd5b6121c6836134d3565b612205576040517f08c379a00000000000000000000000000000000000000000000000000000000081526004016121fc906141a7565b60405180910390fd5b6000600860008581526020019081526020016000206040518060e0016040529081600082015481526020016001820160009054906101000a900473ffffffffffffffffffffffffffffffffffffffff1673ffffffffffffffffffffffffffffffffffffffff1673ffffffffffffffffffffffffffffffffffffffff1681526020016002820160009054906101000a900473ffffffffffffffffffffffffffffffffffffffff1673ffffffffffffffffffffffffffffffffffffffff1673ffffffffffffffffffffffffffffffffffffffff168152602001600382015481526020016004820180546122f59061474f565b80601f01602080910402602001604051908101604052809291908181526020018280546123219061474f565b801561236e5780601f106123435761010080835404028352916020019161236e565b820191906000526020600020905b81548152906001019060200180831161235157829003601f168201915b505050505081526020016005820160009054906101000a900460ff161515151581526020016005820160019054906101000a900460ff16151515158152505090506040518060400160405280600881526020017f52656465656d656400000000000000000000000000000000000000000000000081525081608001819052506003600d6000600354815260200190815260200160002060006101000a81548160ff021916908360ff1602179055506004600081548092919061242f90614725565b919050555060056000815480929190612447906147b2565b919050555080600860008681526020019081526020016000206000820151816000015560208201518160010160006101000a81548173ffffffffffffffffffffffffffffffffffffffff021916908373ffffffffffffffffffffffffffffffffffffffff16021790555060408201518160020160006101000a81548173ffffffffffffffffffffffffffffffffffffffff021916908373ffffffffffffffffffffffffffffffffffffffff16021790555060608201518160030155608082015181600401908051906020019061251e9291906136ca565b5060a08201518160050160006101000a81548160ff02191690831515021790555060c08201518160050160016101000a81548160ff02191690831515021790555090505033600c600086815260200190815260200160002060006101000a81548173ffffffffffffffffffffffffffffffffffffffff021916908373ffffffffffffffffffffffffffffffffffffffff160217905550600b600085815260200190815260200160002060006101000a81549073ffffffffffffffffffffffffffffffffffffffff021916905550505050565b601d818154811061260057600080fd5b906000526020600020016000915090505481565b3360011515601560008373ffffffffffffffffffffffffffffffffffffffff1673ffffffffffffffffffffffffffffffffffffffff16815260200190815260200160002060050160009054906101000a900460ff161515146126ab576040517f08c379a00000000000000000000000000000000000000000000000000000000081526004016126a290614207565b60405180910390fd5b601460008154809291906126be906147b2565b919050555060006040518060e0016040528060145481526020018681526020018581526020018473ffffffffffffffffffffffffffffffffffffffff168152602001600081526020016000815260200160011515815250905080601960008573ffffffffffffffffffffffffffffffffffffffff1673ffffffffffffffffffffffffffffffffffffffff16815260200190815260200160002060008201518160000155602082015181600101556040820151816002015560608201518160030160006101000a81548173ffffffffffffffffffffffffffffffffffffffff021916908373ffffffffffffffffffffffffffffffffffffffff1602179055506080820151816004015560a0820151816005015560c08201518160060160006101000a81548160ff02191690831515021790555090505080601a60008781526020019081526020016000206000601454815260200190815260200160002060008201518160000155602082015181600101556040820151816002015560608201518160030160006101000a81548173ffffffffffffffffffffffffffffffffffffffff021916908373ffffffffffffffffffffffffffffffffffffffff1602179055506080820151816004015560a0820151816005015560c08201518160060160006101000a81548160ff021916908315150217905550905050601b600086815260200190815260200160002081908060018154018082558091505060019003906000526020600020906007020160009091909190915060008201518160000155602082015181600101556040820151816002015560608201518160030160006101000a81548173ffffffffffffffffffffffffffffffffffffffff021916908373ffffffffffffffffffffffffffffffffffffffff1602179055506080820151816004015560a0820151816005015560c08201518160060160006101000a81548160ff021916908315150217905550505084601c60008573ffffffffffffffffffffffffffffffffffffffff1673ffffffffffffffffffffffffffffffffffffffff168152602001908152602001600020819055506000601860008781526020019081526020016000206040518060a00160405290816000820154815260200160018201548152602001600282015481526020016003820160009054906101000a900460ff161515151581526020016004820154815250509050806080018051809190612a49906147b2565b81525050806018600088815260200190815260200160002060008201518160000155602082015181600101556040820151816002015560608201518160030160006101000a81548160ff021916908315150217905550608082015181600401559050507f6e1e4090659373eee2aaca28bea8b2b6d75fda61ac6e007e0246e56eeb59cd73601454604051612add919061431e565b60405180910390a1505050505050565b6000601560008373ffffffffffffffffffffffffffffffffffffffff1673ffffffffffffffffffffffffffffffffffffffff1681526020019081526020016000209050919050565b600060036000815480929190612b4a906147b2565b91905055506040518060e0016040528060035481526020018473ffffffffffffffffffffffffffffffffffffffff1681526020018373ffffffffffffffffffffffffffffffffffffffff168152602001600160149054906101000a900460ff1660ff1681526020016040518060400160405280600781526020017f63726561746564000000000000000000000000000000000000000000000000008152508152602001600115158152602001600015158152506008600060035481526020019081526020016000206000820151816000015560208201518160010160006101000a81548173ffffffffffffffffffffffffffffffffffffffff021916908373ffffffffffffffffffffffffffffffffffffffff16021790555060408201518160020160006101000a81548173ffffffffffffffffffffffffffffffffffffffff021916908373ffffffffffffffffffffffffffffffffffffffff160217905550606082015181600301556080820151816004019080519060200190612cd09291906136ca565b5060a08201518160050160006101000a81548160ff02191690831515021790555060c08201518160050160016101000a81548160ff021916908315150217905550905050600960008473ffffffffffffffffffffffffffffffffffffffff1673ffffffffffffffffffffffffffffffffffffffff1681526020019081526020016000206000815480929190612d64906147b2565b919050555082600a6000600354815260200190815260200160002060006101000a81548173ffffffffffffffffffffffffffffffffffffffff021916908373ffffffffffffffffffffffffffffffffffffffff1602179055506001600d6000600354815260200190815260200160002060006101000a81548160ff021916908360ff1602179055507f2971a82072a1b29fd1941ada5b32f5b5aad07e668299b78328e9904e762cb9be600354846001604051612e22939291906142d4565b60405180910390a1600354905092915050565b6000600960008373ffffffffffffffffffffffffffffffffffffffff1673ffffffffffffffffffffffffffffffffffffffff168152602001908152602001600020549050919050565b6000600354905090565b60006001821415612e9c5760019050612ea1565b600090505b919050565b6010600083815260200190815260200160002060008082016000905560018201600090555050612ed58161356d565b7f83044fa08cabba8ae7aa27249a8a606cdd565b8e72934bbc7b3597f898859e70604051612f0290614227565b60405180910390a15050565b8060011515601560008373ffffffffffffffffffffffffffffffffffffffff1673ffffffffffffffffffffffffffffffffffffffff16815260200190815260200160002060050160009054906101000a900460ff16151514612fa5576040517f08c379a0000000000000000000000000000000000000000000000000000000008152600401612f9c90614207565b60405180910390fd5b60008311612fe8576040517f08c379a0000000000000000000000000000000000000000000000000000000008152600401612fdf90614247565b60405180910390fd5b612ff184613587565b15613031576040517f08c379a0000000000000000000000000000000000000000000000000000000008152600401613028906140e7565b60405180910390fd5b60136000815480929190613044906147b2565b919050555060006040518060a00160405280601354815260200186815260200185815260200160011515815260200160008152509050806018600087815260200190815260200160002060008201518160000155602082015181600101556040820151816002015560608201518160030160006101000a81548160ff021916908315150217905550608082015181600401559050507f08db86aa8d0e65ac45061a1565349ba001d8c73117c16835e9eeb23848eb3e3f60135460405161310a919061431e565b60405180910390a15050505050565b60006021600081548092919061312e906147b2565b919050555061313b613750565b6040518060800160405280602154815260200186815260200185815260200184815250905080602260006021548152602001908152602001600020600082015181600001556020820151816001015560408201518160020155606082015181600301559050507f1bddd110c92375ee8dc06b13693ae9ab5395c1ae79fd1b455455bc19039bce4b60215486866040516131d6939291906144cb565b60405180910390a1602260006021548152602001908152602001600020600001549150509392505050565b600061320c826107ee565b1561324c576040517f08c379a000000000000000000000000000000000000000000000000000000000815260040161324390614187565b60405180910390fd5b6024600081548092919061325f906147b2565b91905055506040518060a00160405280602454815260200185815260200184815260200183815260200160018152506025600060245481526020019081526020016000206000820151816000015560208201518160010155604082015181600201556060820151816003015560808201518160040155905050602454602660008481526020019081526020016000208190555060245460236000868152602001908152602001600020819055507fae816f4de19251cce5dbafb46558bb67ace150a4cda551ce62d1ab8e117e243460245460405161333d919061431e565b60405180910390a16025600060245481526020019081526020016000206000015490509392505050565b6000601960008373ffffffffffffffffffffffffffffffffffffffff1673ffffffffffffffffffffffffffffffffffffffff1681526020019081526020016000209050919050565b60008273ffffffffffffffffffffffffffffffffffffffff166008600084815260200190815260200160002060010160009054906101000a900473ffffffffffffffffffffffffffffffffffffffff1673ffffffffffffffffffffffffffffffffffffffff1614905092915050565b600060058260ff16108015613436575060008260ff16115b613475576040517f08c379a000000000000000000000000000000000000000000000000000000000815260040161346c906141c7565b60405180910390fd5b60018260ff16141561348b5760035490506134ce565b60028260ff1614156134a15760045490506134ce565b60038260ff1614156134b75760055490506134ce565b60048260ff1614156134cd5760065490506134ce565b5b919050565b60008073ffffffffffffffffffffffffffffffffffffffff16600b600084815260200190815260200160002060009054906101000a900473ffffffffffffffffffffffffffffffffffffffff1673ffffffffffffffffffffffffffffffffffffffff1611801561356657506002600d600084815260200190815260200160002060009054906101000a900460ff1660ff16145b9050919050565b6000613578826135cc565b905061358381613615565b5050565b6000600115156018600084815260200190815260200160002060030160009054906101000a900460ff16151514156135c257600190506135c7565b600090505b919050565b600080600090505b82601182815481106135e9576135e8614888565b5b90600052602060002001541461360c578080613604906147b2565b9150506135d4565b80915050919050565b60116001601180549050613629919061463e565b8154811061363a57613639614888565b5b90600052602060002001546011828154811061365957613658614888565b5b9060005260206000200181905550601180548061367957613678614859565b5b6001900381819060005260206000200160009055905550565b6040518060c0016040528060008152602001600081526020016000815260200160008152602001600081526020016000151581525090565b8280546136d69061474f565b90600052602060002090601f0160209004810192826136f8576000855561373f565b82601f1061371157805160ff191683800117855561373f565b8280016001018555821561373f579182015b8281111561373e578251825591602001919060010190613723565b5b50905061374c9190613778565b5090565b6040518060800160405280600081526020016000815260200160008152602001600081525090565b5b80821115613791576000816000905550600101613779565b5090565b60006137a86137a3846145ad565b614588565b9050828152602081018484840111156137c4576137c36148eb565b5b6137cf8482856146e3565b509392505050565b6000813590506137e681614bea565b92915050565b6000813590506137fb81614c01565b92915050565b60008151905061381081614c01565b92915050565b600082601f83011261382b5761382a6148e6565b5b813561383b848260208601613795565b91505092915050565b60008135905061385381614c18565b92915050565b60008135905061386881614c2f565b92915050565b600060208284031215613884576138836148f5565b5b6000613892848285016137d7565b91505092915050565b600080604083850312156138b2576138b16148f5565b5b60006138c0858286016137d7565b92505060206138d185828601613844565b9150509250929050565b6000602082840312156138f1576138f06148f5565b5b60006138ff848285016137ec565b91505092915050565b60006020828403121561391e5761391d6148f5565b5b600061392c84828501613801565b91505092915050565b60006020828403121561394b5761394a6148f5565b5b600061395984828501613844565b91505092915050565b60008060408385031215613979576139786148f5565b5b600061398785828601613844565b9250506020613998858286016137d7565b9150509250929050565b600080604083850312156139b9576139b86148f5565b5b60006139c785828601613844565b92505060206139d885828601613844565b9150509250929050565b6000806000606084860312156139fb576139fa6148f5565b5b6000613a0986828701613844565b9350506020613a1a86828701613844565b9250506040613a2b868287016137d7565b9150509250925092565b600080600060608486031215613a4e57613a4d6148f5565b5b6000613a5c86828701613844565b9350506020613a6d86828701613844565b9250506040613a7e86828701613844565b9150509250925092565b600080600080600060a08688031215613aa457613aa36148f5565b5b6000613ab288828901613844565b9550506020613ac388828901613844565b9450506040613ad488828901613844565b935050606086013567ffffffffffffffff811115613af557613af46148f0565b5b613b0188828901613816565b9250506080613b12888289016137d7565b9150509295509295909350565b60008060008060808587031215613b3957613b386148f5565b5b6000613b4787828801613844565b9450506020613b5887828801613844565b9350506040613b6987828801613844565b9250506060613b7a87828801613844565b91505092959194509250565b600060208284031215613b9c57613b9b6148f5565b5b6000613baa84828501613859565b91505092915050565b60008060008060808587031215613bcd57613bcc6148f5565b5b6000613bdb87828801613859565b9450506020613bec87828801613859565b9350506040613bfd87828801613844565b9250506060613c0e87828801613844565b91505092959194509250565b6000613c268383613fcb565b60208301905092915050565b613c3b81614672565b82525050565b6000613c4c826145ee565b613c568185614611565b9350613c61836145de565b8060005b83811015613c92578151613c798882613c1a565b9750613c8483614604565b925050600181019050613c65565b5085935050505092915050565b613ca881614684565b82525050565b613cb781614684565b82525050565b613cc681614690565b82525050565b6000613cd7826145f9565b613ce18185614622565b9350613cf18185602086016146f2565b80840191505092915050565b6000613d0a60158361462d565b9150613d158261490b565b602082019050919050565b6000613d2d600f8361462d565b9150613d3882614934565b602082019050919050565b6000613d5060148361462d565b9150613d5b8261495d565b602082019050919050565b6000613d7360138361462d565b9150613d7e82614986565b602082019050919050565b6000613d96600d8361462d565b9150613da1826149af565b602082019050919050565b6000613db960078361462d565b9150613dc4826149d8565b602082019050919050565b6000613ddc601e8361462d565b9150613de782614a01565b602082019050919050565b6000613dff601e8361462d565b9150613e0a82614a2a565b602082019050919050565b6000613e2260148361462d565b9150613e2d82614a53565b602082019050919050565b6000613e4560178361462d565b9150613e5082614a7c565b602082019050919050565b6000613e68601a8361462d565b9150613e7382614aa5565b602082019050919050565b6000613e8b60078361462d565b9150613e9682614ace565b602082019050919050565b6000613eae60178361462d565b9150613eb982614af7565b602082019050919050565b6000613ed1601a8361462d565b9150613edc82614b20565b602082019050919050565b6000613ef460178361462d565b9150613eff82614b49565b602082019050919050565b6000613f1760078361462d565b9150613f2282614b72565b602082019050919050565b6000613f3a60248361462d565b9150613f4582614b9b565b604082019050919050565b60c082016000820151613f666000850182613fcb565b506020820151613f796020850182613fcb565b506040820151613f8c6040850182613fcb565b506060820151613f9f6060850182613fcb565b506080820151613fb26080850182613fcb565b5060a0820151613fc560a0850182613c9f565b50505050565b613fd4816146ba565b82525050565b613fe3816146ba565b82525050565b613ff2816146d1565b82525050565b60006140048284613ccc565b915081905092915050565b60006020820190506140246000830184613c32565b92915050565b600060208201905081810360008301526140448184613c41565b905092915050565b60006020820190506140616000830184613cae565b92915050565b6000602082019050818103600083015261408081613cfd565b9050919050565b600060208201905081810360008301526140a081613d20565b9050919050565b600060208201905081810360008301526140c081613d43565b9050919050565b600060208201905081810360008301526140e081613d66565b9050919050565b6000602082019050818103600083015261410081613d89565b9050919050565b6000602082019050818103600083015261412081613dac565b9050919050565b6000602082019050818103600083015261414081613dcf565b9050919050565b6000602082019050818103600083015261416081613df2565b9050919050565b6000602082019050818103600083015261418081613e15565b9050919050565b600060208201905081810360008301526141a081613e38565b9050919050565b600060208201905081810360008301526141c081613e5b565b9050919050565b600060208201905081810360008301526141e081613ea1565b9050919050565b6000602082019050818103600083015261420081613ec4565b9050919050565b6000602082019050818103600083015261422081613ee7565b9050919050565b6000602082019050818103600083015261424081613f0a565b9050919050565b6000602082019050818103600083015261426081613f2d565b9050919050565b600060c08201905061427c6000830184613f50565b92915050565b60006020820190506142976000830184613fda565b92915050565b60006060820190506142b26000830186613fda565b6142bf6020830185613c32565b6142cc6040830184613c32565b949350505050565b60006080820190506142e96000830186613fda565b6142f66020830185613c32565b6143036040830184613cae565b818103606083015261431481613dac565b9050949350505050565b60006040820190506143336000830184613fda565b818103602083015261434481613dac565b905092915050565b60006040820190506143616000830184613fda565b818103602083015261437281613e7e565b905092915050565b600060608201905061438f6000830185613fda565b61439c6020830184613fda565b81810360408301526143ad81613dac565b90509392505050565b600060e0820190506143cb600083018a613fda565b6143d86020830189613fda565b6143e56040830188613fda565b6143f26060830187613c32565b6143ff6080830186613fda565b61440c60a0830185613fda565b61441960c0830184613cae565b98975050505050505050565b600060a08201905061443a6000830188613fda565b6144476020830187613fda565b6144546040830186613fda565b6144616060830185613cae565b61446e6080830184613fda565b9695505050505050565b600060a08201905061448d6000830188613fda565b61449a6020830187613fda565b6144a76040830186613fda565b6144b46060830185613cbd565b6144c16080830184613fda565b9695505050505050565b60006080820190506144e06000830186613fda565b6144ed6020830185613fda565b6144fa6040830184613fda565b818103606083015261450b81613dac565b9050949350505050565b600060808201905061452a6000830187613fda565b6145376020830186613fda565b6145446040830185613fda565b6145516060830184613fda565b95945050505050565b600060408201905061456f6000830184613fe9565b818103602083015261458081613dac565b905092915050565b60006145926145a3565b905061459e8282614781565b919050565b6000604051905090565b600067ffffffffffffffff8211156145c8576145c76148b7565b5b6145d1826148fa565b9050602081019050919050565b6000819050602082019050919050565b600081519050919050565b600081519050919050565b6000602082019050919050565b600082825260208201905092915050565b600081905092915050565b600082825260208201905092915050565b6000614649826146ba565b9150614654836146ba565b925082821015614667576146666147fb565b5b828203905092915050565b600061467d8261469a565b9050919050565b60008115159050919050565b6000819050919050565b600073ffffffffffffffffffffffffffffffffffffffff82169050919050565b6000819050919050565b600060ff82169050919050565b60006146dc826146c4565b9050919050565b82818337600083830152505050565b60005b838110156147105780820151818401526020810190506146f5565b8381111561471f576000848401525b50505050565b6000614730826146ba565b91506000821415614744576147436147fb565b5b600182039050919050565b6000600282049050600182168061476757607f821691505b6020821081141561477b5761477a61482a565b5b50919050565b61478a826148fa565b810181811067ffffffffffffffff821117156147a9576147a86148b7565b5b80604052505050565b60006147bd826146ba565b91507fffffffffffffffffffffffffffffffffffffffffffffffffffffffffffffffff8214156147f0576147ef6147fb565b5b600182019050919050565b7f4e487b7100000000000000000000000000000000000000000000000000000000600052601160045260246000fd5b7f4e487b7100000000000000000000000000000000000000000000000000000000600052602260045260246000fd5b7f4e487b7100000000000000000000000000000000000000000000000000000000600052603160045260246000fd5b7f4e487b7100000000000000000000000000000000000000000000000000000000600052603260045260246000fd5b7f4e487b7100000000000000000000000000000000000000000000000000000000600052604160045260246000fd5b600080fd5b600080fd5b600080fd5b600080fd5b6000601f19601f8301169050919050565b7f43616c6c6572206973206e6f7420696e76697465640000000000000000000000600082015250565b7f43616c6c6572206973206f776e65720000000000000000000000000000000000600082015250565b7f4e6f7420616e20656d706c6f7965652074797065000000000000000000000000600082015250565b7f43616c6c6572206973206e6f74206f776e657200000000000000000000000000600082015250565b7f46616d696c792065786973747300000000000000000000000000000000000000600082015250565b7f7375636365737300000000000000000000000000000000000000000000000000600082015250565b7f416c726561647920696e7669746174696f6e20636f6465206578697374730000600082015250565b7f496e697469616c20436f75706f6e7320616c7265616479206973737565640000600082015250565b7f456d706c6f796565202052656769737465726564000000000000000000000000600082015250565b7f446f63756d656e7420616c726561647920657869737473000000000000000000600082015250565b7f436f75706f6e2063616e206e6f742062652072656465656d6564000000000000600082015250565b7f6661696c75726500000000000000000000000000000000000000000000000000600082015250565b7f496e76616c6964207374617475732070726f7669646564000000000000000000600082015250565b7f4e6f7420746865206f776e6572206f662074686520746f6b656e000000000000600082015250565b7f456d706c6f796565204e6f742052656769737465726564000000000000000000600082015250565b7f64656c6574656400000000000000000000000000000000000000000000000000600082015250565b7f46616d696c79206d656d626572732073686f756c64206265206d6f726520746860008201527f616e203000000000000000000000000000000000000000000000000000000000602082015250565b614bf381614672565b8114614bfe57600080fd5b50565b614c0a81614690565b8114614c1557600080fd5b50565b614c21816146ba565b8114614c2c57600080fd5b50565b614c38816146c4565b8114614c4357600080fd5b5056fea26469706673582212200627d78b9f74b14705e65ac0ace8fd947b1dc66f3f5f2b411aa7f331af61271664736f6c63430008050033",
  "immutableReferences": {},
  "source": "// SPDX-License-Identifier: GPL-3.0\n\npragma solidity >=0.7.0 <0.9.0;\n\n\n/**\n * @title Owner\n * @dev Set & change owner\n */\ncontract Owner {\n\n    address private owner;\n    \n    // event for EVM logging\n    event OwnerSet(address indexed oldOwner, address indexed newOwner);\n    \n    // modifier to check if caller is owner\n    modifier isOwner() {\n        // If the first argument of 'require' evaluates to 'false', execution terminates and all\n        // changes to the state and to Ether balances are reverted.\n        // This used to consume all gas in old EVM versions, but not anymore.\n        // It is often a good idea to use 'require' to check if functions are called correctly.\n        // As a second argument, you can also provide an explanation about what went wrong.\n        require(msg.sender == owner, \"Caller is not owner\");\n        _;\n    }\n    \n    modifier notOwner() {\n       require(msg.sender != owner, \"Caller is owner\");\n        _; \n    }\n    \n    /**\n     * @dev Set contract deployer as owner\n     */\n    constructor() {\n        owner = msg.sender; // 'msg.sender' is sender of current call, contract deployer for a constructor\n        emit OwnerSet(address(0), owner);\n    }\n\n    /**\n     * @dev Change owner\n     * @param newOwner address of new owner\n     */\n    function changeOwner(address newOwner) public isOwner {\n        emit OwnerSet(owner, newOwner);\n        owner = newOwner;\n    }\n\n    /**\n     * @dev Return owner address \n     * @return address of owner\n     */\n    function getOwner() external view returns (address) {\n        return owner;\n    }\n}\n\ncontract UserInvite is Owner{ \n\n\n    \n    struct Invitation { \n        uint id;\n        uint invtype;\n    }\n    \n    event delinvitee (\n        string  msg\n        );\n        \n    event InvitationAdded(string msg);\n\n    mapping (uint => Invitation) internal invitationById;\n    uint[] internal invitees;\n    \n    modifier isInvited(uint _code, uint _id, uint _usertype) {\n        // If the first argument of 'require' evaluates to 'false', execution terminates and all\n        // changes to the state and to Ether balances are reverted.\n        // This used to consume all gas in old EVM versions, but not anymore.\n        // It is often a good idea to use 'require' to check if functions are called correctly.\n        // As a second argument, you can also provide an explanation about what went wrong.\n        require(invitationById[_code].id == _id && invitationById[_code].invtype == _usertype, \"Caller is not invited\");\n        _;\n    }\n\n    function find(uint value) private view returns(uint) {\n        uint i = 0;\n        while (invitees[i] != value) {\n            i++;\n        }\n        return i;\n    }\n\n    function removeByValue(uint value) private {\n        uint i = find(value);\n        removeByIndex(i);\n    }\n\n    function removeByIndex(uint i) private {\n            invitees[i] = invitees[invitees.length -1];\n            invitees.pop();\n        }\n    \n    \n    function addInvitation(uint _code, uint _id, uint _usertype) public isOwner { \n        require(invitationById[_code].id == 0, \"Already invitation code exists\");\n        invitationById[_code].id = _id;\n        invitationById[_code].invtype = _usertype;\n        \n        invitees.push(_id);\n        emit InvitationAdded(\"success\");\n    }\n    \n    function deleteInvitation(uint _code, uint _id) internal {\n         delete invitationById[_code];\n         removeByValue(_id);\n         emit delinvitee(\"deleted\");\n    }\n    \n    function getInvitations() public isOwner view returns (uint[] memory)  {\n        return invitees;\n    }\n    \n}\n\ncontract EmployeeBase is UserInvite { \n\n    struct Employee { \n        uint id;\n        uint empid; //empid provided by HR\n        uint maxfamilycount; //maximum number of family members that can register\n        uint initialCouponCount;\n        uint extraCouponCount;\n        bool active;\n    }\n\n    struct Family {\n      uint id;\n      uint empId;\n      uint count;\n      bool active;\n      uint activeMembers;\n    }\n\n    \n  \n  struct Member {\n      uint id;\n      uint empId;\n      uint familyId;\n      address owner;\n      uint initialCouponCount;\n      uint extraCouponCount;\n      bool active;\n   }\n    event empRegistration(uint employeesCounter, string msg);\n    event empFamilyRegistration(uint familyCounter, string msg);\n    event memberRegistration (uint memberCounter, string msg);\n    \n    uint employeesCounter;\n    uint familyCounter;\n    uint memberCounter;\n    \n    mapping (address => Employee) internal employees;\n    mapping (uint => address) internal employeeIndexToOwner;\n    mapping (uint => uint) internal employeeIDtoIndex;\n\n    //family\n    mapping(uint => Family) public EmployeeFamily;\n\n    //Family Member\n    mapping (address => Member) internal familyMembers;\n    mapping (uint => mapping(uint => Member )) EmployeeToFamilyMembers;\n    mapping (uint => Member[]) public EmployeeFamilyMembers;\n    mapping (address => uint ) memberAddressToEmployeeId;\n    uint[] public registeredEmployees;\n    \n    //Employee Coupons\n    mapping (uint => mapping(uint => uint[] )) internal EmployeeToCoupons;\n    \n    //Member Coupons\n    mapping (uint => mapping(uint => uint[] )) internal MemberToCoupons;\n    \n    //Employee Doctor Visit, e.g empDoctorVisists[601][0] = 1 (visitId)\n    mapping(address => uint[]) public empDoctorVisists;\n    \n    constructor() {\n        employeesCounter = 0;\n        memberCounter = 0;\n        familyCounter = 0;\n    }\n\n    function isEmployee(uint _type) private pure returns (bool) {\n        if (_type ==1) {\n            return true;\n        }\n        else {\n            return false;\n        }\n    }\n    \n    \n    modifier isRegisteredEmployee(address _address) {\n        // If the first argument of 'require' evaluates to 'false', execution terminates and all\n        // changes to the state and to Ether balances are reverted.\n        // This used to consume all gas in old EVM versions, but not anymore.\n        // It is often a good idea to use 'require' to check if functions are called correctly.\n        // As a second argument, you can also provide an explanation about what went wrong.\n        require(employees[_address].active == true, \"Employee Not Registered\");\n        _;\n    }\n    \n    modifier isNotRegistered(address _address) {\n        require(employees[_address].active == false, \"Employee  Registered\");\n        _;\n    }\n\n    //function can be called by User with an invitation on the system\n    function registerEmployee(uint _empid, uint _maxfamilycount, uint _code, uint _usertype ) public notOwner isInvited(_code,_empid, _usertype) isNotRegistered(msg.sender) {\n        require(isEmployee(_usertype), \"Not an employee type\");\n        employeesCounter ++;\n        employees[msg.sender] = Employee(employeesCounter, _empid, _maxfamilycount,0,0,true);\n        registeredEmployees.push(_empid);\n        employeeIndexToOwner[employeesCounter] = msg.sender;\n        employeeIDtoIndex[_empid] = employeesCounter;\n        deleteInvitation(_code,_empid);\n        registerFamily(_empid, _maxfamilycount, msg.sender);\n        emit empRegistration(employeesCounter, \"success\");\n    }\n\n    function getEmployee(address _address) internal view returns (Employee storage){\n        return( employees[_address]);\n    }\n    \n    function getMember(address _address) internal view returns (Member storage){\n        return( familyMembers[_address]);\n    }\n    \n\n    function registerFamily(uint _empId, uint _count, address _address) internal isRegisteredEmployee(_address) {\n        require(_count > 0, \"Family members should be more than 0\");\n        require(!familyExists(_empId), \"Family exists\");\n        familyCounter ++;\n        Family memory _family = Family(familyCounter, _empId, _count, true, 0);\n        EmployeeFamily[_empId] = _family;\n        \n        emit empFamilyRegistration(familyCounter, \"success\");\n\n    }\n\n    function registerFamilyMember(uint _empId,uint _familyId, address _address) public isRegisteredEmployee(msg.sender) {\n              memberCounter ++;\n              Member memory _member = Member(memberCounter, _empId, _familyId, _address,0,0, true);\n              familyMembers[_address] = _member;\n              EmployeeToFamilyMembers[_empId][memberCounter] = _member;\n              EmployeeFamilyMembers[_empId].push(_member);\n              memberAddressToEmployeeId[_address] = _empId;\n              Family memory _family = EmployeeFamily[_empId];\n              _family.activeMembers ++;\n              EmployeeFamily[_empId] = _family;\n              emit memberRegistration(memberCounter, \"success\");\n    }\n  \n  function familyExists(uint _empId) private view returns(bool){\n      if (EmployeeFamily[_empId].active == true ) {\n          return true;\n      }\n      else {\n          return false;\n      }\n      \n  }\n    \n}\n\ncontract DoctorBase is UserInvite { \n    struct Doctor { \n        uint id;\n        uint doctorid;\n        string specialty;\n        uint8 couponcoeficient;\n        bool active;\n    }\n    \n    uint internal doctorsCounter;\n    \n    mapping (address => Doctor) internal doctors;\n    mapping (uint => address) internal doctorIndexToOwner;\n    mapping (uint => bytes32) internal doctorIndexToKeyHash;\n    uint[] internal registeredDoctors;\n    \n    //events \n    event doctorregistration (uint id, string msg);\n    \n    constructor() {\n        doctorsCounter = 0;\n    }\n\n    function isDoctor(uint _type) private pure returns (bool) {\n        if (_type ==2) {\n            return true;\n        }\n        else {\n            return false;\n        }\n    }\n    \n    //function can be called by User with an invitation on the system\n    function registerDoctor(uint _doctorid, string memory _speciality, uint _code, uint _usertype, uint8 _couponcoeficient) public isInvited(_code,_doctorid, _usertype) notOwner{\n        require(isDoctor(_usertype), \"Not a Doctor type\");\n        doctorsCounter ++;\n        bytes32 _keyhash = sha256(abi.encodePacked(doctorsCounter+_doctorid));\n        doctorIndexToKeyHash[doctorsCounter] = _keyhash;\n        doctors[msg.sender] = Doctor(doctorsCounter, _doctorid, _speciality,_couponcoeficient, true);\n        registeredDoctors.push(_doctorid);\n        doctorIndexToOwner[_doctorid] = msg.sender;\n        deleteInvitation(_code,_doctorid);\n        emit doctorregistration(doctorsCounter, \"success\");\n    }\n\n    function getDoctor(address _address) internal view returns (uint, uint, string memory, uint8, bool ){\n        return( doctors[_address].doctorid, doctors[_address].id, doctors[_address].specialty ,doctors[_address].couponcoeficient,doctors[_address].active);\n    }\n    function getDoctor(uint _id) internal view returns(bytes32 _keyhash) {\n        return doctorIndexToKeyHash[_id];\n    }\n}\n\ncontract Coupon is Owner {\n    \n  address owner;\n  uint8 value;\n  uint8 empCouponMax;\n  uint couponPayAmount;\n  uint couponCount; \n  uint couponExchangedCount;\n  uint couponRedeemedCount;\n  uint couponPaidCount;\n  uint year;\n  \n  struct CouponPaper {\n    uint id;\n    address owner;\n    address beneficiary;\n    //add empID to track coupons for family members\n    uint value;\n    string status;\n    bool valid;\n    bool approved;\n  } \n  \n  event CouponPaperCreated(\n    uint id,\n    address owner,\n    bool valid,\n    string msg\n  );\n  \n  \n  mapping(uint => CouponPaper) internal coupons;\n  mapping(address => uint) internal ownershipToCouponCount;\n  //Filled when new coupon is created\n  mapping(uint => address) internal couponIndexToOwner;\n  //Filled when new coupon is exchanged\n  mapping(uint => address) internal couponIndexToOwnerExchanged;\n  //Filled when new coupon is redeemed\n  mapping(uint => address) internal couponIndexToOwnerRedeeemed;\n  //Track coupon status\n  mapping(uint => uint8) internal couponIndexToStatus;\n  \n  //Filled when a coupon is used in DoctorVisit\n  mapping(uint => bool) couponIndexToDoctorVisit;\n  \n  //Stores the balances to be paid for the employee;\n  mapping(address => uint) balances;\n  \n  constructor() {\n    owner = msg.sender;\n    couponCount = 0;\n    value = 1;\n    empCouponMax = 5;\n    couponPayAmount = 60000;\n  }\n  \n    function setGlobalParameters(uint8 _value, uint8 _maxcoupons, uint _paidamount,uint _year) public isOwner {\n        value = _value;\n        empCouponMax = _maxcoupons;\n        couponPayAmount = _paidamount;\n        year = _year;\n        \n    }\n  \n\n    function issueCoupon(address _couponowner, address _couponbeneficiary ) internal returns(uint _couponId) {\n    couponCount ++;\n    coupons[couponCount] = CouponPaper(couponCount,_couponowner, _couponbeneficiary, value, \"created\", true, false);\n    ownershipToCouponCount[_couponowner] ++;\n    couponIndexToOwner[couponCount] = _couponowner;\n    couponIndexToStatus[couponCount] = 1;\n    emit CouponPaperCreated(couponCount, _couponowner, true, \"success\");\n    return couponCount;\n    \n    }\n    \n    function _transfer(address _from, address _to, uint _couponId) internal {\n        CouponPaper storage _coupon = coupons[_couponId];\n        _coupon.owner = _to;\n        ownershipToCouponCount[_to] ++;\n        ownershipToCouponCount[_from] --;\n        couponIndexToOwner[couponCount] = _to;\n    }\n\n    function _owns(address _address, uint _couponId) internal view returns (bool) {\n        return(coupons[_couponId].owner == _address);\n    }\n    \n    function _usedInDoctorVisit(uint _couponId) internal view returns (bool) {\n        return (couponIndexToDoctorVisit[_couponId]);\n    }\n    \n    function _isBeneficiary(address _address, uint _couponId) internal view returns (bool) {\n        return(coupons[_couponId].beneficiary == _address);\n    }\n    \n    //coupon status is exchanged\n    function _readyToBeRedeemed(uint _couponId) internal view returns (bool) {\n       return((couponIndexToOwnerExchanged[_couponId] > address(0)) && (couponIndexToStatus[_couponId] == 2));\n    }\n    \n  \n    function getCouponById(uint _couponId) public isOwner view returns(uint, address, address) { \n    \n        return (coupons[_couponId].id, coupons[_couponId].owner, coupons[_couponId].beneficiary);\n    }\n    \n    function getCoupon(uint _couponId) internal isOwner view returns(CouponPaper storage){\n        return coupons[_couponId];\n    }\n\n    function couponBalanceOf(address _address) internal view returns (uint count) {\n        return ownershipToCouponCount[_address];\n    }\n\n    function totalCoupons() internal view returns (uint count) {\n        return couponCount;\n        \n    }\n\n    function totalCouponsByStatus(uint8 _status) internal view returns (uint countExchanged) {\n        require(_status < 5 && _status >0, \"Invalid status provided\");\n        //1 - created, 2- exchanged, 3-redeemed, 4-paid\n        if (_status == 1) return couponCount;\n        if (_status == 2) return couponExchangedCount;\n        if (_status == 3) return couponRedeemedCount;\n        if (_status == 4) return couponPaidCount;\n    }\n\n    function getCouponsByStatus(uint8 _status) external view returns (uint256[] memory statusCoupons) {\n        \n        uint256 count = totalCouponsByStatus(_status);\n        if (count == 0) {\n            return new uint256[](0);\n        }\n        else {\n            uint256[] memory result = new uint256[](count);\n            uint256 total = totalCoupons();\n            uint256 resultIndex = 0;\n            //we count all coupons\n            uint256 couponId;\n\n            for (couponId = 1; couponId <= total; couponId++) {\n                if (couponIndexToStatus[couponId] == _status) {\n                    result[resultIndex] = couponId;\n                    resultIndex++;\n                }\n            }\n\n            return result;\n        }\n\n    }\n\n    \n    function getCouponsByOwner(address _owner) external view returns (uint256[] memory ownerCoupons) {\n        uint256 count = couponBalanceOf(_owner);\n        if (count == 0) {\n            return new uint[](0);\n        }\n        else {\n            uint256[] memory result = new uint256[](count);\n            uint256 total = totalCoupons();\n            uint256 resultIndex = 0;\n            //we count all coupons\n            uint256 couponId;\n\n            for (couponId = 1; couponId <= total; couponId++) {\n                if (couponIndexToOwner[couponId] == _owner) {\n                    result[resultIndex] = couponId;\n                    resultIndex++;\n                }\n            }\n\n            return result;\n        }\n\n    }\n    \n    \n  \n  \n}\n\ncontract DoctorVisitBase {\n  uint public visitCount; \n\n  struct Visit {\n    uint id;\n    uint empId;\n    uint couponId;\n    uint doctorId;\n  }\n\n  event VisitCreated (\n    uint id,\n    uint empId,\n    uint couponId,\n    string msg\n  );\n\n  //visits  mapping incremental\n  mapping(uint => Visit) public visits;\n  //mapping visitDocumentIndex to Visit ID;\n  mapping (uint => uint) DoctorVisitIndexToDocumentId;\n\n  constructor() {\n    visitCount = 0;\n  }\n\n  function createVisit(uint _empId, uint _couponId, uint _doctorId) internal returns(uint visitId) {\n    visitCount ++;\n    Visit memory _visit;\n    _visit = Visit(visitCount, _empId, _couponId, _doctorId);\n    visits[visitCount] = _visit;\n    emit VisitCreated(visitCount, _empId, _couponId, \"success\");\n    return visits[visitCount].id;\n  }\n  \n  function getDoctorVisit(uint _visitid) public view returns (uint visitid, uint empid, uint couponid, uint doctorid) {\n      return (visits[_visitid].id,visits[_visitid].empId,visits[_visitid].couponId,visits[_visitid].doctorId);\n  }\n\n}\n\ncontract VisitDocumentBase is DoctorVisitBase { \n  uint public VisitDocumentCount;\n\n  struct VisitDoc { \n    uint id; \n    uint _doctorvisitId;\n    uint _empId;\n    bytes32 _docHash;\n    uint flag; //flag is one when created by the contract\n  }\n\n  event VisitDocumentAddition (\n    uint documentID,\n    string msg\n  );\n  mapping (uint => VisitDoc ) public VisitDocuments;\n  mapping (bytes32 => uint ) public VisitDocumentBasehash;\n  \n\n  constructor() {\n    VisitDocumentCount = 0;\n  }\n\n  function addVisitDocument(uint _doctorvisitId, uint _empId,bytes32 _docHash) internal returns(uint documentId) {\n     require(!_documentExists(_docHash), \"Document already exists\"); //check if document hash already exists\n        VisitDocumentCount ++;\n        VisitDocuments[VisitDocumentCount] = VisitDoc(VisitDocumentCount, _doctorvisitId, _empId, _docHash, 1);\n        VisitDocumentBasehash[_docHash] = VisitDocumentCount; \n        DoctorVisitIndexToDocumentId[_doctorvisitId] = VisitDocumentCount;\n        emit VisitDocumentAddition(VisitDocumentCount, \"success\");\n        return VisitDocuments[VisitDocumentCount].id;\n  }\n  \n  function _documentExists(bytes32 _docHash) public view returns (bool) {\n      if(VisitDocumentBasehash[_docHash] > 0) {\n        return true;\n      }\n      else {\n        return false;\n      }\n  }\n  \n}\n\n\n\ncontract EmployeeCore is Coupon,EmployeeBase,VisitDocumentBase {\n    \n    event EmployeeCouponGeneration(uint initialCouponCount, string msg);\n    event MemberCouponGeneration(uint initialCouponCount, string msg);\n    event couponExchanged(uint _couponId, string msg);\n    event doctorVisited(uint visitid, uint documentid, string msg);\n    \n    //get Employee info\n    function getEmployeeInfo(address _employee) external isRegisteredEmployee(msg.sender) view returns (Employee memory) {\n        return getEmployee(_employee);\n    }\n    //issue inital coupons\n    function employeeIssueCoupons() public isRegisteredEmployee(msg.sender) {\n        require((employees[msg.sender].initialCouponCount == 0), \"Initial Coupons already issued\");\n        Employee storage _employee = getEmployee(msg.sender);\n            for (uint i =1; i <= empCouponMax; i++)\n            {\n            //Employee is the owner and beneficiary of his initial coupons\n            EmployeeToCoupons[_employee.empid][year].push(issueCoupon(msg.sender,msg.sender));\n            _employee.initialCouponCount ++;\n            }\n            if ((_employee.initialCouponCount) == empCouponMax) {\n                emit EmployeeCouponGeneration(empCouponMax, \"success\");\n            }\n            else { \n                emit EmployeeCouponGeneration(_employee.initialCouponCount, \"failure\");\n            }\n        \n\n    }\n    \n    function employeeIssueMembersCoupons(address _memberaddress) public isRegisteredEmployee(msg.sender) {\n        require((familyMembers[_memberaddress].initialCouponCount == 0), \"Initial Coupons already issued\");\n        Member storage _member = getMember(_memberaddress);\n            for (uint i =1; i <= empCouponMax; i++)\n            {\n            //Employee is the owner and beneficiary of his initial coupons\n            MemberToCoupons[_member.id][year].push(issueCoupon(_memberaddress,msg.sender));\n            _member.initialCouponCount ++;\n            }\n            if ((_member.initialCouponCount) == empCouponMax) {\n                emit MemberCouponGeneration(empCouponMax, \"success\");\n            }\n            else { \n                emit MemberCouponGeneration(_member.initialCouponCount, \"failure\");\n            }\n        \n\n    }\n    \n     function exchangeCoupon(uint _couponId, address _owner) public isRegisteredEmployee(msg.sender) {\n        require(_owns(_owner, _couponId), \"Not the owner of the token\");\n         CouponPaper memory _coupon = coupons[_couponId]; \n         _coupon.status = \"Exchanged\";\n         //_coupon.beneficiary = _coupon.owner;\n         //_coupon.owner = owner;\n         coupons[_couponId] = _coupon;\n         couponIndexToStatus[_couponId] = 2;\n         couponExchangedCount ++;\n         couponIndexToOwnerExchanged[_couponId] = _owner;\n         delete couponIndexToOwner[_couponId];\n    }\n    \n    function redeemCoupon(uint _couponId, address _owner) public isRegisteredEmployee(msg.sender) {\n        require(_owns(_owner, _couponId), \"Not the owner of the token\");\n        require(_readyToBeRedeemed(_couponId), \"Coupon can not be redeemed\");\n         CouponPaper memory _coupon = coupons[_couponId]; \n         _coupon.status = \"Redeemed\";\n         couponIndexToStatus[couponCount] = 3;\n         couponExchangedCount --;\n         couponRedeemedCount ++;\n         //_coupon.beneficiary = owner;\n        coupons[_couponId] = _coupon;\n        couponIndexToOwnerRedeeemed[_couponId] = msg.sender;\n        delete couponIndexToOwnerExchanged[_couponId];\n    }\n    \n    function visitDoctor(uint empid, uint couponid, uint doctorid, string memory _md5, address _address) public isRegisteredEmployee(msg.sender){\n            //employee should have a family relation with _address\n            //visit doctor\n            uint _visitId = createVisit(empid, couponid, doctorid);\n            couponIndexToDoctorVisit[couponid] = true;\n            empDoctorVisists[msg.sender].push(_visitId);\n            //submit document\n            bytes32 _docHash = sha256(bytes(_md5));\n            uint _documentId = addVisitDocument(doctorid, empid, _docHash);\n            // then exchange Coupon\n            exchangeCoupon(couponid, _address);\n            emit doctorVisited( _visitId, _documentId, \"success\");\n    }\n}\n\ncontract HRManager is Coupon,EmployeeBase,DoctorBase {\n    mapping(uint => bool) public couponIndexApproved;\n\n    event approveCoupon(uint couponid, string msg);\n    event paidCoupon(uint _couponId, string msg);\n    event DoctorPricing(string msg);\n\n    function approveCouponRedemption(uint _couponId) public isOwner {\n        require(_readyToBeRedeemed(_couponId), \"Coupon can not be redeemed\");\n        require(!couponIndexApproved[_couponId], \"Coupon already approved\");\n        CouponPaper storage _coupon = coupons[_couponId]; \n         _coupon.approved = true;\n         couponIndexApproved[_couponId] = true;\n         emit approveCoupon(_couponId, \"success\");\n    }\n    \n    function prepareCouponPayment(uint _couponId) public isOwner {\n        CouponPaper storage _coupon = coupons[_couponId]; \n        _coupon.valid = false;\n        _coupon.status = \"Paid\";\n        _coupon.beneficiary = _coupon.owner;\n        _coupon.owner = owner;\n        couponIndexToStatus[couponCount] = 4;\n        couponRedeemedCount --;\n        couponPaidCount ++;\n        uint _balance = balances[_coupon.owner];\n        balances[_coupon.owner] = _balance + couponPayAmount;\n\n        emit paidCoupon(_couponId, \"success\");\n        \n    }\n}\n \ncontract MyNet is EmployeeCore,DoctorBase,HRManager {\n    string name;\n\n    constructor() {\n        name = \"MyNet Contract is initialised\";\n    }\n\n    \n    \n}\n",
  "sourcePath": "/Users/wissamdagher/Documents/Developer/blockchain/CouponMedNet/src/contracts/UserManager.sol",
  "compiler": {
    "name": "solc",
    "version": "0.8.5+commit.a4f2e591.Emscripten.clang"
  },
  "schemaVersion": "3.4.1",
  "updatedAt": "2021-06-17T19:08:27.868Z",
  "devdoc": {
    "kind": "dev",
    "methods": {
      "changeOwner(address)": {
        "details": "Change owner",
        "params": {
          "newOwner": "address of new owner"
        }
      },
      "getOwner()": {
        "details": "Return owner address ",
        "returns": {
          "_0": "address of owner"
        }
      }
    },
    "version": 1
  },
  "userdoc": {
    "kind": "user",
    "methods": {},
    "version": 1
  }
}