{
  "contractName": "MyNet",
  "abi": [
    {
      "inputs": [],
      "stateMutability": "nonpayable",
      "type": "constructor"
    },
    {
      "anonymous": false,
      "inputs": [
        {
          "indexed": false,
          "internalType": "uint256",
          "name": "id",
          "type": "uint256"
        },
        {
          "indexed": false,
          "internalType": "address",
          "name": "owner",
          "type": "address"
        },
        {
          "indexed": false,
          "internalType": "bool",
          "name": "valid",
          "type": "bool"
        },
        {
          "indexed": false,
          "internalType": "string",
          "name": "msg",
          "type": "string"
        }
      ],
      "name": "CouponPaperCreated",
      "type": "event"
    },
    {
      "anonymous": false,
      "inputs": [
        {
          "indexed": false,
          "internalType": "uint256",
          "name": "initialCouponCount",
          "type": "uint256"
        },
        {
          "indexed": false,
          "internalType": "string",
          "name": "msg",
          "type": "string"
        }
      ],
      "name": "EmployeeCouponGeneration",
      "type": "event"
    },
    {
      "anonymous": false,
      "inputs": [
        {
          "indexed": false,
          "internalType": "uint256",
          "name": "value",
          "type": "uint256"
        },
        {
          "indexed": false,
          "internalType": "uint256",
          "name": "maxcoupons",
          "type": "uint256"
        },
        {
          "indexed": false,
          "internalType": "uint256",
          "name": "paidamount",
          "type": "uint256"
        },
        {
          "indexed": false,
          "internalType": "uint256",
          "name": "year",
          "type": "uint256"
        },
        {
          "indexed": false,
          "internalType": "string",
          "name": "msg",
          "type": "string"
        }
      ],
      "name": "GlobalParametersSet",
      "type": "event"
    },
    {
      "anonymous": false,
      "inputs": [
        {
          "indexed": false,
          "internalType": "string",
          "name": "msg",
          "type": "string"
        }
      ],
      "name": "InvitationAdded",
      "type": "event"
    },
    {
      "anonymous": false,
      "inputs": [
        {
          "indexed": false,
          "internalType": "uint256",
          "name": "initialCouponCount",
          "type": "uint256"
        },
        {
          "indexed": false,
          "internalType": "string",
          "name": "msg",
          "type": "string"
        }
      ],
      "name": "MemberCouponGeneration",
      "type": "event"
    },
    {
      "anonymous": false,
      "inputs": [
        {
          "indexed": true,
          "internalType": "address",
          "name": "oldOwner",
          "type": "address"
        },
        {
          "indexed": true,
          "internalType": "address",
          "name": "newOwner",
          "type": "address"
        }
      ],
      "name": "OwnerSet",
      "type": "event"
    },
    {
      "anonymous": false,
      "inputs": [
        {
          "indexed": false,
          "internalType": "uint256",
          "name": "id",
          "type": "uint256"
        },
        {
          "indexed": false,
          "internalType": "uint256",
          "name": "empId",
          "type": "uint256"
        },
        {
          "indexed": false,
          "internalType": "uint256",
          "name": "couponId",
          "type": "uint256"
        },
        {
          "indexed": false,
          "internalType": "string",
          "name": "msg",
          "type": "string"
        }
      ],
      "name": "VisitCreated",
      "type": "event"
    },
    {
      "anonymous": false,
      "inputs": [
        {
          "indexed": false,
          "internalType": "uint256",
          "name": "documentID",
          "type": "uint256"
        },
        {
          "indexed": false,
          "internalType": "string",
          "name": "msg",
          "type": "string"
        }
      ],
      "name": "VisitDocumentAddition",
      "type": "event"
    },
    {
      "anonymous": false,
      "inputs": [
        {
          "indexed": false,
          "internalType": "uint256",
          "name": "couponid",
          "type": "uint256"
        },
        {
          "indexed": false,
          "internalType": "string",
          "name": "msg",
          "type": "string"
        }
      ],
      "name": "approveCoupon",
      "type": "event"
    },
    {
      "anonymous": false,
      "inputs": [
        {
          "indexed": false,
          "internalType": "uint256",
          "name": "_couponId",
          "type": "uint256"
        },
        {
          "indexed": false,
          "internalType": "string",
          "name": "msg",
          "type": "string"
        }
      ],
      "name": "couponExchanged",
      "type": "event"
    },
    {
      "anonymous": false,
      "inputs": [
        {
          "indexed": false,
          "internalType": "uint256",
          "name": "couponId",
          "type": "uint256"
        },
        {
          "indexed": false,
          "internalType": "string",
          "name": "msg",
          "type": "string"
        }
      ],
      "name": "couponRedeemed",
      "type": "event"
    },
    {
      "anonymous": false,
      "inputs": [
        {
          "indexed": false,
          "internalType": "string",
          "name": "msg",
          "type": "string"
        }
      ],
      "name": "delinvitee",
      "type": "event"
    },
    {
      "anonymous": false,
      "inputs": [
        {
          "indexed": false,
          "internalType": "uint256",
          "name": "visitid",
          "type": "uint256"
        },
        {
          "indexed": false,
          "internalType": "uint256",
          "name": "documentid",
          "type": "uint256"
        },
        {
          "indexed": false,
          "internalType": "string",
          "name": "msg",
          "type": "string"
        }
      ],
      "name": "doctorVisited",
      "type": "event"
    },
    {
      "anonymous": false,
      "inputs": [
        {
          "indexed": false,
          "internalType": "uint256",
          "name": "id",
          "type": "uint256"
        },
        {
          "indexed": false,
          "internalType": "string",
          "name": "msg",
          "type": "string"
        }
      ],
      "name": "doctorregistration",
      "type": "event"
    },
    {
      "anonymous": false,
      "inputs": [
        {
          "indexed": false,
          "internalType": "uint256",
          "name": "familyCounter",
          "type": "uint256"
        },
        {
          "indexed": false,
          "internalType": "string",
          "name": "msg",
          "type": "string"
        }
      ],
      "name": "empFamilyRegistration",
      "type": "event"
    },
    {
      "anonymous": false,
      "inputs": [
        {
          "indexed": false,
          "internalType": "uint256",
          "name": "employeesCounter",
          "type": "uint256"
        },
        {
          "indexed": false,
          "internalType": "string",
          "name": "msg",
          "type": "string"
        }
      ],
      "name": "empRegistration",
      "type": "event"
    },
    {
      "anonymous": false,
      "inputs": [
        {
          "indexed": false,
          "internalType": "uint256",
          "name": "memberCounter",
          "type": "uint256"
        },
        {
          "indexed": false,
          "internalType": "string",
          "name": "msg",
          "type": "string"
        }
      ],
      "name": "memberRegistration",
      "type": "event"
    },
    {
      "anonymous": false,
      "inputs": [
        {
          "indexed": false,
          "internalType": "uint256",
          "name": "_couponId",
          "type": "uint256"
        },
        {
          "indexed": false,
          "internalType": "string",
          "name": "msg",
          "type": "string"
        }
      ],
      "name": "paidCoupon",
      "type": "event"
    },
    {
      "inputs": [
        {
          "internalType": "uint256",
          "name": "",
          "type": "uint256"
        }
      ],
      "name": "EmployeeFamily",
      "outputs": [
        {
          "internalType": "uint256",
          "name": "id",
          "type": "uint256"
        },
        {
          "internalType": "uint256",
          "name": "empId",
          "type": "uint256"
        },
        {
          "internalType": "uint256",
          "name": "count",
          "type": "uint256"
        },
        {
          "internalType": "bool",
          "name": "active",
          "type": "bool"
        },
        {
          "internalType": "uint256",
          "name": "activeMembers",
          "type": "uint256"
        }
      ],
      "stateMutability": "view",
      "type": "function",
      "constant": true
    },
    {
      "inputs": [
        {
          "internalType": "uint256",
          "name": "",
          "type": "uint256"
        },
        {
          "internalType": "uint256",
          "name": "",
          "type": "uint256"
        }
      ],
      "name": "EmployeeFamilyMembers",
      "outputs": [
        {
          "internalType": "uint256",
          "name": "id",
          "type": "uint256"
        },
        {
          "internalType": "uint256",
          "name": "empId",
          "type": "uint256"
        },
        {
          "internalType": "uint256",
          "name": "familyId",
          "type": "uint256"
        },
        {
          "internalType": "address",
          "name": "owner",
          "type": "address"
        },
        {
          "internalType": "uint256",
          "name": "initialCouponCount",
          "type": "uint256"
        },
        {
          "internalType": "uint256",
          "name": "extraCouponCount",
          "type": "uint256"
        },
        {
          "internalType": "bool",
          "name": "active",
          "type": "bool"
        }
      ],
      "stateMutability": "view",
      "type": "function",
      "constant": true
    },
    {
      "inputs": [
        {
          "internalType": "bytes32",
          "name": "",
          "type": "bytes32"
        }
      ],
      "name": "VisitDocumentBasehash",
      "outputs": [
        {
          "internalType": "uint256",
          "name": "",
          "type": "uint256"
        }
      ],
      "stateMutability": "view",
      "type": "function",
      "constant": true
    },
    {
      "inputs": [],
      "name": "VisitDocumentCount",
      "outputs": [
        {
          "internalType": "uint256",
          "name": "",
          "type": "uint256"
        }
      ],
      "stateMutability": "view",
      "type": "function",
      "constant": true
    },
    {
      "inputs": [
        {
          "internalType": "uint256",
          "name": "",
          "type": "uint256"
        }
      ],
      "name": "VisitDocuments",
      "outputs": [
        {
          "internalType": "uint256",
          "name": "id",
          "type": "uint256"
        },
        {
          "internalType": "uint256",
          "name": "_doctorvisitId",
          "type": "uint256"
        },
        {
          "internalType": "uint256",
          "name": "_empId",
          "type": "uint256"
        },
        {
          "internalType": "bytes32",
          "name": "_docHash",
          "type": "bytes32"
        },
        {
          "internalType": "uint256",
          "name": "flag",
          "type": "uint256"
        }
      ],
      "stateMutability": "view",
      "type": "function",
      "constant": true
    },
    {
      "inputs": [
        {
          "internalType": "bytes32",
          "name": "_docHash",
          "type": "bytes32"
        }
      ],
      "name": "_documentExists",
      "outputs": [
        {
          "internalType": "bool",
          "name": "",
          "type": "bool"
        }
      ],
      "stateMutability": "view",
      "type": "function",
      "constant": true
    },
    {
      "inputs": [
        {
          "internalType": "uint256",
          "name": "_code",
          "type": "uint256"
        },
        {
          "internalType": "uint256",
          "name": "_id",
          "type": "uint256"
        },
        {
          "internalType": "uint256",
          "name": "_usertype",
          "type": "uint256"
        }
      ],
      "name": "addInvitation",
      "outputs": [],
      "stateMutability": "nonpayable",
      "type": "function"
    },
    {
      "inputs": [
        {
          "internalType": "uint256",
          "name": "_couponId",
          "type": "uint256"
        }
      ],
      "name": "approveCouponRedemption",
      "outputs": [],
      "stateMutability": "nonpayable",
      "type": "function"
    },
    {
      "inputs": [
        {
          "internalType": "address",
          "name": "newOwner",
          "type": "address"
        }
      ],
      "name": "changeOwner",
      "outputs": [],
      "stateMutability": "nonpayable",
      "type": "function"
    },
    {
      "inputs": [
        {
          "internalType": "uint256",
          "name": "",
          "type": "uint256"
        }
      ],
      "name": "couponIndexApproved",
      "outputs": [
        {
          "internalType": "bool",
          "name": "",
          "type": "bool"
        }
      ],
      "stateMutability": "view",
      "type": "function",
      "constant": true
    },
    {
      "inputs": [
        {
          "internalType": "address",
          "name": "",
          "type": "address"
        },
        {
          "internalType": "uint256",
          "name": "",
          "type": "uint256"
        }
      ],
      "name": "empDoctorVisists",
      "outputs": [
        {
          "internalType": "uint256",
          "name": "",
          "type": "uint256"
        }
      ],
      "stateMutability": "view",
      "type": "function",
      "constant": true
    },
    {
      "inputs": [],
      "name": "employeeIssueCoupons",
      "outputs": [],
      "stateMutability": "nonpayable",
      "type": "function"
    },
    {
      "inputs": [
        {
          "internalType": "address",
          "name": "_memberaddress",
          "type": "address"
        }
      ],
      "name": "employeeIssueMembersCoupons",
      "outputs": [],
      "stateMutability": "nonpayable",
      "type": "function"
    },
    {
      "inputs": [
        {
          "internalType": "uint256",
          "name": "_couponId",
          "type": "uint256"
        },
        {
          "internalType": "address",
          "name": "_owner",
          "type": "address"
        }
      ],
      "name": "exchangeCoupon",
      "outputs": [],
      "stateMutability": "nonpayable",
      "type": "function"
    },
    {
      "inputs": [
        {
          "internalType": "uint256",
          "name": "_couponId",
          "type": "uint256"
        }
      ],
      "name": "getCouponById",
      "outputs": [
        {
          "internalType": "uint256",
          "name": "id",
          "type": "uint256"
        },
        {
          "internalType": "address",
          "name": "",
          "type": "address"
        },
        {
          "internalType": "address",
          "name": "",
          "type": "address"
        },
        {
          "internalType": "string",
          "name": "status",
          "type": "string"
        }
      ],
      "stateMutability": "view",
      "type": "function",
      "constant": true
    },
    {
      "inputs": [
        {
          "internalType": "address",
          "name": "_owner",
          "type": "address"
        }
      ],
      "name": "getCouponsByOwner",
      "outputs": [
        {
          "internalType": "uint256[]",
          "name": "ownerCoupons",
          "type": "uint256[]"
        }
      ],
      "stateMutability": "view",
      "type": "function",
      "constant": true
    },
    {
      "inputs": [
        {
          "internalType": "uint256",
          "name": "_status",
          "type": "uint256"
        }
      ],
      "name": "getCouponsByStatus",
      "outputs": [
        {
          "internalType": "uint256[]",
          "name": "statusCoupons",
          "type": "uint256[]"
        }
      ],
      "stateMutability": "view",
      "type": "function",
      "constant": true
    },
    {
      "inputs": [
        {
          "internalType": "uint256",
          "name": "_visitid",
          "type": "uint256"
        }
      ],
      "name": "getDoctorVisit",
      "outputs": [
        {
          "internalType": "uint256",
          "name": "visitid",
          "type": "uint256"
        },
        {
          "internalType": "uint256",
          "name": "empid",
          "type": "uint256"
        },
        {
          "internalType": "uint256",
          "name": "couponid",
          "type": "uint256"
        },
        {
          "internalType": "uint256",
          "name": "doctorid",
          "type": "uint256"
        }
      ],
      "stateMutability": "view",
      "type": "function",
      "constant": true
    },
    {
      "inputs": [
        {
          "internalType": "address",
          "name": "_employee",
          "type": "address"
        }
      ],
      "name": "getEmployeeInfo",
      "outputs": [
        {
          "components": [
            {
              "internalType": "uint256",
              "name": "id",
              "type": "uint256"
            },
            {
              "internalType": "uint256",
              "name": "empid",
              "type": "uint256"
            },
            {
              "internalType": "uint256",
              "name": "maxfamilycount",
              "type": "uint256"
            },
            {
              "internalType": "uint256",
              "name": "initialCouponCount",
              "type": "uint256"
            },
            {
              "internalType": "uint256",
              "name": "extraCouponCount",
              "type": "uint256"
            },
            {
              "internalType": "bool",
              "name": "active",
              "type": "bool"
            }
          ],
          "internalType": "struct EmployeeBase.Employee",
          "name": "",
          "type": "tuple"
        }
      ],
      "stateMutability": "view",
      "type": "function",
      "constant": true
    },
    {
      "inputs": [],
      "name": "getInvitations",
      "outputs": [
        {
          "internalType": "uint256[]",
          "name": "",
          "type": "uint256[]"
        }
      ],
      "stateMutability": "view",
      "type": "function",
      "constant": true
    },
    {
      "inputs": [],
      "name": "getOwner",
      "outputs": [
        {
          "internalType": "address",
          "name": "",
          "type": "address"
        }
      ],
      "stateMutability": "view",
      "type": "function",
      "constant": true
    },
    {
      "inputs": [
        {
          "internalType": "uint256",
          "name": "_couponId",
          "type": "uint256"
        }
      ],
      "name": "prepareCouponPayment",
      "outputs": [],
      "stateMutability": "nonpayable",
      "type": "function"
    },
    {
      "inputs": [
        {
          "internalType": "uint256",
          "name": "_couponId",
          "type": "uint256"
        },
        {
          "internalType": "address",
          "name": "_owner",
          "type": "address"
        }
      ],
      "name": "redeemCoupon",
      "outputs": [],
      "stateMutability": "nonpayable",
      "type": "function"
    },
    {
      "inputs": [
        {
          "internalType": "uint256",
          "name": "_doctorid",
          "type": "uint256"
        },
        {
          "internalType": "string",
          "name": "_speciality",
          "type": "string"
        },
        {
          "internalType": "uint256",
          "name": "_code",
          "type": "uint256"
        },
        {
          "internalType": "uint256",
          "name": "_usertype",
          "type": "uint256"
        },
        {
          "internalType": "uint256",
          "name": "_couponcoeficient",
          "type": "uint256"
        }
      ],
      "name": "registerDoctor",
      "outputs": [],
      "stateMutability": "nonpayable",
      "type": "function"
    },
    {
      "inputs": [
        {
          "internalType": "uint256",
          "name": "_empid",
          "type": "uint256"
        },
        {
          "internalType": "uint256",
          "name": "_maxfamilycount",
          "type": "uint256"
        },
        {
          "internalType": "uint256",
          "name": "_code",
          "type": "uint256"
        },
        {
          "internalType": "uint256",
          "name": "_usertype",
          "type": "uint256"
        }
      ],
      "name": "registerEmployee",
      "outputs": [],
      "stateMutability": "nonpayable",
      "type": "function"
    },
    {
      "inputs": [
        {
          "internalType": "uint256",
          "name": "_empId",
          "type": "uint256"
        },
        {
          "internalType": "uint256",
          "name": "_familyId",
          "type": "uint256"
        },
        {
          "internalType": "address",
          "name": "_address",
          "type": "address"
        }
      ],
      "name": "registerFamilyMember",
      "outputs": [],
      "stateMutability": "nonpayable",
      "type": "function"
    },
    {
      "inputs": [
        {
          "internalType": "uint256",
          "name": "",
          "type": "uint256"
        }
      ],
      "name": "registeredEmployees",
      "outputs": [
        {
          "internalType": "uint256",
          "name": "",
          "type": "uint256"
        }
      ],
      "stateMutability": "view",
      "type": "function",
      "constant": true
    },
    {
      "inputs": [
        {
          "internalType": "uint256",
          "name": "_value",
          "type": "uint256"
        },
        {
          "internalType": "uint256",
          "name": "_maxcoupons",
          "type": "uint256"
        },
        {
          "internalType": "uint256",
          "name": "_paidamount",
          "type": "uint256"
        },
        {
          "internalType": "uint256",
          "name": "_year",
          "type": "uint256"
        }
      ],
      "name": "setGlobalParameters",
      "outputs": [],
      "stateMutability": "nonpayable",
      "type": "function"
    },
    {
      "inputs": [],
      "name": "visitCount",
      "outputs": [
        {
          "internalType": "uint256",
          "name": "",
          "type": "uint256"
        }
      ],
      "stateMutability": "view",
      "type": "function",
      "constant": true
    },
    {
      "inputs": [
        {
          "internalType": "uint256",
          "name": "empid",
          "type": "uint256"
        },
        {
          "internalType": "uint256",
          "name": "couponid",
          "type": "uint256"
        },
        {
          "internalType": "uint256",
          "name": "doctorid",
          "type": "uint256"
        },
        {
          "internalType": "string",
          "name": "_md5",
          "type": "string"
        },
        {
          "internalType": "address",
          "name": "_address",
          "type": "address"
        }
      ],
      "name": "visitDoctor",
      "outputs": [],
      "stateMutability": "nonpayable",
      "type": "function"
    },
    {
      "inputs": [
        {
          "internalType": "uint256",
          "name": "",
          "type": "uint256"
        }
      ],
      "name": "visits",
      "outputs": [
        {
          "internalType": "uint256",
          "name": "id",
          "type": "uint256"
        },
        {
          "internalType": "uint256",
          "name": "empId",
          "type": "uint256"
        },
        {
          "internalType": "uint256",
          "name": "couponId",
          "type": "uint256"
        },
        {
          "internalType": "uint256",
          "name": "doctorId",
          "type": "uint256"
        }
      ],
      "stateMutability": "view",
      "type": "function",
      "constant": true
    },
    {
      "inputs": [],
      "name": "getName",
      "outputs": [
        {
          "internalType": "string",
          "name": "_name",
          "type": "string"
        }
      ],
      "stateMutability": "view",
      "type": "function",
      "constant": true
    }
  ],
  "bytecode": "0x60806040523480156200001157600080fd5b50336000806101000a81548173ffffffffffffffffffffffffffffffffffffffff021916908373ffffffffffffffffffffffffffffffffffffffff16021790555060008054906101000a900473ffffffffffffffffffffffffffffffffffffffff1673ffffffffffffffffffffffffffffffffffffffff16600073ffffffffffffffffffffffffffffffffffffffff167f342827c97908e5e2f71151c08502a66d44b6f758e3ac2f1de95f02eb95f0a73560405160405180910390a333600160006101000a81548173ffffffffffffffffffffffffffffffffffffffff021916908373ffffffffffffffffffffffffffffffffffffffff16021790555060006005819055506001600281905550600560038190555061ea606004819055506000601481905550600060168190555060006015819055506000602381905550600060268190555060006029819055506040518060400160405280601d81526020017f4d794e657420436f6e747261637420697320696e697469616c69736564000000815250602f9080519060200190620001ac929190620001b3565b50620002c8565b828054620001c19062000263565b90600052602060002090601f016020900481019282620001e5576000855562000231565b82601f106200020057805160ff191683800117855562000231565b8280016001018555821562000231579182015b828111156200023057825182559160200191906001019062000213565b5b50905062000240919062000244565b5090565b5b808211156200025f57600081600090555060010162000245565b5090565b600060028204905060018216806200027c57607f821691505b6020821081141562000293576200029262000299565b5b50919050565b7f4e487b7100000000000000000000000000000000000000000000000000000000600052602260045260246000fd5b6158bc80620002d86000396000f3fe608060405234801561001057600080fd5b506004361061020d576000357c010000000000000000000000000000000000000000000000000000000090048063893d20e81161012c578063c6e814c7116100bf578063e18099a81161008e578063e18099a814610621578063e750a5b51461063d578063f4b75ee11461066d578063fe1b51651461069d5761020d565b8063c6e814c714610583578063d2140b8d146105b3578063d4ee1915146105e7578063e0e4367e146106035761020d565b8063a6f9dae1116100fb578063a6f9dae1146104fa578063acdb9e3c14610516578063b1823dcc14610534578063c246e05c146105675761020d565b8063893d20e81461045c5780638979eee41461047a5780638ed9c8f714610496578063a61b8fc5146104ca5761020d565b80634ca64390116101a4578063671069971161017357806367106997146103d25780636883a62f146103ee578063724e7d5814610424578063885d6e59146104405761020d565b80634ca643901461033a5780635ac09b2b1461035657806361d73e6b1461038657806364f82b39146103a25761020d565b806319207620116101e057806319207620146102b4578063196a623c146102e45780632b959661146102ee578063418037501461031e5761020d565b806309c55a131461021257806311000c2114610245578063168457141461027857806317d7de7c14610296575b600080fd5b61022c600480360381019061022791906143a8565b6106b9565b60405161023c94939291906150a4565b60405180910390f35b61025f600480360381019061025a91906143a8565b6106e9565b60405161026f9493929190614e17565b60405180910390f35b6102806108b4565b60405161028d9190614b42565b60405180910390f35b61029e61099a565b6040516102ab9190614b7f565b60405180910390f35b6102ce60048036038101906102c9919061434e565b610a2c565b6040516102db9190614b64565b60405180910390f35b6102ec610a5c565b005b610308600480360381019061030391906142e1565b610ca9565b6040516103159190614b42565b60405180910390f35b61033860048036038101906103339190614415565b610e32565b005b610354600480360381019061034f9190614629565b6111c9565b005b610370600480360381019061036b91906142e1565b611582565b60405161037d9190614de1565b60405180910390f35b6103a0600480360381019061039b9190614592565b61168a565b005b6103bc60048036038101906103b7919061434e565b611873565b6040516103c99190614dfc565b60405180910390f35b6103ec60048036038101906103e791906143a8565b61188b565b005b610408600480360381019061040391906144ac565b611a5d565b60405161041b9796959493929190614f45565b60405180910390f35b61043e600480360381019061043991906143a8565b611ae9565b005b61045a6004803603810190610455919061453f565b611e29565b005b610464611fa9565b6040516104719190614b27565b60405180910390f35b610494600480360381019061048f91906142e1565b611fd2565b005b6104b060048036038101906104ab91906143a8565b612220565b6040516104c1959493929190615007565b60405180910390f35b6104e460048036038101906104df919061430e565b612256565b6040516104f19190614dfc565b60405180910390f35b610514600480360381019061050f91906142e1565b612287565b005b61051e6123d2565b60405161052b9190614dfc565b60405180910390f35b61054e600480360381019061054991906143a8565b6123d8565b60405161055e94939291906150a4565b60405180910390f35b610581600480360381019061057c9190614629565b612449565b005b61059d600480360381019061059891906143a8565b61253e565b6040516105aa9190614b64565b60405180910390f35b6105cd60048036038101906105c891906143a8565b61255e565b6040516105de959493929190614fb4565b60405180910390f35b61060160048036038101906105fc91906143d5565b6125a1565b005b61060b612a27565b6040516106189190614dfc565b60405180910390f35b61063b600480360381019061063691906143d5565b612a2d565b005b610657600480360381019061065291906143a8565b612f63565b6040516106649190614b42565b60405180910390f35b610687600480360381019061068291906143a8565b6130a0565b6040516106949190614dfc565b60405180910390f35b6106b760048036038101906106b291906144ec565b6130c4565b005b60246020528060005260406000206000915090508060000154908060010154908060020154908060030154905084565b6000806000606060008054906101000a900473ffffffffffffffffffffffffffffffffffffffff1673ffffffffffffffffffffffffffffffffffffffff163373ffffffffffffffffffffffffffffffffffffffff161461077e576040517f08c379a000000000000000000000000000000000000000000000000000000000815260040161077590614c01565b60405180910390fd5b600a600086815260200190815260200160002060000154600a600087815260200190815260200160002060010160009054906101000a900473ffffffffffffffffffffffffffffffffffffffff16600a600088815260200190815260200160002060020160009054906101000a900473ffffffffffffffffffffffffffffffffffffffff16600a60008981526020019081526020016000206004018080546108259061534a565b80601f01602080910402602001604051908101604052809291908181526020018280546108519061534a565b801561089e5780601f106108735761010080835404028352916020019161089e565b820191906000526020600020905b81548152906001019060200180831161088157829003601f168201915b5050505050905093509350935093509193509193565b606060008054906101000a900473ffffffffffffffffffffffffffffffffffffffff1673ffffffffffffffffffffffffffffffffffffffff163373ffffffffffffffffffffffffffffffffffffffff1614610944576040517f08c379a000000000000000000000000000000000000000000000000000000000815260040161093b90614c01565b60405180910390fd5b601380548060200260200160405190810160405280929190818152602001828054801561099057602002820191906000526020600020905b81548152602001906001019080831161097c575b5050505050905090565b6060602f80546109a99061534a565b80601f01602080910402602001604051908101604052809291908181526020018280546109d59061534a565b8015610a225780601f106109f757610100808354040283529160200191610a22565b820191906000526020600020905b815481529060010190602001808311610a0557829003601f168201915b5050505050905090565b60008060286000848152602001908152602001600020541115610a525760019050610a57565b600090505b919050565b3360011515601760008373ffffffffffffffffffffffffffffffffffffffff1673ffffffffffffffffffffffffffffffffffffffff16815260200190815260200160002060050160009054906101000a900460ff16151514610af3576040517f08c379a0000000000000000000000000000000000000000000000000000000008152600401610aea90614d81565b60405180910390fd5b6000601760003373ffffffffffffffffffffffffffffffffffffffff1673ffffffffffffffffffffffffffffffffffffffff1681526020019081526020016000206003015414610b78576040517f08c379a0000000000000000000000000000000000000000000000000000000008152600401610b6f90614ca1565b60405180910390fd5b6000610b833361359d565b90506000600190505b6003548111610c1c57602060008360010154815260200190815260200160002060006009548152602001908152602001600020610bc933336135e5565b9080600181540180825580915050600190039060005260206000200160009091909190915055816003016000815480929190610c04906153ad565b91905055508080610c14906153ad565b915050610b8c565b5060035481600301541415610c69577f792163a28a1b080fac4cc7af50f9fefadf108759b206d1abb9e7c40dc97812b7600354604051610c5c9190614ead565b60405180910390a1610ca5565b7f792163a28a1b080fac4cc7af50f9fefadf108759b206d1abb9e7c40dc97812b78160030154604051610c9c9190614edb565b60405180910390a15b5050565b60606000610cb6836138c1565b90506000811415610d1357600067ffffffffffffffff811115610cdc57610cdb6154bc565b5b604051908082528060200260200182016040528015610d0a5781602001602082028036833780820191505090505b50915050610e2d565b60008167ffffffffffffffff811115610d2f57610d2e6154bc565b5b604051908082528060200260200182016040528015610d5d5781602001602082028036833780820191505090505b5090506000610d6a61390a565b9050600080600190505b828111610e24578673ffffffffffffffffffffffffffffffffffffffff16600c600083815260200190815260200160002060009054906101000a900473ffffffffffffffffffffffffffffffffffffffff1673ffffffffffffffffffffffffffffffffffffffff161415610e115780848381518110610df657610df561548d565b5b6020026020010181815250508180610e0d906153ad565b9250505b8080610e1c906153ad565b915050610d74565b83955050505050505b919050565b828583816012600085815260200190815260200160002060000154148015610e6f5750806012600085815260200190815260200160002060010154145b610eae576040517f08c379a0000000000000000000000000000000000000000000000000000000008152600401610ea590614ba1565b60405180910390fd5b60008054906101000a900473ffffffffffffffffffffffffffffffffffffffff1673ffffffffffffffffffffffffffffffffffffffff163373ffffffffffffffffffffffffffffffffffffffff161415610f3d576040517f08c379a0000000000000000000000000000000000000000000000000000000008152600401610f3490614bc1565b60405180910390fd5b610f4685613914565b610f85576040517f08c379a0000000000000000000000000000000000000000000000000000000008152600401610f7c90614c41565b60405180910390fd5b60296000815480929190610f98906153ad565b91905055506000600289602954610faf9190615202565b604051602001610fbf9190614b0c565b604051602081830303815290604052604051610fdb9190614af5565b602060405180830381855afa158015610ff8573d6000803e3d6000fd5b5050506040513d601f19601f8201168201806040525081019061101b919061437b565b905080602c60006029548152602001908152602001600020819055506040518060a0016040528060295481526020018a815260200189815260200186815260200160011515815250602a60003373ffffffffffffffffffffffffffffffffffffffff1673ffffffffffffffffffffffffffffffffffffffff168152602001908152602001600020600082015181600001556020820151816001015560408201518160020190805190602001906110d292919061411a565b506060820151816003015560808201518160040160006101000a81548160ff021916908315150217905550905050602d89908060018154018082558091505060019003906000526020600020016000909190919091505533602b60008b815260200190815260200160002060006101000a81548173ffffffffffffffffffffffffffffffffffffffff021916908373ffffffffffffffffffffffffffffffffffffffff160217905550611185878a613932565b7f0b1c9689ab07080b78463a9e5fc0d33679c1bdfc32eb1827479754bd03330bdb6029546040516111b69190614ead565b60405180910390a1505050505050505050565b60008054906101000a900473ffffffffffffffffffffffffffffffffffffffff1673ffffffffffffffffffffffffffffffffffffffff163373ffffffffffffffffffffffffffffffffffffffff161415611258576040517f08c379a000000000000000000000000000000000000000000000000000000000815260040161124f90614bc1565b60405180910390fd5b8184828160126000858152602001908152602001600020600001541480156112955750806012600085815260200190815260200160002060010154145b6112d4576040517f08c379a00000000000000000000000000000000000000000000000000000000081526004016112cb90614ba1565b60405180910390fd5b3360001515601760008373ffffffffffffffffffffffffffffffffffffffff1673ffffffffffffffffffffffffffffffffffffffff16815260200190815260200160002060050160009054906101000a900460ff1615151461136b576040517f08c379a000000000000000000000000000000000000000000000000000000000815260040161136290614cc1565b60405180910390fd5b6113748561399a565b6113b3576040517f08c379a00000000000000000000000000000000000000000000000000000000081526004016113aa90614be1565b60405180910390fd5b601460008154809291906113c6906153ad565b91905055506040518060c001604052806014548152602001898152602001888152602001600081526020016000815260200160011515815250601760003373ffffffffffffffffffffffffffffffffffffffff1673ffffffffffffffffffffffffffffffffffffffff168152602001908152602001600020600082015181600001556020820151816001015560408201518160020155606082015181600301556080820151816004015560a08201518160050160006101000a81548160ff021916908315150217905550905050601f8890806001815401808255809150506001900390600052602060002001600090919091909150553360186000601454815260200190815260200160002060006101000a81548173ffffffffffffffffffffffffffffffffffffffff021916908373ffffffffffffffffffffffffffffffffffffffff160217905550601454601960008a8152602001908152602001600020819055506115348689613932565b61153f8888336139b8565b7f6dd3c20f7609bbf719cf9279aeda93d1c4be21c20864d29483b679c98b7b7e8a6014546040516115709190614ead565b60405180910390a15050505050505050565b61158a6141a0565b3360011515601760008373ffffffffffffffffffffffffffffffffffffffff1673ffffffffffffffffffffffffffffffffffffffff16815260200190815260200160002060050160009054906101000a900460ff16151514611621576040517f08c379a000000000000000000000000000000000000000000000000000000000815260040161161890614d81565b60405180910390fd5b61162a8361359d565b6040518060c001604052908160008201548152602001600182015481526020016002820154815260200160038201548152602001600482015481526020016005820160009054906101000a900460ff161515151581525050915050919050565b3360011515601760008373ffffffffffffffffffffffffffffffffffffffff1673ffffffffffffffffffffffffffffffffffffffff16815260200190815260200160002060050160009054906101000a900460ff16151514611721576040517f08c379a000000000000000000000000000000000000000000000000000000000815260040161171890614d81565b60405180910390fd5b600061172e878787613bc3565b905060016010600088815260200190815260200160002060006101000a81548160ff021916908315150217905550602260003373ffffffffffffffffffffffffffffffffffffffff1673ffffffffffffffffffffffffffffffffffffffff16815260200190815260200160002081908060018154018082558091505060019003906000526020600020016000909190919091505560006002856040516117d49190614af5565b602060405180830381855afa1580156117f1573d6000803e3d6000fd5b5050506040513d601f19601f82011682018060405250810190611814919061437b565b90506000611823878a84613cab565b905061182f88866125a1565b7f9a3aa3a70dc27fdd4f5e650dad1b50bfe5108eaa780cde71b5ad096977c01af58382604051611860929190614f09565b60405180910390a1505050505050505050565b60286020528060005260406000206000915090505481565b60008054906101000a900473ffffffffffffffffffffffffffffffffffffffff1673ffffffffffffffffffffffffffffffffffffffff163373ffffffffffffffffffffffffffffffffffffffff1614611919576040517f08c379a000000000000000000000000000000000000000000000000000000000815260040161191090614c01565b60405180910390fd5b61192281613e11565b611961576040517f08c379a000000000000000000000000000000000000000000000000000000000815260040161195890614d21565b60405180910390fd5b602e600082815260200190815260200160002060009054906101000a900460ff16156119c2576040517f08c379a00000000000000000000000000000000000000000000000000000000081526004016119b990614d01565b60405180910390fd5b6000600a6000838152602001908152602001600020905060018160050160016101000a81548160ff0219169083151502179055506001602e600084815260200190815260200160002060006101000a81548160ff0219169083151502179055507fbc9081873c92e3585bc81b256de0a21e40618a754f837efe164e38c8fdcdde7482604051611a519190614ead565b60405180910390a15050565b601d6020528160005260406000208181548110611a7957600080fd5b9060005260206000209060070201600091509150508060000154908060010154908060020154908060030160009054906101000a900473ffffffffffffffffffffffffffffffffffffffff16908060040154908060050154908060060160009054906101000a900460ff16905087565b60008054906101000a900473ffffffffffffffffffffffffffffffffffffffff1673ffffffffffffffffffffffffffffffffffffffff163373ffffffffffffffffffffffffffffffffffffffff1614611b77576040517f08c379a0000000000000000000000000000000000000000000000000000000008152600401611b6e90614c01565b60405180910390fd5b6000600a6000838152602001908152602001600020905060008160050160006101000a81548160ff0219169083151502179055506040518060400160405280600481526020017f5061696400000000000000000000000000000000000000000000000000000000815250816004019080519060200190611bf892919061411a565b508060010160009054906101000a900473ffffffffffffffffffffffffffffffffffffffff168160020160006101000a81548173ffffffffffffffffffffffffffffffffffffffff021916908373ffffffffffffffffffffffffffffffffffffffff160217905550600160009054906101000a900473ffffffffffffffffffffffffffffffffffffffff168160010160006101000a81548173ffffffffffffffffffffffffffffffffffffffff021916908373ffffffffffffffffffffffffffffffffffffffff1602179055506004600f600060055481526020019081526020016000208190555060076000815480929190611cf390615320565b919050555060086000815480929190611d0b906153ad565b91905055506000601160008360010160009054906101000a900473ffffffffffffffffffffffffffffffffffffffff1673ffffffffffffffffffffffffffffffffffffffff1673ffffffffffffffffffffffffffffffffffffffff16815260200190815260200160002054905060045481611d869190615202565b601160008460010160009054906101000a900473ffffffffffffffffffffffffffffffffffffffff1673ffffffffffffffffffffffffffffffffffffffff1673ffffffffffffffffffffffffffffffffffffffff168152602001908152602001600020819055507f0278d4eb8c2618a73c1e8c1726eb9f0eb16576ed125804045193baa091d9b27b83604051611e1c9190614ead565b60405180910390a1505050565b60008054906101000a900473ffffffffffffffffffffffffffffffffffffffff1673ffffffffffffffffffffffffffffffffffffffff163373ffffffffffffffffffffffffffffffffffffffff1614611eb7576040517f08c379a0000000000000000000000000000000000000000000000000000000008152600401611eae90614c01565b60405180910390fd5b6000601260008581526020019081526020016000206000015414611f10576040517f08c379a0000000000000000000000000000000000000000000000000000000008152600401611f0790614c81565b60405180910390fd5b81601260008581526020019081526020016000206000018190555080601260008581526020019081526020016000206001018190555060138290806001815401808255809150506001900390600052602060002001600090919091909150557f4b94f404f01408af2bc2543d9ad9bea2c7382d8beb361d59bb3038d8ff9f40d6604051611f9c90614c61565b60405180910390a1505050565b60008060009054906101000a900473ffffffffffffffffffffffffffffffffffffffff16905090565b3360011515601760008373ffffffffffffffffffffffffffffffffffffffff1673ffffffffffffffffffffffffffffffffffffffff16815260200190815260200160002060050160009054906101000a900460ff16151514612069576040517f08c379a000000000000000000000000000000000000000000000000000000000815260040161206090614d81565b60405180910390fd5b6000601b60008473ffffffffffffffffffffffffffffffffffffffff1673ffffffffffffffffffffffffffffffffffffffff16815260200190815260200160002060040154146120ee576040517f08c379a00000000000000000000000000000000000000000000000000000000081526004016120e590614ca1565b60405180910390fd5b60006120f983613e9b565b90506000600190505b60035481116121925760216000836000015481526020019081526020016000206000600954815260200190815260200160002061213f85336135e5565b908060018154018082558091505060019003906000526020600020016000909190919091505581600401600081548092919061217a906153ad565b9190505550808061218a906153ad565b915050612102565b50600354816004015414156121df577f87c21fbe85c3ac265e36e51547b1669ec3f453648d76898cf4dfa735fc7b3d3f6003546040516121d29190614ead565b60405180910390a161221b565b7f87c21fbe85c3ac265e36e51547b1669ec3f453648d76898cf4dfa735fc7b3d3f81600401546040516122129190614edb565b60405180910390a15b505050565b60276020528060005260406000206000915090508060000154908060010154908060020154908060030154908060040154905085565b6022602052816000526040600020818154811061227257600080fd5b90600052602060002001600091509150505481565b60008054906101000a900473ffffffffffffffffffffffffffffffffffffffff1673ffffffffffffffffffffffffffffffffffffffff163373ffffffffffffffffffffffffffffffffffffffff1614612315576040517f08c379a000000000000000000000000000000000000000000000000000000000815260040161230c90614c01565b60405180910390fd5b8073ffffffffffffffffffffffffffffffffffffffff1660008054906101000a900473ffffffffffffffffffffffffffffffffffffffff1673ffffffffffffffffffffffffffffffffffffffff167f342827c97908e5e2f71151c08502a66d44b6f758e3ac2f1de95f02eb95f0a73560405160405180910390a3806000806101000a81548173ffffffffffffffffffffffffffffffffffffffff021916908373ffffffffffffffffffffffffffffffffffffffff16021790555050565b60265481565b600080600080602460008681526020019081526020016000206000015460246000878152602001908152602001600020600101546024600088815260200190815260200160002060020154602460008981526020019081526020016000206003015493509350935093509193509193565b60008054906101000a900473ffffffffffffffffffffffffffffffffffffffff1673ffffffffffffffffffffffffffffffffffffffff163373ffffffffffffffffffffffffffffffffffffffff16146124d7576040517f08c379a00000000000000000000000000000000000000000000000000000000081526004016124ce90614c01565b60405180910390fd5b836002819055508260038190555081600481905550806009819055507f7f120ce25be09e0f9e4a334e5105525189558b508f68b88efe3c9846b1ae870a60025460035460045460095460405161253094939291906150e9565b60405180910390a150505050565b602e6020528060005260406000206000915054906101000a900460ff1681565b601a6020528060005260406000206000915090508060000154908060010154908060020154908060030160009054906101000a900460ff16908060040154905085565b3360011515601760008373ffffffffffffffffffffffffffffffffffffffff1673ffffffffffffffffffffffffffffffffffffffff16815260200190815260200160002060050160009054906101000a900460ff16151514612638576040517f08c379a000000000000000000000000000000000000000000000000000000000815260040161262f90614d81565b60405180910390fd5b6126428284613ee3565b612681576040517f08c379a000000000000000000000000000000000000000000000000000000000815260040161267890614d61565b60405180910390fd5b6000600a60008581526020019081526020016000206040518060e0016040529081600082015481526020016001820160009054906101000a900473ffffffffffffffffffffffffffffffffffffffff1673ffffffffffffffffffffffffffffffffffffffff1673ffffffffffffffffffffffffffffffffffffffff1681526020016002820160009054906101000a900473ffffffffffffffffffffffffffffffffffffffff1673ffffffffffffffffffffffffffffffffffffffff1673ffffffffffffffffffffffffffffffffffffffff168152602001600382015481526020016004820180546127719061534a565b80601f016020809104026020016040519081016040528092919081815260200182805461279d9061534a565b80156127ea5780601f106127bf576101008083540402835291602001916127ea565b820191906000526020600020905b8154815290600101906020018083116127cd57829003601f168201915b505050505081526020016005820160009054906101000a900460ff161515151581526020016005820160019054906101000a900460ff16151515158152505090506040518060400160405280600981526020017f45786368616e6765640000000000000000000000000000000000000000000000815250816080018190525080600a60008681526020019081526020016000206000820151816000015560208201518160010160006101000a81548173ffffffffffffffffffffffffffffffffffffffff021916908373ffffffffffffffffffffffffffffffffffffffff16021790555060408201518160020160006101000a81548173ffffffffffffffffffffffffffffffffffffffff021916908373ffffffffffffffffffffffffffffffffffffffff16021790555060608201518160030155608082015181600401908051906020019061293b92919061411a565b5060a08201518160050160006101000a81548160ff02191690831515021790555060c08201518160050160016101000a81548160ff0219169083151502179055509050506002600f600086815260200190815260200160002081905550600660008154809291906129ab906153ad565b919050555082600d600086815260200190815260200160002060006101000a81548173ffffffffffffffffffffffffffffffffffffffff021916908373ffffffffffffffffffffffffffffffffffffffff160217905550600c600085815260200190815260200160002060009054906101000a90505050505050565b60235481565b3360011515601760008373ffffffffffffffffffffffffffffffffffffffff1673ffffffffffffffffffffffffffffffffffffffff16815260200190815260200160002060050160009054906101000a900460ff16151514612ac4576040517f08c379a0000000000000000000000000000000000000000000000000000000008152600401612abb90614d81565b60405180910390fd5b612ace8284613ee3565b612b0d576040517f08c379a0000000000000000000000000000000000000000000000000000000008152600401612b0490614d61565b60405180910390fd5b612b1683613e11565b612b55576040517f08c379a0000000000000000000000000000000000000000000000000000000008152600401612b4c90614d21565b60405180910390fd5b6000600a60008581526020019081526020016000206040518060e0016040529081600082015481526020016001820160009054906101000a900473ffffffffffffffffffffffffffffffffffffffff1673ffffffffffffffffffffffffffffffffffffffff1673ffffffffffffffffffffffffffffffffffffffff1681526020016002820160009054906101000a900473ffffffffffffffffffffffffffffffffffffffff1673ffffffffffffffffffffffffffffffffffffffff1673ffffffffffffffffffffffffffffffffffffffff16815260200160038201548152602001600482018054612c459061534a565b80601f0160208091040260200160405190810160405280929190818152602001828054612c719061534a565b8015612cbe5780601f10612c9357610100808354040283529160200191612cbe565b820191906000526020600020905b815481529060010190602001808311612ca157829003601f168201915b505050505081526020016005820160009054906101000a900460ff161515151581526020016005820160019054906101000a900460ff16151515158152505090506040518060400160405280600881526020017f52656465656d656400000000000000000000000000000000000000000000000081525081608001819052506003600f600060055481526020019081526020016000208190555060066000815480929190612d6b90615320565b919050555060076000815480929190612d83906153ad565b919050555080600a60008681526020019081526020016000206000820151816000015560208201518160010160006101000a81548173ffffffffffffffffffffffffffffffffffffffff021916908373ffffffffffffffffffffffffffffffffffffffff16021790555060408201518160020160006101000a81548173ffffffffffffffffffffffffffffffffffffffff021916908373ffffffffffffffffffffffffffffffffffffffff160217905550606082015181600301556080820151816004019080519060200190612e5a92919061411a565b5060a08201518160050160006101000a81548160ff02191690831515021790555060c08201518160050160016101000a81548160ff02191690831515021790555090505033600e600086815260200190815260200160002060006101000a81548173ffffffffffffffffffffffffffffffffffffffff021916908373ffffffffffffffffffffffffffffffffffffffff160217905550600d600085815260200190815260200160002060006101000a81549073ffffffffffffffffffffffffffffffffffffffff02191690557fa903780770410201ba13a823168298930a649fcb2879778a7917cd6fc20edd4584604051612f559190614ead565b60405180910390a150505050565b60606000612f7083613f52565b90506000811415612fcd57600067ffffffffffffffff811115612f9657612f956154bc565b5b604051908082528060200260200182016040528015612fc45781602001602082028036833780820191505090505b5091505061309b565b60008167ffffffffffffffff811115612fe957612fe86154bc565b5b6040519080825280602002602001820160405280156130175781602001602082028036833780820191505090505b509050600061302461390a565b9050600080600190505b8281116130925786600f600083815260200190815260200160002054141561307f57808483815181106130645761306361548d565b5b602002602001018181525050818061307b906153ad565b9250505b808061308a906153ad565b91505061302e565b83955050505050505b919050565b601f81815481106130b057600080fd5b906000526020600020016000915090505481565b3360011515601760008373ffffffffffffffffffffffffffffffffffffffff1673ffffffffffffffffffffffffffffffffffffffff16815260200190815260200160002060050160009054906101000a900460ff1615151461315b576040517f08c379a000000000000000000000000000000000000000000000000000000000815260040161315290614d81565b60405180910390fd5b6016600081548092919061316e906153ad565b919050555060006040518060e0016040528060165481526020018681526020018581526020018473ffffffffffffffffffffffffffffffffffffffff168152602001600081526020016000815260200160011515815250905080601b60008573ffffffffffffffffffffffffffffffffffffffff1673ffffffffffffffffffffffffffffffffffffffff16815260200190815260200160002060008201518160000155602082015181600101556040820151816002015560608201518160030160006101000a81548173ffffffffffffffffffffffffffffffffffffffff021916908373ffffffffffffffffffffffffffffffffffffffff1602179055506080820151816004015560a0820151816005015560c08201518160060160006101000a81548160ff02191690831515021790555090505080601c60008781526020019081526020016000206000601654815260200190815260200160002060008201518160000155602082015181600101556040820151816002015560608201518160030160006101000a81548173ffffffffffffffffffffffffffffffffffffffff021916908373ffffffffffffffffffffffffffffffffffffffff1602179055506080820151816004015560a0820151816005015560c08201518160060160006101000a81548160ff021916908315150217905550905050601d600086815260200190815260200160002081908060018154018082558091505060019003906000526020600020906007020160009091909190915060008201518160000155602082015181600101556040820151816002015560608201518160030160006101000a81548173ffffffffffffffffffffffffffffffffffffffff021916908373ffffffffffffffffffffffffffffffffffffffff1602179055506080820151816004015560a0820151816005015560c08201518160060160006101000a81548160ff021916908315150217905550505084601e60008573ffffffffffffffffffffffffffffffffffffffff1673ffffffffffffffffffffffffffffffffffffffff168152602001908152602001600020819055506000601a60008781526020019081526020016000206040518060a00160405290816000820154815260200160018201548152602001600282015481526020016003820160009054906101000a900460ff1615151515815260200160048201548152505090508060800180518091906134f9906153ad565b8152505080601a600088815260200190815260200160002060008201518160000155602082015181600101556040820151816002015560608201518160030160006101000a81548160ff021916908315150217905550608082015181600401559050507f6e1e4090659373eee2aaca28bea8b2b6d75fda61ac6e007e0246e56eeb59cd7360165460405161358d9190614ead565b60405180910390a1505050505050565b6000601760008373ffffffffffffffffffffffffffffffffffffffff1673ffffffffffffffffffffffffffffffffffffffff1681526020019081526020016000209050919050565b6000600560008154809291906135fa906153ad565b91905055506040518060e0016040528060055481526020018473ffffffffffffffffffffffffffffffffffffffff1681526020018373ffffffffffffffffffffffffffffffffffffffff16815260200160025481526020016040518060400160405280600781526020017f6372656174656400000000000000000000000000000000000000000000000000815250815260200160011515815260200160001515815250600a600060055481526020019081526020016000206000820151816000015560208201518160010160006101000a81548173ffffffffffffffffffffffffffffffffffffffff021916908373ffffffffffffffffffffffffffffffffffffffff16021790555060408201518160020160006101000a81548173ffffffffffffffffffffffffffffffffffffffff021916908373ffffffffffffffffffffffffffffffffffffffff16021790555060608201518160030155608082015181600401908051906020019061377092919061411a565b5060a08201518160050160006101000a81548160ff02191690831515021790555060c08201518160050160016101000a81548160ff021916908315150217905550905050600b60008473ffffffffffffffffffffffffffffffffffffffff1673ffffffffffffffffffffffffffffffffffffffff1681526020019081526020016000206000815480929190613804906153ad565b919050555082600c6000600554815260200190815260200160002060006101000a81548173ffffffffffffffffffffffffffffffffffffffff021916908373ffffffffffffffffffffffffffffffffffffffff1602179055506001600f60006005548152602001908152602001600020819055507f2971a82072a1b29fd1941ada5b32f5b5aad07e668299b78328e9904e762cb9be6005548460016040516138ae93929190614e63565b60405180910390a1600554905092915050565b6000600b60008373ffffffffffffffffffffffffffffffffffffffff1673ffffffffffffffffffffffffffffffffffffffff168152602001908152602001600020549050919050565b6000600554905090565b60006002821415613928576001905061392d565b600090505b919050565b601260008381526020019081526020016000206000808201600090556001820160009055505061396181613ff5565b7f83044fa08cabba8ae7aa27249a8a606cdd565b8e72934bbc7b3597f898859e7060405161398e90614da1565b60405180910390a15050565b600060018214156139ae57600190506139b3565b600090505b919050565b8060011515601760008373ffffffffffffffffffffffffffffffffffffffff1673ffffffffffffffffffffffffffffffffffffffff16815260200190815260200160002060050160009054906101000a900460ff16151514613a4f576040517f08c379a0000000000000000000000000000000000000000000000000000000008152600401613a4690614d81565b60405180910390fd5b60008311613a92576040517f08c379a0000000000000000000000000000000000000000000000000000000008152600401613a8990614dc1565b60405180910390fd5b613a9b8461400f565b15613adb576040517f08c379a0000000000000000000000000000000000000000000000000000000008152600401613ad290614c21565b60405180910390fd5b60156000815480929190613aee906153ad565b919050555060006040518060a0016040528060155481526020018681526020018581526020016001151581526020016000815250905080601a600087815260200190815260200160002060008201518160000155602082015181600101556040820151816002015560608201518160030160006101000a81548160ff021916908315150217905550608082015181600401559050507f08db86aa8d0e65ac45061a1565349ba001d8c73117c16835e9eeb23848eb3e3f601554604051613bb49190614ead565b60405180910390a15050505050565b600060236000815480929190613bd8906153ad565b9190505550613be56141d8565b6040518060800160405280602354815260200186815260200185815260200184815250905080602460006023548152602001908152602001600020600082015181600001556020820151816001015560408201518160020155606082015181600301559050507f1bddd110c92375ee8dc06b13693ae9ab5395c1ae79fd1b455455bc19039bce4b6023548686604051613c809392919061505a565b60405180910390a1602460006023548152602001908152602001600020600001549150509392505050565b6000613cb682610a2c565b15613cf6576040517f08c379a0000000000000000000000000000000000000000000000000000000008152600401613ced90614ce1565b60405180910390fd5b60266000815480929190613d09906153ad565b91905055506040518060a00160405280602654815260200185815260200184815260200183815260200160018152506027600060265481526020019081526020016000206000820151816000015560208201518160010155604082015181600201556060820151816003015560808201518160040155905050602654602860008481526020019081526020016000208190555060265460256000868152602001908152602001600020819055507fae816f4de19251cce5dbafb46558bb67ace150a4cda551ce62d1ab8e117e2434602654604051613de79190614ead565b60405180910390a16027600060265481526020019081526020016000206000015490509392505050565b60008073ffffffffffffffffffffffffffffffffffffffff16600d600084815260200190815260200160002060009054906101000a900473ffffffffffffffffffffffffffffffffffffffff1673ffffffffffffffffffffffffffffffffffffffff16118015613e9457506002600f600084815260200190815260200160002054145b9050919050565b6000601b60008373ffffffffffffffffffffffffffffffffffffffff1673ffffffffffffffffffffffffffffffffffffffff1681526020019081526020016000209050919050565b60008273ffffffffffffffffffffffffffffffffffffffff16600a600084815260200190815260200160002060010160009054906101000a900473ffffffffffffffffffffffffffffffffffffffff1673ffffffffffffffffffffffffffffffffffffffff1614905092915050565b6000600582108015613f645750600082115b613fa3576040517f08c379a0000000000000000000000000000000000000000000000000000000008152600401613f9a90614d41565b60405180910390fd5b6001821415613fb6576005549050613ff0565b6002821415613fc9576006549050613ff0565b6003821415613fdc576007549050613ff0565b6004821415613fef576008549050613ff0565b5b919050565b600061400082614054565b905061400b8161409d565b5050565b600060011515601a600084815260200190815260200160002060030160009054906101000a900460ff161515141561404a576001905061404f565b600090505b919050565b600080600090505b82601382815481106140715761407061548d565b5b90600052602060002001541461409457808061408c906153ad565b91505061405c565b80915050919050565b601360016013805490506140b19190615258565b815481106140c2576140c161548d565b5b9060005260206000200154601382815481106140e1576140e061548d565b5b906000526020600020018190555060138054806141015761410061545e565b5b6001900381819060005260206000200160009055905550565b8280546141269061534a565b90600052602060002090601f016020900481019282614148576000855561418f565b82601f1061416157805160ff191683800117855561418f565b8280016001018555821561418f579182015b8281111561418e578251825591602001919060010190614173565b5b50905061419c9190614200565b5090565b6040518060c0016040528060008152602001600081526020016000815260200160008152602001600081526020016000151581525090565b6040518060800160405280600081526020016000815260200160008152602001600081525090565b5b80821115614219576000816000905550600101614201565b5090565b600061423061422b84615166565b615141565b90508281526020810184848401111561424c5761424b6154f0565b5b6142578482856152de565b509392505050565b60008135905061426e81615841565b92915050565b60008135905061428381615858565b92915050565b60008151905061429881615858565b92915050565b600082601f8301126142b3576142b26154eb565b5b81356142c384826020860161421d565b91505092915050565b6000813590506142db8161586f565b92915050565b6000602082840312156142f7576142f66154fa565b5b60006143058482850161425f565b91505092915050565b60008060408385031215614325576143246154fa565b5b60006143338582860161425f565b9250506020614344858286016142cc565b9150509250929050565b600060208284031215614364576143636154fa565b5b600061437284828501614274565b91505092915050565b600060208284031215614391576143906154fa565b5b600061439f84828501614289565b91505092915050565b6000602082840312156143be576143bd6154fa565b5b60006143cc848285016142cc565b91505092915050565b600080604083850312156143ec576143eb6154fa565b5b60006143fa858286016142cc565b925050602061440b8582860161425f565b9150509250929050565b600080600080600060a08688031215614431576144306154fa565b5b600061443f888289016142cc565b955050602086013567ffffffffffffffff8111156144605761445f6154f5565b5b61446c8882890161429e565b945050604061447d888289016142cc565b935050606061448e888289016142cc565b925050608061449f888289016142cc565b9150509295509295909350565b600080604083850312156144c3576144c26154fa565b5b60006144d1858286016142cc565b92505060206144e2858286016142cc565b9150509250929050565b600080600060608486031215614505576145046154fa565b5b6000614513868287016142cc565b9350506020614524868287016142cc565b92505060406145358682870161425f565b9150509250925092565b600080600060608486031215614558576145576154fa565b5b6000614566868287016142cc565b9350506020614577868287016142cc565b9250506040614588868287016142cc565b9150509250925092565b600080600080600060a086880312156145ae576145ad6154fa565b5b60006145bc888289016142cc565b95505060206145cd888289016142cc565b94505060406145de888289016142cc565b935050606086013567ffffffffffffffff8111156145ff576145fe6154f5565b5b61460b8882890161429e565b925050608061461c8882890161425f565b9150509295509295909350565b60008060008060808587031215614643576146426154fa565b5b6000614651878288016142cc565b9450506020614662878288016142cc565b9350506040614673878288016142cc565b9250506060614684878288016142cc565b91505092959194509250565b600061469c8383614ac0565b60208301905092915050565b6146b18161528c565b82525050565b60006146c2826151a7565b6146cc81856151d5565b93506146d783615197565b8060005b838110156147085781516146ef8882614690565b97506146fa836151c8565b9250506001810190506146db565b5085935050505092915050565b61471e8161529e565b82525050565b61472d8161529e565b82525050565b61473c816152aa565b82525050565b600061474d826151b2565b61475781856151e6565b93506147678185602086016152ed565b80840191505092915050565b600061477e826151bd565b61478881856151f1565b93506147988185602086016152ed565b6147a1816154ff565b840191505092915050565b60006147b96015836151f1565b91506147c482615510565b602082019050919050565b60006147dc600f836151f1565b91506147e782615539565b602082019050919050565b60006147ff6014836151f1565b915061480a82615562565b602082019050919050565b60006148226013836151f1565b915061482d8261558b565b602082019050919050565b6000614845600d836151f1565b9150614850826155b4565b602082019050919050565b60006148686011836151f1565b9150614873826155dd565b602082019050919050565b600061488b6007836151f1565b915061489682615606565b602082019050919050565b60006148ae601e836151f1565b91506148b98261562f565b602082019050919050565b60006148d1601e836151f1565b91506148dc82615658565b602082019050919050565b60006148f46014836151f1565b91506148ff82615681565b602082019050919050565b60006149176017836151f1565b9150614922826156aa565b602082019050919050565b600061493a6017836151f1565b9150614945826156d3565b602082019050919050565b600061495d601a836151f1565b9150614968826156fc565b602082019050919050565b60006149806007836151f1565b915061498b82615725565b602082019050919050565b60006149a36017836151f1565b91506149ae8261574e565b602082019050919050565b60006149c6601a836151f1565b91506149d182615777565b602082019050919050565b60006149e96017836151f1565b91506149f4826157a0565b602082019050919050565b6000614a0c6007836151f1565b9150614a17826157c9565b602082019050919050565b6000614a2f6024836151f1565b9150614a3a826157f2565b604082019050919050565b60c082016000820151614a5b6000850182614ac0565b506020820151614a6e6020850182614ac0565b506040820151614a816040850182614ac0565b506060820151614a946060850182614ac0565b506080820151614aa76080850182614ac0565b5060a0820151614aba60a0850182614715565b50505050565b614ac9816152d4565b82525050565b614ad8816152d4565b82525050565b614aef614aea826152d4565b6153f6565b82525050565b6000614b018284614742565b915081905092915050565b6000614b188284614ade565b60208201915081905092915050565b6000602082019050614b3c60008301846146a8565b92915050565b60006020820190508181036000830152614b5c81846146b7565b905092915050565b6000602082019050614b796000830184614724565b92915050565b60006020820190508181036000830152614b998184614773565b905092915050565b60006020820190508181036000830152614bba816147ac565b9050919050565b60006020820190508181036000830152614bda816147cf565b9050919050565b60006020820190508181036000830152614bfa816147f2565b9050919050565b60006020820190508181036000830152614c1a81614815565b9050919050565b60006020820190508181036000830152614c3a81614838565b9050919050565b60006020820190508181036000830152614c5a8161485b565b9050919050565b60006020820190508181036000830152614c7a8161487e565b9050919050565b60006020820190508181036000830152614c9a816148a1565b9050919050565b60006020820190508181036000830152614cba816148c4565b9050919050565b60006020820190508181036000830152614cda816148e7565b9050919050565b60006020820190508181036000830152614cfa8161490a565b9050919050565b60006020820190508181036000830152614d1a8161492d565b9050919050565b60006020820190508181036000830152614d3a81614950565b9050919050565b60006020820190508181036000830152614d5a81614996565b9050919050565b60006020820190508181036000830152614d7a816149b9565b9050919050565b60006020820190508181036000830152614d9a816149dc565b9050919050565b60006020820190508181036000830152614dba816149ff565b9050919050565b60006020820190508181036000830152614dda81614a22565b9050919050565b600060c082019050614df66000830184614a45565b92915050565b6000602082019050614e116000830184614acf565b92915050565b6000608082019050614e2c6000830187614acf565b614e3960208301866146a8565b614e4660408301856146a8565b8181036060830152614e588184614773565b905095945050505050565b6000608082019050614e786000830186614acf565b614e8560208301856146a8565b614e926040830184614724565b8181036060830152614ea38161487e565b9050949350505050565b6000604082019050614ec26000830184614acf565b8181036020830152614ed38161487e565b905092915050565b6000604082019050614ef06000830184614acf565b8181036020830152614f0181614973565b905092915050565b6000606082019050614f1e6000830185614acf565b614f2b6020830184614acf565b8181036040830152614f3c8161487e565b90509392505050565b600060e082019050614f5a600083018a614acf565b614f676020830189614acf565b614f746040830188614acf565b614f8160608301876146a8565b614f8e6080830186614acf565b614f9b60a0830185614acf565b614fa860c0830184614724565b98975050505050505050565b600060a082019050614fc96000830188614acf565b614fd66020830187614acf565b614fe36040830186614acf565b614ff06060830185614724565b614ffd6080830184614acf565b9695505050505050565b600060a08201905061501c6000830188614acf565b6150296020830187614acf565b6150366040830186614acf565b6150436060830185614733565b6150506080830184614acf565b9695505050505050565b600060808201905061506f6000830186614acf565b61507c6020830185614acf565b6150896040830184614acf565b818103606083015261509a8161487e565b9050949350505050565b60006080820190506150b96000830187614acf565b6150c66020830186614acf565b6150d36040830185614acf565b6150e06060830184614acf565b95945050505050565b600060a0820190506150fe6000830187614acf565b61510b6020830186614acf565b6151186040830185614acf565b6151256060830184614acf565b81810360808301526151368161487e565b905095945050505050565b600061514b61515c565b9050615157828261537c565b919050565b6000604051905090565b600067ffffffffffffffff821115615181576151806154bc565b5b61518a826154ff565b9050602081019050919050565b6000819050602082019050919050565b600081519050919050565b600081519050919050565b600081519050919050565b6000602082019050919050565b600082825260208201905092915050565b600081905092915050565b600082825260208201905092915050565b600061520d826152d4565b9150615218836152d4565b9250827fffffffffffffffffffffffffffffffffffffffffffffffffffffffffffffffff0382111561524d5761524c615400565b5b828201905092915050565b6000615263826152d4565b915061526e836152d4565b92508282101561528157615280615400565b5b828203905092915050565b6000615297826152b4565b9050919050565b60008115159050919050565b6000819050919050565b600073ffffffffffffffffffffffffffffffffffffffff82169050919050565b6000819050919050565b82818337600083830152505050565b60005b8381101561530b5780820151818401526020810190506152f0565b8381111561531a576000848401525b50505050565b600061532b826152d4565b9150600082141561533f5761533e615400565b5b600182039050919050565b6000600282049050600182168061536257607f821691505b602082108114156153765761537561542f565b5b50919050565b615385826154ff565b810181811067ffffffffffffffff821117156153a4576153a36154bc565b5b80604052505050565b60006153b8826152d4565b91507fffffffffffffffffffffffffffffffffffffffffffffffffffffffffffffffff8214156153eb576153ea615400565b5b600182019050919050565b6000819050919050565b7f4e487b7100000000000000000000000000000000000000000000000000000000600052601160045260246000fd5b7f4e487b7100000000000000000000000000000000000000000000000000000000600052602260045260246000fd5b7f4e487b7100000000000000000000000000000000000000000000000000000000600052603160045260246000fd5b7f4e487b7100000000000000000000000000000000000000000000000000000000600052603260045260246000fd5b7f4e487b7100000000000000000000000000000000000000000000000000000000600052604160045260246000fd5b600080fd5b600080fd5b600080fd5b600080fd5b6000601f19601f8301169050919050565b7f43616c6c6572206973206e6f7420696e76697465640000000000000000000000600082015250565b7f43616c6c6572206973206f776e65720000000000000000000000000000000000600082015250565b7f4e6f7420616e20656d706c6f7965652074797065000000000000000000000000600082015250565b7f43616c6c6572206973206e6f74206f776e657200000000000000000000000000600082015250565b7f46616d696c792065786973747300000000000000000000000000000000000000600082015250565b7f4e6f74206120446f63746f722074797065000000000000000000000000000000600082015250565b7f7375636365737300000000000000000000000000000000000000000000000000600082015250565b7f416c726561647920696e7669746174696f6e20636f6465206578697374730000600082015250565b7f496e697469616c20436f75706f6e7320616c7265616479206973737565640000600082015250565b7f456d706c6f796565202052656769737465726564000000000000000000000000600082015250565b7f446f63756d656e7420616c726561647920657869737473000000000000000000600082015250565b7f436f75706f6e20616c726561647920617070726f766564000000000000000000600082015250565b7f436f75706f6e2063616e206e6f742062652072656465656d6564000000000000600082015250565b7f6661696c75726500000000000000000000000000000000000000000000000000600082015250565b7f496e76616c6964207374617475732070726f7669646564000000000000000000600082015250565b7f4e6f7420746865206f776e6572206f662074686520746f6b656e000000000000600082015250565b7f456d706c6f796565204e6f742052656769737465726564000000000000000000600082015250565b7f64656c6574656400000000000000000000000000000000000000000000000000600082015250565b7f46616d696c79206d656d626572732073686f756c64206265206d6f726520746860008201527f616e203000000000000000000000000000000000000000000000000000000000602082015250565b61584a8161528c565b811461585557600080fd5b50565b615861816152aa565b811461586c57600080fd5b50565b615878816152d4565b811461588357600080fd5b5056fea2646970667358221220e2eaa1fe36ec63546104ea835e6fcfa205530b92b70a7a36e96739f9d85fae3d64736f6c63430008070033",
  "immutableReferences": {},
  "source": "// SPDX-License-Identifier: GPL-3.0\n\npragma solidity >=0.7.0 <0.9.0;\n\n\n/**\n * @title Owner\n * @dev Set & change owner\n */\ncontract Owner {\n\n    address private owner;\n    \n    // event for EVM logging\n    event OwnerSet(address indexed oldOwner, address indexed newOwner);\n    \n    // modifier to check if caller is owner\n    modifier isOwner() {\n        // It is often a good idea to use 'require' to check if functions are called correctly.\n        // As a second argument, you can also provide an explanation about what went wrong.\n        require(msg.sender == owner, \"Caller is not owner\");\n        _;\n    }\n    \n    modifier notOwner() {\n       require(msg.sender != owner, \"Caller is owner\");\n        _; \n    }\n    \n    /**\n     * @dev Set contract deployer as owner\n     */\n    constructor() {\n        owner = msg.sender; // 'msg.sender' is sender of current call, contract deployer for a constructor\n        emit OwnerSet(address(0), owner);\n    }\n\n    /**\n     * @dev Change owner\n     * @param newOwner address of new owner\n     */\n    function changeOwner(address newOwner) public isOwner {\n        emit OwnerSet(owner, newOwner);\n        owner = newOwner;\n    }\n\n    /**\n     * @dev Return owner address \n     * @return address of owner\n     */\n    function getOwner() external view returns (address) {\n        return owner;\n    }\n}\n\ncontract UserInvite is Owner{ \n\n\n    \n    struct Invitation { \n        uint id;\n        uint invtype;\n    }\n    \n    event delinvitee (\n        string  msg\n        );\n        \n    event InvitationAdded(string msg);\n\n    mapping (uint => Invitation) internal invitationById;\n    uint[] internal invitees;\n    \n    modifier isInvited(uint _code, uint _id, uint _usertype) {\n        // If the first argument of 'require' evaluates to 'false', execution terminates and all\n        // changes to the state and to Ether balances are reverted.\n        // This used to consume all gas in old EVM versions, but not anymore.\n        // It is often a good idea to use 'require' to check if functions are called correctly.\n        // As a second argument, you can also provide an explanation about what went wrong.\n        require(invitationById[_code].id == _id && invitationById[_code].invtype == _usertype, \"Caller is not invited\");\n        _;\n    }\n\n    function find(uint value) private view returns(uint) {\n        uint i = 0;\n        while (invitees[i] != value) {\n            i++;\n        }\n        return i;\n    }\n\n    function removeByValue(uint value) private {\n        uint i = find(value);\n        removeByIndex(i);\n    }\n\n    function removeByIndex(uint i) private {\n            invitees[i] = invitees[invitees.length -1];\n            invitees.pop();\n        }\n    \n    \n    function addInvitation(uint _code, uint _id, uint _usertype) public isOwner { \n        require(invitationById[_code].id == 0, \"Already invitation code exists\");\n        invitationById[_code].id = _id;\n        invitationById[_code].invtype = _usertype;\n        \n        invitees.push(_id);\n        emit InvitationAdded(\"success\");\n    }\n    \n    function deleteInvitation(uint _code, uint _id) internal {\n         delete invitationById[_code];\n         removeByValue(_id);\n         emit delinvitee(\"deleted\");\n    }\n    \n    function getInvitations() public isOwner view returns (uint[] memory)  {\n        return invitees;\n    }\n    \n}\n\ncontract EmployeeBase is UserInvite { \n\n    struct Employee { \n        uint id;\n        uint empid; //empid provided by HR\n        uint maxfamilycount; //maximum number of family members that can register\n        uint initialCouponCount;\n        uint extraCouponCount;\n        bool active;\n    }\n\n    struct Family {\n      uint id;\n      uint empId;\n      uint count;\n      bool active;\n      uint activeMembers;\n    }\n\n    \n  \n  struct Member {\n      uint id;\n      uint empId;\n      uint familyId;\n      address owner;\n      uint initialCouponCount;\n      uint extraCouponCount;\n      bool active;\n   }\n    event empRegistration(uint employeesCounter, string msg);\n    event empFamilyRegistration(uint familyCounter, string msg);\n    event memberRegistration (uint memberCounter, string msg);\n    \n    uint employeesCounter;\n    uint familyCounter;\n    uint memberCounter;\n    \n    mapping (address => Employee) internal employees;\n    mapping (uint => address) internal employeeIndexToOwner;\n    mapping (uint => uint) internal employeeIDtoIndex;\n\n    //family\n    mapping(uint => Family) public EmployeeFamily;\n\n    //Family Member\n    mapping (address => Member) internal familyMembers;\n    mapping (uint => mapping(uint => Member )) EmployeeToFamilyMembers;\n    mapping (uint => Member[]) public EmployeeFamilyMembers;\n    mapping (address => uint ) memberAddressToEmployeeId;\n    uint[] public registeredEmployees;\n    \n    //Employee Coupons\n    mapping (uint => mapping(uint => uint[] )) internal EmployeeToCoupons;\n    \n    //Member Coupons\n    mapping (uint => mapping(uint => uint[] )) internal MemberToCoupons;\n    \n    //Employee Doctor Visit, e.g empDoctorVisists[601][0] = 1 (visitId)\n    mapping(address => uint[]) public empDoctorVisists;\n    \n    constructor() {\n        employeesCounter = 0;\n        memberCounter = 0;\n        familyCounter = 0;\n    }\n\n    function isEmployee(uint _type) private pure returns (bool) {\n        if (_type ==1) {\n            return true;\n        }\n        else {\n            return false;\n        }\n    }\n    \n    \n    modifier isRegisteredEmployee(address _address) {\n        // If the first argument of 'require' evaluates to 'false', execution terminates and all\n        // changes to the state and to Ether balances are reverted.\n        // This used to consume all gas in old EVM versions, but not anymore.\n        // It is often a good idea to use 'require' to check if functions are called correctly.\n        // As a second argument, you can also provide an explanation about what went wrong.\n        require(employees[_address].active == true, \"Employee Not Registered\");\n        _;\n    }\n    \n    modifier isNotRegistered(address _address) {\n        require(employees[_address].active == false, \"Employee  Registered\");\n        _;\n    }\n\n    //function can be called by User with an invitation on the system\n    function registerEmployee(uint _empid, uint _maxfamilycount, uint _code, uint _usertype ) public notOwner isInvited(_code,_empid, _usertype) isNotRegistered(msg.sender) {\n        require(isEmployee(_usertype), \"Not an employee type\");\n        employeesCounter ++;\n        employees[msg.sender] = Employee(employeesCounter, _empid, _maxfamilycount,0,0,true);\n        registeredEmployees.push(_empid);\n        employeeIndexToOwner[employeesCounter] = msg.sender;\n        employeeIDtoIndex[_empid] = employeesCounter;\n        deleteInvitation(_code,_empid);\n        registerFamily(_empid, _maxfamilycount, msg.sender);\n        emit empRegistration(employeesCounter, \"success\");\n    }\n\n    function getEmployee(address _address) internal view returns (Employee storage){\n        return( employees[_address]);\n    }\n    \n    function getMember(address _address) internal view returns (Member storage){\n        return( familyMembers[_address]);\n    }\n    \n\n    function registerFamily(uint _empId, uint _count, address _address) internal isRegisteredEmployee(_address) {\n        require(_count > 0, \"Family members should be more than 0\");\n        require(!familyExists(_empId), \"Family exists\");\n        familyCounter ++;\n        Family memory _family = Family(familyCounter, _empId, _count, true, 0);\n        EmployeeFamily[_empId] = _family;\n        \n        emit empFamilyRegistration(familyCounter, \"success\");\n\n    }\n\n    function registerFamilyMember(uint _empId,uint _familyId, address _address) public isRegisteredEmployee(msg.sender) {\n              memberCounter ++;\n              Member memory _member = Member(memberCounter, _empId, _familyId, _address,0,0, true);\n              familyMembers[_address] = _member;\n              EmployeeToFamilyMembers[_empId][memberCounter] = _member;\n              EmployeeFamilyMembers[_empId].push(_member);\n              memberAddressToEmployeeId[_address] = _empId;\n              Family memory _family = EmployeeFamily[_empId];\n              _family.activeMembers ++;\n              EmployeeFamily[_empId] = _family;\n              emit memberRegistration(memberCounter, \"success\");\n    }\n  \n  function familyExists(uint _empId) private view returns(bool){\n      if (EmployeeFamily[_empId].active == true ) {\n          return true;\n      }\n      else {\n          return false;\n      }\n      \n  }\n    \n}\n\ncontract DoctorBase is UserInvite { \n\n    struct Doctor { \n        uint id;\n        uint doctorid;\n        string specialty;\n        uint couponcoeficient;\n        bool active;\n    }\n    \n    uint internal doctorsCounter;\n    \n    mapping (address => Doctor) internal doctors;\n    mapping (uint => address) internal doctorIndexToOwner;\n    mapping (uint => bytes32) internal doctorIndexToKeyHash;\n    uint[] internal registeredDoctors;\n    \n    //events \n    event doctorregistration (uint id, string msg);\n    \n    constructor() {\n        doctorsCounter = 0;\n    }\n\n    function isDoctor(uint _type) private pure returns (bool) {\n        if (_type ==2) {\n            return true;\n        }\n        else {\n            return false;\n        }\n    }\n    \n    //function can be called by User with an invitation on the system\n    function registerDoctor(uint _doctorid, string memory _speciality, uint _code, uint _usertype, uint _couponcoeficient) public isInvited(_code,_doctorid, _usertype) notOwner{\n        require(isDoctor(_usertype), \"Not a Doctor type\");\n        doctorsCounter ++;\n        bytes32 _keyhash = sha256(abi.encodePacked(doctorsCounter+_doctorid));\n        doctorIndexToKeyHash[doctorsCounter] = _keyhash;\n        doctors[msg.sender] = Doctor(doctorsCounter, _doctorid, _speciality,_couponcoeficient, true);\n        registeredDoctors.push(_doctorid);\n        doctorIndexToOwner[_doctorid] = msg.sender;\n        deleteInvitation(_code,_doctorid);\n        emit doctorregistration(doctorsCounter, \"success\");\n    }\n\n    function getDoctor(address _address) internal view returns (uint, uint, string memory, uint256, bool ){\n        return( doctors[_address].doctorid, doctors[_address].id, doctors[_address].specialty ,doctors[_address].couponcoeficient,doctors[_address].active);\n    }\n    function getDoctor(uint _id) internal view returns(bytes32 _keyhash) {\n        return doctorIndexToKeyHash[_id];\n    }\n}\n\ncontract Coupon is Owner {\n    \n  address owner;\n  uint value;\n  uint empCouponMax;\n  uint couponPayAmount;\n  uint couponCount; \n  uint couponExchangedCount;\n  uint couponRedeemedCount;\n  uint couponPaidCount;\n  uint year;\n  \n  struct CouponPaper {\n    uint id;\n    address owner;\n    address beneficiary;\n    //add empID to track coupons for family members\n    uint value;\n    string status;\n    bool valid;\n    bool approved;\n  } \n  \n  event CouponPaperCreated(\n    uint id,\n    address owner,\n    bool valid,\n    string msg\n  );\n\n  event GlobalParametersSet(\n      uint value, \n      uint maxcoupons, \n      uint paidamount,\n      uint year,\n      string msg\n  );\n  \n  \n  mapping(uint => CouponPaper) internal coupons;\n  mapping(address => uint) internal ownershipToCouponCount;\n  //Filled when new coupon is created\n  mapping(uint => address) internal couponIndexToOwner;\n  //Filled when new coupon is exchanged\n  mapping(uint => address) internal couponIndexToOwnerExchanged;\n  //Filled when new coupon is redeemed\n  mapping(uint => address) internal couponIndexToOwnerRedeeemed;\n  //Track coupon status\n  mapping(uint => uint256) internal couponIndexToStatus;\n  \n  //Filled when a coupon is used in DoctorVisit\n  mapping(uint => bool) couponIndexToDoctorVisit;\n  \n  //Stores the balances to be paid for the employee;\n  mapping(address => uint) balances;\n  \n  constructor() {\n    owner = msg.sender;\n    couponCount = 0;\n    value = 1;\n    empCouponMax = 5;\n    couponPayAmount = 60000;\n  }\n  \n    function setGlobalParameters(uint _value, uint _maxcoupons, uint _paidamount,uint _year) public isOwner {\n        value = _value;\n        empCouponMax = _maxcoupons;\n        couponPayAmount = _paidamount;\n        year = _year;\n        emit GlobalParametersSet(value, empCouponMax, couponPayAmount, year, \"success\" );\n    }\n  \n\n    function issueCoupon(address _couponowner, address _couponbeneficiary ) internal returns(uint _couponId) {\n    couponCount ++;\n    coupons[couponCount] = CouponPaper(couponCount,_couponowner, _couponbeneficiary, value, \"created\", true, false);\n    ownershipToCouponCount[_couponowner] ++;\n    couponIndexToOwner[couponCount] = _couponowner;\n    couponIndexToStatus[couponCount] = 1;\n    emit CouponPaperCreated(couponCount, _couponowner, true, \"success\");\n    return couponCount;\n    \n    }\n    \n    function _transfer(address _from, address _to, uint _couponId) internal {\n        CouponPaper storage _coupon = coupons[_couponId];\n        _coupon.owner = _to;\n        ownershipToCouponCount[_to] ++;\n        ownershipToCouponCount[_from] --;\n        couponIndexToOwner[couponCount] = _to;\n    }\n\n    function _owns(address _address, uint _couponId) internal view returns (bool) {\n        return(coupons[_couponId].owner == _address);\n    }\n    \n    function _usedInDoctorVisit(uint _couponId) internal view returns (bool) {\n        return (couponIndexToDoctorVisit[_couponId]);\n    }\n    \n    function _isBeneficiary(address _address, uint _couponId) internal view returns (bool) {\n        return(coupons[_couponId].beneficiary == _address);\n    }\n    \n    //coupon status is exchanged\n    function _readyToBeRedeemed(uint _couponId) internal view returns (bool) {\n       return((couponIndexToOwnerExchanged[_couponId] > address(0)) && (couponIndexToStatus[_couponId] == 2));\n    }\n    \n  \n    function getCouponById(uint _couponId) public isOwner view returns(uint id, address, address, string memory status) { \n    \n        return (coupons[_couponId].id, coupons[_couponId].owner, coupons[_couponId].beneficiary, coupons[_couponId].status);\n    }\n    \n    function getCoupon(uint _couponId) internal isOwner view returns(CouponPaper storage){\n        return coupons[_couponId];\n    }\n\n    function couponBalanceOf(address _address) internal view returns (uint count) {\n        return ownershipToCouponCount[_address];\n    }\n\n    function totalCoupons() internal view returns (uint count) {\n        return couponCount;\n        \n    }\n\n    function totalCouponsByStatus(uint _status) internal view returns (uint countExchanged) {\n        require(_status < 5 && _status >0, \"Invalid status provided\");\n        //1 - created, 2- exchanged, 3-redeemed, 4-paid\n        if (_status == 1) return couponCount;\n        if (_status == 2) return couponExchangedCount;\n        if (_status == 3) return couponRedeemedCount;\n        if (_status == 4) return couponPaidCount;\n    }\n\n    function getCouponsByStatus(uint _status) external view returns (uint256[] memory statusCoupons) {\n        \n        uint count = totalCouponsByStatus(_status);\n        if (count == 0) {\n            return new uint256[](0);\n        }\n        else {\n            uint256[] memory result = new uint256[](count);\n            uint total = totalCoupons();\n            uint resultIndex = 0;\n            //we count all coupons\n            uint couponId;\n\n            for (couponId = 1; couponId <= total; couponId++) {\n                if (couponIndexToStatus[couponId] == _status) {\n                    result[resultIndex] = couponId;\n                    resultIndex++;\n                }\n            }\n\n            return result;\n        }\n\n    }\n\n    \n    function getCouponsByOwner(address _owner) external view returns (uint256[] memory ownerCoupons) {\n        uint count = couponBalanceOf(_owner);\n        if (count == 0) {\n            return new uint[](0);\n        }\n        else {\n            uint256[] memory result = new uint256[](count);\n            uint total = totalCoupons();\n            uint resultIndex = 0;\n            //we count all coupons\n            uint couponId;\n\n            for (couponId = 1; couponId <= total; couponId++) {\n                if (couponIndexToOwner[couponId] == _owner) {\n                    result[resultIndex] = couponId;\n                    resultIndex++;\n                }\n            }\n\n            return result;\n        }\n\n    }\n    \n    \n  \n  \n}\n\ncontract DoctorVisitBase {\n  uint public visitCount; \n\n  struct Visit {\n    uint id;\n    uint empId;\n    uint couponId;\n    uint doctorId;\n  }\n\n  event VisitCreated (\n    uint id,\n    uint empId,\n    uint couponId,\n    string msg\n  );\n\n  //visits  mapping incremental\n  mapping(uint => Visit) public visits;\n  //mapping visitDocumentIndex to Visit ID;\n  mapping (uint => uint) DoctorVisitIndexToDocumentId;\n\n  constructor() {\n    visitCount = 0;\n  }\n\n  function createVisit(uint _empId, uint _couponId, uint _doctorId) internal returns(uint visitId) {\n    visitCount ++;\n    Visit memory _visit;\n    _visit = Visit(visitCount, _empId, _couponId, _doctorId);\n    visits[visitCount] = _visit;\n    emit VisitCreated(visitCount, _empId, _couponId, \"success\");\n    return visits[visitCount].id;\n  }\n  \n  function getDoctorVisit(uint _visitid) public view returns (uint visitid, uint empid, uint couponid, uint doctorid) {\n      return (visits[_visitid].id,visits[_visitid].empId,visits[_visitid].couponId,visits[_visitid].doctorId);\n  }\n\n}\n\ncontract VisitDocumentBase is DoctorVisitBase { \n  uint public VisitDocumentCount;\n\n  struct VisitDoc { \n    uint id; \n    uint _doctorvisitId;\n    uint _empId;\n    bytes32 _docHash;\n    uint flag; //flag is one when created by the contract\n  }\n\n  event VisitDocumentAddition (\n    uint documentID,\n    string msg\n  );\n  mapping (uint => VisitDoc ) public VisitDocuments;\n  mapping (bytes32 => uint ) public VisitDocumentBasehash;\n  \n\n  constructor() {\n    VisitDocumentCount = 0;\n  }\n\n  function addVisitDocument(uint _doctorvisitId, uint _empId,bytes32 _docHash) internal returns(uint documentId) {\n     require(!_documentExists(_docHash), \"Document already exists\"); //check if document hash already exists\n        VisitDocumentCount ++;\n        VisitDocuments[VisitDocumentCount] = VisitDoc(VisitDocumentCount, _doctorvisitId, _empId, _docHash, 1);\n        VisitDocumentBasehash[_docHash] = VisitDocumentCount; \n        DoctorVisitIndexToDocumentId[_doctorvisitId] = VisitDocumentCount;\n        emit VisitDocumentAddition(VisitDocumentCount, \"success\");\n        return VisitDocuments[VisitDocumentCount].id;\n  }\n  \n  function _documentExists(bytes32 _docHash) public view returns (bool) {\n      if(VisitDocumentBasehash[_docHash] > 0) {\n        return true;\n      }\n      else {\n        return false;\n      }\n  }\n  \n}\n\n\n\ncontract EmployeeCore is Coupon,EmployeeBase,VisitDocumentBase {\n    \n    event EmployeeCouponGeneration(uint initialCouponCount, string msg);\n    event MemberCouponGeneration(uint initialCouponCount, string msg);\n    event couponExchanged(uint _couponId, string msg);\n    event doctorVisited(uint visitid, uint documentid, string msg);\n    event couponRedeemed(uint couponId, string msg);\n\n    \n    //get Employee info\n    function getEmployeeInfo(address _employee) external isRegisteredEmployee(msg.sender) view returns (Employee memory) {\n        return getEmployee(_employee);\n    }\n    //issue inital coupons\n    function employeeIssueCoupons() public isRegisteredEmployee(msg.sender) {\n        require((employees[msg.sender].initialCouponCount == 0), \"Initial Coupons already issued\");\n        Employee storage _employee = getEmployee(msg.sender);\n            for (uint i =1; i <= empCouponMax; i++)\n            {\n            //Employee is the owner and beneficiary of his initial coupons\n            EmployeeToCoupons[_employee.empid][year].push(issueCoupon(msg.sender,msg.sender));\n            _employee.initialCouponCount ++;\n            }\n            if ((_employee.initialCouponCount) == empCouponMax) {\n                emit EmployeeCouponGeneration(empCouponMax, \"success\");\n            }\n            else { \n                emit EmployeeCouponGeneration(_employee.initialCouponCount, \"failure\");\n            }\n        \n\n    }\n    \n    function employeeIssueMembersCoupons(address _memberaddress) public isRegisteredEmployee(msg.sender) {\n        require((familyMembers[_memberaddress].initialCouponCount == 0), \"Initial Coupons already issued\");\n        Member storage _member = getMember(_memberaddress);\n            for (uint i =1; i <= empCouponMax; i++)\n            {\n            //Employee is the owner and beneficiary of his initial coupons\n            MemberToCoupons[_member.id][year].push(issueCoupon(_memberaddress,msg.sender));\n            _member.initialCouponCount ++;\n            }\n            if ((_member.initialCouponCount) == empCouponMax) {\n                emit MemberCouponGeneration(empCouponMax, \"success\");\n            }\n            else { \n                emit MemberCouponGeneration(_member.initialCouponCount, \"failure\");\n            }\n        \n\n    }\n    \n     function exchangeCoupon(uint _couponId, address _owner) public isRegisteredEmployee(msg.sender) {\n        require(_owns(_owner, _couponId), \"Not the owner of the token\");\n         CouponPaper memory _coupon = coupons[_couponId]; \n         _coupon.status = \"Exchanged\";\n         //_coupon.beneficiary = _coupon.owner;\n         //_coupon.owner = owner;\n         coupons[_couponId] = _coupon;\n         couponIndexToStatus[_couponId] = 2;\n         couponExchangedCount ++;\n         couponIndexToOwnerExchanged[_couponId] = _owner;\n         couponIndexToOwner[_couponId];\n    }\n    \n    function redeemCoupon(uint _couponId, address _owner) public isRegisteredEmployee(msg.sender) {\n        require(_owns(_owner, _couponId), \"Not the owner of the token\");\n        require(_readyToBeRedeemed(_couponId), \"Coupon can not be redeemed\");\n         CouponPaper memory _coupon = coupons[_couponId]; \n         _coupon.status = \"Redeemed\";\n         couponIndexToStatus[couponCount] = 3;\n         couponExchangedCount --;\n         couponRedeemedCount ++;\n         //_coupon.beneficiary = owner;\n        coupons[_couponId] = _coupon;\n        couponIndexToOwnerRedeeemed[_couponId] = msg.sender;\n        delete couponIndexToOwnerExchanged[_couponId];\n        emit couponRedeemed(_couponId, \"success\");\n    }\n    \n    function visitDoctor(uint empid, uint couponid, uint doctorid, string memory _md5, address _address) public isRegisteredEmployee(msg.sender){\n            //employee should have a family relation with _address\n            //visit doctor\n            uint _visitId = createVisit(empid, couponid, doctorid);\n            couponIndexToDoctorVisit[couponid] = true;\n            empDoctorVisists[msg.sender].push(_visitId);\n            //submit document\n            bytes32 _docHash = sha256(bytes(_md5));\n            uint _documentId = addVisitDocument(doctorid, empid, _docHash);\n            // then exchange Coupon\n            exchangeCoupon(couponid, _address);\n            emit doctorVisited( _visitId, _documentId, \"success\");\n    }\n}\n\ncontract HRManager is Coupon,EmployeeBase,DoctorBase {\n    mapping(uint => bool) public couponIndexApproved;\n\n    event approveCoupon(uint couponid, string msg);\n    event paidCoupon(uint _couponId, string msg);\n   // event DoctorPricing(string msg);\n\n    function approveCouponRedemption(uint _couponId) public isOwner {\n        require(_readyToBeRedeemed(_couponId), \"Coupon can not be redeemed\");\n        require(!couponIndexApproved[_couponId], \"Coupon already approved\");\n        CouponPaper storage _coupon = coupons[_couponId]; \n         _coupon.approved = true;\n         couponIndexApproved[_couponId] = true;\n         emit approveCoupon(_couponId, \"success\");\n    }\n    \n    function prepareCouponPayment(uint _couponId) public isOwner {\n        CouponPaper storage _coupon = coupons[_couponId]; \n        _coupon.valid = false;\n        _coupon.status = \"Paid\";\n        _coupon.beneficiary = _coupon.owner;\n        _coupon.owner = owner;\n        couponIndexToStatus[couponCount] = 4;\n        couponRedeemedCount --;\n        couponPaidCount ++;\n        uint _balance = balances[_coupon.owner];\n        balances[_coupon.owner] = _balance + couponPayAmount;\n\n        emit paidCoupon(_couponId, \"success\");\n        \n    }\n}\n \ncontract MyNet is EmployeeCore,HRManager {\n    string name;\n\n    constructor() {\n        name = \"MyNet Contract is initialised\";\n    }\n\n    function getName() public view returns(string memory _name) {\n        return name;\n    }\n    \n    \n}\n",
  "sourcePath": "/Users/wissamdagher/Documents/dev/blockchain/CouponMedNet/src/contracts/MyNet.sol",
  "compiler": {
    "name": "solc",
    "version": "0.8.7+commit.e28d00a7.Emscripten.clang"
  },
  "schemaVersion": "3.4.1",
  "updatedAt": "2021-09-11T19:08:58.232Z",
  "networkType": "ethereum",
  "devdoc": {
    "kind": "dev",
    "methods": {
      "changeOwner(address)": {
        "details": "Change owner",
        "params": {
          "newOwner": "address of new owner"
        }
      },
      "getOwner()": {
        "details": "Return owner address ",
        "returns": {
          "_0": "address of owner"
        }
      }
    },
    "version": 1
  },
  "userdoc": {
    "kind": "user",
    "methods": {},
    "version": 1
  }
}