{
  "contractName": "MyNet",
  "abi": [
    {
      "inputs": [],
      "stateMutability": "nonpayable",
      "type": "constructor"
    },
    {
      "anonymous": false,
      "inputs": [
        {
          "indexed": false,
          "internalType": "uint256",
          "name": "id",
          "type": "uint256"
        },
        {
          "indexed": false,
          "internalType": "address",
          "name": "owner",
          "type": "address"
        },
        {
          "indexed": false,
          "internalType": "bool",
          "name": "valid",
          "type": "bool"
        },
        {
          "indexed": false,
          "internalType": "string",
          "name": "msg",
          "type": "string"
        }
      ],
      "name": "CouponPaperCreated",
      "type": "event"
    },
    {
      "anonymous": false,
      "inputs": [
        {
          "indexed": false,
          "internalType": "string",
          "name": "msg",
          "type": "string"
        }
      ],
      "name": "DoctorPricing",
      "type": "event"
    },
    {
      "anonymous": false,
      "inputs": [
        {
          "indexed": false,
          "internalType": "uint256",
          "name": "initialCouponCount",
          "type": "uint256"
        },
        {
          "indexed": false,
          "internalType": "string",
          "name": "msg",
          "type": "string"
        }
      ],
      "name": "EmployeeCouponGeneration",
      "type": "event"
    },
    {
      "anonymous": false,
      "inputs": [
        {
          "indexed": false,
          "internalType": "string",
          "name": "msg",
          "type": "string"
        }
      ],
      "name": "InvitationAdded",
      "type": "event"
    },
    {
      "anonymous": false,
      "inputs": [
        {
          "indexed": false,
          "internalType": "uint256",
          "name": "initialCouponCount",
          "type": "uint256"
        },
        {
          "indexed": false,
          "internalType": "string",
          "name": "msg",
          "type": "string"
        }
      ],
      "name": "MemberCouponGeneration",
      "type": "event"
    },
    {
      "anonymous": false,
      "inputs": [
        {
          "indexed": true,
          "internalType": "address",
          "name": "oldOwner",
          "type": "address"
        },
        {
          "indexed": true,
          "internalType": "address",
          "name": "newOwner",
          "type": "address"
        }
      ],
      "name": "OwnerSet",
      "type": "event"
    },
    {
      "anonymous": false,
      "inputs": [
        {
          "indexed": false,
          "internalType": "uint256",
          "name": "id",
          "type": "uint256"
        },
        {
          "indexed": false,
          "internalType": "uint256",
          "name": "empId",
          "type": "uint256"
        },
        {
          "indexed": false,
          "internalType": "uint256",
          "name": "couponId",
          "type": "uint256"
        },
        {
          "indexed": false,
          "internalType": "string",
          "name": "msg",
          "type": "string"
        }
      ],
      "name": "VisitCreated",
      "type": "event"
    },
    {
      "anonymous": false,
      "inputs": [
        {
          "indexed": false,
          "internalType": "uint256",
          "name": "documentID",
          "type": "uint256"
        },
        {
          "indexed": false,
          "internalType": "string",
          "name": "msg",
          "type": "string"
        }
      ],
      "name": "VisitDocumentAddition",
      "type": "event"
    },
    {
      "anonymous": false,
      "inputs": [
        {
          "indexed": false,
          "internalType": "uint256",
          "name": "couponid",
          "type": "uint256"
        },
        {
          "indexed": false,
          "internalType": "string",
          "name": "msg",
          "type": "string"
        }
      ],
      "name": "approveCoupon",
      "type": "event"
    },
    {
      "anonymous": false,
      "inputs": [
        {
          "indexed": false,
          "internalType": "uint256",
          "name": "_couponId",
          "type": "uint256"
        },
        {
          "indexed": false,
          "internalType": "string",
          "name": "msg",
          "type": "string"
        }
      ],
      "name": "couponExchanged",
      "type": "event"
    },
    {
      "anonymous": false,
      "inputs": [
        {
          "indexed": false,
          "internalType": "string",
          "name": "msg",
          "type": "string"
        }
      ],
      "name": "delinvitee",
      "type": "event"
    },
    {
      "anonymous": false,
      "inputs": [
        {
          "indexed": false,
          "internalType": "uint256",
          "name": "visitid",
          "type": "uint256"
        },
        {
          "indexed": false,
          "internalType": "uint256",
          "name": "documentid",
          "type": "uint256"
        },
        {
          "indexed": false,
          "internalType": "string",
          "name": "msg",
          "type": "string"
        }
      ],
      "name": "doctorVisited",
      "type": "event"
    },
    {
      "anonymous": false,
      "inputs": [
        {
          "indexed": false,
          "internalType": "uint256",
          "name": "id",
          "type": "uint256"
        },
        {
          "indexed": false,
          "internalType": "string",
          "name": "msg",
          "type": "string"
        }
      ],
      "name": "doctorregistration",
      "type": "event"
    },
    {
      "anonymous": false,
      "inputs": [
        {
          "indexed": false,
          "internalType": "uint256",
          "name": "familyCounter",
          "type": "uint256"
        },
        {
          "indexed": false,
          "internalType": "string",
          "name": "msg",
          "type": "string"
        }
      ],
      "name": "empFamilyRegistration",
      "type": "event"
    },
    {
      "anonymous": false,
      "inputs": [
        {
          "indexed": false,
          "internalType": "uint256",
          "name": "employeesCounter",
          "type": "uint256"
        },
        {
          "indexed": false,
          "internalType": "string",
          "name": "msg",
          "type": "string"
        }
      ],
      "name": "empRegistration",
      "type": "event"
    },
    {
      "anonymous": false,
      "inputs": [
        {
          "indexed": false,
          "internalType": "uint256",
          "name": "memberCounter",
          "type": "uint256"
        },
        {
          "indexed": false,
          "internalType": "string",
          "name": "msg",
          "type": "string"
        }
      ],
      "name": "memberRegistration",
      "type": "event"
    },
    {
      "anonymous": false,
      "inputs": [
        {
          "indexed": false,
          "internalType": "uint256",
          "name": "_couponId",
          "type": "uint256"
        },
        {
          "indexed": false,
          "internalType": "string",
          "name": "msg",
          "type": "string"
        }
      ],
      "name": "paidCoupon",
      "type": "event"
    },
    {
      "inputs": [
        {
          "internalType": "uint256",
          "name": "",
          "type": "uint256"
        }
      ],
      "name": "EmployeeFamily",
      "outputs": [
        {
          "internalType": "uint256",
          "name": "id",
          "type": "uint256"
        },
        {
          "internalType": "uint256",
          "name": "empId",
          "type": "uint256"
        },
        {
          "internalType": "uint256",
          "name": "count",
          "type": "uint256"
        },
        {
          "internalType": "bool",
          "name": "active",
          "type": "bool"
        },
        {
          "internalType": "uint256",
          "name": "activeMembers",
          "type": "uint256"
        }
      ],
      "stateMutability": "view",
      "type": "function"
    },
    {
      "inputs": [
        {
          "internalType": "uint256",
          "name": "",
          "type": "uint256"
        },
        {
          "internalType": "uint256",
          "name": "",
          "type": "uint256"
        }
      ],
      "name": "EmployeeFamilyMembers",
      "outputs": [
        {
          "internalType": "uint256",
          "name": "id",
          "type": "uint256"
        },
        {
          "internalType": "uint256",
          "name": "empId",
          "type": "uint256"
        },
        {
          "internalType": "uint256",
          "name": "familyId",
          "type": "uint256"
        },
        {
          "internalType": "address",
          "name": "owner",
          "type": "address"
        },
        {
          "internalType": "uint256",
          "name": "initialCouponCount",
          "type": "uint256"
        },
        {
          "internalType": "uint256",
          "name": "extraCouponCount",
          "type": "uint256"
        },
        {
          "internalType": "bool",
          "name": "active",
          "type": "bool"
        }
      ],
      "stateMutability": "view",
      "type": "function"
    },
    {
      "inputs": [
        {
          "internalType": "bytes32",
          "name": "",
          "type": "bytes32"
        }
      ],
      "name": "VisitDocumentBasehash",
      "outputs": [
        {
          "internalType": "uint256",
          "name": "",
          "type": "uint256"
        }
      ],
      "stateMutability": "view",
      "type": "function"
    },
    {
      "inputs": [],
      "name": "VisitDocumentCount",
      "outputs": [
        {
          "internalType": "uint256",
          "name": "",
          "type": "uint256"
        }
      ],
      "stateMutability": "view",
      "type": "function"
    },
    {
      "inputs": [
        {
          "internalType": "uint256",
          "name": "",
          "type": "uint256"
        }
      ],
      "name": "VisitDocuments",
      "outputs": [
        {
          "internalType": "uint256",
          "name": "id",
          "type": "uint256"
        },
        {
          "internalType": "uint256",
          "name": "_doctorvisitId",
          "type": "uint256"
        },
        {
          "internalType": "uint256",
          "name": "_empId",
          "type": "uint256"
        },
        {
          "internalType": "bytes32",
          "name": "_docHash",
          "type": "bytes32"
        },
        {
          "internalType": "uint256",
          "name": "flag",
          "type": "uint256"
        }
      ],
      "stateMutability": "view",
      "type": "function"
    },
    {
      "inputs": [
        {
          "internalType": "bytes32",
          "name": "_docHash",
          "type": "bytes32"
        }
      ],
      "name": "_documentExists",
      "outputs": [
        {
          "internalType": "bool",
          "name": "",
          "type": "bool"
        }
      ],
      "stateMutability": "view",
      "type": "function"
    },
    {
      "inputs": [
        {
          "internalType": "uint256",
          "name": "_code",
          "type": "uint256"
        },
        {
          "internalType": "uint256",
          "name": "_id",
          "type": "uint256"
        },
        {
          "internalType": "uint256",
          "name": "_usertype",
          "type": "uint256"
        }
      ],
      "name": "addInvitation",
      "outputs": [],
      "stateMutability": "nonpayable",
      "type": "function"
    },
    {
      "inputs": [
        {
          "internalType": "uint256",
          "name": "_couponId",
          "type": "uint256"
        }
      ],
      "name": "approveCouponRedemption",
      "outputs": [],
      "stateMutability": "nonpayable",
      "type": "function"
    },
    {
      "inputs": [
        {
          "internalType": "address",
          "name": "newOwner",
          "type": "address"
        }
      ],
      "name": "changeOwner",
      "outputs": [],
      "stateMutability": "nonpayable",
      "type": "function"
    },
    {
      "inputs": [
        {
          "internalType": "address",
          "name": "",
          "type": "address"
        },
        {
          "internalType": "uint256",
          "name": "",
          "type": "uint256"
        }
      ],
      "name": "empDoctorVisists",
      "outputs": [
        {
          "internalType": "uint256",
          "name": "",
          "type": "uint256"
        }
      ],
      "stateMutability": "view",
      "type": "function"
    },
    {
      "inputs": [],
      "name": "employeeIssueCoupons",
      "outputs": [],
      "stateMutability": "nonpayable",
      "type": "function"
    },
    {
      "inputs": [
        {
          "internalType": "address",
          "name": "_memberaddress",
          "type": "address"
        }
      ],
      "name": "employeeIssueMembersCoupons",
      "outputs": [],
      "stateMutability": "nonpayable",
      "type": "function"
    },
    {
      "inputs": [
        {
          "internalType": "uint256",
          "name": "_couponId",
          "type": "uint256"
        },
        {
          "internalType": "address",
          "name": "_owner",
          "type": "address"
        }
      ],
      "name": "exchangeCoupon",
      "outputs": [],
      "stateMutability": "nonpayable",
      "type": "function"
    },
    {
      "inputs": [
        {
          "internalType": "uint256",
          "name": "_couponId",
          "type": "uint256"
        }
      ],
      "name": "getCouponById",
      "outputs": [
        {
          "internalType": "uint256",
          "name": "",
          "type": "uint256"
        },
        {
          "internalType": "address",
          "name": "",
          "type": "address"
        },
        {
          "internalType": "address",
          "name": "",
          "type": "address"
        }
      ],
      "stateMutability": "view",
      "type": "function"
    },
    {
      "inputs": [
        {
          "internalType": "address",
          "name": "_owner",
          "type": "address"
        }
      ],
      "name": "getCouponsByOwner",
      "outputs": [
        {
          "internalType": "uint256[]",
          "name": "ownerCoupons",
          "type": "uint256[]"
        }
      ],
      "stateMutability": "view",
      "type": "function"
    },
    {
      "inputs": [
        {
          "internalType": "uint8",
          "name": "_status",
          "type": "uint8"
        }
      ],
      "name": "getCouponsByStatus",
      "outputs": [
        {
          "internalType": "uint256[]",
          "name": "statusCoupons",
          "type": "uint256[]"
        }
      ],
      "stateMutability": "view",
      "type": "function"
    },
    {
      "inputs": [
        {
          "internalType": "uint256",
          "name": "_visitid",
          "type": "uint256"
        }
      ],
      "name": "getDoctorVisit",
      "outputs": [
        {
          "internalType": "uint256",
          "name": "visitid",
          "type": "uint256"
        },
        {
          "internalType": "uint256",
          "name": "empid",
          "type": "uint256"
        },
        {
          "internalType": "uint256",
          "name": "couponid",
          "type": "uint256"
        },
        {
          "internalType": "uint256",
          "name": "doctorid",
          "type": "uint256"
        }
      ],
      "stateMutability": "view",
      "type": "function"
    },
    {
      "inputs": [
        {
          "internalType": "address",
          "name": "_employee",
          "type": "address"
        }
      ],
      "name": "getEmployeeInfo",
      "outputs": [
        {
          "components": [
            {
              "internalType": "uint256",
              "name": "id",
              "type": "uint256"
            },
            {
              "internalType": "uint256",
              "name": "empid",
              "type": "uint256"
            },
            {
              "internalType": "uint256",
              "name": "maxfamilycount",
              "type": "uint256"
            },
            {
              "internalType": "uint256",
              "name": "initialCouponCount",
              "type": "uint256"
            },
            {
              "internalType": "uint256",
              "name": "extraCouponCount",
              "type": "uint256"
            },
            {
              "internalType": "bool",
              "name": "active",
              "type": "bool"
            }
          ],
          "internalType": "struct EmployeeBase.Employee",
          "name": "",
          "type": "tuple"
        }
      ],
      "stateMutability": "view",
      "type": "function"
    },
    {
      "inputs": [],
      "name": "getInvitations",
      "outputs": [
        {
          "internalType": "uint256[]",
          "name": "",
          "type": "uint256[]"
        }
      ],
      "stateMutability": "view",
      "type": "function"
    },
    {
      "inputs": [],
      "name": "getOwner",
      "outputs": [
        {
          "internalType": "address",
          "name": "",
          "type": "address"
        }
      ],
      "stateMutability": "view",
      "type": "function"
    },
    {
      "inputs": [
        {
          "internalType": "uint256",
          "name": "_couponId",
          "type": "uint256"
        }
      ],
      "name": "prepareCouponPayment",
      "outputs": [],
      "stateMutability": "nonpayable",
      "type": "function"
    },
    {
      "inputs": [
        {
          "internalType": "uint256",
          "name": "_couponId",
          "type": "uint256"
        },
        {
          "internalType": "address",
          "name": "_owner",
          "type": "address"
        }
      ],
      "name": "redeemCoupon",
      "outputs": [],
      "stateMutability": "nonpayable",
      "type": "function"
    },
    {
      "inputs": [
        {
          "internalType": "uint256",
          "name": "_doctorid",
          "type": "uint256"
        },
        {
          "internalType": "string",
          "name": "_speciality",
          "type": "string"
        },
        {
          "internalType": "uint256",
          "name": "_code",
          "type": "uint256"
        },
        {
          "internalType": "uint256",
          "name": "_usertype",
          "type": "uint256"
        },
        {
          "internalType": "uint8",
          "name": "_couponcoeficient",
          "type": "uint8"
        }
      ],
      "name": "registerDoctor",
      "outputs": [],
      "stateMutability": "nonpayable",
      "type": "function"
    },
    {
      "inputs": [
        {
          "internalType": "uint256",
          "name": "_empid",
          "type": "uint256"
        },
        {
          "internalType": "uint256",
          "name": "_maxfamilycount",
          "type": "uint256"
        },
        {
          "internalType": "uint256",
          "name": "_code",
          "type": "uint256"
        },
        {
          "internalType": "uint256",
          "name": "_usertype",
          "type": "uint256"
        }
      ],
      "name": "registerEmployee",
      "outputs": [],
      "stateMutability": "nonpayable",
      "type": "function"
    },
    {
      "inputs": [
        {
          "internalType": "uint256",
          "name": "_empId",
          "type": "uint256"
        },
        {
          "internalType": "uint256",
          "name": "_familyId",
          "type": "uint256"
        },
        {
          "internalType": "address",
          "name": "_address",
          "type": "address"
        }
      ],
      "name": "registerFamilyMember",
      "outputs": [],
      "stateMutability": "nonpayable",
      "type": "function"
    },
    {
      "inputs": [
        {
          "internalType": "uint256",
          "name": "",
          "type": "uint256"
        }
      ],
      "name": "registeredEmployees",
      "outputs": [
        {
          "internalType": "uint256",
          "name": "",
          "type": "uint256"
        }
      ],
      "stateMutability": "view",
      "type": "function"
    },
    {
      "inputs": [
        {
          "internalType": "uint8",
          "name": "_value",
          "type": "uint8"
        },
        {
          "internalType": "uint8",
          "name": "_maxcoupons",
          "type": "uint8"
        },
        {
          "internalType": "uint256",
          "name": "_paidamount",
          "type": "uint256"
        },
        {
          "internalType": "uint256",
          "name": "_year",
          "type": "uint256"
        }
      ],
      "name": "setGlobalParameters",
      "outputs": [],
      "stateMutability": "nonpayable",
      "type": "function"
    },
    {
      "inputs": [
        {
          "internalType": "address",
          "name": "_address",
          "type": "address"
        },
        {
          "internalType": "uint8",
          "name": "_newCouponCoefficient",
          "type": "uint8"
        }
      ],
      "name": "updateDoctorPricing",
      "outputs": [],
      "stateMutability": "nonpayable",
      "type": "function"
    },
    {
      "inputs": [],
      "name": "visitCount",
      "outputs": [
        {
          "internalType": "uint256",
          "name": "",
          "type": "uint256"
        }
      ],
      "stateMutability": "view",
      "type": "function"
    },
    {
      "inputs": [
        {
          "internalType": "uint256",
          "name": "empid",
          "type": "uint256"
        },
        {
          "internalType": "uint256",
          "name": "couponid",
          "type": "uint256"
        },
        {
          "internalType": "uint256",
          "name": "doctorid",
          "type": "uint256"
        },
        {
          "internalType": "string",
          "name": "_md5",
          "type": "string"
        },
        {
          "internalType": "address",
          "name": "_address",
          "type": "address"
        }
      ],
      "name": "visitDoctor",
      "outputs": [],
      "stateMutability": "nonpayable",
      "type": "function"
    },
    {
      "inputs": [
        {
          "internalType": "uint256",
          "name": "",
          "type": "uint256"
        }
      ],
      "name": "visits",
      "outputs": [
        {
          "internalType": "uint256",
          "name": "id",
          "type": "uint256"
        },
        {
          "internalType": "uint256",
          "name": "empId",
          "type": "uint256"
        },
        {
          "internalType": "uint256",
          "name": "couponId",
          "type": "uint256"
        },
        {
          "internalType": "uint256",
          "name": "doctorId",
          "type": "uint256"
        }
      ],
      "stateMutability": "view",
      "type": "function"
    },
    {
      "inputs": [
        {
          "internalType": "string",
          "name": "_name",
          "type": "string"
        }
      ],
      "name": "setName",
      "outputs": [],
      "stateMutability": "nonpayable",
      "type": "function"
    },
    {
      "inputs": [],
      "name": "getName",
      "outputs": [
        {
          "internalType": "string",
          "name": "",
          "type": "string"
        }
      ],
      "stateMutability": "view",
      "type": "function"
    }
  ],
  "bytecode": "0x60806040523480156200001157600080fd5b50336000806101000a81548173ffffffffffffffffffffffffffffffffffffffff021916908373ffffffffffffffffffffffffffffffffffffffff16021790555060008054906101000a900473ffffffffffffffffffffffffffffffffffffffff1673ffffffffffffffffffffffffffffffffffffffff16600073ffffffffffffffffffffffffffffffffffffffff167f342827c97908e5e2f71151c08502a66d44b6f758e3ac2f1de95f02eb95f0a73560405160405180910390a333600160006101000a81548173ffffffffffffffffffffffffffffffffffffffff021916908373ffffffffffffffffffffffffffffffffffffffff160217905550600060038190555060018060146101000a81548160ff021916908360ff1602179055506005600160156101000a81548160ff021916908360ff16021790555061ea606002819055506000601281905550600060148190555060006013819055506000602181905550600060248190555060006027819055506040518060400160405280601d81526020017f4d794e657420436f6e747261637420697320696e697469616c69736564000000815250602d9080519060200190620001d3929190620001da565b50620002ef565b828054620001e8906200028a565b90600052602060002090601f0160209004810192826200020c576000855562000258565b82601f106200022757805160ff191683800117855562000258565b8280016001018555821562000258579182015b82811115620002575782518255916020019190600101906200023a565b5b5090506200026791906200026b565b5090565b5b80821115620002865760008160009055506001016200026c565b5090565b60006002820490506001821680620002a357607f821691505b60208210811415620002ba57620002b9620002c0565b5b50919050565b7f4e487b7100000000000000000000000000000000000000000000000000000000600052602260045260246000fd5b615b1280620002ff6000396000f3fe608060405234801561001057600080fd5b50600436106101fb5760003560e01c8063893d20e81161011a578063ba47e4db116100ad578063d6f57ae81161007c578063d6f57ae8146105f8578063e0e4367e14610628578063e18099a814610646578063f4b75ee114610662578063fe1b516514610692576101fb565b8063ba47e4db14610570578063c47f00271461058c578063d2140b8d146105a8578063d4ee1915146105dc576101fb565b8063a61b8fc5116100e9578063a61b8fc5146104d3578063a6f9dae114610503578063acdb9e3c1461051f578063b1823dcc1461053d576101fb565b8063893d20e8146104495780638979eee4146104675780638ed9c8f7146104835780639408dd09146104b7576101fb565b80634ca6439011610192578063671069971161016157806367106997146103bf5780636883a62f146103db578063724e7d5814610411578063885d6e591461042d576101fb565b80634ca64390146103275780635ac09b2b1461034357806361d73e6b1461037357806364f82b391461038f576101fb565b806317d7de7c116101ce57806317d7de7c1461029f57806319207620146102bd578063196a623c146102ed5780632b959661146102f7576101fb565b8063018fed6c1461020057806309c55a131461021c57806311000c211461024f5780631684571414610281575b600080fd5b61021a6004803603810190610215919061463d565b6106ae565b005b610236600480360381019061023191906145d0565b610a5f565b6040516102469493929190615317565b60405180910390f35b610269600480360381019061026491906145d0565b610a8f565b6040516102789392919061509f565b60405180910390f35b610289610bb5565b6040516102969190614dea565b60405180910390f35b6102a7610c9b565b6040516102b49190614e27565b60405180910390f35b6102d760048036038101906102d2919061452d565b610d2d565b6040516102e49190614e0c565b60405180910390f35b6102f5610d5d565b005b610311600480360381019061030c9190614480565b610fd7565b60405161031e9190614dea565b60405180910390f35b610341600480360381019061033c9190614851565b611160565b005b61035d60048036038101906103589190614480565b611519565b60405161036a9190615069565b60405180910390f35b61038d600480360381019061038891906147ba565b611621565b005b6103a960048036038101906103a4919061452d565b61180a565b6040516103b69190615084565b60405180910390f35b6103d960048036038101906103d491906145d0565b611822565b005b6103f560048036038101906103f091906146d4565b6119b9565b60405161040897969594939291906151b8565b60405180910390f35b61042b600480360381019061042691906145d0565b611a45565b005b61044760048036038101906104429190614767565b611d99565b005b610451611f19565b60405161045e9190614dcf565b60405180910390f35b610481600480360381019061047c9190614480565b611f42565b005b61049d600480360381019061049891906145d0565b6121bd565b6040516104ae95949392919061527a565b60405180910390f35b6104d160048036038101906104cc91906148e5565b6121f3565b005b6104ed60048036038101906104e891906144ad565b6122cb565b6040516104fa9190615084565b60405180910390f35b61051d60048036038101906105189190614480565b6122fb565b005b610527612446565b6040516105349190615084565b60405180910390f35b610557600480360381019061055291906145d0565b61244c565b6040516105679493929190615317565b60405180910390f35b61058a600480360381019061058591906144ed565b6124bd565b005b6105a660048036038101906105a19190614587565b6125df565b005b6105c260048036038101906105bd91906145d0565b612687565b6040516105d3959493929190615227565b60405180910390f35b6105f660048036038101906105f191906145fd565b6126ca565b005b610612600480360381019061060d91906148b8565b612b7b565b60405161061f9190614dea565b60405180910390f35b610630612ccb565b60405161063d9190615084565b60405180910390f35b610660600480360381019061065b91906145fd565b612cd1565b005b61067c600480360381019061067791906145d0565b6131e4565b6040516106899190615084565b60405180910390f35b6106ac60048036038101906106a79190614714565b613208565b005b8285838160106000858152602001908152602001600020600001541480156106eb5750806010600085815260200190815260200160002060010154145b61072a576040517f08c379a000000000000000000000000000000000000000000000000000000000815260040161072190614e49565b60405180910390fd5b60008054906101000a900473ffffffffffffffffffffffffffffffffffffffff1673ffffffffffffffffffffffffffffffffffffffff163373ffffffffffffffffffffffffffffffffffffffff1614156107b9576040517f08c379a00000000000000000000000000000000000000000000000000000000081526004016107b090614e69565b60405180910390fd5b6107c2856136e1565b610801576040517f08c379a00000000000000000000000000000000000000000000000000000000081526004016107f890614ee9565b60405180910390fd5b6027600081548092919061081490615615565b9190505550600060028960275461082b919061544b565b60405160200161083b9190614db4565b6040516020818303038152906040526040516108579190614d9d565b602060405180830381855afa158015610874573d6000803e3d6000fd5b5050506040513d601f19601f82011682018060405250810190610897919061455a565b905080602a60006027548152602001908152602001600020819055506040518060a0016040528060275481526020018a81526020018981526020018660ff16815260200160011515815250602860003373ffffffffffffffffffffffffffffffffffffffff1673ffffffffffffffffffffffffffffffffffffffff168152602001908152602001600020600082015181600001556020820151816001015560408201518160020190805190602001906109519291906142a4565b5060608201518160030160006101000a81548160ff021916908360ff16021790555060808201518160030160016101000a81548160ff021916908315150217905550905050602b89908060018154018082558091505060019003906000526020600020016000909190919091505533602960008b815260200190815260200160002060006101000a81548173ffffffffffffffffffffffffffffffffffffffff021916908373ffffffffffffffffffffffffffffffffffffffff160217905550610a1b878a6136ff565b7f0b1c9689ab07080b78463a9e5fc0d33679c1bdfc32eb1827479754bd03330bdb602754604051610a4c9190615120565b60405180910390a1505050505050505050565b60226020528060005260406000206000915090508060000154908060010154908060020154908060030154905084565b60008060008060009054906101000a900473ffffffffffffffffffffffffffffffffffffffff1673ffffffffffffffffffffffffffffffffffffffff163373ffffffffffffffffffffffffffffffffffffffff1614610b23576040517f08c379a0000000000000000000000000000000000000000000000000000000008152600401610b1a90614ea9565b60405180910390fd5b60086000858152602001908152602001600020600001546008600086815260200190815260200160002060010160009054906101000a900473ffffffffffffffffffffffffffffffffffffffff166008600087815260200190815260200160002060020160009054906101000a900473ffffffffffffffffffffffffffffffffffffffff169250925092509193909250565b606060008054906101000a900473ffffffffffffffffffffffffffffffffffffffff1673ffffffffffffffffffffffffffffffffffffffff163373ffffffffffffffffffffffffffffffffffffffff1614610c45576040517f08c379a0000000000000000000000000000000000000000000000000000000008152600401610c3c90614ea9565b60405180910390fd5b6011805480602002602001604051908101604052809291908181526020018280548015610c9157602002820191906000526020600020905b815481526020019060010190808311610c7d575b5050505050905090565b6060602d8054610caa906155b2565b80601f0160208091040260200160405190810160405280929190818152602001828054610cd6906155b2565b8015610d235780601f10610cf857610100808354040283529160200191610d23565b820191906000526020600020905b815481529060010190602001808311610d0657829003601f168201915b5050505050905090565b60008060266000848152602001908152602001600020541115610d535760019050610d58565b600090505b919050565b3360011515601560008373ffffffffffffffffffffffffffffffffffffffff1673ffffffffffffffffffffffffffffffffffffffff16815260200190815260200160002060050160009054906101000a900460ff16151514610df4576040517f08c379a0000000000000000000000000000000000000000000000000000000008152600401610deb90615009565b60405180910390fd5b6000601560003373ffffffffffffffffffffffffffffffffffffffff1673ffffffffffffffffffffffffffffffffffffffff1681526020019081526020016000206003015414610e79576040517f08c379a0000000000000000000000000000000000000000000000000000000008152600401610e7090614f49565b60405180910390fd5b6000610e8433613767565b90506000600190505b600160159054906101000a900460ff1660ff168111610f2d57601e60008360010154815260200190815260200160002060006007548152602001908152602001600020610eda33336137af565b9080600181540180825580915050600190039060005260206000200160009091909190915055816003016000815480929190610f1590615615565b91905055508080610f2590615615565b915050610e8d565b50600160159054906101000a900460ff1660ff1681600301541415610f97577f792163a28a1b080fac4cc7af50f9fefadf108759b206d1abb9e7c40dc97812b7600160159054906101000a900460ff16604051610f8a919061535c565b60405180910390a1610fd3565b7f792163a28a1b080fac4cc7af50f9fefadf108759b206d1abb9e7c40dc97812b78160030154604051610fca919061514e565b60405180910390a15b5050565b60606000610fe483613aaf565b9050600081141561104157600067ffffffffffffffff81111561100a57611009615724565b5b6040519080825280602002602001820160405280156110385781602001602082028036833780820191505090505b5091505061115b565b60008167ffffffffffffffff81111561105d5761105c615724565b5b60405190808252806020026020018201604052801561108b5781602001602082028036833780820191505090505b5090506000611098613af8565b9050600080600190505b828111611152578673ffffffffffffffffffffffffffffffffffffffff16600a600083815260200190815260200160002060009054906101000a900473ffffffffffffffffffffffffffffffffffffffff1673ffffffffffffffffffffffffffffffffffffffff16141561113f5780848381518110611124576111236156f5565b5b602002602001018181525050818061113b90615615565b9250505b808061114a90615615565b9150506110a2565b83955050505050505b919050565b60008054906101000a900473ffffffffffffffffffffffffffffffffffffffff1673ffffffffffffffffffffffffffffffffffffffff163373ffffffffffffffffffffffffffffffffffffffff1614156111ef576040517f08c379a00000000000000000000000000000000000000000000000000000000081526004016111e690614e69565b60405180910390fd5b81848281601060008581526020019081526020016000206000015414801561122c5750806010600085815260200190815260200160002060010154145b61126b576040517f08c379a000000000000000000000000000000000000000000000000000000000815260040161126290614e49565b60405180910390fd5b3360001515601560008373ffffffffffffffffffffffffffffffffffffffff1673ffffffffffffffffffffffffffffffffffffffff16815260200190815260200160002060050160009054906101000a900460ff16151514611302576040517f08c379a00000000000000000000000000000000000000000000000000000000081526004016112f990614f69565b60405180910390fd5b61130b85613b02565b61134a576040517f08c379a000000000000000000000000000000000000000000000000000000000815260040161134190614e89565b60405180910390fd5b6012600081548092919061135d90615615565b91905055506040518060c001604052806012548152602001898152602001888152602001600081526020016000815260200160011515815250601560003373ffffffffffffffffffffffffffffffffffffffff1673ffffffffffffffffffffffffffffffffffffffff168152602001908152602001600020600082015181600001556020820151816001015560408201518160020155606082015181600301556080820151816004015560a08201518160050160006101000a81548160ff021916908315150217905550905050601d8890806001815401808255809150506001900390600052602060002001600090919091909150553360166000601254815260200190815260200160002060006101000a81548173ffffffffffffffffffffffffffffffffffffffff021916908373ffffffffffffffffffffffffffffffffffffffff160217905550601254601760008a8152602001908152602001600020819055506114cb86896136ff565b6114d6888833613b20565b7f6dd3c20f7609bbf719cf9279aeda93d1c4be21c20864d29483b679c98b7b7e8a6012546040516115079190615120565b60405180910390a15050505050505050565b61152161432a565b3360011515601560008373ffffffffffffffffffffffffffffffffffffffff1673ffffffffffffffffffffffffffffffffffffffff16815260200190815260200160002060050160009054906101000a900460ff161515146115b8576040517f08c379a00000000000000000000000000000000000000000000000000000000081526004016115af90615009565b60405180910390fd5b6115c183613767565b6040518060c001604052908160008201548152602001600182015481526020016002820154815260200160038201548152602001600482015481526020016005820160009054906101000a900460ff161515151581525050915050919050565b3360011515601560008373ffffffffffffffffffffffffffffffffffffffff1673ffffffffffffffffffffffffffffffffffffffff16815260200190815260200160002060050160009054906101000a900460ff161515146116b8576040517f08c379a00000000000000000000000000000000000000000000000000000000081526004016116af90615009565b60405180910390fd5b60006116c5878787613d2b565b90506001600e600088815260200190815260200160002060006101000a81548160ff021916908315150217905550602060003373ffffffffffffffffffffffffffffffffffffffff1673ffffffffffffffffffffffffffffffffffffffff168152602001908152602001600020819080600181540180825580915050600190039060005260206000200160009091909190915055600060028560405161176b9190614d9d565b602060405180830381855afa158015611788573d6000803e3d6000fd5b5050506040513d601f19601f820116820180604052508101906117ab919061455a565b905060006117ba878a84613e13565b90506117c688866126ca565b7f9a3aa3a70dc27fdd4f5e650dad1b50bfe5108eaa780cde71b5ad096977c01af583826040516117f792919061517c565b60405180910390a1505050505050505050565b60266020528060005260406000206000915090505481565b60008054906101000a900473ffffffffffffffffffffffffffffffffffffffff1673ffffffffffffffffffffffffffffffffffffffff163373ffffffffffffffffffffffffffffffffffffffff16146118b0576040517f08c379a00000000000000000000000000000000000000000000000000000000081526004016118a790614ea9565b60405180910390fd5b6118b981613f79565b6118f8576040517f08c379a00000000000000000000000000000000000000000000000000000000081526004016118ef90614fa9565b60405180910390fd5b600060086000838152602001908152602001600020905060018160050160016101000a81548160ff02191690831515021790555033602c600084815260200190815260200160002060006101000a81548173ffffffffffffffffffffffffffffffffffffffff021916908373ffffffffffffffffffffffffffffffffffffffff1602179055507fbc9081873c92e3585bc81b256de0a21e40618a754f837efe164e38c8fdcdde74826040516119ad9190615120565b60405180910390a15050565b601b60205281600052604060002081815481106119d557600080fd5b9060005260206000209060070201600091509150508060000154908060010154908060020154908060030160009054906101000a900473ffffffffffffffffffffffffffffffffffffffff16908060040154908060050154908060060160009054906101000a900460ff16905087565b60008054906101000a900473ffffffffffffffffffffffffffffffffffffffff1673ffffffffffffffffffffffffffffffffffffffff163373ffffffffffffffffffffffffffffffffffffffff1614611ad3576040517f08c379a0000000000000000000000000000000000000000000000000000000008152600401611aca90614ea9565b60405180910390fd5b600060086000838152602001908152602001600020905060008160050160006101000a81548160ff0219169083151502179055506040518060400160405280600481526020017f5061696400000000000000000000000000000000000000000000000000000000815250816004019080519060200190611b549291906142a4565b508060010160009054906101000a900473ffffffffffffffffffffffffffffffffffffffff168160020160006101000a81548173ffffffffffffffffffffffffffffffffffffffff021916908373ffffffffffffffffffffffffffffffffffffffff160217905550600160009054906101000a900473ffffffffffffffffffffffffffffffffffffffff168160010160006101000a81548173ffffffffffffffffffffffffffffffffffffffff021916908373ffffffffffffffffffffffffffffffffffffffff1602179055506004600d6000600354815260200190815260200160002060006101000a81548160ff021916908360ff16021790555060056000815480929190611c6390615588565b919050555060066000815480929190611c7b90615615565b91905055506000600f60008360010160009054906101000a900473ffffffffffffffffffffffffffffffffffffffff1673ffffffffffffffffffffffffffffffffffffffff1673ffffffffffffffffffffffffffffffffffffffff16815260200190815260200160002054905060025481611cf6919061544b565b600f60008460010160009054906101000a900473ffffffffffffffffffffffffffffffffffffffff1673ffffffffffffffffffffffffffffffffffffffff1673ffffffffffffffffffffffffffffffffffffffff168152602001908152602001600020819055507f0278d4eb8c2618a73c1e8c1726eb9f0eb16576ed125804045193baa091d9b27b83604051611d8c9190615120565b60405180910390a1505050565b60008054906101000a900473ffffffffffffffffffffffffffffffffffffffff1673ffffffffffffffffffffffffffffffffffffffff163373ffffffffffffffffffffffffffffffffffffffff1614611e27576040517f08c379a0000000000000000000000000000000000000000000000000000000008152600401611e1e90614ea9565b60405180910390fd5b6000601060008581526020019081526020016000206000015414611e80576040517f08c379a0000000000000000000000000000000000000000000000000000000008152600401611e7790614f29565b60405180910390fd5b81601060008581526020019081526020016000206000018190555080601060008581526020019081526020016000206001018190555060118290806001815401808255809150506001900390600052602060002001600090919091909150557f4b94f404f01408af2bc2543d9ad9bea2c7382d8beb361d59bb3038d8ff9f40d6604051611f0c90614f09565b60405180910390a1505050565b60008060009054906101000a900473ffffffffffffffffffffffffffffffffffffffff16905090565b3360011515601560008373ffffffffffffffffffffffffffffffffffffffff1673ffffffffffffffffffffffffffffffffffffffff16815260200190815260200160002060050160009054906101000a900460ff16151514611fd9576040517f08c379a0000000000000000000000000000000000000000000000000000000008152600401611fd090615009565b60405180910390fd5b6000601960008473ffffffffffffffffffffffffffffffffffffffff1673ffffffffffffffffffffffffffffffffffffffff168152602001908152602001600020600401541461205e576040517f08c379a000000000000000000000000000000000000000000000000000000000815260040161205590614f49565b60405180910390fd5b600061206983614013565b90506000600190505b600160159054906101000a900460ff1660ff16811161211257601f600083600001548152602001908152602001600020600060075481526020019081526020016000206120bf85336137af565b90806001815401808255809150506001900390600052602060002001600090919091909150558160040160008154809291906120fa90615615565b9190505550808061210a90615615565b915050612072565b50600160159054906101000a900460ff1660ff168160040154141561217c577f87c21fbe85c3ac265e36e51547b1669ec3f453648d76898cf4dfa735fc7b3d3f600160159054906101000a900460ff1660405161216f919061535c565b60405180910390a16121b8565b7f87c21fbe85c3ac265e36e51547b1669ec3f453648d76898cf4dfa735fc7b3d3f81600401546040516121af919061514e565b60405180910390a15b505050565b60256020528060005260406000206000915090508060000154908060010154908060020154908060030154908060040154905085565b60008054906101000a900473ffffffffffffffffffffffffffffffffffffffff1673ffffffffffffffffffffffffffffffffffffffff163373ffffffffffffffffffffffffffffffffffffffff1614612281576040517f08c379a000000000000000000000000000000000000000000000000000000000815260040161227890614ea9565b60405180910390fd5b83600160146101000a81548160ff021916908360ff16021790555082600160156101000a81548160ff021916908360ff160217905550816002819055508060078190555050505050565b6020805281600052604060002081815481106122e657600080fd5b90600052602060002001600091509150505481565b60008054906101000a900473ffffffffffffffffffffffffffffffffffffffff1673ffffffffffffffffffffffffffffffffffffffff163373ffffffffffffffffffffffffffffffffffffffff1614612389576040517f08c379a000000000000000000000000000000000000000000000000000000000815260040161238090614ea9565b60405180910390fd5b8073ffffffffffffffffffffffffffffffffffffffff1660008054906101000a900473ffffffffffffffffffffffffffffffffffffffff1673ffffffffffffffffffffffffffffffffffffffff167f342827c97908e5e2f71151c08502a66d44b6f758e3ac2f1de95f02eb95f0a73560405160405180910390a3806000806101000a81548173ffffffffffffffffffffffffffffffffffffffff021916908373ffffffffffffffffffffffffffffffffffffffff16021790555050565b60245481565b600080600080602260008681526020019081526020016000206000015460226000878152602001908152602001600020600101546022600088815260200190815260200160002060020154602260008981526020019081526020016000206003015493509350935093509193509193565b60008054906101000a900473ffffffffffffffffffffffffffffffffffffffff1673ffffffffffffffffffffffffffffffffffffffff163373ffffffffffffffffffffffffffffffffffffffff161461254b576040517f08c379a000000000000000000000000000000000000000000000000000000000815260040161254290614ea9565b60405180910390fd5b6000602860008473ffffffffffffffffffffffffffffffffffffffff1673ffffffffffffffffffffffffffffffffffffffff168152602001908152602001600020905060008160030160019054906101000a900460ff1690507f4613fdb315536af5a5b8a7e2cbc7259b7c500a3ed07e02505b30167938007b666040516125d190614f09565b60405180910390a150505050565b60008054906101000a900473ffffffffffffffffffffffffffffffffffffffff1673ffffffffffffffffffffffffffffffffffffffff163373ffffffffffffffffffffffffffffffffffffffff161461266d576040517f08c379a000000000000000000000000000000000000000000000000000000000815260040161266490614ea9565b60405180910390fd5b80602d90805190602001906126839291906142a4565b5050565b60186020528060005260406000206000915090508060000154908060010154908060020154908060030160009054906101000a900460ff16908060040154905085565b3360011515601560008373ffffffffffffffffffffffffffffffffffffffff1673ffffffffffffffffffffffffffffffffffffffff16815260200190815260200160002060050160009054906101000a900460ff16151514612761576040517f08c379a000000000000000000000000000000000000000000000000000000000815260040161275890615009565b60405180910390fd5b61276b828461405b565b6127aa576040517f08c379a00000000000000000000000000000000000000000000000000000000081526004016127a190614fe9565b60405180910390fd5b6000600860008581526020019081526020016000206040518060e0016040529081600082015481526020016001820160009054906101000a900473ffffffffffffffffffffffffffffffffffffffff1673ffffffffffffffffffffffffffffffffffffffff1673ffffffffffffffffffffffffffffffffffffffff1681526020016002820160009054906101000a900473ffffffffffffffffffffffffffffffffffffffff1673ffffffffffffffffffffffffffffffffffffffff1673ffffffffffffffffffffffffffffffffffffffff1681526020016003820154815260200160048201805461289a906155b2565b80601f01602080910402602001604051908101604052809291908181526020018280546128c6906155b2565b80156129135780601f106128e857610100808354040283529160200191612913565b820191906000526020600020905b8154815290600101906020018083116128f657829003601f168201915b505050505081526020016005820160009054906101000a900460ff161515151581526020016005820160019054906101000a900460ff16151515158152505090506040518060400160405280600981526020017f45786368616e6765640000000000000000000000000000000000000000000000815250816080018190525080600860008681526020019081526020016000206000820151816000015560208201518160010160006101000a81548173ffffffffffffffffffffffffffffffffffffffff021916908373ffffffffffffffffffffffffffffffffffffffff16021790555060408201518160020160006101000a81548173ffffffffffffffffffffffffffffffffffffffff021916908373ffffffffffffffffffffffffffffffffffffffff160217905550606082015181600301556080820151816004019080519060200190612a649291906142a4565b5060a08201518160050160006101000a81548160ff02191690831515021790555060c08201518160050160016101000a81548160ff0219169083151502179055509050506002600d600086815260200190815260200160002060006101000a81548160ff021916908360ff16021790555060046000815480929190612ae890615615565b919050555082600b600086815260200190815260200160002060006101000a81548173ffffffffffffffffffffffffffffffffffffffff021916908373ffffffffffffffffffffffffffffffffffffffff160217905550600a600085815260200190815260200160002060006101000a81549073ffffffffffffffffffffffffffffffffffffffff021916905550505050565b60606000612b88836140ca565b90506000811415612be557600067ffffffffffffffff811115612bae57612bad615724565b5b604051908082528060200260200182016040528015612bdc5781602001602082028036833780820191505090505b50915050612cc6565b60008167ffffffffffffffff811115612c0157612c00615724565b5b604051908082528060200260200182016040528015612c2f5781602001602082028036833780820191505090505b5090506000612c3c613af8565b9050600080600190505b828111612cbd578660ff16600d600083815260200190815260200160002060009054906101000a900460ff1660ff161415612caa5780848381518110612c8f57612c8e6156f5565b5b6020026020010181815250508180612ca690615615565b9250505b8080612cb590615615565b915050612c46565b83955050505050505b919050565b60215481565b3360011515601560008373ffffffffffffffffffffffffffffffffffffffff1673ffffffffffffffffffffffffffffffffffffffff16815260200190815260200160002060050160009054906101000a900460ff16151514612d68576040517f08c379a0000000000000000000000000000000000000000000000000000000008152600401612d5f90615009565b60405180910390fd5b612d72828461405b565b612db1576040517f08c379a0000000000000000000000000000000000000000000000000000000008152600401612da890614fe9565b60405180910390fd5b612dba83613f79565b612df9576040517f08c379a0000000000000000000000000000000000000000000000000000000008152600401612df090614fa9565b60405180910390fd5b6000600860008581526020019081526020016000206040518060e0016040529081600082015481526020016001820160009054906101000a900473ffffffffffffffffffffffffffffffffffffffff1673ffffffffffffffffffffffffffffffffffffffff1673ffffffffffffffffffffffffffffffffffffffff1681526020016002820160009054906101000a900473ffffffffffffffffffffffffffffffffffffffff1673ffffffffffffffffffffffffffffffffffffffff1673ffffffffffffffffffffffffffffffffffffffff16815260200160038201548152602001600482018054612ee9906155b2565b80601f0160208091040260200160405190810160405280929190818152602001828054612f15906155b2565b8015612f625780601f10612f3757610100808354040283529160200191612f62565b820191906000526020600020905b815481529060010190602001808311612f4557829003601f168201915b505050505081526020016005820160009054906101000a900460ff161515151581526020016005820160019054906101000a900460ff16151515158152505090506040518060400160405280600881526020017f52656465656d656400000000000000000000000000000000000000000000000081525081608001819052506003600d6000600354815260200190815260200160002060006101000a81548160ff021916908360ff1602179055506004600081548092919061302390615588565b91905055506005600081548092919061303b90615615565b919050555080600860008681526020019081526020016000206000820151816000015560208201518160010160006101000a81548173ffffffffffffffffffffffffffffffffffffffff021916908373ffffffffffffffffffffffffffffffffffffffff16021790555060408201518160020160006101000a81548173ffffffffffffffffffffffffffffffffffffffff021916908373ffffffffffffffffffffffffffffffffffffffff1602179055506060820151816003015560808201518160040190805190602001906131129291906142a4565b5060a08201518160050160006101000a81548160ff02191690831515021790555060c08201518160050160016101000a81548160ff02191690831515021790555090505033600c600086815260200190815260200160002060006101000a81548173ffffffffffffffffffffffffffffffffffffffff021916908373ffffffffffffffffffffffffffffffffffffffff160217905550600b600085815260200190815260200160002060006101000a81549073ffffffffffffffffffffffffffffffffffffffff021916905550505050565b601d81815481106131f457600080fd5b906000526020600020016000915090505481565b3360011515601560008373ffffffffffffffffffffffffffffffffffffffff1673ffffffffffffffffffffffffffffffffffffffff16815260200190815260200160002060050160009054906101000a900460ff1615151461329f576040517f08c379a000000000000000000000000000000000000000000000000000000000815260040161329690615009565b60405180910390fd5b601460008154809291906132b290615615565b919050555060006040518060e0016040528060145481526020018681526020018581526020018473ffffffffffffffffffffffffffffffffffffffff168152602001600081526020016000815260200160011515815250905080601960008573ffffffffffffffffffffffffffffffffffffffff1673ffffffffffffffffffffffffffffffffffffffff16815260200190815260200160002060008201518160000155602082015181600101556040820151816002015560608201518160030160006101000a81548173ffffffffffffffffffffffffffffffffffffffff021916908373ffffffffffffffffffffffffffffffffffffffff1602179055506080820151816004015560a0820151816005015560c08201518160060160006101000a81548160ff02191690831515021790555090505080601a60008781526020019081526020016000206000601454815260200190815260200160002060008201518160000155602082015181600101556040820151816002015560608201518160030160006101000a81548173ffffffffffffffffffffffffffffffffffffffff021916908373ffffffffffffffffffffffffffffffffffffffff1602179055506080820151816004015560a0820151816005015560c08201518160060160006101000a81548160ff021916908315150217905550905050601b600086815260200190815260200160002081908060018154018082558091505060019003906000526020600020906007020160009091909190915060008201518160000155602082015181600101556040820151816002015560608201518160030160006101000a81548173ffffffffffffffffffffffffffffffffffffffff021916908373ffffffffffffffffffffffffffffffffffffffff1602179055506080820151816004015560a0820151816005015560c08201518160060160006101000a81548160ff021916908315150217905550505084601c60008573ffffffffffffffffffffffffffffffffffffffff1673ffffffffffffffffffffffffffffffffffffffff168152602001908152602001600020819055506000601860008781526020019081526020016000206040518060a00160405290816000820154815260200160018201548152602001600282015481526020016003820160009054906101000a900460ff16151515158152602001600482015481525050905080608001805180919061363d90615615565b81525050806018600088815260200190815260200160002060008201518160000155602082015181600101556040820151816002015560608201518160030160006101000a81548160ff021916908315150217905550608082015181600401559050507f6e1e4090659373eee2aaca28bea8b2b6d75fda61ac6e007e0246e56eeb59cd736014546040516136d19190615120565b60405180910390a1505050505050565b600060028214156136f557600190506136fa565b600090505b919050565b601060008381526020019081526020016000206000808201600090556001820160009055505061372e8161417f565b7f83044fa08cabba8ae7aa27249a8a606cdd565b8e72934bbc7b3597f898859e7060405161375b90615029565b60405180910390a15050565b6000601560008373ffffffffffffffffffffffffffffffffffffffff1673ffffffffffffffffffffffffffffffffffffffff1681526020019081526020016000209050919050565b6000600360008154809291906137c490615615565b91905055506040518060e0016040528060035481526020018473ffffffffffffffffffffffffffffffffffffffff1681526020018373ffffffffffffffffffffffffffffffffffffffff168152602001600160149054906101000a900460ff1660ff1681526020016040518060400160405280600781526020017f63726561746564000000000000000000000000000000000000000000000000008152508152602001600115158152602001600015158152506008600060035481526020019081526020016000206000820151816000015560208201518160010160006101000a81548173ffffffffffffffffffffffffffffffffffffffff021916908373ffffffffffffffffffffffffffffffffffffffff16021790555060408201518160020160006101000a81548173ffffffffffffffffffffffffffffffffffffffff021916908373ffffffffffffffffffffffffffffffffffffffff16021790555060608201518160030155608082015181600401908051906020019061394a9291906142a4565b5060a08201518160050160006101000a81548160ff02191690831515021790555060c08201518160050160016101000a81548160ff021916908315150217905550905050600960008473ffffffffffffffffffffffffffffffffffffffff1673ffffffffffffffffffffffffffffffffffffffff16815260200190815260200160002060008154809291906139de90615615565b919050555082600a6000600354815260200190815260200160002060006101000a81548173ffffffffffffffffffffffffffffffffffffffff021916908373ffffffffffffffffffffffffffffffffffffffff1602179055506001600d6000600354815260200190815260200160002060006101000a81548160ff021916908360ff1602179055507f2971a82072a1b29fd1941ada5b32f5b5aad07e668299b78328e9904e762cb9be600354846001604051613a9c939291906150d6565b60405180910390a1600354905092915050565b6000600960008373ffffffffffffffffffffffffffffffffffffffff1673ffffffffffffffffffffffffffffffffffffffff168152602001908152602001600020549050919050565b6000600354905090565b60006001821415613b165760019050613b1b565b600090505b919050565b8060011515601560008373ffffffffffffffffffffffffffffffffffffffff1673ffffffffffffffffffffffffffffffffffffffff16815260200190815260200160002060050160009054906101000a900460ff16151514613bb7576040517f08c379a0000000000000000000000000000000000000000000000000000000008152600401613bae90615009565b60405180910390fd5b60008311613bfa576040517f08c379a0000000000000000000000000000000000000000000000000000000008152600401613bf190615049565b60405180910390fd5b613c0384614199565b15613c43576040517f08c379a0000000000000000000000000000000000000000000000000000000008152600401613c3a90614ec9565b60405180910390fd5b60136000815480929190613c5690615615565b919050555060006040518060a00160405280601354815260200186815260200185815260200160011515815260200160008152509050806018600087815260200190815260200160002060008201518160000155602082015181600101556040820151816002015560608201518160030160006101000a81548160ff021916908315150217905550608082015181600401559050507f08db86aa8d0e65ac45061a1565349ba001d8c73117c16835e9eeb23848eb3e3f601354604051613d1c9190615120565b60405180910390a15050505050565b600060216000815480929190613d4090615615565b9190505550613d4d614362565b6040518060800160405280602154815260200186815260200185815260200184815250905080602260006021548152602001908152602001600020600082015181600001556020820151816001015560408201518160020155606082015181600301559050507f1bddd110c92375ee8dc06b13693ae9ab5395c1ae79fd1b455455bc19039bce4b6021548686604051613de8939291906152cd565b60405180910390a1602260006021548152602001908152602001600020600001549150509392505050565b6000613e1e82610d2d565b15613e5e576040517f08c379a0000000000000000000000000000000000000000000000000000000008152600401613e5590614f89565b60405180910390fd5b60246000815480929190613e7190615615565b91905055506040518060a00160405280602454815260200185815260200184815260200183815260200160018152506025600060245481526020019081526020016000206000820151816000015560208201518160010155604082015181600201556060820151816003015560808201518160040155905050602454602660008481526020019081526020016000208190555060245460236000868152602001908152602001600020819055507fae816f4de19251cce5dbafb46558bb67ace150a4cda551ce62d1ab8e117e2434602454604051613f4f9190615120565b60405180910390a16025600060245481526020019081526020016000206000015490509392505050565b60008073ffffffffffffffffffffffffffffffffffffffff16600b600084815260200190815260200160002060009054906101000a900473ffffffffffffffffffffffffffffffffffffffff1673ffffffffffffffffffffffffffffffffffffffff1611801561400c57506002600d600084815260200190815260200160002060009054906101000a900460ff1660ff16145b9050919050565b6000601960008373ffffffffffffffffffffffffffffffffffffffff1673ffffffffffffffffffffffffffffffffffffffff1681526020019081526020016000209050919050565b60008273ffffffffffffffffffffffffffffffffffffffff166008600084815260200190815260200160002060010160009054906101000a900473ffffffffffffffffffffffffffffffffffffffff1673ffffffffffffffffffffffffffffffffffffffff1614905092915050565b600060058260ff161080156140e2575060008260ff16115b614121576040517f08c379a000000000000000000000000000000000000000000000000000000000815260040161411890614fc9565b60405180910390fd5b60018260ff16141561413757600354905061417a565b60028260ff16141561414d57600454905061417a565b60038260ff16141561416357600554905061417a565b60048260ff16141561417957600654905061417a565b5b919050565b600061418a826141de565b905061419581614227565b5050565b6000600115156018600084815260200190815260200160002060030160009054906101000a900460ff16151514156141d457600190506141d9565b600090505b919050565b600080600090505b82601182815481106141fb576141fa6156f5565b5b90600052602060002001541461421e57808061421690615615565b9150506141e6565b80915050919050565b6011600160118054905061423b91906154a1565b8154811061424c5761424b6156f5565b5b90600052602060002001546011828154811061426b5761426a6156f5565b5b9060005260206000200181905550601180548061428b5761428a6156c6565b5b6001900381819060005260206000200160009055905550565b8280546142b0906155b2565b90600052602060002090601f0160209004810192826142d25760008555614319565b82601f106142eb57805160ff1916838001178555614319565b82800160010185558215614319579182015b828111156143185782518255916020019190600101906142fd565b5b509050614326919061438a565b5090565b6040518060c0016040528060008152602001600081526020016000815260200160008152602001600081526020016000151581525090565b6040518060800160405280600081526020016000815260200160008152602001600081525090565b5b808211156143a357600081600090555060010161438b565b5090565b60006143ba6143b5846153af565b61538a565b9050828152602081018484840111156143d6576143d5615758565b5b6143e1848285615546565b509392505050565b6000813590506143f881615a80565b92915050565b60008135905061440d81615a97565b92915050565b60008151905061442281615a97565b92915050565b600082601f83011261443d5761443c615753565b5b813561444d8482602086016143a7565b91505092915050565b60008135905061446581615aae565b92915050565b60008135905061447a81615ac5565b92915050565b60006020828403121561449657614495615762565b5b60006144a4848285016143e9565b91505092915050565b600080604083850312156144c4576144c3615762565b5b60006144d2858286016143e9565b92505060206144e385828601614456565b9150509250929050565b6000806040838503121561450457614503615762565b5b6000614512858286016143e9565b92505060206145238582860161446b565b9150509250929050565b60006020828403121561454357614542615762565b5b6000614551848285016143fe565b91505092915050565b6000602082840312156145705761456f615762565b5b600061457e84828501614413565b91505092915050565b60006020828403121561459d5761459c615762565b5b600082013567ffffffffffffffff8111156145bb576145ba61575d565b5b6145c784828501614428565b91505092915050565b6000602082840312156145e6576145e5615762565b5b60006145f484828501614456565b91505092915050565b6000806040838503121561461457614613615762565b5b600061462285828601614456565b9250506020614633858286016143e9565b9150509250929050565b600080600080600060a0868803121561465957614658615762565b5b600061466788828901614456565b955050602086013567ffffffffffffffff8111156146885761468761575d565b5b61469488828901614428565b94505060406146a588828901614456565b93505060606146b688828901614456565b92505060806146c78882890161446b565b9150509295509295909350565b600080604083850312156146eb576146ea615762565b5b60006146f985828601614456565b925050602061470a85828601614456565b9150509250929050565b60008060006060848603121561472d5761472c615762565b5b600061473b86828701614456565b935050602061474c86828701614456565b925050604061475d868287016143e9565b9150509250925092565b6000806000606084860312156147805761477f615762565b5b600061478e86828701614456565b935050602061479f86828701614456565b92505060406147b086828701614456565b9150509250925092565b600080600080600060a086880312156147d6576147d5615762565b5b60006147e488828901614456565b95505060206147f588828901614456565b945050604061480688828901614456565b935050606086013567ffffffffffffffff8111156148275761482661575d565b5b61483388828901614428565b9250506080614844888289016143e9565b9150509295509295909350565b6000806000806080858703121561486b5761486a615762565b5b600061487987828801614456565b945050602061488a87828801614456565b935050604061489b87828801614456565b92505060606148ac87828801614456565b91505092959194509250565b6000602082840312156148ce576148cd615762565b5b60006148dc8482850161446b565b91505092915050565b600080600080608085870312156148ff576148fe615762565b5b600061490d8782880161446b565b945050602061491e8782880161446b565b935050604061492f87828801614456565b925050606061494087828801614456565b91505092959194509250565b60006149588383614d59565b60208301905092915050565b61496d816154d5565b82525050565b600061497e826153f0565b614988818561541e565b9350614993836153e0565b8060005b838110156149c45781516149ab888261494c565b97506149b683615411565b925050600181019050614997565b5085935050505092915050565b6149da816154e7565b82525050565b6149e9816154e7565b82525050565b6149f8816154f3565b82525050565b6000614a09826153fb565b614a13818561542f565b9350614a23818560208601615555565b80840191505092915050565b6000614a3a82615406565b614a44818561543a565b9350614a54818560208601615555565b614a5d81615767565b840191505092915050565b6000614a7560158361543a565b9150614a8082615778565b602082019050919050565b6000614a98600f8361543a565b9150614aa3826157a1565b602082019050919050565b6000614abb60148361543a565b9150614ac6826157ca565b602082019050919050565b6000614ade60138361543a565b9150614ae9826157f3565b602082019050919050565b6000614b01600d8361543a565b9150614b0c8261581c565b602082019050919050565b6000614b2460118361543a565b9150614b2f82615845565b602082019050919050565b6000614b4760078361543a565b9150614b528261586e565b602082019050919050565b6000614b6a601e8361543a565b9150614b7582615897565b602082019050919050565b6000614b8d601e8361543a565b9150614b98826158c0565b602082019050919050565b6000614bb060148361543a565b9150614bbb826158e9565b602082019050919050565b6000614bd360178361543a565b9150614bde82615912565b602082019050919050565b6000614bf6601a8361543a565b9150614c018261593b565b602082019050919050565b6000614c1960078361543a565b9150614c2482615964565b602082019050919050565b6000614c3c60178361543a565b9150614c478261598d565b602082019050919050565b6000614c5f601a8361543a565b9150614c6a826159b6565b602082019050919050565b6000614c8260178361543a565b9150614c8d826159df565b602082019050919050565b6000614ca560078361543a565b9150614cb082615a08565b602082019050919050565b6000614cc860248361543a565b9150614cd382615a31565b604082019050919050565b60c082016000820151614cf46000850182614d59565b506020820151614d076020850182614d59565b506040820151614d1a6040850182614d59565b506060820151614d2d6060850182614d59565b506080820151614d406080850182614d59565b5060a0820151614d5360a08501826149d1565b50505050565b614d628161551d565b82525050565b614d718161551d565b82525050565b614d88614d838261551d565b61565e565b82525050565b614d9781615534565b82525050565b6000614da982846149fe565b915081905092915050565b6000614dc08284614d77565b60208201915081905092915050565b6000602082019050614de46000830184614964565b92915050565b60006020820190508181036000830152614e048184614973565b905092915050565b6000602082019050614e2160008301846149e0565b92915050565b60006020820190508181036000830152614e418184614a2f565b905092915050565b60006020820190508181036000830152614e6281614a68565b9050919050565b60006020820190508181036000830152614e8281614a8b565b9050919050565b60006020820190508181036000830152614ea281614aae565b9050919050565b60006020820190508181036000830152614ec281614ad1565b9050919050565b60006020820190508181036000830152614ee281614af4565b9050919050565b60006020820190508181036000830152614f0281614b17565b9050919050565b60006020820190508181036000830152614f2281614b3a565b9050919050565b60006020820190508181036000830152614f4281614b5d565b9050919050565b60006020820190508181036000830152614f6281614b80565b9050919050565b60006020820190508181036000830152614f8281614ba3565b9050919050565b60006020820190508181036000830152614fa281614bc6565b9050919050565b60006020820190508181036000830152614fc281614be9565b9050919050565b60006020820190508181036000830152614fe281614c2f565b9050919050565b6000602082019050818103600083015261500281614c52565b9050919050565b6000602082019050818103600083015261502281614c75565b9050919050565b6000602082019050818103600083015261504281614c98565b9050919050565b6000602082019050818103600083015261506281614cbb565b9050919050565b600060c08201905061507e6000830184614cde565b92915050565b60006020820190506150996000830184614d68565b92915050565b60006060820190506150b46000830186614d68565b6150c16020830185614964565b6150ce6040830184614964565b949350505050565b60006080820190506150eb6000830186614d68565b6150f86020830185614964565b61510560408301846149e0565b818103606083015261511681614b3a565b9050949350505050565b60006040820190506151356000830184614d68565b818103602083015261514681614b3a565b905092915050565b60006040820190506151636000830184614d68565b818103602083015261517481614c0c565b905092915050565b60006060820190506151916000830185614d68565b61519e6020830184614d68565b81810360408301526151af81614b3a565b90509392505050565b600060e0820190506151cd600083018a614d68565b6151da6020830189614d68565b6151e76040830188614d68565b6151f46060830187614964565b6152016080830186614d68565b61520e60a0830185614d68565b61521b60c08301846149e0565b98975050505050505050565b600060a08201905061523c6000830188614d68565b6152496020830187614d68565b6152566040830186614d68565b61526360608301856149e0565b6152706080830184614d68565b9695505050505050565b600060a08201905061528f6000830188614d68565b61529c6020830187614d68565b6152a96040830186614d68565b6152b660608301856149ef565b6152c36080830184614d68565b9695505050505050565b60006080820190506152e26000830186614d68565b6152ef6020830185614d68565b6152fc6040830184614d68565b818103606083015261530d81614b3a565b9050949350505050565b600060808201905061532c6000830187614d68565b6153396020830186614d68565b6153466040830185614d68565b6153536060830184614d68565b95945050505050565b60006040820190506153716000830184614d8e565b818103602083015261538281614b3a565b905092915050565b60006153946153a5565b90506153a082826155e4565b919050565b6000604051905090565b600067ffffffffffffffff8211156153ca576153c9615724565b5b6153d382615767565b9050602081019050919050565b6000819050602082019050919050565b600081519050919050565b600081519050919050565b600081519050919050565b6000602082019050919050565b600082825260208201905092915050565b600081905092915050565b600082825260208201905092915050565b60006154568261551d565b91506154618361551d565b9250827fffffffffffffffffffffffffffffffffffffffffffffffffffffffffffffffff0382111561549657615495615668565b5b828201905092915050565b60006154ac8261551d565b91506154b78361551d565b9250828210156154ca576154c9615668565b5b828203905092915050565b60006154e0826154fd565b9050919050565b60008115159050919050565b6000819050919050565b600073ffffffffffffffffffffffffffffffffffffffff82169050919050565b6000819050919050565b600060ff82169050919050565b600061553f82615527565b9050919050565b82818337600083830152505050565b60005b83811015615573578082015181840152602081019050615558565b83811115615582576000848401525b50505050565b60006155938261551d565b915060008214156155a7576155a6615668565b5b600182039050919050565b600060028204905060018216806155ca57607f821691505b602082108114156155de576155dd615697565b5b50919050565b6155ed82615767565b810181811067ffffffffffffffff8211171561560c5761560b615724565b5b80604052505050565b60006156208261551d565b91507fffffffffffffffffffffffffffffffffffffffffffffffffffffffffffffffff82141561565357615652615668565b5b600182019050919050565b6000819050919050565b7f4e487b7100000000000000000000000000000000000000000000000000000000600052601160045260246000fd5b7f4e487b7100000000000000000000000000000000000000000000000000000000600052602260045260246000fd5b7f4e487b7100000000000000000000000000000000000000000000000000000000600052603160045260246000fd5b7f4e487b7100000000000000000000000000000000000000000000000000000000600052603260045260246000fd5b7f4e487b7100000000000000000000000000000000000000000000000000000000600052604160045260246000fd5b600080fd5b600080fd5b600080fd5b600080fd5b6000601f19601f8301169050919050565b7f43616c6c6572206973206e6f7420696e76697465640000000000000000000000600082015250565b7f43616c6c6572206973206f776e65720000000000000000000000000000000000600082015250565b7f4e6f7420616e20656d706c6f7965652074797065000000000000000000000000600082015250565b7f43616c6c6572206973206e6f74206f776e657200000000000000000000000000600082015250565b7f46616d696c792065786973747300000000000000000000000000000000000000600082015250565b7f4e6f74206120446f63746f722074797065000000000000000000000000000000600082015250565b7f7375636365737300000000000000000000000000000000000000000000000000600082015250565b7f416c726561647920696e7669746174696f6e20636f6465206578697374730000600082015250565b7f496e697469616c20436f75706f6e7320616c7265616479206973737565640000600082015250565b7f456d706c6f796565202052656769737465726564000000000000000000000000600082015250565b7f446f63756d656e7420616c726561647920657869737473000000000000000000600082015250565b7f436f75706f6e2063616e206e6f742062652072656465656d6564000000000000600082015250565b7f6661696c75726500000000000000000000000000000000000000000000000000600082015250565b7f496e76616c6964207374617475732070726f7669646564000000000000000000600082015250565b7f4e6f7420746865206f776e6572206f662074686520746f6b656e000000000000600082015250565b7f456d706c6f796565204e6f742052656769737465726564000000000000000000600082015250565b7f64656c6574656400000000000000000000000000000000000000000000000000600082015250565b7f46616d696c79206d656d626572732073686f756c64206265206d6f726520746860008201527f616e203000000000000000000000000000000000000000000000000000000000602082015250565b615a89816154d5565b8114615a9457600080fd5b50565b615aa0816154f3565b8114615aab57600080fd5b50565b615ab78161551d565b8114615ac257600080fd5b50565b615ace81615527565b8114615ad957600080fd5b5056fea2646970667358221220041c145fff7a31e74629a3eb2f71d3937aecf6ee508a1dde711e2740f976f8df64736f6c63430008050033",
  "immutableReferences": {},
  "source": "// SPDX-License-Identifier: GPL-3.0\n\npragma solidity >=0.7.0 <0.9.0;\n\n\n/**\n * @title Owner\n * @dev Set & change owner\n */\ncontract Owner {\n\n    address private owner;\n    \n    // event for EVM logging\n    event OwnerSet(address indexed oldOwner, address indexed newOwner);\n    \n    // modifier to check if caller is owner\n    modifier isOwner() {\n        // If the first argument of 'require' evaluates to 'false', execution terminates and all\n        // changes to the state and to Ether balances are reverted.\n        // This used to consume all gas in old EVM versions, but not anymore.\n        // It is often a good idea to use 'require' to check if functions are called correctly.\n        // As a second argument, you can also provide an explanation about what went wrong.\n        require(msg.sender == owner, \"Caller is not owner\");\n        _;\n    }\n    \n    modifier notOwner() {\n       require(msg.sender != owner, \"Caller is owner\");\n        _; \n    }\n    \n    /**\n     * @dev Set contract deployer as owner\n     */\n    constructor() {\n        owner = msg.sender; // 'msg.sender' is sender of current call, contract deployer for a constructor\n        emit OwnerSet(address(0), owner);\n    }\n\n    /**\n     * @dev Change owner\n     * @param newOwner address of new owner\n     */\n    function changeOwner(address newOwner) public isOwner {\n        emit OwnerSet(owner, newOwner);\n        owner = newOwner;\n    }\n\n    /**\n     * @dev Return owner address \n     * @return address of owner\n     */\n    function getOwner() external view returns (address) {\n        return owner;\n    }\n}\n\ncontract UserInvite is Owner{ \n\n\n    \n    struct Invitation { \n        uint id;\n        uint invtype;\n    }\n    \n    event delinvitee (\n        string  msg\n        );\n        \n    event InvitationAdded(string msg);\n\n    mapping (uint => Invitation) internal invitationById;\n    uint[] internal invitees;\n    \n    modifier isInvited(uint _code, uint _id, uint _usertype) {\n        // If the first argument of 'require' evaluates to 'false', execution terminates and all\n        // changes to the state and to Ether balances are reverted.\n        // This used to consume all gas in old EVM versions, but not anymore.\n        // It is often a good idea to use 'require' to check if functions are called correctly.\n        // As a second argument, you can also provide an explanation about what went wrong.\n        require(invitationById[_code].id == _id && invitationById[_code].invtype == _usertype, \"Caller is not invited\");\n        _;\n    }\n\n    function find(uint value) private view returns(uint) {\n        uint i = 0;\n        while (invitees[i] != value) {\n            i++;\n        }\n        return i;\n    }\n\n    function removeByValue(uint value) private {\n        uint i = find(value);\n        removeByIndex(i);\n    }\n\n    function removeByIndex(uint i) private {\n            invitees[i] = invitees[invitees.length -1];\n            invitees.pop();\n        }\n    \n    \n    function addInvitation(uint _code, uint _id, uint _usertype) public isOwner { \n        require(invitationById[_code].id == 0, \"Already invitation code exists\");\n        invitationById[_code].id = _id;\n        invitationById[_code].invtype = _usertype;\n        \n        invitees.push(_id);\n        emit InvitationAdded(\"success\");\n    }\n    \n    function deleteInvitation(uint _code, uint _id) internal {\n         delete invitationById[_code];\n         removeByValue(_id);\n         emit delinvitee(\"deleted\");\n    }\n    \n    function getInvitations() public isOwner view returns (uint[] memory)  {\n        return invitees;\n    }\n    \n}\n\ncontract EmployeeBase is UserInvite { \n\n    struct Employee { \n        uint id;\n        uint empid; //empid provided by HR\n        uint maxfamilycount; //maximum number of family members that can register\n        uint initialCouponCount;\n        uint extraCouponCount;\n        bool active;\n    }\n\n    struct Family {\n      uint id;\n      uint empId;\n      uint count;\n      bool active;\n      uint activeMembers;\n    }\n\n    \n  \n  struct Member {\n      uint id;\n      uint empId;\n      uint familyId;\n      address owner;\n      uint initialCouponCount;\n      uint extraCouponCount;\n      bool active;\n   }\n    event empRegistration(uint employeesCounter, string msg);\n    event empFamilyRegistration(uint familyCounter, string msg);\n    event memberRegistration (uint memberCounter, string msg);\n    \n    uint employeesCounter;\n    uint familyCounter;\n    uint memberCounter;\n    \n    mapping (address => Employee) internal employees;\n    mapping (uint => address) internal employeeIndexToOwner;\n    mapping (uint => uint) internal employeeIDtoIndex;\n\n    //family\n    mapping(uint => Family) public EmployeeFamily;\n\n    //Family Member\n    mapping (address => Member) internal familyMembers;\n    mapping (uint => mapping(uint => Member )) EmployeeToFamilyMembers;\n    mapping (uint => Member[]) public EmployeeFamilyMembers;\n    mapping (address => uint ) memberAddressToEmployeeId;\n    uint[] public registeredEmployees;\n    \n    //Employee Coupons\n    mapping (uint => mapping(uint => uint[] )) internal EmployeeToCoupons;\n    \n    //Member Coupons\n    mapping (uint => mapping(uint => uint[] )) internal MemberToCoupons;\n    \n    //Employee Doctor Visit, e.g empDoctorVisists[601][0] = 1 (visitId)\n    mapping(address => uint[]) public empDoctorVisists;\n    \n    constructor() {\n        employeesCounter = 0;\n        memberCounter = 0;\n        familyCounter = 0;\n    }\n\n    function isEmployee(uint _type) private pure returns (bool) {\n        if (_type ==1) {\n            return true;\n        }\n        else {\n            return false;\n        }\n    }\n    \n    \n    modifier isRegisteredEmployee(address _address) {\n        // If the first argument of 'require' evaluates to 'false', execution terminates and all\n        // changes to the state and to Ether balances are reverted.\n        // This used to consume all gas in old EVM versions, but not anymore.\n        // It is often a good idea to use 'require' to check if functions are called correctly.\n        // As a second argument, you can also provide an explanation about what went wrong.\n        require(employees[_address].active == true, \"Employee Not Registered\");\n        _;\n    }\n    \n    modifier isNotRegistered(address _address) {\n        require(employees[_address].active == false, \"Employee  Registered\");\n        _;\n    }\n\n    //function can be called by User with an invitation on the system\n    function registerEmployee(uint _empid, uint _maxfamilycount, uint _code, uint _usertype ) public notOwner isInvited(_code,_empid, _usertype) isNotRegistered(msg.sender) {\n        require(isEmployee(_usertype), \"Not an employee type\");\n        employeesCounter ++;\n        employees[msg.sender] = Employee(employeesCounter, _empid, _maxfamilycount,0,0,true);\n        registeredEmployees.push(_empid);\n        employeeIndexToOwner[employeesCounter] = msg.sender;\n        employeeIDtoIndex[_empid] = employeesCounter;\n        deleteInvitation(_code,_empid);\n        registerFamily(_empid, _maxfamilycount, msg.sender);\n        emit empRegistration(employeesCounter, \"success\");\n    }\n\n    function getEmployee(address _address) internal view returns (Employee storage){\n        return( employees[_address]);\n    }\n    \n    function getMember(address _address) internal view returns (Member storage){\n        return( familyMembers[_address]);\n    }\n    \n\n    function registerFamily(uint _empId, uint _count, address _address) internal isRegisteredEmployee(_address) {\n        require(_count > 0, \"Family members should be more than 0\");\n        require(!familyExists(_empId), \"Family exists\");\n        familyCounter ++;\n        Family memory _family = Family(familyCounter, _empId, _count, true, 0);\n        EmployeeFamily[_empId] = _family;\n        \n        emit empFamilyRegistration(familyCounter, \"success\");\n\n    }\n\n    function registerFamilyMember(uint _empId,uint _familyId, address _address) public isRegisteredEmployee(msg.sender) {\n              memberCounter ++;\n              Member memory _member = Member(memberCounter, _empId, _familyId, _address,0,0, true);\n              familyMembers[_address] = _member;\n              EmployeeToFamilyMembers[_empId][memberCounter] = _member;\n              EmployeeFamilyMembers[_empId].push(_member);\n              memberAddressToEmployeeId[_address] = _empId;\n              Family memory _family = EmployeeFamily[_empId];\n              _family.activeMembers ++;\n              EmployeeFamily[_empId] = _family;\n              emit memberRegistration(memberCounter, \"success\");\n    }\n  \n  function familyExists(uint _empId) private view returns(bool){\n      if (EmployeeFamily[_empId].active == true ) {\n          return true;\n      }\n      else {\n          return false;\n      }\n      \n  }\n    \n}\n\ncontract DoctorBase is UserInvite { \n    struct Doctor { \n        uint id;\n        uint doctorid;\n        string specialty;\n        uint8 couponcoeficient;\n        bool active;\n    }\n    \n    uint internal doctorsCounter;\n    \n    mapping (address => Doctor) internal doctors;\n    mapping (uint => address) internal doctorIndexToOwner;\n    mapping (uint => bytes32) internal doctorIndexToKeyHash;\n    uint[] internal registeredDoctors;\n    \n    //events \n    event doctorregistration (uint id, string msg);\n    \n    constructor() {\n        doctorsCounter = 0;\n    }\n\n    function isDoctor(uint _type) private pure returns (bool) {\n        if (_type ==2) {\n            return true;\n        }\n        else {\n            return false;\n        }\n    }\n    \n    //function can be called by User with an invitation on the system\n    function registerDoctor(uint _doctorid, string memory _speciality, uint _code, uint _usertype, uint8 _couponcoeficient) public isInvited(_code,_doctorid, _usertype) notOwner{\n        require(isDoctor(_usertype), \"Not a Doctor type\");\n        doctorsCounter ++;\n        bytes32 _keyhash = sha256(abi.encodePacked(doctorsCounter+_doctorid));\n        doctorIndexToKeyHash[doctorsCounter] = _keyhash;\n        doctors[msg.sender] = Doctor(doctorsCounter, _doctorid, _speciality,_couponcoeficient, true);\n        registeredDoctors.push(_doctorid);\n        doctorIndexToOwner[_doctorid] = msg.sender;\n        deleteInvitation(_code,_doctorid);\n        emit doctorregistration(doctorsCounter, \"success\");\n    }\n\n    function getDoctor(address _address) internal view returns (uint, uint, string memory, uint8, bool ){\n        return( doctors[_address].doctorid, doctors[_address].id, doctors[_address].specialty ,doctors[_address].couponcoeficient,doctors[_address].active);\n    }\n    function getDoctor(uint _id) internal view returns(bytes32 _keyhash) {\n        return doctorIndexToKeyHash[_id];\n    }\n}\n\ncontract Coupon is Owner {\n    \n  address owner;\n  uint8 value;\n  uint8 empCouponMax;\n  uint couponPayAmount;\n  uint couponCount; \n  uint couponExchangedCount;\n  uint couponRedeemedCount;\n  uint couponPaidCount;\n  uint year;\n  \n  struct CouponPaper {\n    uint id;\n    address owner;\n    address beneficiary;\n    //add empID to track coupons for family members\n    uint value;\n    string status;\n    bool valid;\n    bool approved;\n  } \n  \n  event CouponPaperCreated(\n    uint id,\n    address owner,\n    bool valid,\n    string msg\n  );\n  \n  \n  mapping(uint => CouponPaper) internal coupons;\n  mapping(address => uint) internal ownershipToCouponCount;\n  //Filled when new coupon is created\n  mapping(uint => address) internal couponIndexToOwner;\n  //Filled when new coupon is exchanged\n  mapping(uint => address) internal couponIndexToOwnerExchanged;\n  //Filled when new coupon is redeemed\n  mapping(uint => address) internal couponIndexToOwnerRedeeemed;\n  //Track coupon status\n  mapping(uint => uint8) internal couponIndexToStatus;\n  \n  //Filled when a coupon is used in DoctorVisit\n  mapping(uint => bool) couponIndexToDoctorVisit;\n  \n  //Stores the balances to be paid for the employee;\n  mapping(address => uint) balances;\n  \n  constructor() {\n    owner = msg.sender;\n    couponCount = 0;\n    value = 1;\n    empCouponMax = 5;\n    couponPayAmount = 60000;\n  }\n  \n    function setGlobalParameters(uint8 _value, uint8 _maxcoupons, uint _paidamount,uint _year) public isOwner {\n        value = _value;\n        empCouponMax = _maxcoupons;\n        couponPayAmount = _paidamount;\n        year = _year;\n        \n    }\n  \n\n    function issueCoupon(address _couponowner, address _couponbeneficiary ) internal returns(uint _couponId) {\n    couponCount ++;\n    coupons[couponCount] = CouponPaper(couponCount,_couponowner, _couponbeneficiary, value, \"created\", true, false);\n    ownershipToCouponCount[_couponowner] ++;\n    couponIndexToOwner[couponCount] = _couponowner;\n    couponIndexToStatus[couponCount] = 1;\n    emit CouponPaperCreated(couponCount, _couponowner, true, \"success\");\n    return couponCount;\n    \n    }\n    \n    function _transfer(address _from, address _to, uint _couponId) internal {\n        CouponPaper storage _coupon = coupons[_couponId];\n        _coupon.owner = _to;\n        ownershipToCouponCount[_to] ++;\n        ownershipToCouponCount[_from] --;\n        couponIndexToOwner[couponCount] = _to;\n    }\n\n    function _owns(address _address, uint _couponId) internal view returns (bool) {\n        return(coupons[_couponId].owner == _address);\n    }\n    \n    function _usedInDoctorVisit(uint _couponId) internal view returns (bool) {\n        return (couponIndexToDoctorVisit[_couponId]);\n    }\n    \n    function _isBeneficiary(address _address, uint _couponId) internal view returns (bool) {\n        return(coupons[_couponId].beneficiary == _address);\n    }\n    \n    //coupon status is exchanged\n    function _readyToBeRedeemed(uint _couponId) internal view returns (bool) {\n       return((couponIndexToOwnerExchanged[_couponId] > address(0)) && (couponIndexToStatus[_couponId] == 2));\n    }\n    \n  \n    function getCouponById(uint _couponId) public isOwner view returns(uint, address, address) { \n    \n        return (coupons[_couponId].id, coupons[_couponId].owner, coupons[_couponId].beneficiary);\n    }\n    \n    function getCoupon(uint _couponId) internal isOwner view returns(CouponPaper storage){\n        return coupons[_couponId];\n    }\n\n    function couponBalanceOf(address _address) internal view returns (uint count) {\n        return ownershipToCouponCount[_address];\n    }\n\n    function totalCoupons() internal view returns (uint count) {\n        return couponCount;\n        \n    }\n\n    function totalCouponsByStatus(uint8 _status) internal view returns (uint countExchanged) {\n        require(_status < 5 && _status >0, \"Invalid status provided\");\n        //1 - created, 2- exchanged, 3-redeemed, 4-paid\n        if (_status == 1) return couponCount;\n        if (_status == 2) return couponExchangedCount;\n        if (_status == 3) return couponRedeemedCount;\n        if (_status == 4) return couponPaidCount;\n    }\n\n    function getCouponsByStatus(uint8 _status) external view returns (uint256[] memory statusCoupons) {\n        \n        uint256 count = totalCouponsByStatus(_status);\n        if (count == 0) {\n            return new uint256[](0);\n        }\n        else {\n            uint256[] memory result = new uint256[](count);\n            uint256 total = totalCoupons();\n            uint256 resultIndex = 0;\n            //we count all coupons\n            uint256 couponId;\n\n            for (couponId = 1; couponId <= total; couponId++) {\n                if (couponIndexToStatus[couponId] == _status) {\n                    result[resultIndex] = couponId;\n                    resultIndex++;\n                }\n            }\n\n            return result;\n        }\n\n    }\n\n    \n    function getCouponsByOwner(address _owner) external view returns (uint256[] memory ownerCoupons) {\n        uint256 count = couponBalanceOf(_owner);\n        if (count == 0) {\n            return new uint[](0);\n        }\n        else {\n            uint256[] memory result = new uint256[](count);\n            uint256 total = totalCoupons();\n            uint256 resultIndex = 0;\n            //we count all coupons\n            uint256 couponId;\n\n            for (couponId = 1; couponId <= total; couponId++) {\n                if (couponIndexToOwner[couponId] == _owner) {\n                    result[resultIndex] = couponId;\n                    resultIndex++;\n                }\n            }\n\n            return result;\n        }\n\n    }\n    \n    \n  \n  \n}\n\ncontract DoctorVisitBase {\n  uint public visitCount; \n\n  struct Visit {\n    uint id;\n    uint empId;\n    uint couponId;\n    uint doctorId;\n  }\n\n  event VisitCreated (\n    uint id,\n    uint empId,\n    uint couponId,\n    string msg\n  );\n\n  //visits  mapping incremental\n  mapping(uint => Visit) public visits;\n  //mapping visitDocumentIndex to Visit ID;\n  mapping (uint => uint) DoctorVisitIndexToDocumentId;\n\n  constructor() {\n    visitCount = 0;\n  }\n\n  function createVisit(uint _empId, uint _couponId, uint _doctorId) internal returns(uint visitId) {\n    visitCount ++;\n    Visit memory _visit;\n    _visit = Visit(visitCount, _empId, _couponId, _doctorId);\n    visits[visitCount] = _visit;\n    emit VisitCreated(visitCount, _empId, _couponId, \"success\");\n    return visits[visitCount].id;\n  }\n  \n  function getDoctorVisit(uint _visitid) public view returns (uint visitid, uint empid, uint couponid, uint doctorid) {\n      return (visits[_visitid].id,visits[_visitid].empId,visits[_visitid].couponId,visits[_visitid].doctorId);\n  }\n\n}\n\ncontract VisitDocumentBase is DoctorVisitBase { \n  uint public VisitDocumentCount;\n\n  struct VisitDoc { \n    uint id; \n    uint _doctorvisitId;\n    uint _empId;\n    bytes32 _docHash;\n    uint flag; //flag is one when created by the contract\n  }\n\n  event VisitDocumentAddition (\n    uint documentID,\n    string msg\n  );\n  mapping (uint => VisitDoc ) public VisitDocuments;\n  mapping (bytes32 => uint ) public VisitDocumentBasehash;\n  \n\n  constructor() {\n    VisitDocumentCount = 0;\n  }\n\n  function addVisitDocument(uint _doctorvisitId, uint _empId,bytes32 _docHash) internal returns(uint documentId) {\n     require(!_documentExists(_docHash), \"Document already exists\"); //check if document hash already exists\n        VisitDocumentCount ++;\n        VisitDocuments[VisitDocumentCount] = VisitDoc(VisitDocumentCount, _doctorvisitId, _empId, _docHash, 1);\n        VisitDocumentBasehash[_docHash] = VisitDocumentCount; \n        DoctorVisitIndexToDocumentId[_doctorvisitId] = VisitDocumentCount;\n        emit VisitDocumentAddition(VisitDocumentCount, \"success\");\n        return VisitDocuments[VisitDocumentCount].id;\n  }\n  \n  function _documentExists(bytes32 _docHash) public view returns (bool) {\n      if(VisitDocumentBasehash[_docHash] > 0) {\n        return true;\n      }\n      else {\n        return false;\n      }\n  }\n  \n}\n\n\n\ncontract EmployeeCore is Coupon,EmployeeBase,VisitDocumentBase {\n    \n    event EmployeeCouponGeneration(uint initialCouponCount, string msg);\n    event MemberCouponGeneration(uint initialCouponCount, string msg);\n    event couponExchanged(uint _couponId, string msg);\n    event doctorVisited(uint visitid, uint documentid, string msg);\n    \n    //get Employee info\n    function getEmployeeInfo(address _employee) external isRegisteredEmployee(msg.sender) view returns (Employee memory) {\n        return getEmployee(_employee);\n    }\n    //issue inital coupons\n    function employeeIssueCoupons() public isRegisteredEmployee(msg.sender) {\n        require((employees[msg.sender].initialCouponCount == 0), \"Initial Coupons already issued\");\n        Employee storage _employee = getEmployee(msg.sender);\n            for (uint i =1; i <= empCouponMax; i++)\n            {\n            //Employee is the owner and beneficiary of his initial coupons\n            EmployeeToCoupons[_employee.empid][year].push(issueCoupon(msg.sender,msg.sender));\n            _employee.initialCouponCount ++;\n            }\n            if ((_employee.initialCouponCount) == empCouponMax) {\n                emit EmployeeCouponGeneration(empCouponMax, \"success\");\n            }\n            else { \n                emit EmployeeCouponGeneration(_employee.initialCouponCount, \"failure\");\n            }\n        \n\n    }\n    \n    function employeeIssueMembersCoupons(address _memberaddress) public isRegisteredEmployee(msg.sender) {\n        require((familyMembers[_memberaddress].initialCouponCount == 0), \"Initial Coupons already issued\");\n        Member storage _member = getMember(_memberaddress);\n            for (uint i =1; i <= empCouponMax; i++)\n            {\n            //Employee is the owner and beneficiary of his initial coupons\n            MemberToCoupons[_member.id][year].push(issueCoupon(_memberaddress,msg.sender));\n            _member.initialCouponCount ++;\n            }\n            if ((_member.initialCouponCount) == empCouponMax) {\n                emit MemberCouponGeneration(empCouponMax, \"success\");\n            }\n            else { \n                emit MemberCouponGeneration(_member.initialCouponCount, \"failure\");\n            }\n        \n\n    }\n    \n     function exchangeCoupon(uint _couponId, address _owner) public isRegisteredEmployee(msg.sender) {\n        require(_owns(_owner, _couponId), \"Not the owner of the token\");\n         CouponPaper memory _coupon = coupons[_couponId]; \n         _coupon.status = \"Exchanged\";\n         //_coupon.beneficiary = _coupon.owner;\n         //_coupon.owner = owner;\n         coupons[_couponId] = _coupon;\n         couponIndexToStatus[_couponId] = 2;\n         couponExchangedCount ++;\n         couponIndexToOwnerExchanged[_couponId] = _owner;\n         delete couponIndexToOwner[_couponId];\n    }\n    \n    function redeemCoupon(uint _couponId, address _owner) public isRegisteredEmployee(msg.sender) {\n        require(_owns(_owner, _couponId), \"Not the owner of the token\");\n        require(_readyToBeRedeemed(_couponId), \"Coupon can not be redeemed\");\n         CouponPaper memory _coupon = coupons[_couponId]; \n         _coupon.status = \"Redeemed\";\n         couponIndexToStatus[couponCount] = 3;\n         couponExchangedCount --;\n         couponRedeemedCount ++;\n         //_coupon.beneficiary = owner;\n        coupons[_couponId] = _coupon;\n        couponIndexToOwnerRedeeemed[_couponId] = msg.sender;\n        delete couponIndexToOwnerExchanged[_couponId];\n    }\n    \n    function visitDoctor(uint empid, uint couponid, uint doctorid, string memory _md5, address _address) public isRegisteredEmployee(msg.sender){\n            //employee should have a family relation with _address\n            //visit doctor\n            uint _visitId = createVisit(empid, couponid, doctorid);\n            couponIndexToDoctorVisit[couponid] = true;\n            empDoctorVisists[msg.sender].push(_visitId);\n            //submit document\n            bytes32 _docHash = sha256(bytes(_md5));\n            uint _documentId = addVisitDocument(doctorid, empid, _docHash);\n            // then exchange Coupon\n            exchangeCoupon(couponid, _address);\n            emit doctorVisited( _visitId, _documentId, \"success\");\n    }\n}\n\ncontract HRManager is Coupon,EmployeeBase,DoctorBase {\n    mapping(uint => address) couponIndexApproved;\n\n    event approveCoupon(uint couponid, string msg);\n    event paidCoupon(uint _couponId, string msg);\n    event DoctorPricing(string msg);\n    \n    function approveCouponRedemption(uint _couponId) public isOwner {\n        require(_readyToBeRedeemed(_couponId), \"Coupon can not be redeemed\");\n        CouponPaper storage _coupon = coupons[_couponId]; \n         _coupon.approved = true;\n         couponIndexApproved[_couponId] = msg.sender;\n         emit approveCoupon(_couponId, \"success\");\n    }\n    \n    function prepareCouponPayment(uint _couponId) public isOwner {\n        CouponPaper storage _coupon = coupons[_couponId]; \n        _coupon.valid = false;\n        _coupon.status = \"Paid\";\n        _coupon.beneficiary = _coupon.owner;\n        _coupon.owner = owner;\n        couponIndexToStatus[couponCount] = 4;\n        couponRedeemedCount --;\n        couponPaidCount ++;\n        uint _balance = balances[_coupon.owner];\n        balances[_coupon.owner] = _balance + couponPayAmount;\n\n        emit paidCoupon(_couponId, \"success\");\n        \n    }\n\n    function updateDoctorPricing(address _address, uint8 _newCouponCoefficient) external isOwner {\n        Doctor storage _doctor = doctors[_address];\n       // _doctor.couponcoefficient = _newCouponCoefficient;\n       bool coefficient = _doctor.active;\n        emit DoctorPricing(\"success\");\n    }\n}\n \ncontract MyNet is EmployeeCore,DoctorBase,HRManager {\n    string name;\n\n    constructor() {\n        name = \"MyNet Contract is initialised\";\n    }\n\n  function setName(string memory _name) public isOwner{ \n    name = _name;\n  }\n\n  function getName() public view returns (string memory) {\n    return name;\n  }\n\n    \n    \n}\n",
  "sourcePath": "/Users/wissamdagher/Documents/dev/blockchain/CouponMedNet/src/contracts/UserManager.sol",
  "compiler": {
    "name": "solc",
    "version": "0.8.5+commit.a4f2e591.Emscripten.clang"
  },
  "schemaVersion": "3.4.1",
  "updatedAt": "2021-06-17T18:19:19.118Z",
  "devdoc": {
    "kind": "dev",
    "methods": {
      "changeOwner(address)": {
        "details": "Change owner",
        "params": {
          "newOwner": "address of new owner"
        }
      },
      "getOwner()": {
        "details": "Return owner address ",
        "returns": {
          "_0": "address of owner"
        }
      }
    },
    "version": 1
  },
  "userdoc": {
    "kind": "user",
    "methods": {},
    "version": 1
  }
}