{
  "contractName": "MyNet",
  "abi": [
    {
      "inputs": [],
      "stateMutability": "nonpayable",
      "type": "constructor"
    },
    {
      "anonymous": false,
      "inputs": [
        {
          "indexed": false,
          "internalType": "uint256",
          "name": "id",
          "type": "uint256"
        },
        {
          "indexed": false,
          "internalType": "address",
          "name": "owner",
          "type": "address"
        },
        {
          "indexed": false,
          "internalType": "bool",
          "name": "valid",
          "type": "bool"
        },
        {
          "indexed": false,
          "internalType": "string",
          "name": "msg",
          "type": "string"
        }
      ],
      "name": "CouponPaperCreated",
      "type": "event"
    },
    {
      "anonymous": false,
      "inputs": [
        {
          "indexed": false,
          "internalType": "uint256",
          "name": "initialCouponCount",
          "type": "uint256"
        },
        {
          "indexed": false,
          "internalType": "string",
          "name": "msg",
          "type": "string"
        }
      ],
      "name": "EmployeeCouponGeneration",
      "type": "event"
    },
    {
      "anonymous": false,
      "inputs": [
        {
          "indexed": false,
          "internalType": "uint256",
          "name": "value",
          "type": "uint256"
        },
        {
          "indexed": false,
          "internalType": "uint256",
          "name": "maxcoupons",
          "type": "uint256"
        },
        {
          "indexed": false,
          "internalType": "uint256",
          "name": "paidamount",
          "type": "uint256"
        },
        {
          "indexed": false,
          "internalType": "uint256",
          "name": "year",
          "type": "uint256"
        },
        {
          "indexed": false,
          "internalType": "string",
          "name": "msg",
          "type": "string"
        }
      ],
      "name": "GlobalParametersSet",
      "type": "event"
    },
    {
      "anonymous": false,
      "inputs": [
        {
          "indexed": false,
          "internalType": "string",
          "name": "msg",
          "type": "string"
        }
      ],
      "name": "InvitationAdded",
      "type": "event"
    },
    {
      "anonymous": false,
      "inputs": [
        {
          "indexed": false,
          "internalType": "uint256",
          "name": "initialCouponCount",
          "type": "uint256"
        },
        {
          "indexed": false,
          "internalType": "string",
          "name": "msg",
          "type": "string"
        }
      ],
      "name": "MemberCouponGeneration",
      "type": "event"
    },
    {
      "anonymous": false,
      "inputs": [
        {
          "indexed": true,
          "internalType": "address",
          "name": "oldOwner",
          "type": "address"
        },
        {
          "indexed": true,
          "internalType": "address",
          "name": "newOwner",
          "type": "address"
        }
      ],
      "name": "OwnerSet",
      "type": "event"
    },
    {
      "anonymous": false,
      "inputs": [
        {
          "indexed": false,
          "internalType": "uint256",
          "name": "id",
          "type": "uint256"
        },
        {
          "indexed": false,
          "internalType": "uint256",
          "name": "empId",
          "type": "uint256"
        },
        {
          "indexed": false,
          "internalType": "uint256",
          "name": "couponId",
          "type": "uint256"
        },
        {
          "indexed": false,
          "internalType": "string",
          "name": "msg",
          "type": "string"
        }
      ],
      "name": "VisitCreated",
      "type": "event"
    },
    {
      "anonymous": false,
      "inputs": [
        {
          "indexed": false,
          "internalType": "uint256",
          "name": "documentID",
          "type": "uint256"
        },
        {
          "indexed": false,
          "internalType": "string",
          "name": "msg",
          "type": "string"
        }
      ],
      "name": "VisitDocumentAddition",
      "type": "event"
    },
    {
      "anonymous": false,
      "inputs": [
        {
          "indexed": false,
          "internalType": "uint256",
          "name": "couponid",
          "type": "uint256"
        },
        {
          "indexed": false,
          "internalType": "string",
          "name": "msg",
          "type": "string"
        }
      ],
      "name": "approveCoupon",
      "type": "event"
    },
    {
      "anonymous": false,
      "inputs": [
        {
          "indexed": false,
          "internalType": "uint256",
          "name": "_couponId",
          "type": "uint256"
        },
        {
          "indexed": false,
          "internalType": "string",
          "name": "msg",
          "type": "string"
        }
      ],
      "name": "couponExchanged",
      "type": "event"
    },
    {
      "anonymous": false,
      "inputs": [
        {
          "indexed": false,
          "internalType": "uint256",
          "name": "couponId",
          "type": "uint256"
        },
        {
          "indexed": false,
          "internalType": "string",
          "name": "msg",
          "type": "string"
        }
      ],
      "name": "couponRedeemed",
      "type": "event"
    },
    {
      "anonymous": false,
      "inputs": [
        {
          "indexed": false,
          "internalType": "string",
          "name": "msg",
          "type": "string"
        }
      ],
      "name": "delinvitee",
      "type": "event"
    },
    {
      "anonymous": false,
      "inputs": [
        {
          "indexed": false,
          "internalType": "uint256",
          "name": "visitid",
          "type": "uint256"
        },
        {
          "indexed": false,
          "internalType": "uint256",
          "name": "documentid",
          "type": "uint256"
        },
        {
          "indexed": false,
          "internalType": "string",
          "name": "msg",
          "type": "string"
        }
      ],
      "name": "doctorVisited",
      "type": "event"
    },
    {
      "anonymous": false,
      "inputs": [
        {
          "indexed": false,
          "internalType": "uint256",
          "name": "id",
          "type": "uint256"
        },
        {
          "indexed": false,
          "internalType": "string",
          "name": "msg",
          "type": "string"
        }
      ],
      "name": "doctorregistration",
      "type": "event"
    },
    {
      "anonymous": false,
      "inputs": [
        {
          "indexed": false,
          "internalType": "uint256",
          "name": "familyCounter",
          "type": "uint256"
        },
        {
          "indexed": false,
          "internalType": "string",
          "name": "msg",
          "type": "string"
        }
      ],
      "name": "empFamilyRegistration",
      "type": "event"
    },
    {
      "anonymous": false,
      "inputs": [
        {
          "indexed": false,
          "internalType": "uint256",
          "name": "employeesCounter",
          "type": "uint256"
        },
        {
          "indexed": false,
          "internalType": "string",
          "name": "msg",
          "type": "string"
        }
      ],
      "name": "empRegistration",
      "type": "event"
    },
    {
      "anonymous": false,
      "inputs": [
        {
          "indexed": false,
          "internalType": "uint256",
          "name": "memberCounter",
          "type": "uint256"
        },
        {
          "indexed": false,
          "internalType": "string",
          "name": "msg",
          "type": "string"
        }
      ],
      "name": "memberRegistration",
      "type": "event"
    },
    {
      "anonymous": false,
      "inputs": [
        {
          "indexed": false,
          "internalType": "uint256",
          "name": "_couponId",
          "type": "uint256"
        },
        {
          "indexed": false,
          "internalType": "string",
          "name": "msg",
          "type": "string"
        }
      ],
      "name": "paidCoupon",
      "type": "event"
    },
    {
      "inputs": [
        {
          "internalType": "uint256",
          "name": "",
          "type": "uint256"
        }
      ],
      "name": "EmployeeFamily",
      "outputs": [
        {
          "internalType": "uint256",
          "name": "id",
          "type": "uint256"
        },
        {
          "internalType": "uint256",
          "name": "empId",
          "type": "uint256"
        },
        {
          "internalType": "uint256",
          "name": "count",
          "type": "uint256"
        },
        {
          "internalType": "bool",
          "name": "active",
          "type": "bool"
        },
        {
          "internalType": "uint256",
          "name": "activeMembers",
          "type": "uint256"
        }
      ],
      "stateMutability": "view",
      "type": "function",
      "constant": true
    },
    {
      "inputs": [
        {
          "internalType": "uint256",
          "name": "",
          "type": "uint256"
        },
        {
          "internalType": "uint256",
          "name": "",
          "type": "uint256"
        }
      ],
      "name": "EmployeeFamilyMembers",
      "outputs": [
        {
          "internalType": "uint256",
          "name": "id",
          "type": "uint256"
        },
        {
          "internalType": "uint256",
          "name": "empId",
          "type": "uint256"
        },
        {
          "internalType": "uint256",
          "name": "familyId",
          "type": "uint256"
        },
        {
          "internalType": "address",
          "name": "owner",
          "type": "address"
        },
        {
          "internalType": "uint256",
          "name": "initialCouponCount",
          "type": "uint256"
        },
        {
          "internalType": "uint256",
          "name": "extraCouponCount",
          "type": "uint256"
        },
        {
          "internalType": "bool",
          "name": "active",
          "type": "bool"
        }
      ],
      "stateMutability": "view",
      "type": "function",
      "constant": true
    },
    {
      "inputs": [
        {
          "internalType": "bytes32",
          "name": "",
          "type": "bytes32"
        }
      ],
      "name": "VisitDocumentBasehash",
      "outputs": [
        {
          "internalType": "uint256",
          "name": "",
          "type": "uint256"
        }
      ],
      "stateMutability": "view",
      "type": "function",
      "constant": true
    },
    {
      "inputs": [],
      "name": "VisitDocumentCount",
      "outputs": [
        {
          "internalType": "uint256",
          "name": "",
          "type": "uint256"
        }
      ],
      "stateMutability": "view",
      "type": "function",
      "constant": true
    },
    {
      "inputs": [
        {
          "internalType": "uint256",
          "name": "",
          "type": "uint256"
        }
      ],
      "name": "VisitDocuments",
      "outputs": [
        {
          "internalType": "uint256",
          "name": "id",
          "type": "uint256"
        },
        {
          "internalType": "uint256",
          "name": "_doctorvisitId",
          "type": "uint256"
        },
        {
          "internalType": "uint256",
          "name": "_empId",
          "type": "uint256"
        },
        {
          "internalType": "bytes32",
          "name": "_docHash",
          "type": "bytes32"
        },
        {
          "internalType": "uint256",
          "name": "flag",
          "type": "uint256"
        }
      ],
      "stateMutability": "view",
      "type": "function",
      "constant": true
    },
    {
      "inputs": [
        {
          "internalType": "bytes32",
          "name": "_docHash",
          "type": "bytes32"
        }
      ],
      "name": "_documentExists",
      "outputs": [
        {
          "internalType": "bool",
          "name": "",
          "type": "bool"
        }
      ],
      "stateMutability": "view",
      "type": "function",
      "constant": true
    },
    {
      "inputs": [
        {
          "internalType": "uint256",
          "name": "_code",
          "type": "uint256"
        },
        {
          "internalType": "uint256",
          "name": "_id",
          "type": "uint256"
        },
        {
          "internalType": "uint256",
          "name": "_usertype",
          "type": "uint256"
        }
      ],
      "name": "addInvitation",
      "outputs": [],
      "stateMutability": "nonpayable",
      "type": "function"
    },
    {
      "inputs": [
        {
          "internalType": "uint256",
          "name": "_couponId",
          "type": "uint256"
        }
      ],
      "name": "approveCouponRedemption",
      "outputs": [],
      "stateMutability": "nonpayable",
      "type": "function"
    },
    {
      "inputs": [
        {
          "internalType": "address",
          "name": "newOwner",
          "type": "address"
        }
      ],
      "name": "changeOwner",
      "outputs": [],
      "stateMutability": "nonpayable",
      "type": "function"
    },
    {
      "inputs": [
        {
          "internalType": "uint256",
          "name": "",
          "type": "uint256"
        }
      ],
      "name": "couponIndexApproved",
      "outputs": [
        {
          "internalType": "bool",
          "name": "",
          "type": "bool"
        }
      ],
      "stateMutability": "view",
      "type": "function",
      "constant": true
    },
    {
      "inputs": [
        {
          "internalType": "address",
          "name": "",
          "type": "address"
        },
        {
          "internalType": "uint256",
          "name": "",
          "type": "uint256"
        }
      ],
      "name": "empDoctorVisists",
      "outputs": [
        {
          "internalType": "uint256",
          "name": "",
          "type": "uint256"
        }
      ],
      "stateMutability": "view",
      "type": "function",
      "constant": true
    },
    {
      "inputs": [],
      "name": "employeeIssueCoupons",
      "outputs": [],
      "stateMutability": "nonpayable",
      "type": "function"
    },
    {
      "inputs": [
        {
          "internalType": "address",
          "name": "_memberaddress",
          "type": "address"
        }
      ],
      "name": "employeeIssueMembersCoupons",
      "outputs": [],
      "stateMutability": "nonpayable",
      "type": "function"
    },
    {
      "inputs": [
        {
          "internalType": "uint256",
          "name": "_couponId",
          "type": "uint256"
        },
        {
          "internalType": "address",
          "name": "_owner",
          "type": "address"
        }
      ],
      "name": "exchangeCoupon",
      "outputs": [],
      "stateMutability": "nonpayable",
      "type": "function"
    },
    {
      "inputs": [
        {
          "internalType": "uint256",
          "name": "_couponId",
          "type": "uint256"
        }
      ],
      "name": "getCouponById",
      "outputs": [
        {
          "internalType": "uint256",
          "name": "id",
          "type": "uint256"
        },
        {
          "internalType": "address",
          "name": "",
          "type": "address"
        },
        {
          "internalType": "address",
          "name": "",
          "type": "address"
        },
        {
          "internalType": "string",
          "name": "status",
          "type": "string"
        }
      ],
      "stateMutability": "view",
      "type": "function",
      "constant": true
    },
    {
      "inputs": [
        {
          "internalType": "address",
          "name": "_owner",
          "type": "address"
        }
      ],
      "name": "getCouponsByOwner",
      "outputs": [
        {
          "internalType": "uint256[]",
          "name": "ownerCoupons",
          "type": "uint256[]"
        }
      ],
      "stateMutability": "view",
      "type": "function",
      "constant": true
    },
    {
      "inputs": [
        {
          "internalType": "uint256",
          "name": "_status",
          "type": "uint256"
        }
      ],
      "name": "getCouponsByStatus",
      "outputs": [
        {
          "internalType": "uint256[]",
          "name": "statusCoupons",
          "type": "uint256[]"
        }
      ],
      "stateMutability": "view",
      "type": "function",
      "constant": true
    },
    {
      "inputs": [
        {
          "internalType": "uint256",
          "name": "_visitid",
          "type": "uint256"
        }
      ],
      "name": "getDoctorVisit",
      "outputs": [
        {
          "internalType": "uint256",
          "name": "visitid",
          "type": "uint256"
        },
        {
          "internalType": "uint256",
          "name": "empid",
          "type": "uint256"
        },
        {
          "internalType": "uint256",
          "name": "couponid",
          "type": "uint256"
        },
        {
          "internalType": "uint256",
          "name": "doctorid",
          "type": "uint256"
        }
      ],
      "stateMutability": "view",
      "type": "function",
      "constant": true
    },
    {
      "inputs": [
        {
          "internalType": "address",
          "name": "_employee",
          "type": "address"
        }
      ],
      "name": "getEmployeeInfo",
      "outputs": [
        {
          "components": [
            {
              "internalType": "uint256",
              "name": "id",
              "type": "uint256"
            },
            {
              "internalType": "uint256",
              "name": "empid",
              "type": "uint256"
            },
            {
              "internalType": "uint256",
              "name": "maxfamilycount",
              "type": "uint256"
            },
            {
              "internalType": "uint256",
              "name": "initialCouponCount",
              "type": "uint256"
            },
            {
              "internalType": "uint256",
              "name": "extraCouponCount",
              "type": "uint256"
            },
            {
              "internalType": "bool",
              "name": "active",
              "type": "bool"
            }
          ],
          "internalType": "struct EmployeeBase.Employee",
          "name": "",
          "type": "tuple"
        }
      ],
      "stateMutability": "view",
      "type": "function",
      "constant": true
    },
    {
      "inputs": [],
      "name": "getInvitations",
      "outputs": [
        {
          "internalType": "uint256[]",
          "name": "",
          "type": "uint256[]"
        }
      ],
      "stateMutability": "view",
      "type": "function",
      "constant": true
    },
    {
      "inputs": [],
      "name": "getOwner",
      "outputs": [
        {
          "internalType": "address",
          "name": "",
          "type": "address"
        }
      ],
      "stateMutability": "view",
      "type": "function",
      "constant": true
    },
    {
      "inputs": [
        {
          "internalType": "uint256",
          "name": "_couponId",
          "type": "uint256"
        }
      ],
      "name": "prepareCouponPayment",
      "outputs": [],
      "stateMutability": "nonpayable",
      "type": "function"
    },
    {
      "inputs": [
        {
          "internalType": "uint256",
          "name": "_couponId",
          "type": "uint256"
        },
        {
          "internalType": "address",
          "name": "_owner",
          "type": "address"
        }
      ],
      "name": "redeemCoupon",
      "outputs": [],
      "stateMutability": "nonpayable",
      "type": "function"
    },
    {
      "inputs": [
        {
          "internalType": "uint256",
          "name": "_doctorid",
          "type": "uint256"
        },
        {
          "internalType": "string",
          "name": "_speciality",
          "type": "string"
        },
        {
          "internalType": "uint256",
          "name": "_code",
          "type": "uint256"
        },
        {
          "internalType": "uint256",
          "name": "_usertype",
          "type": "uint256"
        },
        {
          "internalType": "uint256",
          "name": "_couponcoeficient",
          "type": "uint256"
        }
      ],
      "name": "registerDoctor",
      "outputs": [],
      "stateMutability": "nonpayable",
      "type": "function"
    },
    {
      "inputs": [
        {
          "internalType": "uint256",
          "name": "_empid",
          "type": "uint256"
        },
        {
          "internalType": "uint256",
          "name": "_maxfamilycount",
          "type": "uint256"
        },
        {
          "internalType": "uint256",
          "name": "_code",
          "type": "uint256"
        },
        {
          "internalType": "uint256",
          "name": "_usertype",
          "type": "uint256"
        }
      ],
      "name": "registerEmployee",
      "outputs": [],
      "stateMutability": "nonpayable",
      "type": "function"
    },
    {
      "inputs": [
        {
          "internalType": "uint256",
          "name": "_empId",
          "type": "uint256"
        },
        {
          "internalType": "uint256",
          "name": "_familyId",
          "type": "uint256"
        },
        {
          "internalType": "address",
          "name": "_address",
          "type": "address"
        }
      ],
      "name": "registerFamilyMember",
      "outputs": [],
      "stateMutability": "nonpayable",
      "type": "function"
    },
    {
      "inputs": [
        {
          "internalType": "uint256",
          "name": "",
          "type": "uint256"
        }
      ],
      "name": "registeredEmployees",
      "outputs": [
        {
          "internalType": "uint256",
          "name": "",
          "type": "uint256"
        }
      ],
      "stateMutability": "view",
      "type": "function",
      "constant": true
    },
    {
      "inputs": [
        {
          "internalType": "uint256",
          "name": "_value",
          "type": "uint256"
        },
        {
          "internalType": "uint256",
          "name": "_maxcoupons",
          "type": "uint256"
        },
        {
          "internalType": "uint256",
          "name": "_paidamount",
          "type": "uint256"
        },
        {
          "internalType": "uint256",
          "name": "_year",
          "type": "uint256"
        }
      ],
      "name": "setGlobalParameters",
      "outputs": [],
      "stateMutability": "nonpayable",
      "type": "function"
    },
    {
      "inputs": [],
      "name": "visitCount",
      "outputs": [
        {
          "internalType": "uint256",
          "name": "",
          "type": "uint256"
        }
      ],
      "stateMutability": "view",
      "type": "function",
      "constant": true
    },
    {
      "inputs": [
        {
          "internalType": "uint256",
          "name": "empid",
          "type": "uint256"
        },
        {
          "internalType": "uint256",
          "name": "couponid",
          "type": "uint256"
        },
        {
          "internalType": "uint256",
          "name": "doctorid",
          "type": "uint256"
        },
        {
          "internalType": "string",
          "name": "_md5",
          "type": "string"
        },
        {
          "internalType": "address",
          "name": "_address",
          "type": "address"
        }
      ],
      "name": "visitDoctor",
      "outputs": [],
      "stateMutability": "nonpayable",
      "type": "function"
    },
    {
      "inputs": [
        {
          "internalType": "uint256",
          "name": "",
          "type": "uint256"
        }
      ],
      "name": "visits",
      "outputs": [
        {
          "internalType": "uint256",
          "name": "id",
          "type": "uint256"
        },
        {
          "internalType": "uint256",
          "name": "empId",
          "type": "uint256"
        },
        {
          "internalType": "uint256",
          "name": "couponId",
          "type": "uint256"
        },
        {
          "internalType": "uint256",
          "name": "doctorId",
          "type": "uint256"
        }
      ],
      "stateMutability": "view",
      "type": "function",
      "constant": true
    },
    {
      "inputs": [],
      "name": "getName",
      "outputs": [
        {
          "internalType": "string",
          "name": "_name",
          "type": "string"
        }
      ],
      "stateMutability": "view",
      "type": "function",
      "constant": true
    }
  ],
  "bytecode": "0x60806040523480156200001157600080fd5b50336000806101000a81548173ffffffffffffffffffffffffffffffffffffffff021916908373ffffffffffffffffffffffffffffffffffffffff16021790555060008054906101000a900473ffffffffffffffffffffffffffffffffffffffff1673ffffffffffffffffffffffffffffffffffffffff16600073ffffffffffffffffffffffffffffffffffffffff167f342827c97908e5e2f71151c08502a66d44b6f758e3ac2f1de95f02eb95f0a73560405160405180910390a333600160006101000a81548173ffffffffffffffffffffffffffffffffffffffff021916908373ffffffffffffffffffffffffffffffffffffffff16021790555060006005819055506001600281905550600560038190555061ea606004819055506000601481905550600060168190555060006015819055506000602381905550600060268190555060006029819055506040518060400160405280601d81526020017f4d794e657420436f6e747261637420697320696e697469616c69736564000000815250602f9080519060200190620001ac929190620001b3565b50620002c8565b828054620001c19062000263565b90600052602060002090601f016020900481019282620001e5576000855562000231565b82601f106200020057805160ff191683800117855562000231565b8280016001018555821562000231579182015b828111156200023057825182559160200191906001019062000213565b5b50905062000240919062000244565b5090565b5b808211156200025f57600081600090555060010162000245565b5090565b600060028204905060018216806200027c57607f821691505b6020821081141562000293576200029262000299565b5b50919050565b7f4e487b7100000000000000000000000000000000000000000000000000000000600052602260045260246000fd5b61589f80620002d86000396000f3fe608060405234801561001057600080fd5b50600436106101f05760003560e01c8063893d20e81161010f578063c6e814c7116100a2578063e18099a811610071578063e18099a814610604578063e750a5b514610620578063f4b75ee114610650578063fe1b516514610680576101f0565b8063c6e814c714610566578063d2140b8d14610596578063d4ee1915146105ca578063e0e4367e146105e6576101f0565b8063a6f9dae1116100de578063a6f9dae1146104dd578063acdb9e3c146104f9578063b1823dcc14610517578063c246e05c1461054a576101f0565b8063893d20e81461043f5780638979eee41461045d5780638ed9c8f714610479578063a61b8fc5146104ad576101f0565b80634ca6439011610187578063671069971161015657806367106997146103b55780636883a62f146103d1578063724e7d5814610407578063885d6e5914610423576101f0565b80634ca643901461031d5780635ac09b2b1461033957806361d73e6b1461036957806364f82b3914610385576101f0565b806319207620116101c35780631920762014610297578063196a623c146102c75780632b959661146102d15780634180375014610301576101f0565b806309c55a13146101f557806311000c2114610228578063168457141461025b57806317d7de7c14610279575b600080fd5b61020f600480360381019061020a919061438b565b61069c565b60405161021f9493929190615087565b60405180910390f35b610242600480360381019061023d919061438b565b6106cc565b6040516102529493929190614dfa565b60405180910390f35b610263610897565b6040516102709190614b25565b60405180910390f35b61028161097d565b60405161028e9190614b62565b60405180910390f35b6102b160048036038101906102ac9190614331565b610a0f565b6040516102be9190614b47565b60405180910390f35b6102cf610a3f565b005b6102eb60048036038101906102e691906142c4565b610c8c565b6040516102f89190614b25565b60405180910390f35b61031b600480360381019061031691906143f8565b610e15565b005b6103376004803603810190610332919061460c565b6111ac565b005b610353600480360381019061034e91906142c4565b611565565b6040516103609190614dc4565b60405180910390f35b610383600480360381019061037e9190614575565b61166d565b005b61039f600480360381019061039a9190614331565b611856565b6040516103ac9190614ddf565b60405180910390f35b6103cf60048036038101906103ca919061438b565b61186e565b005b6103eb60048036038101906103e6919061448f565b611a40565b6040516103fe9796959493929190614f28565b60405180910390f35b610421600480360381019061041c919061438b565b611acc565b005b61043d60048036038101906104389190614522565b611e0c565b005b610447611f8c565b6040516104549190614b0a565b60405180910390f35b610477600480360381019061047291906142c4565b611fb5565b005b610493600480360381019061048e919061438b565b612203565b6040516104a4959493929190614fea565b60405180910390f35b6104c760048036038101906104c291906142f1565b612239565b6040516104d49190614ddf565b60405180910390f35b6104f760048036038101906104f291906142c4565b61226a565b005b6105016123b5565b60405161050e9190614ddf565b60405180910390f35b610531600480360381019061052c919061438b565b6123bb565b6040516105419493929190615087565b60405180910390f35b610564600480360381019061055f919061460c565b61242c565b005b610580600480360381019061057b919061438b565b612521565b60405161058d9190614b47565b60405180910390f35b6105b060048036038101906105ab919061438b565b612541565b6040516105c1959493929190614f97565b60405180910390f35b6105e460048036038101906105df91906143b8565b612584565b005b6105ee612a0a565b6040516105fb9190614ddf565b60405180910390f35b61061e600480360381019061061991906143b8565b612a10565b005b61063a6004803603810190610635919061438b565b612f46565b6040516106479190614b25565b60405180910390f35b61066a6004803603810190610665919061438b565b613083565b6040516106779190614ddf565b60405180910390f35b61069a600480360381019061069591906144cf565b6130a7565b005b60246020528060005260406000206000915090508060000154908060010154908060020154908060030154905084565b6000806000606060008054906101000a900473ffffffffffffffffffffffffffffffffffffffff1673ffffffffffffffffffffffffffffffffffffffff163373ffffffffffffffffffffffffffffffffffffffff1614610761576040517f08c379a000000000000000000000000000000000000000000000000000000000815260040161075890614be4565b60405180910390fd5b600a600086815260200190815260200160002060000154600a600087815260200190815260200160002060010160009054906101000a900473ffffffffffffffffffffffffffffffffffffffff16600a600088815260200190815260200160002060020160009054906101000a900473ffffffffffffffffffffffffffffffffffffffff16600a60008981526020019081526020016000206004018080546108089061532d565b80601f01602080910402602001604051908101604052809291908181526020018280546108349061532d565b80156108815780601f1061085657610100808354040283529160200191610881565b820191906000526020600020905b81548152906001019060200180831161086457829003601f168201915b5050505050905093509350935093509193509193565b606060008054906101000a900473ffffffffffffffffffffffffffffffffffffffff1673ffffffffffffffffffffffffffffffffffffffff163373ffffffffffffffffffffffffffffffffffffffff1614610927576040517f08c379a000000000000000000000000000000000000000000000000000000000815260040161091e90614be4565b60405180910390fd5b601380548060200260200160405190810160405280929190818152602001828054801561097357602002820191906000526020600020905b81548152602001906001019080831161095f575b5050505050905090565b6060602f805461098c9061532d565b80601f01602080910402602001604051908101604052809291908181526020018280546109b89061532d565b8015610a055780601f106109da57610100808354040283529160200191610a05565b820191906000526020600020905b8154815290600101906020018083116109e857829003601f168201915b5050505050905090565b60008060286000848152602001908152602001600020541115610a355760019050610a3a565b600090505b919050565b3360011515601760008373ffffffffffffffffffffffffffffffffffffffff1673ffffffffffffffffffffffffffffffffffffffff16815260200190815260200160002060050160009054906101000a900460ff16151514610ad6576040517f08c379a0000000000000000000000000000000000000000000000000000000008152600401610acd90614d64565b60405180910390fd5b6000601760003373ffffffffffffffffffffffffffffffffffffffff1673ffffffffffffffffffffffffffffffffffffffff1681526020019081526020016000206003015414610b5b576040517f08c379a0000000000000000000000000000000000000000000000000000000008152600401610b5290614c84565b60405180910390fd5b6000610b6633613580565b90506000600190505b6003548111610bff57602060008360010154815260200190815260200160002060006009548152602001908152602001600020610bac33336135c8565b9080600181540180825580915050600190039060005260206000200160009091909190915055816003016000815480929190610be790615390565b91905055508080610bf790615390565b915050610b6f565b5060035481600301541415610c4c577f792163a28a1b080fac4cc7af50f9fefadf108759b206d1abb9e7c40dc97812b7600354604051610c3f9190614e90565b60405180910390a1610c88565b7f792163a28a1b080fac4cc7af50f9fefadf108759b206d1abb9e7c40dc97812b78160030154604051610c7f9190614ebe565b60405180910390a15b5050565b60606000610c99836138a4565b90506000811415610cf657600067ffffffffffffffff811115610cbf57610cbe61549f565b5b604051908082528060200260200182016040528015610ced5781602001602082028036833780820191505090505b50915050610e10565b60008167ffffffffffffffff811115610d1257610d1161549f565b5b604051908082528060200260200182016040528015610d405781602001602082028036833780820191505090505b5090506000610d4d6138ed565b9050600080600190505b828111610e07578673ffffffffffffffffffffffffffffffffffffffff16600c600083815260200190815260200160002060009054906101000a900473ffffffffffffffffffffffffffffffffffffffff1673ffffffffffffffffffffffffffffffffffffffff161415610df45780848381518110610dd957610dd8615470565b5b6020026020010181815250508180610df090615390565b9250505b8080610dff90615390565b915050610d57565b83955050505050505b919050565b828583816012600085815260200190815260200160002060000154148015610e525750806012600085815260200190815260200160002060010154145b610e91576040517f08c379a0000000000000000000000000000000000000000000000000000000008152600401610e8890614b84565b60405180910390fd5b60008054906101000a900473ffffffffffffffffffffffffffffffffffffffff1673ffffffffffffffffffffffffffffffffffffffff163373ffffffffffffffffffffffffffffffffffffffff161415610f20576040517f08c379a0000000000000000000000000000000000000000000000000000000008152600401610f1790614ba4565b60405180910390fd5b610f29856138f7565b610f68576040517f08c379a0000000000000000000000000000000000000000000000000000000008152600401610f5f90614c24565b60405180910390fd5b60296000815480929190610f7b90615390565b91905055506000600289602954610f9291906151e5565b604051602001610fa29190614aef565b604051602081830303815290604052604051610fbe9190614ad8565b602060405180830381855afa158015610fdb573d6000803e3d6000fd5b5050506040513d601f19601f82011682018060405250810190610ffe919061435e565b905080602c60006029548152602001908152602001600020819055506040518060a0016040528060295481526020018a815260200189815260200186815260200160011515815250602a60003373ffffffffffffffffffffffffffffffffffffffff1673ffffffffffffffffffffffffffffffffffffffff168152602001908152602001600020600082015181600001556020820151816001015560408201518160020190805190602001906110b59291906140fd565b506060820151816003015560808201518160040160006101000a81548160ff021916908315150217905550905050602d89908060018154018082558091505060019003906000526020600020016000909190919091505533602b60008b815260200190815260200160002060006101000a81548173ffffffffffffffffffffffffffffffffffffffff021916908373ffffffffffffffffffffffffffffffffffffffff160217905550611168878a613915565b7f0b1c9689ab07080b78463a9e5fc0d33679c1bdfc32eb1827479754bd03330bdb6029546040516111999190614e90565b60405180910390a1505050505050505050565b60008054906101000a900473ffffffffffffffffffffffffffffffffffffffff1673ffffffffffffffffffffffffffffffffffffffff163373ffffffffffffffffffffffffffffffffffffffff16141561123b576040517f08c379a000000000000000000000000000000000000000000000000000000000815260040161123290614ba4565b60405180910390fd5b8184828160126000858152602001908152602001600020600001541480156112785750806012600085815260200190815260200160002060010154145b6112b7576040517f08c379a00000000000000000000000000000000000000000000000000000000081526004016112ae90614b84565b60405180910390fd5b3360001515601760008373ffffffffffffffffffffffffffffffffffffffff1673ffffffffffffffffffffffffffffffffffffffff16815260200190815260200160002060050160009054906101000a900460ff1615151461134e576040517f08c379a000000000000000000000000000000000000000000000000000000000815260040161134590614ca4565b60405180910390fd5b6113578561397d565b611396576040517f08c379a000000000000000000000000000000000000000000000000000000000815260040161138d90614bc4565b60405180910390fd5b601460008154809291906113a990615390565b91905055506040518060c001604052806014548152602001898152602001888152602001600081526020016000815260200160011515815250601760003373ffffffffffffffffffffffffffffffffffffffff1673ffffffffffffffffffffffffffffffffffffffff168152602001908152602001600020600082015181600001556020820151816001015560408201518160020155606082015181600301556080820151816004015560a08201518160050160006101000a81548160ff021916908315150217905550905050601f8890806001815401808255809150506001900390600052602060002001600090919091909150553360186000601454815260200190815260200160002060006101000a81548173ffffffffffffffffffffffffffffffffffffffff021916908373ffffffffffffffffffffffffffffffffffffffff160217905550601454601960008a8152602001908152602001600020819055506115178689613915565b61152288883361399b565b7f6dd3c20f7609bbf719cf9279aeda93d1c4be21c20864d29483b679c98b7b7e8a6014546040516115539190614e90565b60405180910390a15050505050505050565b61156d614183565b3360011515601760008373ffffffffffffffffffffffffffffffffffffffff1673ffffffffffffffffffffffffffffffffffffffff16815260200190815260200160002060050160009054906101000a900460ff16151514611604576040517f08c379a00000000000000000000000000000000000000000000000000000000081526004016115fb90614d64565b60405180910390fd5b61160d83613580565b6040518060c001604052908160008201548152602001600182015481526020016002820154815260200160038201548152602001600482015481526020016005820160009054906101000a900460ff161515151581525050915050919050565b3360011515601760008373ffffffffffffffffffffffffffffffffffffffff1673ffffffffffffffffffffffffffffffffffffffff16815260200190815260200160002060050160009054906101000a900460ff16151514611704576040517f08c379a00000000000000000000000000000000000000000000000000000000081526004016116fb90614d64565b60405180910390fd5b6000611711878787613ba6565b905060016010600088815260200190815260200160002060006101000a81548160ff021916908315150217905550602260003373ffffffffffffffffffffffffffffffffffffffff1673ffffffffffffffffffffffffffffffffffffffff16815260200190815260200160002081908060018154018082558091505060019003906000526020600020016000909190919091505560006002856040516117b79190614ad8565b602060405180830381855afa1580156117d4573d6000803e3d6000fd5b5050506040513d601f19601f820116820180604052508101906117f7919061435e565b90506000611806878a84613c8e565b90506118128886612584565b7f9a3aa3a70dc27fdd4f5e650dad1b50bfe5108eaa780cde71b5ad096977c01af58382604051611843929190614eec565b60405180910390a1505050505050505050565b60286020528060005260406000206000915090505481565b60008054906101000a900473ffffffffffffffffffffffffffffffffffffffff1673ffffffffffffffffffffffffffffffffffffffff163373ffffffffffffffffffffffffffffffffffffffff16146118fc576040517f08c379a00000000000000000000000000000000000000000000000000000000081526004016118f390614be4565b60405180910390fd5b61190581613df4565b611944576040517f08c379a000000000000000000000000000000000000000000000000000000000815260040161193b90614d04565b60405180910390fd5b602e600082815260200190815260200160002060009054906101000a900460ff16156119a5576040517f08c379a000000000000000000000000000000000000000000000000000000000815260040161199c90614ce4565b60405180910390fd5b6000600a6000838152602001908152602001600020905060018160050160016101000a81548160ff0219169083151502179055506001602e600084815260200190815260200160002060006101000a81548160ff0219169083151502179055507fbc9081873c92e3585bc81b256de0a21e40618a754f837efe164e38c8fdcdde7482604051611a349190614e90565b60405180910390a15050565b601d6020528160005260406000208181548110611a5c57600080fd5b9060005260206000209060070201600091509150508060000154908060010154908060020154908060030160009054906101000a900473ffffffffffffffffffffffffffffffffffffffff16908060040154908060050154908060060160009054906101000a900460ff16905087565b60008054906101000a900473ffffffffffffffffffffffffffffffffffffffff1673ffffffffffffffffffffffffffffffffffffffff163373ffffffffffffffffffffffffffffffffffffffff1614611b5a576040517f08c379a0000000000000000000000000000000000000000000000000000000008152600401611b5190614be4565b60405180910390fd5b6000600a6000838152602001908152602001600020905060008160050160006101000a81548160ff0219169083151502179055506040518060400160405280600481526020017f5061696400000000000000000000000000000000000000000000000000000000815250816004019080519060200190611bdb9291906140fd565b508060010160009054906101000a900473ffffffffffffffffffffffffffffffffffffffff168160020160006101000a81548173ffffffffffffffffffffffffffffffffffffffff021916908373ffffffffffffffffffffffffffffffffffffffff160217905550600160009054906101000a900473ffffffffffffffffffffffffffffffffffffffff168160010160006101000a81548173ffffffffffffffffffffffffffffffffffffffff021916908373ffffffffffffffffffffffffffffffffffffffff1602179055506004600f600060055481526020019081526020016000208190555060076000815480929190611cd690615303565b919050555060086000815480929190611cee90615390565b91905055506000601160008360010160009054906101000a900473ffffffffffffffffffffffffffffffffffffffff1673ffffffffffffffffffffffffffffffffffffffff1673ffffffffffffffffffffffffffffffffffffffff16815260200190815260200160002054905060045481611d6991906151e5565b601160008460010160009054906101000a900473ffffffffffffffffffffffffffffffffffffffff1673ffffffffffffffffffffffffffffffffffffffff1673ffffffffffffffffffffffffffffffffffffffff168152602001908152602001600020819055507f0278d4eb8c2618a73c1e8c1726eb9f0eb16576ed125804045193baa091d9b27b83604051611dff9190614e90565b60405180910390a1505050565b60008054906101000a900473ffffffffffffffffffffffffffffffffffffffff1673ffffffffffffffffffffffffffffffffffffffff163373ffffffffffffffffffffffffffffffffffffffff1614611e9a576040517f08c379a0000000000000000000000000000000000000000000000000000000008152600401611e9190614be4565b60405180910390fd5b6000601260008581526020019081526020016000206000015414611ef3576040517f08c379a0000000000000000000000000000000000000000000000000000000008152600401611eea90614c64565b60405180910390fd5b81601260008581526020019081526020016000206000018190555080601260008581526020019081526020016000206001018190555060138290806001815401808255809150506001900390600052602060002001600090919091909150557f4b94f404f01408af2bc2543d9ad9bea2c7382d8beb361d59bb3038d8ff9f40d6604051611f7f90614c44565b60405180910390a1505050565b60008060009054906101000a900473ffffffffffffffffffffffffffffffffffffffff16905090565b3360011515601760008373ffffffffffffffffffffffffffffffffffffffff1673ffffffffffffffffffffffffffffffffffffffff16815260200190815260200160002060050160009054906101000a900460ff1615151461204c576040517f08c379a000000000000000000000000000000000000000000000000000000000815260040161204390614d64565b60405180910390fd5b6000601b60008473ffffffffffffffffffffffffffffffffffffffff1673ffffffffffffffffffffffffffffffffffffffff16815260200190815260200160002060040154146120d1576040517f08c379a00000000000000000000000000000000000000000000000000000000081526004016120c890614c84565b60405180910390fd5b60006120dc83613e7e565b90506000600190505b60035481116121755760216000836000015481526020019081526020016000206000600954815260200190815260200160002061212285336135c8565b908060018154018082558091505060019003906000526020600020016000909190919091505581600401600081548092919061215d90615390565b9190505550808061216d90615390565b9150506120e5565b50600354816004015414156121c2577f87c21fbe85c3ac265e36e51547b1669ec3f453648d76898cf4dfa735fc7b3d3f6003546040516121b59190614e90565b60405180910390a16121fe565b7f87c21fbe85c3ac265e36e51547b1669ec3f453648d76898cf4dfa735fc7b3d3f81600401546040516121f59190614ebe565b60405180910390a15b505050565b60276020528060005260406000206000915090508060000154908060010154908060020154908060030154908060040154905085565b6022602052816000526040600020818154811061225557600080fd5b90600052602060002001600091509150505481565b60008054906101000a900473ffffffffffffffffffffffffffffffffffffffff1673ffffffffffffffffffffffffffffffffffffffff163373ffffffffffffffffffffffffffffffffffffffff16146122f8576040517f08c379a00000000000000000000000000000000000000000000000000000000081526004016122ef90614be4565b60405180910390fd5b8073ffffffffffffffffffffffffffffffffffffffff1660008054906101000a900473ffffffffffffffffffffffffffffffffffffffff1673ffffffffffffffffffffffffffffffffffffffff167f342827c97908e5e2f71151c08502a66d44b6f758e3ac2f1de95f02eb95f0a73560405160405180910390a3806000806101000a81548173ffffffffffffffffffffffffffffffffffffffff021916908373ffffffffffffffffffffffffffffffffffffffff16021790555050565b60265481565b600080600080602460008681526020019081526020016000206000015460246000878152602001908152602001600020600101546024600088815260200190815260200160002060020154602460008981526020019081526020016000206003015493509350935093509193509193565b60008054906101000a900473ffffffffffffffffffffffffffffffffffffffff1673ffffffffffffffffffffffffffffffffffffffff163373ffffffffffffffffffffffffffffffffffffffff16146124ba576040517f08c379a00000000000000000000000000000000000000000000000000000000081526004016124b190614be4565b60405180910390fd5b836002819055508260038190555081600481905550806009819055507f7f120ce25be09e0f9e4a334e5105525189558b508f68b88efe3c9846b1ae870a60025460035460045460095460405161251394939291906150cc565b60405180910390a150505050565b602e6020528060005260406000206000915054906101000a900460ff1681565b601a6020528060005260406000206000915090508060000154908060010154908060020154908060030160009054906101000a900460ff16908060040154905085565b3360011515601760008373ffffffffffffffffffffffffffffffffffffffff1673ffffffffffffffffffffffffffffffffffffffff16815260200190815260200160002060050160009054906101000a900460ff1615151461261b576040517f08c379a000000000000000000000000000000000000000000000000000000000815260040161261290614d64565b60405180910390fd5b6126258284613ec6565b612664576040517f08c379a000000000000000000000000000000000000000000000000000000000815260040161265b90614d44565b60405180910390fd5b6000600a60008581526020019081526020016000206040518060e0016040529081600082015481526020016001820160009054906101000a900473ffffffffffffffffffffffffffffffffffffffff1673ffffffffffffffffffffffffffffffffffffffff1673ffffffffffffffffffffffffffffffffffffffff1681526020016002820160009054906101000a900473ffffffffffffffffffffffffffffffffffffffff1673ffffffffffffffffffffffffffffffffffffffff1673ffffffffffffffffffffffffffffffffffffffff168152602001600382015481526020016004820180546127549061532d565b80601f01602080910402602001604051908101604052809291908181526020018280546127809061532d565b80156127cd5780601f106127a2576101008083540402835291602001916127cd565b820191906000526020600020905b8154815290600101906020018083116127b057829003601f168201915b505050505081526020016005820160009054906101000a900460ff161515151581526020016005820160019054906101000a900460ff16151515158152505090506040518060400160405280600981526020017f45786368616e6765640000000000000000000000000000000000000000000000815250816080018190525080600a60008681526020019081526020016000206000820151816000015560208201518160010160006101000a81548173ffffffffffffffffffffffffffffffffffffffff021916908373ffffffffffffffffffffffffffffffffffffffff16021790555060408201518160020160006101000a81548173ffffffffffffffffffffffffffffffffffffffff021916908373ffffffffffffffffffffffffffffffffffffffff16021790555060608201518160030155608082015181600401908051906020019061291e9291906140fd565b5060a08201518160050160006101000a81548160ff02191690831515021790555060c08201518160050160016101000a81548160ff0219169083151502179055509050506002600f6000868152602001908152602001600020819055506006600081548092919061298e90615390565b919050555082600d600086815260200190815260200160002060006101000a81548173ffffffffffffffffffffffffffffffffffffffff021916908373ffffffffffffffffffffffffffffffffffffffff160217905550600c600085815260200190815260200160002060009054906101000a90505050505050565b60235481565b3360011515601760008373ffffffffffffffffffffffffffffffffffffffff1673ffffffffffffffffffffffffffffffffffffffff16815260200190815260200160002060050160009054906101000a900460ff16151514612aa7576040517f08c379a0000000000000000000000000000000000000000000000000000000008152600401612a9e90614d64565b60405180910390fd5b612ab18284613ec6565b612af0576040517f08c379a0000000000000000000000000000000000000000000000000000000008152600401612ae790614d44565b60405180910390fd5b612af983613df4565b612b38576040517f08c379a0000000000000000000000000000000000000000000000000000000008152600401612b2f90614d04565b60405180910390fd5b6000600a60008581526020019081526020016000206040518060e0016040529081600082015481526020016001820160009054906101000a900473ffffffffffffffffffffffffffffffffffffffff1673ffffffffffffffffffffffffffffffffffffffff1673ffffffffffffffffffffffffffffffffffffffff1681526020016002820160009054906101000a900473ffffffffffffffffffffffffffffffffffffffff1673ffffffffffffffffffffffffffffffffffffffff1673ffffffffffffffffffffffffffffffffffffffff16815260200160038201548152602001600482018054612c289061532d565b80601f0160208091040260200160405190810160405280929190818152602001828054612c549061532d565b8015612ca15780601f10612c7657610100808354040283529160200191612ca1565b820191906000526020600020905b815481529060010190602001808311612c8457829003601f168201915b505050505081526020016005820160009054906101000a900460ff161515151581526020016005820160019054906101000a900460ff16151515158152505090506040518060400160405280600881526020017f52656465656d656400000000000000000000000000000000000000000000000081525081608001819052506003600f600060055481526020019081526020016000208190555060066000815480929190612d4e90615303565b919050555060076000815480929190612d6690615390565b919050555080600a60008681526020019081526020016000206000820151816000015560208201518160010160006101000a81548173ffffffffffffffffffffffffffffffffffffffff021916908373ffffffffffffffffffffffffffffffffffffffff16021790555060408201518160020160006101000a81548173ffffffffffffffffffffffffffffffffffffffff021916908373ffffffffffffffffffffffffffffffffffffffff160217905550606082015181600301556080820151816004019080519060200190612e3d9291906140fd565b5060a08201518160050160006101000a81548160ff02191690831515021790555060c08201518160050160016101000a81548160ff02191690831515021790555090505033600e600086815260200190815260200160002060006101000a81548173ffffffffffffffffffffffffffffffffffffffff021916908373ffffffffffffffffffffffffffffffffffffffff160217905550600d600085815260200190815260200160002060006101000a81549073ffffffffffffffffffffffffffffffffffffffff02191690557fa903780770410201ba13a823168298930a649fcb2879778a7917cd6fc20edd4584604051612f389190614e90565b60405180910390a150505050565b60606000612f5383613f35565b90506000811415612fb057600067ffffffffffffffff811115612f7957612f7861549f565b5b604051908082528060200260200182016040528015612fa75781602001602082028036833780820191505090505b5091505061307e565b60008167ffffffffffffffff811115612fcc57612fcb61549f565b5b604051908082528060200260200182016040528015612ffa5781602001602082028036833780820191505090505b50905060006130076138ed565b9050600080600190505b8281116130755786600f6000838152602001908152602001600020541415613062578084838151811061304757613046615470565b5b602002602001018181525050818061305e90615390565b9250505b808061306d90615390565b915050613011565b83955050505050505b919050565b601f818154811061309357600080fd5b906000526020600020016000915090505481565b3360011515601760008373ffffffffffffffffffffffffffffffffffffffff1673ffffffffffffffffffffffffffffffffffffffff16815260200190815260200160002060050160009054906101000a900460ff1615151461313e576040517f08c379a000000000000000000000000000000000000000000000000000000000815260040161313590614d64565b60405180910390fd5b6016600081548092919061315190615390565b919050555060006040518060e0016040528060165481526020018681526020018581526020018473ffffffffffffffffffffffffffffffffffffffff168152602001600081526020016000815260200160011515815250905080601b60008573ffffffffffffffffffffffffffffffffffffffff1673ffffffffffffffffffffffffffffffffffffffff16815260200190815260200160002060008201518160000155602082015181600101556040820151816002015560608201518160030160006101000a81548173ffffffffffffffffffffffffffffffffffffffff021916908373ffffffffffffffffffffffffffffffffffffffff1602179055506080820151816004015560a0820151816005015560c08201518160060160006101000a81548160ff02191690831515021790555090505080601c60008781526020019081526020016000206000601654815260200190815260200160002060008201518160000155602082015181600101556040820151816002015560608201518160030160006101000a81548173ffffffffffffffffffffffffffffffffffffffff021916908373ffffffffffffffffffffffffffffffffffffffff1602179055506080820151816004015560a0820151816005015560c08201518160060160006101000a81548160ff021916908315150217905550905050601d600086815260200190815260200160002081908060018154018082558091505060019003906000526020600020906007020160009091909190915060008201518160000155602082015181600101556040820151816002015560608201518160030160006101000a81548173ffffffffffffffffffffffffffffffffffffffff021916908373ffffffffffffffffffffffffffffffffffffffff1602179055506080820151816004015560a0820151816005015560c08201518160060160006101000a81548160ff021916908315150217905550505084601e60008573ffffffffffffffffffffffffffffffffffffffff1673ffffffffffffffffffffffffffffffffffffffff168152602001908152602001600020819055506000601a60008781526020019081526020016000206040518060a00160405290816000820154815260200160018201548152602001600282015481526020016003820160009054906101000a900460ff1615151515815260200160048201548152505090508060800180518091906134dc90615390565b8152505080601a600088815260200190815260200160002060008201518160000155602082015181600101556040820151816002015560608201518160030160006101000a81548160ff021916908315150217905550608082015181600401559050507f6e1e4090659373eee2aaca28bea8b2b6d75fda61ac6e007e0246e56eeb59cd736016546040516135709190614e90565b60405180910390a1505050505050565b6000601760008373ffffffffffffffffffffffffffffffffffffffff1673ffffffffffffffffffffffffffffffffffffffff1681526020019081526020016000209050919050565b6000600560008154809291906135dd90615390565b91905055506040518060e0016040528060055481526020018473ffffffffffffffffffffffffffffffffffffffff1681526020018373ffffffffffffffffffffffffffffffffffffffff16815260200160025481526020016040518060400160405280600781526020017f6372656174656400000000000000000000000000000000000000000000000000815250815260200160011515815260200160001515815250600a600060055481526020019081526020016000206000820151816000015560208201518160010160006101000a81548173ffffffffffffffffffffffffffffffffffffffff021916908373ffffffffffffffffffffffffffffffffffffffff16021790555060408201518160020160006101000a81548173ffffffffffffffffffffffffffffffffffffffff021916908373ffffffffffffffffffffffffffffffffffffffff1602179055506060820151816003015560808201518160040190805190602001906137539291906140fd565b5060a08201518160050160006101000a81548160ff02191690831515021790555060c08201518160050160016101000a81548160ff021916908315150217905550905050600b60008473ffffffffffffffffffffffffffffffffffffffff1673ffffffffffffffffffffffffffffffffffffffff16815260200190815260200160002060008154809291906137e790615390565b919050555082600c6000600554815260200190815260200160002060006101000a81548173ffffffffffffffffffffffffffffffffffffffff021916908373ffffffffffffffffffffffffffffffffffffffff1602179055506001600f60006005548152602001908152602001600020819055507f2971a82072a1b29fd1941ada5b32f5b5aad07e668299b78328e9904e762cb9be60055484600160405161389193929190614e46565b60405180910390a1600554905092915050565b6000600b60008373ffffffffffffffffffffffffffffffffffffffff1673ffffffffffffffffffffffffffffffffffffffff168152602001908152602001600020549050919050565b6000600554905090565b6000600282141561390b5760019050613910565b600090505b919050565b601260008381526020019081526020016000206000808201600090556001820160009055505061394481613fd8565b7f83044fa08cabba8ae7aa27249a8a606cdd565b8e72934bbc7b3597f898859e7060405161397190614d84565b60405180910390a15050565b600060018214156139915760019050613996565b600090505b919050565b8060011515601760008373ffffffffffffffffffffffffffffffffffffffff1673ffffffffffffffffffffffffffffffffffffffff16815260200190815260200160002060050160009054906101000a900460ff16151514613a32576040517f08c379a0000000000000000000000000000000000000000000000000000000008152600401613a2990614d64565b60405180910390fd5b60008311613a75576040517f08c379a0000000000000000000000000000000000000000000000000000000008152600401613a6c90614da4565b60405180910390fd5b613a7e84613ff2565b15613abe576040517f08c379a0000000000000000000000000000000000000000000000000000000008152600401613ab590614c04565b60405180910390fd5b60156000815480929190613ad190615390565b919050555060006040518060a0016040528060155481526020018681526020018581526020016001151581526020016000815250905080601a600087815260200190815260200160002060008201518160000155602082015181600101556040820151816002015560608201518160030160006101000a81548160ff021916908315150217905550608082015181600401559050507f08db86aa8d0e65ac45061a1565349ba001d8c73117c16835e9eeb23848eb3e3f601554604051613b979190614e90565b60405180910390a15050505050565b600060236000815480929190613bbb90615390565b9190505550613bc86141bb565b6040518060800160405280602354815260200186815260200185815260200184815250905080602460006023548152602001908152602001600020600082015181600001556020820151816001015560408201518160020155606082015181600301559050507f1bddd110c92375ee8dc06b13693ae9ab5395c1ae79fd1b455455bc19039bce4b6023548686604051613c639392919061503d565b60405180910390a1602460006023548152602001908152602001600020600001549150509392505050565b6000613c9982610a0f565b15613cd9576040517f08c379a0000000000000000000000000000000000000000000000000000000008152600401613cd090614cc4565b60405180910390fd5b60266000815480929190613cec90615390565b91905055506040518060a00160405280602654815260200185815260200184815260200183815260200160018152506027600060265481526020019081526020016000206000820151816000015560208201518160010155604082015181600201556060820151816003015560808201518160040155905050602654602860008481526020019081526020016000208190555060265460256000868152602001908152602001600020819055507fae816f4de19251cce5dbafb46558bb67ace150a4cda551ce62d1ab8e117e2434602654604051613dca9190614e90565b60405180910390a16027600060265481526020019081526020016000206000015490509392505050565b60008073ffffffffffffffffffffffffffffffffffffffff16600d600084815260200190815260200160002060009054906101000a900473ffffffffffffffffffffffffffffffffffffffff1673ffffffffffffffffffffffffffffffffffffffff16118015613e7757506002600f600084815260200190815260200160002054145b9050919050565b6000601b60008373ffffffffffffffffffffffffffffffffffffffff1673ffffffffffffffffffffffffffffffffffffffff1681526020019081526020016000209050919050565b60008273ffffffffffffffffffffffffffffffffffffffff16600a600084815260200190815260200160002060010160009054906101000a900473ffffffffffffffffffffffffffffffffffffffff1673ffffffffffffffffffffffffffffffffffffffff1614905092915050565b6000600582108015613f475750600082115b613f86576040517f08c379a0000000000000000000000000000000000000000000000000000000008152600401613f7d90614d24565b60405180910390fd5b6001821415613f99576005549050613fd3565b6002821415613fac576006549050613fd3565b6003821415613fbf576007549050613fd3565b6004821415613fd2576008549050613fd3565b5b919050565b6000613fe382614037565b9050613fee81614080565b5050565b600060011515601a600084815260200190815260200160002060030160009054906101000a900460ff161515141561402d5760019050614032565b600090505b919050565b600080600090505b826013828154811061405457614053615470565b5b90600052602060002001541461407757808061406f90615390565b91505061403f565b80915050919050565b60136001601380549050614094919061523b565b815481106140a5576140a4615470565b5b9060005260206000200154601382815481106140c4576140c3615470565b5b906000526020600020018190555060138054806140e4576140e3615441565b5b6001900381819060005260206000200160009055905550565b8280546141099061532d565b90600052602060002090601f01602090048101928261412b5760008555614172565b82601f1061414457805160ff1916838001178555614172565b82800160010185558215614172579182015b82811115614171578251825591602001919060010190614156565b5b50905061417f91906141e3565b5090565b6040518060c0016040528060008152602001600081526020016000815260200160008152602001600081526020016000151581525090565b6040518060800160405280600081526020016000815260200160008152602001600081525090565b5b808211156141fc5760008160009055506001016141e4565b5090565b600061421361420e84615149565b615124565b90508281526020810184848401111561422f5761422e6154d3565b5b61423a8482856152c1565b509392505050565b60008135905061425181615824565b92915050565b6000813590506142668161583b565b92915050565b60008151905061427b8161583b565b92915050565b600082601f830112614296576142956154ce565b5b81356142a6848260208601614200565b91505092915050565b6000813590506142be81615852565b92915050565b6000602082840312156142da576142d96154dd565b5b60006142e884828501614242565b91505092915050565b60008060408385031215614308576143076154dd565b5b600061431685828601614242565b9250506020614327858286016142af565b9150509250929050565b600060208284031215614347576143466154dd565b5b600061435584828501614257565b91505092915050565b600060208284031215614374576143736154dd565b5b60006143828482850161426c565b91505092915050565b6000602082840312156143a1576143a06154dd565b5b60006143af848285016142af565b91505092915050565b600080604083850312156143cf576143ce6154dd565b5b60006143dd858286016142af565b92505060206143ee85828601614242565b9150509250929050565b600080600080600060a08688031215614414576144136154dd565b5b6000614422888289016142af565b955050602086013567ffffffffffffffff811115614443576144426154d8565b5b61444f88828901614281565b9450506040614460888289016142af565b9350506060614471888289016142af565b9250506080614482888289016142af565b9150509295509295909350565b600080604083850312156144a6576144a56154dd565b5b60006144b4858286016142af565b92505060206144c5858286016142af565b9150509250929050565b6000806000606084860312156144e8576144e76154dd565b5b60006144f6868287016142af565b9350506020614507868287016142af565b925050604061451886828701614242565b9150509250925092565b60008060006060848603121561453b5761453a6154dd565b5b6000614549868287016142af565b935050602061455a868287016142af565b925050604061456b868287016142af565b9150509250925092565b600080600080600060a08688031215614591576145906154dd565b5b600061459f888289016142af565b95505060206145b0888289016142af565b94505060406145c1888289016142af565b935050606086013567ffffffffffffffff8111156145e2576145e16154d8565b5b6145ee88828901614281565b92505060806145ff88828901614242565b9150509295509295909350565b60008060008060808587031215614626576146256154dd565b5b6000614634878288016142af565b9450506020614645878288016142af565b9350506040614656878288016142af565b9250506060614667878288016142af565b91505092959194509250565b600061467f8383614aa3565b60208301905092915050565b6146948161526f565b82525050565b60006146a58261518a565b6146af81856151b8565b93506146ba8361517a565b8060005b838110156146eb5781516146d28882614673565b97506146dd836151ab565b9250506001810190506146be565b5085935050505092915050565b61470181615281565b82525050565b61471081615281565b82525050565b61471f8161528d565b82525050565b600061473082615195565b61473a81856151c9565b935061474a8185602086016152d0565b80840191505092915050565b6000614761826151a0565b61476b81856151d4565b935061477b8185602086016152d0565b614784816154e2565b840191505092915050565b600061479c6015836151d4565b91506147a7826154f3565b602082019050919050565b60006147bf600f836151d4565b91506147ca8261551c565b602082019050919050565b60006147e26014836151d4565b91506147ed82615545565b602082019050919050565b60006148056013836151d4565b91506148108261556e565b602082019050919050565b6000614828600d836151d4565b915061483382615597565b602082019050919050565b600061484b6011836151d4565b9150614856826155c0565b602082019050919050565b600061486e6007836151d4565b9150614879826155e9565b602082019050919050565b6000614891601e836151d4565b915061489c82615612565b602082019050919050565b60006148b4601e836151d4565b91506148bf8261563b565b602082019050919050565b60006148d76014836151d4565b91506148e282615664565b602082019050919050565b60006148fa6017836151d4565b91506149058261568d565b602082019050919050565b600061491d6017836151d4565b9150614928826156b6565b602082019050919050565b6000614940601a836151d4565b915061494b826156df565b602082019050919050565b60006149636007836151d4565b915061496e82615708565b602082019050919050565b60006149866017836151d4565b915061499182615731565b602082019050919050565b60006149a9601a836151d4565b91506149b48261575a565b602082019050919050565b60006149cc6017836151d4565b91506149d782615783565b602082019050919050565b60006149ef6007836151d4565b91506149fa826157ac565b602082019050919050565b6000614a126024836151d4565b9150614a1d826157d5565b604082019050919050565b60c082016000820151614a3e6000850182614aa3565b506020820151614a516020850182614aa3565b506040820151614a646040850182614aa3565b506060820151614a776060850182614aa3565b506080820151614a8a6080850182614aa3565b5060a0820151614a9d60a08501826146f8565b50505050565b614aac816152b7565b82525050565b614abb816152b7565b82525050565b614ad2614acd826152b7565b6153d9565b82525050565b6000614ae48284614725565b915081905092915050565b6000614afb8284614ac1565b60208201915081905092915050565b6000602082019050614b1f600083018461468b565b92915050565b60006020820190508181036000830152614b3f818461469a565b905092915050565b6000602082019050614b5c6000830184614707565b92915050565b60006020820190508181036000830152614b7c8184614756565b905092915050565b60006020820190508181036000830152614b9d8161478f565b9050919050565b60006020820190508181036000830152614bbd816147b2565b9050919050565b60006020820190508181036000830152614bdd816147d5565b9050919050565b60006020820190508181036000830152614bfd816147f8565b9050919050565b60006020820190508181036000830152614c1d8161481b565b9050919050565b60006020820190508181036000830152614c3d8161483e565b9050919050565b60006020820190508181036000830152614c5d81614861565b9050919050565b60006020820190508181036000830152614c7d81614884565b9050919050565b60006020820190508181036000830152614c9d816148a7565b9050919050565b60006020820190508181036000830152614cbd816148ca565b9050919050565b60006020820190508181036000830152614cdd816148ed565b9050919050565b60006020820190508181036000830152614cfd81614910565b9050919050565b60006020820190508181036000830152614d1d81614933565b9050919050565b60006020820190508181036000830152614d3d81614979565b9050919050565b60006020820190508181036000830152614d5d8161499c565b9050919050565b60006020820190508181036000830152614d7d816149bf565b9050919050565b60006020820190508181036000830152614d9d816149e2565b9050919050565b60006020820190508181036000830152614dbd81614a05565b9050919050565b600060c082019050614dd96000830184614a28565b92915050565b6000602082019050614df46000830184614ab2565b92915050565b6000608082019050614e0f6000830187614ab2565b614e1c602083018661468b565b614e29604083018561468b565b8181036060830152614e3b8184614756565b905095945050505050565b6000608082019050614e5b6000830186614ab2565b614e68602083018561468b565b614e756040830184614707565b8181036060830152614e8681614861565b9050949350505050565b6000604082019050614ea56000830184614ab2565b8181036020830152614eb681614861565b905092915050565b6000604082019050614ed36000830184614ab2565b8181036020830152614ee481614956565b905092915050565b6000606082019050614f016000830185614ab2565b614f0e6020830184614ab2565b8181036040830152614f1f81614861565b90509392505050565b600060e082019050614f3d600083018a614ab2565b614f4a6020830189614ab2565b614f576040830188614ab2565b614f64606083018761468b565b614f716080830186614ab2565b614f7e60a0830185614ab2565b614f8b60c0830184614707565b98975050505050505050565b600060a082019050614fac6000830188614ab2565b614fb96020830187614ab2565b614fc66040830186614ab2565b614fd36060830185614707565b614fe06080830184614ab2565b9695505050505050565b600060a082019050614fff6000830188614ab2565b61500c6020830187614ab2565b6150196040830186614ab2565b6150266060830185614716565b6150336080830184614ab2565b9695505050505050565b60006080820190506150526000830186614ab2565b61505f6020830185614ab2565b61506c6040830184614ab2565b818103606083015261507d81614861565b9050949350505050565b600060808201905061509c6000830187614ab2565b6150a96020830186614ab2565b6150b66040830185614ab2565b6150c36060830184614ab2565b95945050505050565b600060a0820190506150e16000830187614ab2565b6150ee6020830186614ab2565b6150fb6040830185614ab2565b6151086060830184614ab2565b818103608083015261511981614861565b905095945050505050565b600061512e61513f565b905061513a828261535f565b919050565b6000604051905090565b600067ffffffffffffffff8211156151645761516361549f565b5b61516d826154e2565b9050602081019050919050565b6000819050602082019050919050565b600081519050919050565b600081519050919050565b600081519050919050565b6000602082019050919050565b600082825260208201905092915050565b600081905092915050565b600082825260208201905092915050565b60006151f0826152b7565b91506151fb836152b7565b9250827fffffffffffffffffffffffffffffffffffffffffffffffffffffffffffffffff038211156152305761522f6153e3565b5b828201905092915050565b6000615246826152b7565b9150615251836152b7565b925082821015615264576152636153e3565b5b828203905092915050565b600061527a82615297565b9050919050565b60008115159050919050565b6000819050919050565b600073ffffffffffffffffffffffffffffffffffffffff82169050919050565b6000819050919050565b82818337600083830152505050565b60005b838110156152ee5780820151818401526020810190506152d3565b838111156152fd576000848401525b50505050565b600061530e826152b7565b91506000821415615322576153216153e3565b5b600182039050919050565b6000600282049050600182168061534557607f821691505b6020821081141561535957615358615412565b5b50919050565b615368826154e2565b810181811067ffffffffffffffff821117156153875761538661549f565b5b80604052505050565b600061539b826152b7565b91507fffffffffffffffffffffffffffffffffffffffffffffffffffffffffffffffff8214156153ce576153cd6153e3565b5b600182019050919050565b6000819050919050565b7f4e487b7100000000000000000000000000000000000000000000000000000000600052601160045260246000fd5b7f4e487b7100000000000000000000000000000000000000000000000000000000600052602260045260246000fd5b7f4e487b7100000000000000000000000000000000000000000000000000000000600052603160045260246000fd5b7f4e487b7100000000000000000000000000000000000000000000000000000000600052603260045260246000fd5b7f4e487b7100000000000000000000000000000000000000000000000000000000600052604160045260246000fd5b600080fd5b600080fd5b600080fd5b600080fd5b6000601f19601f8301169050919050565b7f43616c6c6572206973206e6f7420696e76697465640000000000000000000000600082015250565b7f43616c6c6572206973206f776e65720000000000000000000000000000000000600082015250565b7f4e6f7420616e20656d706c6f7965652074797065000000000000000000000000600082015250565b7f43616c6c6572206973206e6f74206f776e657200000000000000000000000000600082015250565b7f46616d696c792065786973747300000000000000000000000000000000000000600082015250565b7f4e6f74206120446f63746f722074797065000000000000000000000000000000600082015250565b7f7375636365737300000000000000000000000000000000000000000000000000600082015250565b7f416c726561647920696e7669746174696f6e20636f6465206578697374730000600082015250565b7f496e697469616c20436f75706f6e7320616c7265616479206973737565640000600082015250565b7f456d706c6f796565202052656769737465726564000000000000000000000000600082015250565b7f446f63756d656e7420616c726561647920657869737473000000000000000000600082015250565b7f436f75706f6e20616c726561647920617070726f766564000000000000000000600082015250565b7f436f75706f6e2063616e206e6f742062652072656465656d6564000000000000600082015250565b7f6661696c75726500000000000000000000000000000000000000000000000000600082015250565b7f496e76616c6964207374617475732070726f7669646564000000000000000000600082015250565b7f4e6f7420746865206f776e6572206f662074686520746f6b656e000000000000600082015250565b7f456d706c6f796565204e6f742052656769737465726564000000000000000000600082015250565b7f64656c6574656400000000000000000000000000000000000000000000000000600082015250565b7f46616d696c79206d656d626572732073686f756c64206265206d6f726520746860008201527f616e203000000000000000000000000000000000000000000000000000000000602082015250565b61582d8161526f565b811461583857600080fd5b50565b6158448161528d565b811461584f57600080fd5b50565b61585b816152b7565b811461586657600080fd5b5056fea2646970667358221220e1b965920566d2693f88523d335e3ac18b9256ee16c69fda25bf51bbc49350dc64736f6c63430008070033",
  "immutableReferences": {},
  "source": "// SPDX-License-Identifier: GPL-3.0\n\npragma solidity >=0.7.0 <0.9.0;\n\n\n/**\n * @title Owner\n * @dev Set & change owner\n */\ncontract Owner {\n\n    address private owner;\n    \n    // event for EVM logging\n    event OwnerSet(address indexed oldOwner, address indexed newOwner);\n    \n    // modifier to check if caller is owner\n    modifier isOwner() {\n        // If the first argument of 'require' evaluates to 'false', execution terminates and all\n        // changes to the state and to Ether balances are reverted.\n        // This used to consume all gas in old EVM versions, but not anymore.\n        // It is often a good idea to use 'require' to check if functions are called correctly.\n        // As a second argument, you can also provide an explanation about what went wrong.\n        require(msg.sender == owner, \"Caller is not owner\");\n        _;\n    }\n    \n    modifier notOwner() {\n       require(msg.sender != owner, \"Caller is owner\");\n        _; \n    }\n    \n    /**\n     * @dev Set contract deployer as owner\n     */\n    constructor() {\n        owner = msg.sender; // 'msg.sender' is sender of current call, contract deployer for a constructor\n        emit OwnerSet(address(0), owner);\n    }\n\n    /**\n     * @dev Change owner\n     * @param newOwner address of new owner\n     */\n    function changeOwner(address newOwner) public isOwner {\n        emit OwnerSet(owner, newOwner);\n        owner = newOwner;\n    }\n\n    /**\n     * @dev Return owner address \n     * @return address of owner\n     */\n    function getOwner() external view returns (address) {\n        return owner;\n    }\n}\n\ncontract UserInvite is Owner{ \n\n\n    \n    struct Invitation { \n        uint256 id;\n        uint256 invtype;\n    }\n    \n    event delinvitee (\n        string  msg\n        );\n        \n    event InvitationAdded(string msg);\n\n    mapping (uint256 => Invitation) internal invitationById;\n    uint[] internal invitees;\n    \n    modifier isInvited(uint256 _code, uint256 _id, uint256 _usertype) {\n        // If the first argument of 'require' evaluates to 'false', execution terminates and all\n        // changes to the state and to Ether balances are reverted.\n        // This used to consume all gas in old EVM versions, but not anymore.\n        // It is often a good idea to use 'require' to check if functions are called correctly.\n        // As a second argument, you can also provide an explanation about what went wrong.\n        require(invitationById[_code].id == _id && invitationById[_code].invtype == _usertype, \"Caller is not invited\");\n        _;\n    }\n\n    function find(uint256 value) private view returns(uint) {\n        uint256 i = 0;\n        while (invitees[i] != value) {\n            i++;\n        }\n        return i;\n    }\n\n    function removeByValue(uint256 value) private {\n        uint256 i = find(value);\n        removeByIndex(i);\n    }\n\n    function removeByIndex(uint256 i) private {\n            invitees[i] = invitees[invitees.length -1];\n            invitees.pop();\n        }\n    \n    \n    function addInvitation(uint256 _code, uint256 _id, uint256 _usertype) public isOwner { \n        require(invitationById[_code].id == 0, \"Already invitation code exists\");\n        invitationById[_code].id = _id;\n        invitationById[_code].invtype = _usertype;\n        \n        invitees.push(_id);\n        emit InvitationAdded(\"success\");\n    }\n    \n    function deleteInvitation(uint256 _code, uint256 _id) internal {\n         delete invitationById[_code];\n         removeByValue(_id);\n         emit delinvitee(\"deleted\");\n    }\n    \n    function getInvitations() public isOwner view returns (uint[] memory)  {\n        return invitees;\n    }\n    \n}\n\ncontract EmployeeBase is UserInvite { \n\n    struct Employee { \n        uint256 id;\n        uint256 empid; //empid provided by HR\n        uint256 maxfamilycount; //maximum number of family members that can register\n        uint256 initialCouponCount;\n        uint256 extraCouponCount;\n        bool active;\n    }\n\n    struct Family {\n      uint256 id;\n      uint256 empId;\n      uint256 count;\n      bool active;\n      uint256 activeMembers;\n    }\n\n    \n  \n  struct Member {\n      uint256 id;\n      uint256 empId;\n      uint256 familyId;\n      address owner;\n      uint256 initialCouponCount;\n      uint256 extraCouponCount;\n      bool active;\n   }\n    event empRegistration(uint256 employeesCounter, string msg);\n    event empFamilyRegistration(uint256 familyCounter, string msg);\n    event memberRegistration (uint256 memberCounter, string msg);\n    \n    uint256 employeesCounter;\n    uint256 familyCounter;\n    uint256 memberCounter;\n    \n    mapping (address => Employee) internal employees;\n    mapping (uint256 => address) internal employeeIndexToOwner;\n    mapping (uint256 => uint) internal employeeIDtoIndex;\n\n    //family\n    mapping(uint256 => Family) public EmployeeFamily;\n\n    //Family Member\n    mapping (address => Member) internal familyMembers;\n    mapping (uint256 => mapping(uint256 => Member )) EmployeeToFamilyMembers;\n    mapping (uint256 => Member[]) public EmployeeFamilyMembers;\n    mapping (address => uint256 ) memberAddressToEmployeeId;\n    uint[] public registeredEmployees;\n    \n    //Employee Coupons\n    mapping (uint256 => mapping(uint256 => uint[] )) internal EmployeeToCoupons;\n    \n    //Member Coupons\n    mapping (uint256 => mapping(uint256 => uint[] )) internal MemberToCoupons;\n    \n    //Employee Doctor Visit, e.g empDoctorVisists[601][0] = 1 (visitId)\n    mapping(address => uint[]) public empDoctorVisists;\n    \n    constructor() {\n        employeesCounter = 0;\n        memberCounter = 0;\n        familyCounter = 0;\n    }\n\n    function isEmployee(uint256 _type) private pure returns (bool) {\n        if (_type ==1) {\n            return true;\n        }\n        else {\n            return false;\n        }\n    }\n    \n    \n    modifier isRegisteredEmployee(address _address) {\n        // If the first argument of 'require' evaluates to 'false', execution terminates and all\n        // changes to the state and to Ether balances are reverted.\n        // This used to consume all gas in old EVM versions, but not anymore.\n        // It is often a good idea to use 'require' to check if functions are called correctly.\n        // As a second argument, you can also provide an explanation about what went wrong.\n        require(employees[_address].active == true, \"Employee Not Registered\");\n        _;\n    }\n    \n    modifier isNotRegistered(address _address) {\n        require(employees[_address].active == false, \"Employee  Registered\");\n        _;\n    }\n\n    //function can be called by User with an invitation on the system\n    function registerEmployee(uint256 _empid, uint256 _maxfamilycount, uint256 _code, uint256 _usertype ) public notOwner isInvited(_code,_empid, _usertype) isNotRegistered(msg.sender) {\n        require(isEmployee(_usertype), \"Not an employee type\");\n        employeesCounter ++;\n        employees[msg.sender] = Employee(employeesCounter, _empid, _maxfamilycount,0,0,true);\n        registeredEmployees.push(_empid);\n        employeeIndexToOwner[employeesCounter] = msg.sender;\n        employeeIDtoIndex[_empid] = employeesCounter;\n        deleteInvitation(_code,_empid);\n        registerFamily(_empid, _maxfamilycount, msg.sender);\n        emit empRegistration(employeesCounter, \"success\");\n    }\n\n    function getEmployee(address _address) internal view returns (Employee storage){\n        return( employees[_address]);\n    }\n    \n    function getMember(address _address) internal view returns (Member storage){\n        return( familyMembers[_address]);\n    }\n    \n\n    function registerFamily(uint256 _empId, uint256 _count, address _address) internal isRegisteredEmployee(_address) {\n        require(_count > 0, \"Family members should be more than 0\");\n        require(!familyExists(_empId), \"Family exists\");\n        familyCounter ++;\n        Family memory _family = Family(familyCounter, _empId, _count, true, 0);\n        EmployeeFamily[_empId] = _family;\n        \n        emit empFamilyRegistration(familyCounter, \"success\");\n\n    }\n\n    function registerFamilyMember(uint256 _empId,uint256 _familyId, address _address) public isRegisteredEmployee(msg.sender) {\n              memberCounter ++;\n              Member memory _member = Member(memberCounter, _empId, _familyId, _address,0,0, true);\n              familyMembers[_address] = _member;\n              EmployeeToFamilyMembers[_empId][memberCounter] = _member;\n              EmployeeFamilyMembers[_empId].push(_member);\n              memberAddressToEmployeeId[_address] = _empId;\n              Family memory _family = EmployeeFamily[_empId];\n              _family.activeMembers ++;\n              EmployeeFamily[_empId] = _family;\n              emit memberRegistration(memberCounter, \"success\");\n    }\n  \n  function familyExists(uint256 _empId) private view returns(bool){\n      if (EmployeeFamily[_empId].active == true ) {\n          return true;\n      }\n      else {\n          return false;\n      }\n      \n  }\n    \n}\n\ncontract DoctorBase is UserInvite { \n\n    struct Doctor { \n        uint256 id;\n        uint256 doctorid;\n        string specialty;\n        uint256 couponcoeficient;\n        bool active;\n    }\n    \n    uint256 internal doctorsCounter;\n    \n    mapping (address => Doctor) internal doctors;\n    mapping (uint256 => address) internal doctorIndexToOwner;\n    mapping (uint256 => bytes32) internal doctorIndexToKeyHash;\n    uint[] internal registeredDoctors;\n    \n    //events \n    event doctorregistration (uint256 id, string msg);\n    \n    constructor() {\n        doctorsCounter = 0;\n    }\n\n    function isDoctor(uint256 _type) private pure returns (bool) {\n        if (_type ==2) {\n            return true;\n        }\n        else {\n            return false;\n        }\n    }\n    \n    //function can be called by User with an invitation on the system\n    function registerDoctor(uint256 _doctorid, string memory _speciality, uint256 _code, uint256 _usertype, uint256 _couponcoeficient) public isInvited(_code,_doctorid, _usertype) notOwner{\n        require(isDoctor(_usertype), \"Not a Doctor type\");\n        doctorsCounter ++;\n        bytes32 _keyhash = sha256(abi.encodePacked(doctorsCounter+_doctorid));\n        doctorIndexToKeyHash[doctorsCounter] = _keyhash;\n        doctors[msg.sender] = Doctor(doctorsCounter, _doctorid, _speciality,_couponcoeficient, true);\n        registeredDoctors.push(_doctorid);\n        doctorIndexToOwner[_doctorid] = msg.sender;\n        deleteInvitation(_code,_doctorid);\n        emit doctorregistration(doctorsCounter, \"success\");\n    }\n\n    function getDoctor(address _address) internal view returns (uint, uint, string memory, uint256, bool ){\n        return( doctors[_address].doctorid, doctors[_address].id, doctors[_address].specialty ,doctors[_address].couponcoeficient,doctors[_address].active);\n    }\n    function getDoctor(uint256 _id) internal view returns(bytes32 _keyhash) {\n        return doctorIndexToKeyHash[_id];\n    }\n}\n\ncontract Coupon is Owner {\n    \n  address owner;\n  uint256 value;\n  uint256 empCouponMax;\n  uint256 couponPayAmount;\n  uint256 couponCount; \n  uint256 couponExchangedCount;\n  uint256 couponRedeemedCount;\n  uint256 couponPaidCount;\n  uint256 year;\n  \n  struct CouponPaper {\n    uint256 id;\n    address owner;\n    address beneficiary;\n    //add empID to track coupons for family members\n    uint256 value;\n    string status;\n    bool valid;\n    bool approved;\n  } \n  \n  event CouponPaperCreated(\n    uint256 id,\n    address owner,\n    bool valid,\n    string msg\n  );\n\n  event GlobalParametersSet(\n      uint256 value, \n      uint256 maxcoupons, \n      uint256 paidamount,\n      uint256 year,\n      string msg\n  );\n  \n  \n  mapping(uint256 => CouponPaper) internal coupons;\n  mapping(address => uint) internal ownershipToCouponCount;\n  //Filled when new coupon is created\n  mapping(uint256 => address) internal couponIndexToOwner;\n  //Filled when new coupon is exchanged\n  mapping(uint256 => address) internal couponIndexToOwnerExchanged;\n  //Filled when new coupon is redeemed\n  mapping(uint256 => address) internal couponIndexToOwnerRedeeemed;\n  //Track coupon status\n  mapping(uint256 => uint256) internal couponIndexToStatus;\n  \n  //Filled when a coupon is used in DoctorVisit\n  mapping(uint256 => bool) couponIndexToDoctorVisit;\n  \n  //Stores the balances to be paid for the employee;\n  mapping(address => uint) balances;\n  \n  constructor() {\n    owner = msg.sender;\n    couponCount = 0;\n    value = 1;\n    empCouponMax = 5;\n    couponPayAmount = 60000;\n  }\n  \n    function setGlobalParameters(uint256 _value, uint256 _maxcoupons, uint256 _paidamount,uint256 _year) public isOwner {\n        value = _value;\n        empCouponMax = _maxcoupons;\n        couponPayAmount = _paidamount;\n        year = _year;\n        emit GlobalParametersSet(value, empCouponMax, couponPayAmount, year, \"success\" );\n    }\n  \n\n    function issueCoupon(address _couponowner, address _couponbeneficiary ) internal returns(uint256 _couponId) {\n    couponCount ++;\n    coupons[couponCount] = CouponPaper(couponCount,_couponowner, _couponbeneficiary, value, \"created\", true, false);\n    ownershipToCouponCount[_couponowner] ++;\n    couponIndexToOwner[couponCount] = _couponowner;\n    couponIndexToStatus[couponCount] = 1;\n    emit CouponPaperCreated(couponCount, _couponowner, true, \"success\");\n    return couponCount;\n    \n    }\n    \n    function _transfer(address _from, address _to, uint256 _couponId) internal {\n        CouponPaper storage _coupon = coupons[_couponId];\n        _coupon.owner = _to;\n        ownershipToCouponCount[_to] ++;\n        ownershipToCouponCount[_from] --;\n        couponIndexToOwner[couponCount] = _to;\n    }\n\n    function _owns(address _address, uint256 _couponId) internal view returns (bool) {\n        return(coupons[_couponId].owner == _address);\n    }\n    \n    function _usedInDoctorVisit(uint256 _couponId) internal view returns (bool) {\n        return (couponIndexToDoctorVisit[_couponId]);\n    }\n    \n    function _isBeneficiary(address _address, uint256 _couponId) internal view returns (bool) {\n        return(coupons[_couponId].beneficiary == _address);\n    }\n    \n    //coupon status is exchanged\n    function _readyToBeRedeemed(uint256 _couponId) internal view returns (bool) {\n       return((couponIndexToOwnerExchanged[_couponId] > address(0)) && (couponIndexToStatus[_couponId] == 2));\n    }\n    \n  \n    function getCouponById(uint256 _couponId) public isOwner view returns(uint256 id, address, address, string memory status) { \n    \n        return (coupons[_couponId].id, coupons[_couponId].owner, coupons[_couponId].beneficiary, coupons[_couponId].status);\n    }\n    \n    function getCoupon(uint256 _couponId) internal isOwner view returns(CouponPaper storage){\n        return coupons[_couponId];\n    }\n\n    function couponBalanceOf(address _address) internal view returns (uint256 count) {\n        return ownershipToCouponCount[_address];\n    }\n\n    function totalCoupons() internal view returns (uint256 count) {\n        return couponCount;\n        \n    }\n\n    function totalCouponsByStatus(uint256 _status) internal view returns (uint256 countExchanged) {\n        require(_status < 5 && _status >0, \"Invalid status provided\");\n        //1 - created, 2- exchanged, 3-redeemed, 4-paid\n        if (_status == 1) return couponCount;\n        if (_status == 2) return couponExchangedCount;\n        if (_status == 3) return couponRedeemedCount;\n        if (_status == 4) return couponPaidCount;\n    }\n\n    function getCouponsByStatus(uint256 _status) external view returns (uint256[] memory statusCoupons) {\n        \n        uint256 count = totalCouponsByStatus(_status);\n        if (count == 0) {\n            return new uint256[](0);\n        }\n        else {\n            uint256[] memory result = new uint256[](count);\n            uint256 total = totalCoupons();\n            uint256 resultIndex = 0;\n            //we count all coupons\n            uint256 couponId;\n\n            for (couponId = 1; couponId <= total; couponId++) {\n                if (couponIndexToStatus[couponId] == _status) {\n                    result[resultIndex] = couponId;\n                    resultIndex++;\n                }\n            }\n\n            return result;\n        }\n\n    }\n\n    \n    function getCouponsByOwner(address _owner) external view returns (uint256[] memory ownerCoupons) {\n        uint256 count = couponBalanceOf(_owner);\n        if (count == 0) {\n            return new uint[](0);\n        }\n        else {\n            uint256[] memory result = new uint256[](count);\n            uint256 total = totalCoupons();\n            uint256 resultIndex = 0;\n            //we count all coupons\n            uint256 couponId;\n\n            for (couponId = 1; couponId <= total; couponId++) {\n                if (couponIndexToOwner[couponId] == _owner) {\n                    result[resultIndex] = couponId;\n                    resultIndex++;\n                }\n            }\n\n            return result;\n        }\n\n    }\n    \n    \n  \n  \n}\n\ncontract DoctorVisitBase {\n  uint256 public visitCount; \n\n  struct Visit {\n    uint256 id;\n    uint256 empId;\n    uint256 couponId;\n    uint256 doctorId;\n  }\n\n  event VisitCreated (\n    uint256 id,\n    uint256 empId,\n    uint256 couponId,\n    string msg\n  );\n\n  //visits  mapping incremental\n  mapping(uint256 => Visit) public visits;\n  //mapping visitDocumentIndex to Visit ID;\n  mapping (uint256 => uint) DoctorVisitIndexToDocumentId;\n\n  constructor() {\n    visitCount = 0;\n  }\n\n  function createVisit(uint256 _empId, uint256 _couponId, uint256 _doctorId) internal returns(uint256 visitId) {\n    visitCount ++;\n    Visit memory _visit;\n    _visit = Visit(visitCount, _empId, _couponId, _doctorId);\n    visits[visitCount] = _visit;\n    emit VisitCreated(visitCount, _empId, _couponId, \"success\");\n    return visits[visitCount].id;\n  }\n  \n  function getDoctorVisit(uint256 _visitid) public view returns (uint256 visitid, uint256 empid, uint256 couponid, uint256 doctorid) {\n      return (visits[_visitid].id,visits[_visitid].empId,visits[_visitid].couponId,visits[_visitid].doctorId);\n  }\n\n}\n\ncontract VisitDocumentBase is DoctorVisitBase { \n  uint256 public VisitDocumentCount;\n\n  struct VisitDoc { \n    uint256 id; \n    uint256 _doctorvisitId;\n    uint256 _empId;\n    bytes32 _docHash;\n    uint256 flag; //flag is one when created by the contract\n  }\n\n  event VisitDocumentAddition (\n    uint256 documentID,\n    string msg\n  );\n  mapping (uint256 => VisitDoc ) public VisitDocuments;\n  mapping (bytes32 => uint256 ) public VisitDocumentBasehash;\n  \n\n  constructor() {\n    VisitDocumentCount = 0;\n  }\n\n  function addVisitDocument(uint256 _doctorvisitId, uint256 _empId,bytes32 _docHash) internal returns(uint256 documentId) {\n     require(!_documentExists(_docHash), \"Document already exists\"); //check if document hash already exists\n        VisitDocumentCount ++;\n        VisitDocuments[VisitDocumentCount] = VisitDoc(VisitDocumentCount, _doctorvisitId, _empId, _docHash, 1);\n        VisitDocumentBasehash[_docHash] = VisitDocumentCount; \n        DoctorVisitIndexToDocumentId[_doctorvisitId] = VisitDocumentCount;\n        emit VisitDocumentAddition(VisitDocumentCount, \"success\");\n        return VisitDocuments[VisitDocumentCount].id;\n  }\n  \n  function _documentExists(bytes32 _docHash) public view returns (bool) {\n      if(VisitDocumentBasehash[_docHash] > 0) {\n        return true;\n      }\n      else {\n        return false;\n      }\n  }\n  \n}\n\n\n\ncontract EmployeeCore is Coupon,EmployeeBase,VisitDocumentBase {\n    \n    event EmployeeCouponGeneration(uint256 initialCouponCount, string msg);\n    event MemberCouponGeneration(uint256 initialCouponCount, string msg);\n    event couponExchanged(uint256 _couponId, string msg);\n    event doctorVisited(uint256 visitid, uint256 documentid, string msg);\n    event couponRedeemed(uint256 couponId, string msg);\n\n    \n    //get Employee info\n    function getEmployeeInfo(address _employee) external isRegisteredEmployee(msg.sender) view returns (Employee memory) {\n        return getEmployee(_employee);\n    }\n    //issue inital coupons\n    function employeeIssueCoupons() public isRegisteredEmployee(msg.sender) {\n        require((employees[msg.sender].initialCouponCount == 0), \"Initial Coupons already issued\");\n        Employee storage _employee = getEmployee(msg.sender);\n            for (uint256 i =1; i <= empCouponMax; i++)\n            {\n            //Employee is the owner and beneficiary of his initial coupons\n            EmployeeToCoupons[_employee.empid][year].push(issueCoupon(msg.sender,msg.sender));\n            _employee.initialCouponCount ++;\n            }\n            if ((_employee.initialCouponCount) == empCouponMax) {\n                emit EmployeeCouponGeneration(empCouponMax, \"success\");\n            }\n            else { \n                emit EmployeeCouponGeneration(_employee.initialCouponCount, \"failure\");\n            }\n        \n\n    }\n    \n    function employeeIssueMembersCoupons(address _memberaddress) public isRegisteredEmployee(msg.sender) {\n        require((familyMembers[_memberaddress].initialCouponCount == 0), \"Initial Coupons already issued\");\n        Member storage _member = getMember(_memberaddress);\n            for (uint256 i =1; i <= empCouponMax; i++)\n            {\n            //Employee is the owner and beneficiary of his initial coupons\n            MemberToCoupons[_member.id][year].push(issueCoupon(_memberaddress,msg.sender));\n            _member.initialCouponCount ++;\n            }\n            if ((_member.initialCouponCount) == empCouponMax) {\n                emit MemberCouponGeneration(empCouponMax, \"success\");\n            }\n            else { \n                emit MemberCouponGeneration(_member.initialCouponCount, \"failure\");\n            }\n        \n\n    }\n    \n     function exchangeCoupon(uint256 _couponId, address _owner) public isRegisteredEmployee(msg.sender) {\n        require(_owns(_owner, _couponId), \"Not the owner of the token\");\n         CouponPaper memory _coupon = coupons[_couponId]; \n         _coupon.status = \"Exchanged\";\n         //_coupon.beneficiary = _coupon.owner;\n         //_coupon.owner = owner;\n         coupons[_couponId] = _coupon;\n         couponIndexToStatus[_couponId] = 2;\n         couponExchangedCount ++;\n         couponIndexToOwnerExchanged[_couponId] = _owner;\n         couponIndexToOwner[_couponId];\n    }\n    \n    function redeemCoupon(uint256 _couponId, address _owner) public isRegisteredEmployee(msg.sender) {\n        require(_owns(_owner, _couponId), \"Not the owner of the token\");\n        require(_readyToBeRedeemed(_couponId), \"Coupon can not be redeemed\");\n         CouponPaper memory _coupon = coupons[_couponId]; \n         _coupon.status = \"Redeemed\";\n         couponIndexToStatus[couponCount] = 3;\n         couponExchangedCount --;\n         couponRedeemedCount ++;\n         //_coupon.beneficiary = owner;\n        coupons[_couponId] = _coupon;\n        couponIndexToOwnerRedeeemed[_couponId] = msg.sender;\n        delete couponIndexToOwnerExchanged[_couponId];\n        emit couponRedeemed(_couponId, \"success\");\n    }\n    \n    function visitDoctor(uint256 empid, uint256 couponid, uint256 doctorid, string memory _md5, address _address) public isRegisteredEmployee(msg.sender){\n            //employee should have a family relation with _address\n            //visit doctor\n            uint256 _visitId = createVisit(empid, couponid, doctorid);\n            couponIndexToDoctorVisit[couponid] = true;\n            empDoctorVisists[msg.sender].push(_visitId);\n            //submit document\n            bytes32 _docHash = sha256(bytes(_md5));\n            uint256 _documentId = addVisitDocument(doctorid, empid, _docHash);\n            // then exchange Coupon\n            exchangeCoupon(couponid, _address);\n            emit doctorVisited( _visitId, _documentId, \"success\");\n    }\n}\n\ncontract HRManager is Coupon,EmployeeBase,DoctorBase {\n    mapping(uint256 => bool) public couponIndexApproved;\n\n    event approveCoupon(uint256 couponid, string msg);\n    event paidCoupon(uint256 _couponId, string msg);\n   // event DoctorPricing(string msg);\n\n    function approveCouponRedemption(uint256 _couponId) public isOwner {\n        require(_readyToBeRedeemed(_couponId), \"Coupon can not be redeemed\");\n        require(!couponIndexApproved[_couponId], \"Coupon already approved\");\n        CouponPaper storage _coupon = coupons[_couponId]; \n         _coupon.approved = true;\n         couponIndexApproved[_couponId] = true;\n         emit approveCoupon(_couponId, \"success\");\n    }\n    \n    function prepareCouponPayment(uint256 _couponId) public isOwner {\n        CouponPaper storage _coupon = coupons[_couponId]; \n        _coupon.valid = false;\n        _coupon.status = \"Paid\";\n        _coupon.beneficiary = _coupon.owner;\n        _coupon.owner = owner;\n        couponIndexToStatus[couponCount] = 4;\n        couponRedeemedCount --;\n        couponPaidCount ++;\n        uint256 _balance = balances[_coupon.owner];\n        balances[_coupon.owner] = _balance + couponPayAmount;\n\n        emit paidCoupon(_couponId, \"success\");\n        \n    }\n}\n \ncontract MyNet is EmployeeCore,HRManager {\n    string name;\n\n    constructor() {\n        name = \"MyNet Contract is initialised\";\n    }\n\n    function getName() public view returns(string memory _name) {\n        return name;\n    }\n    \n    \n}\n",
  "sourcePath": "/Users/wissamdagher/Documents/dev/blockchain/CouponMedNet/src/contracts/MyNet.sol",
  "compiler": {
    "name": "solc",
    "version": "0.8.7+commit.e28d00a7.Emscripten.clang"
  },
  "schemaVersion": "3.4.1",
  "updatedAt": "2021-08-21T11:50:43.052Z",
  "networkType": "ethereum",
  "devdoc": {
    "kind": "dev",
    "methods": {
      "changeOwner(address)": {
        "details": "Change owner",
        "params": {
          "newOwner": "address of new owner"
        }
      },
      "getOwner()": {
        "details": "Return owner address ",
        "returns": {
          "_0": "address of owner"
        }
      }
    },
    "version": 1
  },
  "userdoc": {
    "kind": "user",
    "methods": {},
    "version": 1
  }
}