{
  "contractName": "Owner",
  "abi": [
    {
      "inputs": [],
      "stateMutability": "nonpayable",
      "type": "constructor"
    },
    {
      "anonymous": false,
      "inputs": [
        {
          "indexed": true,
          "internalType": "address",
          "name": "oldOwner",
          "type": "address"
        },
        {
          "indexed": true,
          "internalType": "address",
          "name": "newOwner",
          "type": "address"
        }
      ],
      "name": "OwnerSet",
      "type": "event"
    },
    {
      "inputs": [
        {
          "internalType": "address",
          "name": "newOwner",
          "type": "address"
        }
      ],
      "name": "changeOwner",
      "outputs": [],
      "stateMutability": "nonpayable",
      "type": "function"
    },
    {
      "inputs": [],
      "name": "getOwner",
      "outputs": [
        {
          "internalType": "address",
          "name": "",
          "type": "address"
        }
      ],
      "stateMutability": "view",
      "type": "function"
    }
  ],
  "bytecode": "0x608060405234801561001057600080fd5b50336000806101000a81548173ffffffffffffffffffffffffffffffffffffffff021916908373ffffffffffffffffffffffffffffffffffffffff16021790555060008054906101000a900473ffffffffffffffffffffffffffffffffffffffff1673ffffffffffffffffffffffffffffffffffffffff16600073ffffffffffffffffffffffffffffffffffffffff167f342827c97908e5e2f71151c08502a66d44b6f758e3ac2f1de95f02eb95f0a73560405160405180910390a3610356806100db6000396000f3fe608060405234801561001057600080fd5b50600436106100365760003560e01c8063893d20e81461003b578063a6f9dae114610059575b600080fd5b610043610075565b604051610050919061025d565b60405180910390f35b610073600480360381019061006e91906101fe565b61009e565b005b60008060009054906101000a900473ffffffffffffffffffffffffffffffffffffffff16905090565b60008054906101000a900473ffffffffffffffffffffffffffffffffffffffff1673ffffffffffffffffffffffffffffffffffffffff163373ffffffffffffffffffffffffffffffffffffffff161461012c576040517f08c379a000000000000000000000000000000000000000000000000000000000815260040161012390610278565b60405180910390fd5b8073ffffffffffffffffffffffffffffffffffffffff1660008054906101000a900473ffffffffffffffffffffffffffffffffffffffff1673ffffffffffffffffffffffffffffffffffffffff167f342827c97908e5e2f71151c08502a66d44b6f758e3ac2f1de95f02eb95f0a73560405160405180910390a3806000806101000a81548173ffffffffffffffffffffffffffffffffffffffff021916908373ffffffffffffffffffffffffffffffffffffffff16021790555050565b6000813590506101f881610309565b92915050565b600060208284031215610214576102136102db565b5b6000610222848285016101e9565b91505092915050565b610234816102a9565b82525050565b6000610247601383610298565b9150610252826102e0565b602082019050919050565b6000602082019050610272600083018461022b565b92915050565b600060208201905081810360008301526102918161023a565b9050919050565b600082825260208201905092915050565b60006102b4826102bb565b9050919050565b600073ffffffffffffffffffffffffffffffffffffffff82169050919050565b600080fd5b7f43616c6c6572206973206e6f74206f776e657200000000000000000000000000600082015250565b610312816102a9565b811461031d57600080fd5b5056fea2646970667358221220d368b6bcfb39505a148847bb2f15a64a221886eb7b947cc68b1f2736d3c9d79c64736f6c63430008070033",
  "immutableReferences": {},
  "source": "// SPDX-License-Identifier: GPL-3.0\n\npragma solidity >=0.7.0 <0.9.0;\n\n\n/**\n * @title Owner\n * @dev Set & change owner\n */\ncontract Owner {\n\n    address private owner;\n    \n    // event for EVM logging\n    event OwnerSet(address indexed oldOwner, address indexed newOwner);\n    \n    // modifier to check if caller is owner\n    modifier isOwner() {\n        // If the first argument of 'require' evaluates to 'false', execution terminates and all\n        // changes to the state and to Ether balances are reverted.\n        // This used to consume all gas in old EVM versions, but not anymore.\n        // It is often a good idea to use 'require' to check if functions are called correctly.\n        // As a second argument, you can also provide an explanation about what went wrong.\n        require(msg.sender == owner, \"Caller is not owner\");\n        _;\n    }\n    \n    modifier notOwner() {\n       require(msg.sender != owner, \"Caller is owner\");\n        _; \n    }\n    \n    /**\n     * @dev Set contract deployer as owner\n     */\n    constructor() {\n        owner = msg.sender; // 'msg.sender' is sender of current call, contract deployer for a constructor\n        emit OwnerSet(address(0), owner);\n    }\n\n    /**\n     * @dev Change owner\n     * @param newOwner address of new owner\n     */\n    function changeOwner(address newOwner) public isOwner {\n        emit OwnerSet(owner, newOwner);\n        owner = newOwner;\n    }\n\n    /**\n     * @dev Return owner address \n     * @return address of owner\n     */\n    function getOwner() external view returns (address) {\n        return owner;\n    }\n}\n\ncontract UserInvite is Owner{ \n\n\n    \n    struct Invitation { \n        uint256 id;\n        uint256 invtype;\n    }\n    \n    event delinvitee (\n        string  msg\n        );\n        \n    event InvitationAdded(string msg);\n\n    mapping (uint256 => Invitation) internal invitationById;\n    uint[] internal invitees;\n    \n    modifier isInvited(uint256 _code, uint256 _id, uint256 _usertype) {\n        // If the first argument of 'require' evaluates to 'false', execution terminates and all\n        // changes to the state and to Ether balances are reverted.\n        // This used to consume all gas in old EVM versions, but not anymore.\n        // It is often a good idea to use 'require' to check if functions are called correctly.\n        // As a second argument, you can also provide an explanation about what went wrong.\n        require(invitationById[_code].id == _id && invitationById[_code].invtype == _usertype, \"Caller is not invited\");\n        _;\n    }\n\n    function find(uint256 value) private view returns(uint) {\n        uint256 i = 0;\n        while (invitees[i] != value) {\n            i++;\n        }\n        return i;\n    }\n\n    function removeByValue(uint256 value) private {\n        uint256 i = find(value);\n        removeByIndex(i);\n    }\n\n    function removeByIndex(uint256 i) private {\n            invitees[i] = invitees[invitees.length -1];\n            invitees.pop();\n        }\n    \n    \n    function addInvitation(uint256 _code, uint256 _id, uint256 _usertype) public isOwner { \n        require(invitationById[_code].id == 0, \"Already invitation code exists\");\n        invitationById[_code].id = _id;\n        invitationById[_code].invtype = _usertype;\n        \n        invitees.push(_id);\n        emit InvitationAdded(\"success\");\n    }\n    \n    function deleteInvitation(uint256 _code, uint256 _id) internal {\n         delete invitationById[_code];\n         removeByValue(_id);\n         emit delinvitee(\"deleted\");\n    }\n    \n    function getInvitations() public isOwner view returns (uint[] memory)  {\n        return invitees;\n    }\n    \n}\n\ncontract EmployeeBase is UserInvite { \n\n    struct Employee { \n        uint256 id;\n        uint256 empid; //empid provided by HR\n        uint256 maxfamilycount; //maximum number of family members that can register\n        uint256 initialCouponCount;\n        uint256 extraCouponCount;\n        bool active;\n    }\n\n    struct Family {\n      uint256 id;\n      uint256 empId;\n      uint256 count;\n      bool active;\n      uint256 activeMembers;\n    }\n\n    \n  \n  struct Member {\n      uint256 id;\n      uint256 empId;\n      uint256 familyId;\n      address owner;\n      uint256 initialCouponCount;\n      uint256 extraCouponCount;\n      bool active;\n   }\n    event empRegistration(uint256 employeesCounter, string msg);\n    event empFamilyRegistration(uint256 familyCounter, string msg);\n    event memberRegistration (uint256 memberCounter, string msg);\n    \n    uint256 employeesCounter;\n    uint256 familyCounter;\n    uint256 memberCounter;\n    \n    mapping (address => Employee) internal employees;\n    mapping (uint256 => address) internal employeeIndexToOwner;\n    mapping (uint256 => uint) internal employeeIDtoIndex;\n\n    //family\n    mapping(uint256 => Family) public EmployeeFamily;\n\n    //Family Member\n    mapping (address => Member) internal familyMembers;\n    mapping (uint256 => mapping(uint256 => Member )) EmployeeToFamilyMembers;\n    mapping (uint256 => Member[]) public EmployeeFamilyMembers;\n    mapping (address => uint256 ) memberAddressToEmployeeId;\n    uint[] public registeredEmployees;\n    \n    //Employee Coupons\n    mapping (uint256 => mapping(uint256 => uint[] )) internal EmployeeToCoupons;\n    \n    //Member Coupons\n    mapping (uint256 => mapping(uint256 => uint[] )) internal MemberToCoupons;\n    \n    //Employee Doctor Visit, e.g empDoctorVisists[601][0] = 1 (visitId)\n    mapping(address => uint[]) public empDoctorVisists;\n    \n    constructor() {\n        employeesCounter = 0;\n        memberCounter = 0;\n        familyCounter = 0;\n    }\n\n    function isEmployee(uint256 _type) private pure returns (bool) {\n        if (_type ==1) {\n            return true;\n        }\n        else {\n            return false;\n        }\n    }\n    \n    \n    modifier isRegisteredEmployee(address _address) {\n        // If the first argument of 'require' evaluates to 'false', execution terminates and all\n        // changes to the state and to Ether balances are reverted.\n        // This used to consume all gas in old EVM versions, but not anymore.\n        // It is often a good idea to use 'require' to check if functions are called correctly.\n        // As a second argument, you can also provide an explanation about what went wrong.\n        require(employees[_address].active == true, \"Employee Not Registered\");\n        _;\n    }\n    \n    modifier isNotRegistered(address _address) {\n        require(employees[_address].active == false, \"Employee  Registered\");\n        _;\n    }\n\n    //function can be called by User with an invitation on the system\n    function registerEmployee(uint256 _empid, uint256 _maxfamilycount, uint256 _code, uint256 _usertype ) public notOwner isInvited(_code,_empid, _usertype) isNotRegistered(msg.sender) {\n        require(isEmployee(_usertype), \"Not an employee type\");\n        employeesCounter ++;\n        employees[msg.sender] = Employee(employeesCounter, _empid, _maxfamilycount,0,0,true);\n        registeredEmployees.push(_empid);\n        employeeIndexToOwner[employeesCounter] = msg.sender;\n        employeeIDtoIndex[_empid] = employeesCounter;\n        deleteInvitation(_code,_empid);\n        registerFamily(_empid, _maxfamilycount, msg.sender);\n        emit empRegistration(employeesCounter, \"success\");\n    }\n\n    function getEmployee(address _address) internal view returns (Employee storage){\n        return( employees[_address]);\n    }\n    \n    function getMember(address _address) internal view returns (Member storage){\n        return( familyMembers[_address]);\n    }\n    \n\n    function registerFamily(uint256 _empId, uint256 _count, address _address) internal isRegisteredEmployee(_address) {\n        require(_count > 0, \"Family members should be more than 0\");\n        require(!familyExists(_empId), \"Family exists\");\n        familyCounter ++;\n        Family memory _family = Family(familyCounter, _empId, _count, true, 0);\n        EmployeeFamily[_empId] = _family;\n        \n        emit empFamilyRegistration(familyCounter, \"success\");\n\n    }\n\n    function registerFamilyMember(uint256 _empId,uint256 _familyId, address _address) public isRegisteredEmployee(msg.sender) {\n              memberCounter ++;\n              Member memory _member = Member(memberCounter, _empId, _familyId, _address,0,0, true);\n              familyMembers[_address] = _member;\n              EmployeeToFamilyMembers[_empId][memberCounter] = _member;\n              EmployeeFamilyMembers[_empId].push(_member);\n              memberAddressToEmployeeId[_address] = _empId;\n              Family memory _family = EmployeeFamily[_empId];\n              _family.activeMembers ++;\n              EmployeeFamily[_empId] = _family;\n              emit memberRegistration(memberCounter, \"success\");\n    }\n  \n  function familyExists(uint256 _empId) private view returns(bool){\n      if (EmployeeFamily[_empId].active == true ) {\n          return true;\n      }\n      else {\n          return false;\n      }\n      \n  }\n    \n}\n\ncontract DoctorBase is UserInvite { \n\n    struct Doctor { \n        uint256 id;\n        uint256 doctorid;\n        string specialty;\n        uint256 couponcoeficient;\n        bool active;\n    }\n    \n    uint256 internal doctorsCounter;\n    \n    mapping (address => Doctor) internal doctors;\n    mapping (uint256 => address) internal doctorIndexToOwner;\n    mapping (uint256 => bytes32) internal doctorIndexToKeyHash;\n    uint[] internal registeredDoctors;\n    \n    //events \n    event doctorregistration (uint256 id, string msg);\n    \n    constructor() {\n        doctorsCounter = 0;\n    }\n\n    function isDoctor(uint256 _type) private pure returns (bool) {\n        if (_type ==2) {\n            return true;\n        }\n        else {\n            return false;\n        }\n    }\n    \n    //function can be called by User with an invitation on the system\n    function registerDoctor(uint256 _doctorid, string memory _speciality, uint256 _code, uint256 _usertype, uint256 _couponcoeficient) public isInvited(_code,_doctorid, _usertype) notOwner{\n        require(isDoctor(_usertype), \"Not a Doctor type\");\n        doctorsCounter ++;\n        bytes32 _keyhash = sha256(abi.encodePacked(doctorsCounter+_doctorid));\n        doctorIndexToKeyHash[doctorsCounter] = _keyhash;\n        doctors[msg.sender] = Doctor(doctorsCounter, _doctorid, _speciality,_couponcoeficient, true);\n        registeredDoctors.push(_doctorid);\n        doctorIndexToOwner[_doctorid] = msg.sender;\n        deleteInvitation(_code,_doctorid);\n        emit doctorregistration(doctorsCounter, \"success\");\n    }\n\n    function getDoctor(address _address) internal view returns (uint, uint, string memory, uint256, bool ){\n        return( doctors[_address].doctorid, doctors[_address].id, doctors[_address].specialty ,doctors[_address].couponcoeficient,doctors[_address].active);\n    }\n    function getDoctor(uint256 _id) internal view returns(bytes32 _keyhash) {\n        return doctorIndexToKeyHash[_id];\n    }\n}\n\ncontract Coupon is Owner {\n    \n  address owner;\n  uint256 value;\n  uint256 empCouponMax;\n  uint256 couponPayAmount;\n  uint256 couponCount; \n  uint256 couponExchangedCount;\n  uint256 couponRedeemedCount;\n  uint256 couponPaidCount;\n  uint256 year;\n  \n  struct CouponPaper {\n    uint256 id;\n    address owner;\n    address beneficiary;\n    //add empID to track coupons for family members\n    uint256 value;\n    string status;\n    bool valid;\n    bool approved;\n  } \n  \n  event CouponPaperCreated(\n    uint256 id,\n    address owner,\n    bool valid,\n    string msg\n  );\n\n  event GlobalParametersSet(\n      uint256 value, \n      uint256 maxcoupons, \n      uint256 paidamount,\n      uint256 year,\n      string msg\n  );\n  \n  \n  mapping(uint256 => CouponPaper) internal coupons;\n  mapping(address => uint) internal ownershipToCouponCount;\n  //Filled when new coupon is created\n  mapping(uint256 => address) internal couponIndexToOwner;\n  //Filled when new coupon is exchanged\n  mapping(uint256 => address) internal couponIndexToOwnerExchanged;\n  //Filled when new coupon is redeemed\n  mapping(uint256 => address) internal couponIndexToOwnerRedeeemed;\n  //Track coupon status\n  mapping(uint256 => uint256) internal couponIndexToStatus;\n  \n  //Filled when a coupon is used in DoctorVisit\n  mapping(uint256 => bool) couponIndexToDoctorVisit;\n  \n  //Stores the balances to be paid for the employee;\n  mapping(address => uint) balances;\n  \n  constructor() {\n    owner = msg.sender;\n    couponCount = 0;\n    value = 1;\n    empCouponMax = 5;\n    couponPayAmount = 60000;\n  }\n  \n    function setGlobalParameters(uint256 _value, uint256 _maxcoupons, uint256 _paidamount,uint256 _year) public isOwner {\n        value = _value;\n        empCouponMax = _maxcoupons;\n        couponPayAmount = _paidamount;\n        year = _year;\n        emit GlobalParametersSet(value, empCouponMax, couponPayAmount, year, \"success\" );\n    }\n  \n\n    function issueCoupon(address _couponowner, address _couponbeneficiary ) internal returns(uint256 _couponId) {\n    couponCount ++;\n    coupons[couponCount] = CouponPaper(couponCount,_couponowner, _couponbeneficiary, value, \"created\", true, false);\n    ownershipToCouponCount[_couponowner] ++;\n    couponIndexToOwner[couponCount] = _couponowner;\n    couponIndexToStatus[couponCount] = 1;\n    emit CouponPaperCreated(couponCount, _couponowner, true, \"success\");\n    return couponCount;\n    \n    }\n    \n    function _transfer(address _from, address _to, uint256 _couponId) internal {\n        CouponPaper storage _coupon = coupons[_couponId];\n        _coupon.owner = _to;\n        ownershipToCouponCount[_to] ++;\n        ownershipToCouponCount[_from] --;\n        couponIndexToOwner[couponCount] = _to;\n    }\n\n    function _owns(address _address, uint256 _couponId) internal view returns (bool) {\n        return(coupons[_couponId].owner == _address);\n    }\n    \n    function _usedInDoctorVisit(uint256 _couponId) internal view returns (bool) {\n        return (couponIndexToDoctorVisit[_couponId]);\n    }\n    \n    function _isBeneficiary(address _address, uint256 _couponId) internal view returns (bool) {\n        return(coupons[_couponId].beneficiary == _address);\n    }\n    \n    //coupon status is exchanged\n    function _readyToBeRedeemed(uint256 _couponId) internal view returns (bool) {\n       return((couponIndexToOwnerExchanged[_couponId] > address(0)) && (couponIndexToStatus[_couponId] == 2));\n    }\n    \n  \n    function getCouponById(uint256 _couponId) public isOwner view returns(uint256 id, address, address, string memory status) { \n    \n        return (coupons[_couponId].id, coupons[_couponId].owner, coupons[_couponId].beneficiary, coupons[_couponId].status);\n    }\n    \n    function getCoupon(uint256 _couponId) internal isOwner view returns(CouponPaper storage){\n        return coupons[_couponId];\n    }\n\n    function couponBalanceOf(address _address) internal view returns (uint256 count) {\n        return ownershipToCouponCount[_address];\n    }\n\n    function totalCoupons() internal view returns (uint256 count) {\n        return couponCount;\n        \n    }\n\n    function totalCouponsByStatus(uint256 _status) internal view returns (uint256 countExchanged) {\n        require(_status < 5 && _status >0, \"Invalid status provided\");\n        //1 - created, 2- exchanged, 3-redeemed, 4-paid\n        if (_status == 1) return couponCount;\n        if (_status == 2) return couponExchangedCount;\n        if (_status == 3) return couponRedeemedCount;\n        if (_status == 4) return couponPaidCount;\n    }\n\n    function getCouponsByStatus(uint256 _status) external view returns (uint256[] memory statusCoupons) {\n        \n        uint256 count = totalCouponsByStatus(_status);\n        if (count == 0) {\n            return new uint256[](0);\n        }\n        else {\n            uint256[] memory result = new uint256[](count);\n            uint256 total = totalCoupons();\n            uint256 resultIndex = 0;\n            //we count all coupons\n            uint256 couponId;\n\n            for (couponId = 1; couponId <= total; couponId++) {\n                if (couponIndexToStatus[couponId] == _status) {\n                    result[resultIndex] = couponId;\n                    resultIndex++;\n                }\n            }\n\n            return result;\n        }\n\n    }\n\n    \n    function getCouponsByOwner(address _owner) external view returns (uint256[] memory ownerCoupons) {\n        uint256 count = couponBalanceOf(_owner);\n        if (count == 0) {\n            return new uint[](0);\n        }\n        else {\n            uint256[] memory result = new uint256[](count);\n            uint256 total = totalCoupons();\n            uint256 resultIndex = 0;\n            //we count all coupons\n            uint256 couponId;\n\n            for (couponId = 1; couponId <= total; couponId++) {\n                if (couponIndexToOwner[couponId] == _owner) {\n                    result[resultIndex] = couponId;\n                    resultIndex++;\n                }\n            }\n\n            return result;\n        }\n\n    }\n    \n    \n  \n  \n}\n\ncontract DoctorVisitBase {\n  uint256 public visitCount; \n\n  struct Visit {\n    uint256 id;\n    uint256 empId;\n    uint256 couponId;\n    uint256 doctorId;\n  }\n\n  event VisitCreated (\n    uint256 id,\n    uint256 empId,\n    uint256 couponId,\n    string msg\n  );\n\n  //visits  mapping incremental\n  mapping(uint256 => Visit) public visits;\n  //mapping visitDocumentIndex to Visit ID;\n  mapping (uint256 => uint) DoctorVisitIndexToDocumentId;\n\n  constructor() {\n    visitCount = 0;\n  }\n\n  function createVisit(uint256 _empId, uint256 _couponId, uint256 _doctorId) internal returns(uint256 visitId) {\n    visitCount ++;\n    Visit memory _visit;\n    _visit = Visit(visitCount, _empId, _couponId, _doctorId);\n    visits[visitCount] = _visit;\n    emit VisitCreated(visitCount, _empId, _couponId, \"success\");\n    return visits[visitCount].id;\n  }\n  \n  function getDoctorVisit(uint256 _visitid) public view returns (uint256 visitid, uint256 empid, uint256 couponid, uint256 doctorid) {\n      return (visits[_visitid].id,visits[_visitid].empId,visits[_visitid].couponId,visits[_visitid].doctorId);\n  }\n\n}\n\ncontract VisitDocumentBase is DoctorVisitBase { \n  uint256 public VisitDocumentCount;\n\n  struct VisitDoc { \n    uint256 id; \n    uint256 _doctorvisitId;\n    uint256 _empId;\n    bytes32 _docHash;\n    uint256 flag; //flag is one when created by the contract\n  }\n\n  event VisitDocumentAddition (\n    uint256 documentID,\n    string msg\n  );\n  mapping (uint256 => VisitDoc ) public VisitDocuments;\n  mapping (bytes32 => uint256 ) public VisitDocumentBasehash;\n  \n\n  constructor() {\n    VisitDocumentCount = 0;\n  }\n\n  function addVisitDocument(uint256 _doctorvisitId, uint256 _empId,bytes32 _docHash) internal returns(uint256 documentId) {\n     require(!_documentExists(_docHash), \"Document already exists\"); //check if document hash already exists\n        VisitDocumentCount ++;\n        VisitDocuments[VisitDocumentCount] = VisitDoc(VisitDocumentCount, _doctorvisitId, _empId, _docHash, 1);\n        VisitDocumentBasehash[_docHash] = VisitDocumentCount; \n        DoctorVisitIndexToDocumentId[_doctorvisitId] = VisitDocumentCount;\n        emit VisitDocumentAddition(VisitDocumentCount, \"success\");\n        return VisitDocuments[VisitDocumentCount].id;\n  }\n  \n  function _documentExists(bytes32 _docHash) public view returns (bool) {\n      if(VisitDocumentBasehash[_docHash] > 0) {\n        return true;\n      }\n      else {\n        return false;\n      }\n  }\n  \n}\n\n\n\ncontract EmployeeCore is Coupon,EmployeeBase,VisitDocumentBase {\n    \n    event EmployeeCouponGeneration(uint256 initialCouponCount, string msg);\n    event MemberCouponGeneration(uint256 initialCouponCount, string msg);\n    event couponExchanged(uint256 _couponId, string msg);\n    event doctorVisited(uint256 visitid, uint256 documentid, string msg);\n    event couponRedeemed(uint256 couponId, string msg);\n\n    \n    //get Employee info\n    function getEmployeeInfo(address _employee) external isRegisteredEmployee(msg.sender) view returns (Employee memory) {\n        return getEmployee(_employee);\n    }\n    //issue inital coupons\n    function employeeIssueCoupons() public isRegisteredEmployee(msg.sender) {\n        require((employees[msg.sender].initialCouponCount == 0), \"Initial Coupons already issued\");\n        Employee storage _employee = getEmployee(msg.sender);\n            for (uint256 i =1; i <= empCouponMax; i++)\n            {\n            //Employee is the owner and beneficiary of his initial coupons\n            EmployeeToCoupons[_employee.empid][year].push(issueCoupon(msg.sender,msg.sender));\n            _employee.initialCouponCount ++;\n            }\n            if ((_employee.initialCouponCount) == empCouponMax) {\n                emit EmployeeCouponGeneration(empCouponMax, \"success\");\n            }\n            else { \n                emit EmployeeCouponGeneration(_employee.initialCouponCount, \"failure\");\n            }\n        \n\n    }\n    \n    function employeeIssueMembersCoupons(address _memberaddress) public isRegisteredEmployee(msg.sender) {\n        require((familyMembers[_memberaddress].initialCouponCount == 0), \"Initial Coupons already issued\");\n        Member storage _member = getMember(_memberaddress);\n            for (uint256 i =1; i <= empCouponMax; i++)\n            {\n            //Employee is the owner and beneficiary of his initial coupons\n            MemberToCoupons[_member.id][year].push(issueCoupon(_memberaddress,msg.sender));\n            _member.initialCouponCount ++;\n            }\n            if ((_member.initialCouponCount) == empCouponMax) {\n                emit MemberCouponGeneration(empCouponMax, \"success\");\n            }\n            else { \n                emit MemberCouponGeneration(_member.initialCouponCount, \"failure\");\n            }\n        \n\n    }\n    \n     function exchangeCoupon(uint256 _couponId, address _owner) public isRegisteredEmployee(msg.sender) {\n        require(_owns(_owner, _couponId), \"Not the owner of the token\");\n         CouponPaper memory _coupon = coupons[_couponId]; \n         _coupon.status = \"Exchanged\";\n         //_coupon.beneficiary = _coupon.owner;\n         //_coupon.owner = owner;\n         coupons[_couponId] = _coupon;\n         couponIndexToStatus[_couponId] = 2;\n         couponExchangedCount ++;\n         couponIndexToOwnerExchanged[_couponId] = _owner;\n         couponIndexToOwner[_couponId];\n    }\n    \n    function redeemCoupon(uint256 _couponId, address _owner) public isRegisteredEmployee(msg.sender) {\n        require(_owns(_owner, _couponId), \"Not the owner of the token\");\n        require(_readyToBeRedeemed(_couponId), \"Coupon can not be redeemed\");\n         CouponPaper memory _coupon = coupons[_couponId]; \n         _coupon.status = \"Redeemed\";\n         couponIndexToStatus[couponCount] = 3;\n         couponExchangedCount --;\n         couponRedeemedCount ++;\n         //_coupon.beneficiary = owner;\n        coupons[_couponId] = _coupon;\n        couponIndexToOwnerRedeeemed[_couponId] = msg.sender;\n        delete couponIndexToOwnerExchanged[_couponId];\n        emit couponRedeemed(_couponId, \"success\");\n    }\n    \n    function visitDoctor(uint256 empid, uint256 couponid, uint256 doctorid, string memory _md5, address _address) public isRegisteredEmployee(msg.sender){\n            //employee should have a family relation with _address\n            //visit doctor\n            uint256 _visitId = createVisit(empid, couponid, doctorid);\n            couponIndexToDoctorVisit[couponid] = true;\n            empDoctorVisists[msg.sender].push(_visitId);\n            //submit document\n            bytes32 _docHash = sha256(bytes(_md5));\n            uint256 _documentId = addVisitDocument(doctorid, empid, _docHash);\n            // then exchange Coupon\n            exchangeCoupon(couponid, _address);\n            emit doctorVisited( _visitId, _documentId, \"success\");\n    }\n}\n\ncontract HRManager is Coupon,EmployeeBase,DoctorBase {\n    mapping(uint256 => bool) public couponIndexApproved;\n\n    event approveCoupon(uint256 couponid, string msg);\n    event paidCoupon(uint256 _couponId, string msg);\n   // event DoctorPricing(string msg);\n\n    function approveCouponRedemption(uint256 _couponId) public isOwner {\n        require(_readyToBeRedeemed(_couponId), \"Coupon can not be redeemed\");\n        require(!couponIndexApproved[_couponId], \"Coupon already approved\");\n        CouponPaper storage _coupon = coupons[_couponId]; \n         _coupon.approved = true;\n         couponIndexApproved[_couponId] = true;\n         emit approveCoupon(_couponId, \"success\");\n    }\n    \n    function prepareCouponPayment(uint256 _couponId) public isOwner {\n        CouponPaper storage _coupon = coupons[_couponId]; \n        _coupon.valid = false;\n        _coupon.status = \"Paid\";\n        _coupon.beneficiary = _coupon.owner;\n        _coupon.owner = owner;\n        couponIndexToStatus[couponCount] = 4;\n        couponRedeemedCount --;\n        couponPaidCount ++;\n        uint256 _balance = balances[_coupon.owner];\n        balances[_coupon.owner] = _balance + couponPayAmount;\n\n        emit paidCoupon(_couponId, \"success\");\n        \n    }\n}\n \ncontract MyNet is EmployeeCore,HRManager {\n    string name;\n\n    constructor() {\n        name = \"MyNet Contract is initialised\";\n    }\n\n    function getName() public view returns(string memory _name) {\n        return name;\n    }\n    \n    \n}\n",
  "sourcePath": "/Users/wissamdagher/Documents/dev/blockchain/CouponMedNet/src/contracts/UserManager.sol",
  "compiler": {
    "name": "solc",
    "version": "0.8.7+commit.e28d00a7.Emscripten.clang"
  },
  "schemaVersion": "3.4.1",
  "updatedAt": "2021-08-20T19:30:42.312Z",
  "devdoc": {
    "details": "Set & change owner",
    "kind": "dev",
    "methods": {
      "changeOwner(address)": {
        "details": "Change owner",
        "params": {
          "newOwner": "address of new owner"
        }
      },
      "constructor": {
        "details": "Set contract deployer as owner"
      },
      "getOwner()": {
        "details": "Return owner address ",
        "returns": {
          "_0": "address of owner"
        }
      }
    },
    "title": "Owner",
    "version": 1
  },
  "userdoc": {
    "kind": "user",
    "methods": {},
    "version": 1
  }
}