{
  "contractName": "OwnerContract",
  "abi": [
    {
      "inputs": [],
      "name": "creationTime",
      "outputs": [
        {
          "internalType": "uint256",
          "name": "",
          "type": "uint256"
        }
      ],
      "stateMutability": "view",
      "type": "function"
    },
    {
      "inputs": [],
      "name": "owner",
      "outputs": [
        {
          "internalType": "address",
          "name": "",
          "type": "address"
        }
      ],
      "stateMutability": "view",
      "type": "function"
    },
    {
      "inputs": [],
      "name": "disown",
      "outputs": [],
      "stateMutability": "nonpayable",
      "type": "function"
    }
  ],
  "bytecode": "0x6080604052336000806101000a81548173ffffffffffffffffffffffffffffffffffffffff021916908373ffffffffffffffffffffffffffffffffffffffff1602179055504260015534801561005457600080fd5b506103f5806100646000396000f3fe608060405234801561001057600080fd5b50600436106100415760003560e01c80631e9bf0da146100465780638da5cb5b14610050578063d8270dce1461006e575b600080fd5b61004e61008c565b005b610058610197565b6040516100659190610225565b60405180910390f35b6100766101bb565b6040516100839190610280565b60405180910390f35b60008054906101000a900473ffffffffffffffffffffffffffffffffffffffff168073ffffffffffffffffffffffffffffffffffffffff163373ffffffffffffffffffffffffffffffffffffffff161461011b576040517f08c379a000000000000000000000000000000000000000000000000000000000815260040161011290610260565b60405180910390fd5b62375f0060015461012c91906102ac565b8042101561016f576040517f08c379a000000000000000000000000000000000000000000000000000000000815260040161016690610240565b60405180910390fd5b6000806101000a81549073ffffffffffffffffffffffffffffffffffffffff02191690555050565b60008054906101000a900473ffffffffffffffffffffffffffffffffffffffff1681565b60015481565b6101ca81610302565b82525050565b60006101dd601a8361029b565b91506101e88261036d565b602082019050919050565b600061020060168361029b565b915061020b82610396565b602082019050919050565b61021f81610334565b82525050565b600060208201905061023a60008301846101c1565b92915050565b60006020820190508181036000830152610259816101d0565b9050919050565b60006020820190508181036000830152610279816101f3565b9050919050565b60006020820190506102956000830184610216565b92915050565b600082825260208201905092915050565b60006102b782610334565b91506102c283610334565b9250827fffffffffffffffffffffffffffffffffffffffffffffffffffffffffffffffff038211156102f7576102f661033e565b5b828201905092915050565b600061030d82610314565b9050919050565b600073ffffffffffffffffffffffffffffffffffffffff82169050919050565b6000819050919050565b7f4e487b7100000000000000000000000000000000000000000000000000000000600052601160045260246000fd5b7f46756e6374696f6e2063616c6c656420746f6f206561726c792e000000000000600082015250565b7f53656e646572206e6f7420617574686f72697a65642e0000000000000000000060008201525056fea26469706673582212200a41c6b454541e89a480479d8ff2585eb80704aaec873c4a1daa687fb446f19c64736f6c63430008050033",
  "immutableReferences": {},
  "source": "// SPDX-License-Identifier: GPL-3.0\npragma solidity >=0.7.0 <0.9.0;\n\ncontract OwnerContract {    address public owner = msg.sender;\n    uint public creationTime = block.timestamp;    modifier onlyBy(address _account) {\n        require(\n            msg.sender == _account,\n            \"Sender not authorized.\"\n        );\n        _;\n    }    modifier onlyAfter(uint _time) {\n        require(\n            block.timestamp >= _time,\n            \"Function called too early.\"\n        );\n        _;\n    }    function disown() public onlyBy(owner) onlyAfter(creationTime + 6 weeks) {\n        delete owner;\n    }}",
  "sourcePath": "/Users/wissamdagher/Documents/dev/blockchain/CouponMedNet/src/contracts/OwnerContract.sol",
  "compiler": {
    "name": "solc",
    "version": "0.8.5+commit.a4f2e591.Emscripten.clang"
  },
  "schemaVersion": "3.4.1",
  "updatedAt": "2021-06-17T18:17:50.037Z",
  "devdoc": {
    "kind": "dev",
    "methods": {},
    "version": 1
  },
  "userdoc": {
    "kind": "user",
    "methods": {},
    "version": 1
  }
}