{
  "contractName": "VisitDocument",
  "abi": [
    {
      "inputs": [],
      "stateMutability": "nonpayable",
      "type": "constructor"
    },
    {
      "anonymous": false,
      "inputs": [
        {
          "indexed": false,
          "internalType": "uint256",
          "name": "documentID",
          "type": "uint256"
        },
        {
          "indexed": false,
          "internalType": "string",
          "name": "msg",
          "type": "string"
        }
      ],
      "name": "VisitDocumentAddition",
      "type": "event"
    },
    {
      "inputs": [],
      "name": "visitDocumentCount",
      "outputs": [
        {
          "internalType": "uint256",
          "name": "",
          "type": "uint256"
        }
      ],
      "stateMutability": "view",
      "type": "function"
    },
    {
      "inputs": [
        {
          "internalType": "bytes32",
          "name": "",
          "type": "bytes32"
        }
      ],
      "name": "visitdocumenthash",
      "outputs": [
        {
          "internalType": "uint256",
          "name": "",
          "type": "uint256"
        }
      ],
      "stateMutability": "view",
      "type": "function"
    },
    {
      "inputs": [
        {
          "internalType": "uint256",
          "name": "",
          "type": "uint256"
        }
      ],
      "name": "visitdocuments",
      "outputs": [
        {
          "internalType": "uint256",
          "name": "id",
          "type": "uint256"
        },
        {
          "internalType": "uint256",
          "name": "_doctorvisitId",
          "type": "uint256"
        },
        {
          "internalType": "uint256",
          "name": "_empId",
          "type": "uint256"
        },
        {
          "internalType": "bytes32",
          "name": "_docHash",
          "type": "bytes32"
        },
        {
          "internalType": "uint256",
          "name": "flag",
          "type": "uint256"
        }
      ],
      "stateMutability": "view",
      "type": "function"
    },
    {
      "inputs": [
        {
          "internalType": "string",
          "name": "_name",
          "type": "string"
        }
      ],
      "name": "setName",
      "outputs": [],
      "stateMutability": "nonpayable",
      "type": "function"
    },
    {
      "inputs": [],
      "name": "getName",
      "outputs": [
        {
          "internalType": "string",
          "name": "",
          "type": "string"
        }
      ],
      "stateMutability": "view",
      "type": "function"
    },
    {
      "inputs": [
        {
          "internalType": "uint256",
          "name": "_doctorvisitId",
          "type": "uint256"
        },
        {
          "internalType": "uint256",
          "name": "_empId",
          "type": "uint256"
        },
        {
          "internalType": "bytes32",
          "name": "_docHash",
          "type": "bytes32"
        }
      ],
      "name": "addVisitDocument",
      "outputs": [],
      "stateMutability": "nonpayable",
      "type": "function"
    },
    {
      "inputs": [
        {
          "internalType": "uint256",
          "name": "_visitDocument",
          "type": "uint256"
        }
      ],
      "name": "validateVisitDocument",
      "outputs": [],
      "stateMutability": "nonpayable",
      "type": "function"
    },
    {
      "inputs": [
        {
          "internalType": "bytes32",
          "name": "_docHash",
          "type": "bytes32"
        }
      ],
      "name": "DocumentExists",
      "outputs": [
        {
          "internalType": "bool",
          "name": "",
          "type": "bool"
        }
      ],
      "stateMutability": "view",
      "type": "function"
    }
  ],
  "bytecode": "0x608060405234801561001057600080fd5b5060405180606001604052806022815260200162000c85602291396000908051906020019061004092919061008f565b5033600160006101000a81548173ffffffffffffffffffffffffffffffffffffffff021916908373ffffffffffffffffffffffffffffffffffffffff1602179055506000600281905550610193565b82805461009b90610132565b90600052602060002090601f0160209004810192826100bd5760008555610104565b82601f106100d657805160ff1916838001178555610104565b82800160010185558215610104579182015b828111156101035782518255916020019190600101906100e8565b5b5090506101119190610115565b5090565b5b8082111561012e576000816000905550600101610116565b5090565b6000600282049050600182168061014a57607f821691505b6020821081141561015e5761015d610164565b5b50919050565b7f4e487b7100000000000000000000000000000000000000000000000000000000600052602260045260246000fd5b610ae280620001a36000396000f3fe608060405234801561001057600080fd5b50600436106100885760003560e01c80635be797511161005b5780635be797511461012b578063bee075cb14610149578063c47f002714610165578063e709d9851461018157610088565b80630acfc5401461008d57806317d7de7c146100bd578063272235c8146100db5780634cecb69b1461010f575b600080fd5b6100a760048036038101906100a29190610551565b6101b1565b6040516100b49190610730565b60405180910390f35b6100c56101c9565b6040516100d2919061070e565b60405180910390f35b6100f560048036038101906100f091906105c7565b61025b565b6040516101069594939291906107a7565b60405180910390f35b610129600480360381019061012491906105c7565b610291565b005b610133610294565b6040516101409190610730565b60405180910390f35b610163600480360381019061015e91906105f4565b61029a565b005b61017f600480360381019061017a919061057e565b6103ca565b005b61019b60048036038101906101969190610551565b6103e4565b6040516101a891906106f3565b60405180910390f35b60046020528060005260406000206000915090505481565b6060600080546101d8906108ce565b80601f0160208091040260200160405190810160405280929190818152602001828054610204906108ce565b80156102515780601f1061022657610100808354040283529160200191610251565b820191906000526020600020905b81548152906001019060200180831161023457829003601f168201915b5050505050905090565b60036020528060005260406000206000915090508060000154908060010154908060020154908060030154908060040154905085565b50565b60025481565b6102a3816103e4565b61038b57600260008154809291906102ba90610931565b91905055506040518060a0016040528060025481526020018481526020018381526020018281526020016001815250600360006002548152602001908152602001600020600082015181600001556020820151816001015560408201518160020155606082015181600301556080820151816004015590505060025460046000838152602001908152602001600020819055507fae816f4de19251cce5dbafb46558bb67ace150a4cda551ce62d1ab8e117e243460025460405161037e919061074b565b60405180910390a16103c5565b7fae816f4de19251cce5dbafb46558bb67ace150a4cda551ce62d1ab8e117e24346002546040516103bc9190610779565b60405180910390a15b505050565b80600090805190602001906103e0929190610414565b5050565b6000806004600084815260200190815260200160002054111561040a576001905061040f565b600090505b919050565b828054610420906108ce565b90600052602060002090601f0160209004810192826104425760008555610489565b82601f1061045b57805160ff1916838001178555610489565b82800160010185558215610489579182015b8281111561048857825182559160200191906001019061046d565b5b509050610496919061049a565b5090565b5b808211156104b357600081600090555060010161049b565b5090565b60006104ca6104c58461081f565b6107fa565b9050828152602081018484840111156104e6576104e5610a0c565b5b6104f184828561088c565b509392505050565b60008135905061050881610a7e565b92915050565b600082601f83011261052357610522610a07565b5b81356105338482602086016104b7565b91505092915050565b60008135905061054b81610a95565b92915050565b60006020828403121561056757610566610a16565b5b6000610575848285016104f9565b91505092915050565b60006020828403121561059457610593610a16565b5b600082013567ffffffffffffffff8111156105b2576105b1610a11565b5b6105be8482850161050e565b91505092915050565b6000602082840312156105dd576105dc610a16565b5b60006105eb8482850161053c565b91505092915050565b60008060006060848603121561060d5761060c610a16565b5b600061061b8682870161053c565b935050602061062c8682870161053c565b925050604061063d868287016104f9565b9150509250925092565b6106508161086c565b82525050565b61065f81610878565b82525050565b600061067082610850565b61067a818561085b565b935061068a81856020860161089b565b61069381610a1b565b840191505092915050565b60006106ab60078361085b565b91506106b682610a2c565b602082019050919050565b60006106ce60078361085b565b91506106d982610a55565b602082019050919050565b6106ed81610882565b82525050565b60006020820190506107086000830184610647565b92915050565b600060208201905081810360008301526107288184610665565b905092915050565b600060208201905061074560008301846106e4565b92915050565b600060408201905061076060008301846106e4565b81810360208301526107718161069e565b905092915050565b600060408201905061078e60008301846106e4565b818103602083015261079f816106c1565b905092915050565b600060a0820190506107bc60008301886106e4565b6107c960208301876106e4565b6107d660408301866106e4565b6107e36060830185610656565b6107f060808301846106e4565b9695505050505050565b6000610804610815565b90506108108282610900565b919050565b6000604051905090565b600067ffffffffffffffff82111561083a576108396109d8565b5b61084382610a1b565b9050602081019050919050565b600081519050919050565b600082825260208201905092915050565b60008115159050919050565b6000819050919050565b6000819050919050565b82818337600083830152505050565b60005b838110156108b957808201518184015260208101905061089e565b838111156108c8576000848401525b50505050565b600060028204905060018216806108e657607f821691505b602082108114156108fa576108f96109a9565b5b50919050565b61090982610a1b565b810181811067ffffffffffffffff82111715610928576109276109d8565b5b80604052505050565b600061093c82610882565b91507fffffffffffffffffffffffffffffffffffffffffffffffffffffffffffffffff82141561096f5761096e61097a565b5b600182019050919050565b7f4e487b7100000000000000000000000000000000000000000000000000000000600052601160045260246000fd5b7f4e487b7100000000000000000000000000000000000000000000000000000000600052602260045260246000fd5b7f4e487b7100000000000000000000000000000000000000000000000000000000600052604160045260246000fd5b600080fd5b600080fd5b600080fd5b600080fd5b6000601f19601f8301169050919050565b7f7375636365737300000000000000000000000000000000000000000000000000600082015250565b7f6661696c75726500000000000000000000000000000000000000000000000000600082015250565b610a8781610878565b8114610a9257600080fd5b50565b610a9e81610882565b8114610aa957600080fd5b5056fea2646970667358221220ba598d4b42a54a607fbd0518001853b9dae7ec43b9b4994ab113f4bec93ea13e64736f6c634300080500335669736974446f63756d656e7420636f6e747261637420696e697469616c69736564",
  "immutableReferences": {},
  "source": "// SPDX-License-Identifier: GPL-3.0\npragma solidity >=0.7.0 <0.9.0;\n\ncontract VisitDocument { \n  string name;\n  address owner; \n  uint public visitDocumentCount;\n\n  struct VisitDoc { \n    uint id; \n    uint _doctorvisitId;\n    uint _empId;\n    bytes32 _docHash;\n    uint flag; //flag is one when created by the contract\n  }\n\n  event VisitDocumentAddition (\n    uint documentID,\n    string msg\n  );\n  mapping (uint => VisitDoc ) public visitdocuments;\n  mapping (bytes32 => uint ) public visitdocumenthash;\n\n  constructor() {\n    name = \"VisitDocument contract initialised\";\n    owner = msg.sender;\n    visitDocumentCount = 0;\n  }\n\n  function setName(string memory _name) public { \n    name = _name;\n  }\n\n  function getName() public view returns (string memory) {\n    return name;\n  }\n\n  function addVisitDocument(uint _doctorvisitId, uint _empId,bytes32 _docHash) public {\n    if (!DocumentExists(_docHash)) { //check if document hash already exists\n        visitDocumentCount ++;\n        visitdocuments[visitDocumentCount] = VisitDoc(visitDocumentCount, _doctorvisitId, _empId, _docHash, 1);\n        visitdocumenthash[_docHash] = visitDocumentCount; \n\n        emit VisitDocumentAddition(visitDocumentCount, \"success\");\n    } else {\n      emit VisitDocumentAddition(visitDocumentCount, \"failure\");\n    }\n  }\n\n  function validateVisitDocument(uint _visitDocument) public {\n    \n  }\n\n  function DocumentExists(bytes32 _docHash) public view returns(bool) {\n      if(visitdocumenthash[_docHash] > 0) {\n        return true;\n      }\n      else {\n        return false;\n      }\n  }\n  \n}",
  "sourcePath": "/Users/wissamdagher/Documents/Developer/blockchain/CouponMedNet/src/contracts/VisitDocument.sol",
  "compiler": {
    "name": "solc",
    "version": "0.8.5+commit.a4f2e591.Emscripten.clang"
  },
  "schemaVersion": "3.4.1",
  "updatedAt": "2021-06-16T20:24:06.039Z",
  "devdoc": {
    "kind": "dev",
    "methods": {},
    "version": 1
  },
  "userdoc": {
    "kind": "user",
    "methods": {},
    "version": 1
  }
}